{
  "address": "0x811b3939E08FE022fe4e8A4D4a917996ae316b63",
  "abi": [
    {
      "anonymous": false,
      "inputs": [
        {
          "indexed": false,
          "internalType": "address",
          "name": "previousAdmin",
          "type": "address"
        },
        {
          "indexed": false,
          "internalType": "address",
          "name": "newAdmin",
          "type": "address"
        }
      ],
      "name": "AdminChanged",
      "type": "event"
    },
    {
      "anonymous": false,
      "inputs": [
        {
          "indexed": true,
          "internalType": "uint256",
          "name": "_id",
          "type": "uint256"
        },
        {
          "indexed": true,
          "internalType": "address",
          "name": "_owner",
          "type": "address"
        },
        {
          "indexed": true,
          "internalType": "address",
          "name": "_spender",
          "type": "address"
        },
        {
          "indexed": false,
          "internalType": "uint256",
          "name": "_amount",
          "type": "uint256"
        }
      ],
      "name": "Approval",
      "type": "event"
    },
    {
      "anonymous": false,
      "inputs": [
        {
          "indexed": true,
          "internalType": "address",
          "name": "account",
          "type": "address"
        },
        {
          "indexed": true,
          "internalType": "address",
          "name": "operator",
          "type": "address"
        },
        {
          "indexed": false,
          "internalType": "bool",
          "name": "approved",
          "type": "bool"
        }
      ],
      "name": "ApprovalForAll",
      "type": "event"
    },
    {
      "anonymous": false,
      "inputs": [
        {
          "indexed": true,
          "internalType": "address",
          "name": "beacon",
          "type": "address"
        }
      ],
      "name": "BeaconUpgraded",
      "type": "event"
    },
    {
      "anonymous": false,
      "inputs": [
        {
          "indexed": true,
          "internalType": "uint256",
          "name": "_id",
          "type": "uint256"
        },
        {
          "indexed": true,
          "internalType": "address",
          "name": "_by",
          "type": "address"
        },
        {
          "indexed": true,
          "internalType": "address",
          "name": "_to",
          "type": "address"
        },
        {
          "indexed": false,
          "internalType": "uint256",
          "name": "_yieldClaimed",
          "type": "uint256"
        }
      ],
      "name": "ClaimYield",
      "type": "event"
    },
    {
      "anonymous": false,
      "inputs": [
        {
          "indexed": true,
          "internalType": "address",
          "name": "_by",
          "type": "address"
        },
        {
          "indexed": false,
          "internalType": "string",
          "name": "_value",
          "type": "string"
        }
      ],
      "name": "ContractURIUpdated",
      "type": "event"
    },
    {
      "anonymous": false,
      "inputs": [
        {
          "indexed": true,
          "internalType": "address",
          "name": "_by",
          "type": "address"
        },
        {
          "indexed": true,
          "internalType": "address",
          "name": "_contract",
          "type": "address"
        },
        {
          "indexed": true,
          "internalType": "bool",
          "name": "_isWhitelisted",
          "type": "bool"
        }
      ],
      "name": "ContractWhitelisted",
      "type": "event"
    },
    {
      "anonymous": false,
      "inputs": [
        {
          "indexed": false,
          "internalType": "uint8",
          "name": "version",
          "type": "uint8"
        }
      ],
      "name": "Initialized",
      "type": "event"
    },
    {
      "anonymous": false,
      "inputs": [
        {
          "indexed": true,
          "internalType": "address",
          "name": "_admin",
          "type": "address"
        }
      ],
      "name": "NewAdmin",
      "type": "event"
    },
    {
      "anonymous": false,
      "inputs": [
        {
          "indexed": true,
          "internalType": "uint256",
          "name": "_id",
          "type": "uint256"
        },
        {
          "indexed": true,
          "internalType": "address",
          "name": "_depositor",
          "type": "address"
        },
        {
          "indexed": false,
          "internalType": "uint256",
          "name": "_amount",
          "type": "uint256"
        },
        {
          "indexed": false,
          "internalType": "uint128",
          "name": "_unlockStart",
          "type": "uint128"
        },
        {
          "indexed": false,
          "internalType": "uint128",
          "name": "_unlockEnd",
          "type": "uint128"
        }
      ],
      "name": "NewDeposit",
      "type": "event"
    },
    {
      "anonymous": false,
      "inputs": [
        {
          "indexed": true,
          "internalType": "address",
          "name": "_previousOwner",
          "type": "address"
        },
        {
          "indexed": true,
          "internalType": "address",
          "name": "_newOwner",
          "type": "address"
        }
      ],
      "name": "OwnershipTransferred",
      "type": "event"
    },
    {
      "anonymous": false,
      "inputs": [
        {
          "indexed": true,
          "internalType": "uint256",
          "name": "_id",
          "type": "uint256"
        },
        {
          "indexed": true,
          "internalType": "address",
          "name": "_originAccount",
          "type": "address"
        },
        {
          "indexed": true,
          "internalType": "address",
          "name": "_burner",
          "type": "address"
        },
        {
          "indexed": false,
          "internalType": "uint256",
          "name": "_amount",
          "type": "uint256"
        }
      ],
      "name": "RealEstateNFTBurned",
      "type": "event"
    },
    {
      "anonymous": false,
      "inputs": [
        {
          "indexed": true,
          "internalType": "uint256",
          "name": "_id",
          "type": "uint256"
        },
        {
          "indexed": true,
          "internalType": "address",
          "name": "_minter",
          "type": "address"
        },
        {
          "indexed": true,
          "internalType": "address",
          "name": "_to",
          "type": "address"
        },
        {
          "indexed": false,
          "internalType": "uint256",
          "name": "_amount",
          "type": "uint256"
        }
      ],
      "name": "RealEstateNFTMinted",
      "type": "event"
    },
    {
      "anonymous": false,
      "inputs": [
        {
          "indexed": true,
          "internalType": "address",
          "name": "_by",
          "type": "address"
        },
        {
          "indexed": true,
          "internalType": "address",
          "name": "_burner",
          "type": "address"
        }
      ],
      "name": "SetBurner",
      "type": "event"
    },
    {
      "anonymous": false,
      "inputs": [
        {
          "indexed": true,
          "internalType": "address",
          "name": "_by",
          "type": "address"
        },
        {
          "indexed": true,
          "internalType": "address",
          "name": "_receiver",
          "type": "address"
        },
        {
          "indexed": false,
          "internalType": "uint96",
          "name": "_feeNumerator",
          "type": "uint96"
        }
      ],
      "name": "SetDefaultRoyalties",
      "type": "event"
    },
    {
      "anonymous": false,
      "inputs": [
        {
          "indexed": true,
          "internalType": "address",
          "name": "_by",
          "type": "address"
        },
        {
          "indexed": true,
          "internalType": "address",
          "name": "_depositor",
          "type": "address"
        }
      ],
      "name": "SetDepositor",
      "type": "event"
    },
    {
      "anonymous": false,
      "inputs": [
        {
          "indexed": true,
          "internalType": "address",
          "name": "_by",
          "type": "address"
        },
        {
          "indexed": true,
          "internalType": "address",
          "name": "_minter",
          "type": "address"
        }
      ],
      "name": "SetMinter",
      "type": "event"
    },
    {
      "anonymous": false,
      "inputs": [
        {
          "indexed": true,
          "internalType": "address",
          "name": "_by",
          "type": "address"
        },
        {
          "indexed": true,
          "internalType": "uint256",
          "name": "_tokenId",
          "type": "uint256"
        },
        {
          "indexed": true,
          "internalType": "address",
          "name": "_receiver",
          "type": "address"
        },
        {
          "indexed": false,
          "internalType": "uint96",
          "name": "_feeNumerator",
          "type": "uint96"
        }
      ],
      "name": "SetTokenRoyalty",
      "type": "event"
    },
    {
      "anonymous": false,
      "inputs": [
        {
          "indexed": true,
          "internalType": "address",
          "name": "operator",
          "type": "address"
        },
        {
          "indexed": true,
          "internalType": "address",
          "name": "from",
          "type": "address"
        },
        {
          "indexed": true,
          "internalType": "address",
          "name": "to",
          "type": "address"
        },
        {
          "indexed": false,
          "internalType": "uint256[]",
          "name": "ids",
          "type": "uint256[]"
        },
        {
          "indexed": false,
          "internalType": "uint256[]",
          "name": "values",
          "type": "uint256[]"
        }
      ],
      "name": "TransferBatch",
      "type": "event"
    },
    {
      "anonymous": false,
      "inputs": [
        {
          "indexed": true,
          "internalType": "address",
          "name": "operator",
          "type": "address"
        },
        {
          "indexed": true,
          "internalType": "address",
          "name": "from",
          "type": "address"
        },
        {
          "indexed": true,
          "internalType": "address",
          "name": "to",
          "type": "address"
        },
        {
          "indexed": false,
          "internalType": "uint256",
          "name": "id",
          "type": "uint256"
        },
        {
          "indexed": false,
          "internalType": "uint256",
          "name": "value",
          "type": "uint256"
        }
      ],
      "name": "TransferSingle",
      "type": "event"
    },
    {
      "anonymous": false,
      "inputs": [
        {
          "indexed": false,
          "internalType": "string",
          "name": "value",
          "type": "string"
        },
        {
          "indexed": true,
          "internalType": "uint256",
          "name": "id",
          "type": "uint256"
        }
      ],
      "name": "URI",
      "type": "event"
    },
    {
      "anonymous": false,
      "inputs": [
        {
          "indexed": true,
          "internalType": "address",
          "name": "implementation",
          "type": "address"
        }
      ],
      "name": "Upgraded",
      "type": "event"
    },
    {
      "inputs": [],
      "name": "admin",
      "outputs": [
        {
          "internalType": "address",
          "name": "",
          "type": "address"
        }
      ],
      "stateMutability": "view",
      "type": "function"
    },
    {
      "inputs": [
        {
          "internalType": "uint256",
          "name": "_tokenId",
          "type": "uint256"
        },
        {
          "internalType": "address",
          "name": "_spender",
          "type": "address"
        },
        {
          "internalType": "uint256",
          "name": "_amount",
          "type": "uint256"
        }
      ],
      "name": "approve",
      "outputs": [
        {
          "internalType": "bool",
          "name": "",
          "type": "bool"
        }
      ],
      "stateMutability": "nonpayable",
      "type": "function"
    },
    {
      "inputs": [
        {
          "internalType": "address",
          "name": "account",
          "type": "address"
        },
        {
          "internalType": "uint256",
          "name": "id",
          "type": "uint256"
        }
      ],
      "name": "balanceOf",
      "outputs": [
        {
          "internalType": "uint256",
          "name": "",
          "type": "uint256"
        }
      ],
      "stateMutability": "view",
      "type": "function"
    },
    {
      "inputs": [
        {
          "internalType": "address[]",
          "name": "accounts",
          "type": "address[]"
        },
        {
          "internalType": "uint256[]",
          "name": "ids",
          "type": "uint256[]"
        }
      ],
      "name": "balanceOfBatch",
      "outputs": [
        {
          "internalType": "uint256[]",
          "name": "",
          "type": "uint256[]"
        }
      ],
      "stateMutability": "view",
      "type": "function"
    },
    {
      "inputs": [],
      "name": "baseURI",
      "outputs": [
        {
          "internalType": "string",
          "name": "",
          "type": "string"
        }
      ],
      "stateMutability": "view",
      "type": "function"
    },
    {
      "inputs": [
        {
          "internalType": "uint256",
          "name": "_id",
          "type": "uint256"
        },
        {
          "internalType": "address",
          "name": "_originAccount",
          "type": "address"
        },
        {
          "internalType": "uint256",
          "name": "_amount",
          "type": "uint256"
        }
      ],
      "name": "burn",
      "outputs": [],
      "stateMutability": "nonpayable",
      "type": "function"
    },
    {
      "inputs": [],
      "name": "burner",
      "outputs": [
        {
          "internalType": "address",
          "name": "",
          "type": "address"
        }
      ],
      "stateMutability": "view",
      "type": "function"
    },
    {
      "inputs": [
        {
          "internalType": "uint256",
          "name": "_id",
          "type": "uint256"
        },
        {
          "internalType": "address",
          "name": "_to",
          "type": "address"
        }
      ],
      "name": "claimYield",
      "outputs": [],
      "stateMutability": "nonpayable",
      "type": "function"
    },
    {
      "inputs": [],
      "name": "contractURI",
      "outputs": [
        {
          "internalType": "string",
          "name": "",
          "type": "string"
        }
      ],
      "stateMutability": "view",
      "type": "function"
    },
    {
      "inputs": [
        {
          "internalType": "uint256",
          "name": "_id",
          "type": "uint256"
        },
        {
          "internalType": "uint256",
          "name": "_amount",
          "type": "uint256"
        },
        {
          "internalType": "uint128",
          "name": "_duration",
          "type": "uint128"
        },
        {
          "internalType": "uint128",
          "name": "_startOffset",
          "type": "uint128"
        }
      ],
      "name": "deposit",
      "outputs": [],
      "stateMutability": "nonpayable",
      "type": "function"
    },
    {
      "inputs": [],
      "name": "depositor",
      "outputs": [
        {
          "internalType": "address",
          "name": "",
          "type": "address"
        }
      ],
      "stateMutability": "view",
      "type": "function"
    },
    {
      "inputs": [
        {
          "internalType": "address",
          "name": "_address",
          "type": "address"
        }
      ],
      "name": "eligibleForYields",
      "outputs": [
        {
          "internalType": "bool",
          "name": "",
          "type": "bool"
        }
      ],
      "stateMutability": "view",
      "type": "function"
    },
    {
      "inputs": [
        {
          "internalType": "uint256",
          "name": "id",
          "type": "uint256"
        }
      ],
      "name": "exists",
      "outputs": [
        {
          "internalType": "bool",
          "name": "",
          "type": "bool"
        }
      ],
      "stateMutability": "view",
      "type": "function"
    },
    {
      "inputs": [],
      "name": "feeDenominator",
      "outputs": [
        {
          "internalType": "uint256",
          "name": "",
          "type": "uint256"
        }
      ],
      "stateMutability": "pure",
      "type": "function"
    },
    {
      "inputs": [],
      "name": "implementation",
      "outputs": [
        {
          "internalType": "address",
          "name": "",
          "type": "address"
        }
      ],
      "stateMutability": "view",
      "type": "function"
    },
    {
      "inputs": [
        {
          "internalType": "string",
          "name": "_uri",
          "type": "string"
        },
        {
          "internalType": "address",
          "name": "_admin",
          "type": "address"
        },
        {
          "internalType": "address",
          "name": "_owner",
          "type": "address"
        },
        {
          "internalType": "address",
          "name": "_yieldCurrency",
          "type": "address"
        }
      ],
      "name": "initialize",
      "outputs": [],
      "stateMutability": "nonpayable",
      "type": "function"
    },
    {
      "inputs": [
        {
          "internalType": "address",
          "name": "account",
          "type": "address"
        },
        {
          "internalType": "address",
          "name": "operator",
          "type": "address"
        }
      ],
      "name": "isApprovedForAll",
      "outputs": [
        {
          "internalType": "bool",
          "name": "",
          "type": "bool"
        }
      ],
      "stateMutability": "view",
      "type": "function"
    },
    {
      "inputs": [
        {
          "internalType": "address",
          "name": "_contract",
          "type": "address"
        }
      ],
      "name": "isContractWhitelisted",
      "outputs": [
        {
          "internalType": "bool",
          "name": "",
          "type": "bool"
        }
      ],
      "stateMutability": "view",
      "type": "function"
    },
    {
      "inputs": [
        {
          "internalType": "address",
          "name": "_addr",
          "type": "address"
        }
      ],
      "name": "isOwner",
      "outputs": [
        {
          "internalType": "bool",
          "name": "",
          "type": "bool"
        }
      ],
      "stateMutability": "view",
      "type": "function"
    },
    {
      "inputs": [
        {
          "internalType": "uint256",
          "name": "_id",
          "type": "uint256"
        },
        {
          "internalType": "address",
          "name": "_to",
          "type": "address"
        },
        {
          "internalType": "uint256",
          "name": "_amount",
          "type": "uint256"
        }
      ],
      "name": "mint",
      "outputs": [],
      "stateMutability": "nonpayable",
      "type": "function"
    },
    {
      "inputs": [],
      "name": "minter",
      "outputs": [
        {
          "internalType": "address",
          "name": "",
          "type": "address"
        }
      ],
      "stateMutability": "view",
      "type": "function"
    },
    {
      "inputs": [],
      "name": "name",
      "outputs": [
        {
          "internalType": "string",
          "name": "",
          "type": "string"
        }
      ],
      "stateMutability": "pure",
      "type": "function"
    },
    {
      "inputs": [],
      "name": "nextRealEstateId",
      "outputs": [
        {
          "internalType": "uint256",
          "name": "",
          "type": "uint256"
        }
      ],
      "stateMutability": "view",
      "type": "function"
    },
    {
      "inputs": [],
      "name": "now128",
      "outputs": [
        {
          "internalType": "uint128",
          "name": "",
          "type": "uint128"
        }
      ],
      "stateMutability": "view",
      "type": "function"
    },
    {
      "inputs": [],
      "name": "owner",
      "outputs": [
        {
          "internalType": "address",
          "name": "",
          "type": "address"
        }
      ],
      "stateMutability": "view",
      "type": "function"
    },
    {
      "inputs": [
        {
          "internalType": "uint256",
          "name": "_id",
          "type": "uint256"
        },
        {
          "internalType": "address",
          "name": "_account",
          "type": "address"
        }
      ],
      "name": "pendingYield",
      "outputs": [
        {
          "internalType": "uint256",
          "name": "",
          "type": "uint256"
        }
      ],
      "stateMutability": "view",
      "type": "function"
    },
    {
      "inputs": [],
      "name": "proxiableUUID",
      "outputs": [
        {
          "internalType": "bytes32",
          "name": "",
          "type": "bytes32"
        }
      ],
      "stateMutability": "view",
      "type": "function"
    },
    {
      "inputs": [
        {
          "internalType": "uint256",
          "name": "_tokenId",
          "type": "uint256"
        },
        {
          "internalType": "uint256",
          "name": "_salePrice",
          "type": "uint256"
        }
      ],
      "name": "royaltyInfo",
      "outputs": [
        {
          "internalType": "address",
          "name": "",
          "type": "address"
        },
        {
          "internalType": "uint256",
          "name": "",
          "type": "uint256"
        }
      ],
      "stateMutability": "view",
      "type": "function"
    },
    {
      "inputs": [
        {
          "internalType": "address",
          "name": "_from",
          "type": "address"
        },
        {
          "internalType": "address",
          "name": "_to",
          "type": "address"
        },
        {
          "internalType": "uint256[]",
          "name": "_ids",
          "type": "uint256[]"
        },
        {
          "internalType": "uint256[]",
          "name": "_amounts",
          "type": "uint256[]"
        },
        {
          "internalType": "bytes",
          "name": "_data",
          "type": "bytes"
        }
      ],
      "name": "safeBatchTransferFrom",
      "outputs": [],
      "stateMutability": "nonpayable",
      "type": "function"
    },
    {
      "inputs": [
        {
          "internalType": "address",
          "name": "_from",
          "type": "address"
        },
        {
          "internalType": "address",
          "name": "_to",
          "type": "address"
        },
        {
          "internalType": "uint256",
          "name": "_id",
          "type": "uint256"
        },
        {
          "internalType": "uint256",
          "name": "_amount",
          "type": "uint256"
        },
        {
          "internalType": "bytes",
          "name": "_data",
          "type": "bytes"
        }
      ],
      "name": "safeTransferFrom",
      "outputs": [],
      "stateMutability": "nonpayable",
      "type": "function"
    },
    {
      "inputs": [
        {
          "internalType": "address",
          "name": "_admin",
          "type": "address"
        }
      ],
      "name": "setAdmin",
      "outputs": [],
      "stateMutability": "nonpayable",
      "type": "function"
    },
    {
      "inputs": [
        {
          "internalType": "address",
          "name": "operator",
          "type": "address"
        },
        {
          "internalType": "bool",
          "name": "approved",
          "type": "bool"
        }
      ],
      "name": "setApprovalForAll",
      "outputs": [],
      "stateMutability": "nonpayable",
      "type": "function"
    },
    {
      "inputs": [
        {
          "internalType": "string",
          "name": "baseURI_",
          "type": "string"
        }
      ],
      "name": "setBaseURI",
      "outputs": [],
      "stateMutability": "nonpayable",
      "type": "function"
    },
    {
      "inputs": [
        {
          "internalType": "address",
          "name": "_burner",
          "type": "address"
        }
      ],
      "name": "setBurner",
      "outputs": [],
      "stateMutability": "nonpayable",
      "type": "function"
    },
    {
      "inputs": [
        {
          "internalType": "string",
          "name": "_contractURI",
          "type": "string"
        }
      ],
      "name": "setContractURI",
      "outputs": [],
      "stateMutability": "nonpayable",
      "type": "function"
    },
    {
      "inputs": [
        {
          "internalType": "address",
          "name": "_receiver",
          "type": "address"
        },
        {
          "internalType": "uint96",
          "name": "_feeNumerator",
          "type": "uint96"
        }
      ],
      "name": "setDefaultRoyalty",
      "outputs": [],
      "stateMutability": "nonpayable",
      "type": "function"
    },
    {
      "inputs": [
        {
          "internalType": "address",
          "name": "_depositor",
          "type": "address"
        }
      ],
      "name": "setDepositor",
      "outputs": [],
      "stateMutability": "nonpayable",
      "type": "function"
    },
    {
      "inputs": [
        {
          "internalType": "address",
          "name": "_minter",
          "type": "address"
        }
      ],
      "name": "setMinter",
      "outputs": [],
      "stateMutability": "nonpayable",
      "type": "function"
    },
    {
      "inputs": [
        {
          "internalType": "uint256",
          "name": "_tokenId",
          "type": "uint256"
        },
        {
          "internalType": "address",
          "name": "_receiver",
          "type": "address"
        },
        {
          "internalType": "uint96",
          "name": "_feeNumerator",
          "type": "uint96"
        }
      ],
      "name": "setTokenRoyalty",
      "outputs": [],
      "stateMutability": "nonpayable",
      "type": "function"
    },
    {
      "inputs": [
        {
          "internalType": "string",
          "name": "_tokenURI",
          "type": "string"
        }
      ],
      "name": "setURI",
      "outputs": [],
      "stateMutability": "nonpayable",
      "type": "function"
    },
    {
      "inputs": [
        {
          "internalType": "bytes4",
          "name": "interfaceId",
          "type": "bytes4"
        }
      ],
      "name": "supportsInterface",
      "outputs": [
        {
          "internalType": "bool",
          "name": "",
          "type": "bool"
        }
      ],
      "stateMutability": "view",
      "type": "function"
    },
    {
      "inputs": [],
      "name": "symbol",
      "outputs": [
        {
          "internalType": "string",
          "name": "",
          "type": "string"
        }
      ],
      "stateMutability": "pure",
      "type": "function"
    },
    {
      "inputs": [
        {
          "internalType": "address",
          "name": "_contract",
          "type": "address"
        },
        {
          "internalType": "bool",
          "name": "_whitelisted",
          "type": "bool"
        }
      ],
      "name": "toggleWhitelistContract",
      "outputs": [],
      "stateMutability": "nonpayable",
      "type": "function"
    },
    {
      "inputs": [
        {
          "internalType": "uint256",
          "name": "id",
          "type": "uint256"
        }
      ],
      "name": "totalSupply",
      "outputs": [
        {
          "internalType": "uint256",
          "name": "",
          "type": "uint256"
        }
      ],
      "stateMutability": "view",
      "type": "function"
    },
    {
      "inputs": [
        {
          "internalType": "address",
          "name": "_owner",
          "type": "address"
        }
      ],
      "name": "transferOwnership",
      "outputs": [],
      "stateMutability": "nonpayable",
      "type": "function"
    },
    {
      "inputs": [
        {
          "internalType": "address",
          "name": "newImplementation",
          "type": "address"
        }
      ],
      "name": "upgradeTo",
      "outputs": [],
      "stateMutability": "nonpayable",
      "type": "function"
    },
    {
      "inputs": [
        {
          "internalType": "address",
          "name": "newImplementation",
          "type": "address"
        },
        {
          "internalType": "bytes",
          "name": "data",
          "type": "bytes"
        }
      ],
      "name": "upgradeToAndCall",
      "outputs": [],
      "stateMutability": "payable",
      "type": "function"
    },
    {
      "inputs": [
        {
          "internalType": "uint256",
          "name": "_tokenId",
          "type": "uint256"
        }
      ],
      "name": "uri",
      "outputs": [
        {
          "internalType": "string",
          "name": "",
          "type": "string"
        }
      ],
      "stateMutability": "view",
      "type": "function"
    },
    {
      "inputs": [
        {
          "internalType": "uint256",
          "name": "",
          "type": "uint256"
        },
        {
          "internalType": "address",
          "name": "",
          "type": "address"
        }
      ],
      "name": "yieldBalance",
      "outputs": [
        {
          "internalType": "uint256",
          "name": "",
          "type": "uint256"
        }
      ],
      "stateMutability": "view",
      "type": "function"
    },
    {
      "inputs": [],
      "name": "yieldCurrency",
      "outputs": [
        {
          "internalType": "address",
          "name": "",
          "type": "address"
        }
      ],
      "stateMutability": "view",
      "type": "function"
    },
    {
      "inputs": [
        {
          "internalType": "uint256",
          "name": "_id",
          "type": "uint256"
        }
      ],
      "name": "yieldPerToken",
      "outputs": [
        {
          "internalType": "uint256",
          "name": "",
          "type": "uint256"
        }
      ],
      "stateMutability": "view",
      "type": "function"
    },
    {
      "inputs": [
        {
          "internalType": "uint256",
          "name": "",
          "type": "uint256"
        },
        {
          "internalType": "address",
          "name": "",
          "type": "address"
        }
      ],
      "name": "yieldPerTokenClaimed",
      "outputs": [
        {
          "internalType": "uint256",
          "name": "",
          "type": "uint256"
        }
      ],
      "stateMutability": "view",
      "type": "function"
    }
  ],
  "transactionHash": "0xaebcda66542b2a2351c8d3bc875bab4faeb43715edcdf2b82c4a290344e5203b",
  "args": [],
  "numDeployments": 1,
  "solcInputHash": "2831fa300ab05e3c9bfab191d86cab1c",
  "bytecode": "0x60a06040523060805234801561001457600080fd5b50608051614bd561004c600039600081816110ea0152818161112a0152818161136c015281816113ac01526114280152614bd56000f3fe6080604052600436106102fe5760003560e01c80636c0360eb11610190578063bd85b039116100dc578063f2c098b711610095578063f851a4401161006f578063f851a440146109de578063fc2f3d82146109ff578063fca3b5aa14610a1f578063fe18c0ed14610a3f57600080fd5b8063f2c098b71461097e578063f2fde38b1461099e578063f34822b4146109be57600080fd5b8063bd85b03914610891578063c057058a146108bf578063c7c4ff46146108df578063e8a3d48514610900578063e985e9c514610915578063f242432a1461095e57600080fd5b80638da5cb5b116101495780639eea5f66116101235780639eea5f66146107f8578063a22cb46514610818578063a996d6ce14610838578063b90360951461085857600080fd5b80638da5cb5b14610789578063938e3d7b146107aa57806395d89b41146107ca57600080fd5b80636c0360eb146106cf578063704b6c02146106e45780637b2c9279146107045780637dc835cf14610725578063836a1040146107495780638cb0a5111461076957600080fd5b80632a55205a1161024f5780634f1ef2861161020857806355f804b3116101e257806355f804b3146106415780635944c753146106615780635c60da1b146106815780635df65cf81461069657600080fd5b80634f1ef286146105e95780634f558e79146105fc57806352d1902d1461062c57600080fd5b80632a55205a146104ed5780632eb2c2d61461052c5780632f54bf6e1461054c5780633659cfe61461057c5780634cd14dc61461059c5780634e1273f4146105bc57600080fd5b806307546172116102bc5780631711a427116102965780631711a42714610477578063180b0d7e14610497578063204a896a146104ac57806327810b6e146104cc57600080fd5b806307546172146104095780630e89341c146104425780631579c1331461046257600080fd5b8062fdd58e146103035780630107cb301461033657806301ffc9a71461035657806302fe53051461038657806304634d8d146103a857806306fdde03146103c8575b600080fd5b34801561030f57600080fd5b5061032361031e366004613dab565b610a5f565b6040519081526020015b60405180910390f35b34801561034257600080fd5b50610323610351366004613dd5565b610afa565b34801561036257600080fd5b50610376610371366004613e04565b610b8a565b604051901515815260200161032d565b34801561039257600080fd5b506103a66103a1366004613ed6565b610baf565b005b3480156103b457600080fd5b506103a66103c3366004613f21565b610bef565b3480156103d457600080fd5b5060408051808201909152600f81526e1499585b08115cdd185d1948139195608a1b60208201525b60405161032d9190613fa4565b34801561041557600080fd5b506101c35461042a906001600160a01b031681565b6040516001600160a01b03909116815260200161032d565b34801561044e57600080fd5b506103fc61045d366004613dd5565b610c7a565b34801561046e57600080fd5b50610323610cd3565b34801561048357600080fd5b506103a6610492366004613fc5565b610ce4565b3480156104a357600080fd5b50612710610323565b3480156104b857600080fd5b506103766104c7366004613ffc565b610e11565b3480156104d857600080fd5b506101c45461042a906001600160a01b031681565b3480156104f957600080fd5b5061050d610508366004614017565b610e60565b604080516001600160a01b03909316835260208301919091520161032d565b34801561053857600080fd5b506103a66105473660046140cd565b610f0c565b34801561055857600080fd5b50610376610567366004613ffc565b610191546001600160a01b0391821691161490565b34801561058857600080fd5b506103a6610597366004613ffc565b6110e0565b3480156105a857600080fd5b506103a66105b7366004614176565b6111a5565b3480156105c857600080fd5b506105dc6105d7366004614199565b611239565b60405161032d919061429e565b6103a66105f73660046142b1565b611362565b34801561060857600080fd5b50610376610617366004613dd5565b600090815261012d6020526040902054151590565b34801561063857600080fd5b5061032361141b565b34801561064d57600080fd5b506103a661065c366004613ed6565b6114cf565b34801561066d57600080fd5b506103a661067c3660046142f4565b61150c565b34801561068d57600080fd5b5061042a611593565b3480156106a257600080fd5b506103236106b1366004614176565b6101ca60209081526000928352604080842090915290825290205481565b3480156106db57600080fd5b506103fc61159d565b3480156106f057600080fd5b506103a66106ff366004613ffc565b61162c565b34801561071057600080fd5b506101c75461042a906001600160a01b031681565b34801561073157600080fd5b506040516001600160801b034216815260200161032d565b34801561075557600080fd5b506103a6610764366004614330565b6116fb565b34801561077557600080fd5b50610376610784366004614330565b611844565b34801561079557600080fd5b506101915461042a906001600160a01b031681565b3480156107b657600080fd5b506103a66107c5366004613ed6565b611860565b3480156107d657600080fd5b506040805180820190915260058152641c9953919560da1b60208201526103fc565b34801561080457600080fd5b506103a6610813366004614330565b6118e6565b34801561082457600080fd5b506103a6610833366004613fc5565b611990565b34801561084457600080fd5b506103a6610853366004613ffc565b61199b565b34801561086457600080fd5b50610323610873366004614176565b6101c960209081526000928352604080842090915290825290205481565b34801561089d57600080fd5b506103236108ac366004613dd5565b600090815261012d602052604090205490565b3480156108cb57600080fd5b506103766108da366004613ffc565b611a68565b3480156108eb57600080fd5b506101c55461042a906001600160a01b031681565b34801561090c57600080fd5b506103fc611aad565b34801561092157600080fd5b50610376610930366004614365565b6001600160a01b03918216600090815260fc6020908152604080832093909416825291909152205460ff1690565b34801561096a57600080fd5b506103a661097936600461438f565b611abb565b34801561098a57600080fd5b506103a6610999366004613ffc565b611b9a565b3480156109aa57600080fd5b506103a66109b9366004613ffc565b611c6a565b3480156109ca57600080fd5b506103a66109d93660046143f3565b611ca7565b3480156109ea57600080fd5b506101605461042a906001600160a01b031681565b348015610a0b57600080fd5b50610323610a1a366004614176565b611dda565b348015610a2b57600080fd5b506103a6610a3a366004613ffc565b611e59565b348015610a4b57600080fd5b506103a6610a5a366004614478565b611f26565b60006001600160a01b038316610acf5760405162461bcd60e51b815260206004820152602a60248201527f455243313135353a2061646472657373207a65726f206973206e6f742061207660448201526930b634b21037bbb732b960b11b60648201526084015b60405180910390fd5b50600081815260fb602090815260408083206001600160a01b03861684529091529020545b92915050565b60008181526101c8602090815260408083208151608081018352815481526001820154818501526002909101546001600160801b0380821683850152600160801b90910416606082015284845261012d90925282205480600003610b62575060009392505050565b80610b6c83612166565b610b7691906144c9565b8251610b8291906144eb565b949350505050565b60006001600160e01b0319821663152a902d60e11b1480610af45750610af482612212565b610160546001600160a01b0316336001600160a01b031614610be35760405162461bcd60e51b8152600401610ac6906144fe565b610bec81612252565b50565b610160546001600160a01b0316336001600160a01b031614610c235760405162461bcd60e51b8152600401610ac6906144fe565b610c2d828261225e565b604080516001600160601b038316815290516001600160a01b0384169133917f88a2d4bd6249f327d8b3cf28358e7d2bfe4a9701adcad78dfd54f27f2bb4d7099181900360200190a35050565b6060600061015f8054610c8c9061451e565b905011610ca157610c9c82612318565b610af4565b61015f610cad836123ac565b604051602001610cbe929190614558565b60405160208183030381529060405292915050565b6000610cdf6101c65490565b905090565b610160546001600160a01b0316336001600160a01b031614610d185760405162461bcd60e51b8152600401610ac6906144fe565b6001600160a01b0382163b610d5b5760405162461bcd60e51b81526020600482015260096024820152680858dbdb9d1c9858dd60ba1b6044820152606401610ac6565b6001600160a01b03821660009081526101cb602052604090205481151560ff909116151503610db95760405162461bcd60e51b815260206004820152600a60248201526953616d6520737461746560b01b6044820152606401610ac6565b6001600160a01b03821660008181526101cb6020526040808220805460ff1916851515908117909155905190929133917fc9e6482891dfc75537651c4c96e8d7f53a32ed276711ceccdb732f7bb2c3c6319190a45050565b60006001600160a01b038216610e2957506000919050565b6001600160a01b0382163b610e4057506001919050565b506001600160a01b031660009081526101cb602052604090205460ff1690565b600082815260ca602090815260408083208151808301909252546001600160a01b038116808352600160a01b9091046001600160601b0316928201929092528291610ed557506040805180820190915260c9546001600160a01b0381168252600160a01b90046001600160601b031660208201525b602081015160009061271090610ef4906001600160601b0316876145df565b610efe91906144c9565b915196919550909350505050565b6001600160a01b0385163314801590610f2c5750610f2a8533610930565b155b156110cc5760005b83518110156110ca57828181518110610f4f57610f4f6145f6565b60200260200101516101616000868481518110610f6e57610f6e6145f6565b602002602001015181526020019081526020016000206000886001600160a01b03166001600160a01b031681526020019081526020016000206000610fb03390565b6001600160a01b03166001600160a01b031681526020019081526020016000205410156110105760405162461bcd60e51b815260206004820152600e60248201526d139bdd08185d5d1a1bdc9a5e995960921b6044820152606401610ac6565b828181518110611022576110226145f6565b60200260200101516101616000868481518110611041576110416145f6565b602002602001015181526020019081526020016000206000886001600160a01b03166001600160a01b0316815260200190815260200160002060006110833390565b6001600160a01b03166001600160a01b0316815260200190815260200160002060008282546110b2919061460c565b909155508190506110c28161461f565b915050610f34565b505b6110d9858585858561243e565b5050505050565b6001600160a01b037f00000000000000000000000000000000000000000000000000000000000000001630036111285760405162461bcd60e51b8152600401610ac690614638565b7f00000000000000000000000000000000000000000000000000000000000000006001600160a01b031661115a61262c565b6001600160a01b0316146111805760405162461bcd60e51b8152600401610ac690614684565b61118981612648565b60408051600080825260208201909252610bec9183919061267c565b6111af82336127ec565b60008281526101ca60209081526040808320338452909152812080549190556101c7546111e6906001600160a01b031683836128ac565b6001600160a01b038216336001600160a01b0316847fb6648da82b7b8378efb45fed4cc019b914bfbd64ecd0d03d8e4667cd4dcf3e728460405161122c91815260200190565b60405180910390a4505050565b6060815183511461129e5760405162461bcd60e51b815260206004820152602960248201527f455243313135353a206163636f756e747320616e6420696473206c656e677468604482015268040dad2e6dac2e8c6d60bb1b6064820152608401610ac6565b600083516001600160401b038111156112b9576112b9613e21565b6040519080825280602002602001820160405280156112e2578160200160208202803683370190505b50905060005b845181101561135a5761132d858281518110611306576113066145f6565b6020026020010151858381518110611320576113206145f6565b6020026020010151610a5f565b82828151811061133f5761133f6145f6565b60209081029190910101526113538161461f565b90506112e8565b509392505050565b6001600160a01b037f00000000000000000000000000000000000000000000000000000000000000001630036113aa5760405162461bcd60e51b8152600401610ac690614638565b7f00000000000000000000000000000000000000000000000000000000000000006001600160a01b03166113dc61262c565b6001600160a01b0316146114025760405162461bcd60e51b8152600401610ac690614684565b61140b82612648565b6114178282600161267c565b5050565b6000306001600160a01b037f000000000000000000000000000000000000000000000000000000000000000016146114bb5760405162461bcd60e51b815260206004820152603860248201527f555550535570677261646561626c653a206d757374206e6f742062652063616c60448201527f6c6564207468726f7567682064656c656761746563616c6c00000000000000006064820152608401610ac6565b50600080516020614b598339815191525b90565b610160546001600160a01b0316336001600160a01b0316146115035760405162461bcd60e51b8152600401610ac6906144fe565b610bec8161290f565b610160546001600160a01b0316336001600160a01b0316146115405760405162461bcd60e51b8152600401610ac6906144fe565b61154b83838361291c565b6040516001600160601b03821681526001600160a01b03831690849033907f367d8e97df7923e8e2a3c37798fce0d36df7027840432cbeb96cf571afa502809060200161122c565b6000610cdf61262c565b61015f80546115ab9061451e565b80601f01602080910402602001604051908101604052809291908181526020018280546115d79061451e565b80156116245780601f106115f957610100808354040283529160200191611624565b820191906000526020600020905b81548152906001019060200180831161160757829003601f168201915b505050505081565b610160546001600160a01b0316336001600160a01b0316146116605760405162461bcd60e51b8152600401610ac6906144fe565b610160546001600160a01b038083169116036116b05760405162461bcd60e51b815260206004820152600f60248201526e30b236b4b7101e9e902fb0b236b4b760891b6044820152606401610ac6565b61016080546001600160a01b0319166001600160a01b0383169081179091556040517f71614071b88dee5e0b2ae578a9dd7b2ebbe9ae832ba419dc0242cd065a290b6c90600090a250565b6101c3546001600160a01b0316336001600160a01b0316146117495760405162461bcd60e51b815260206004820152600760248201526610b6b4b73a32b960c91b6044820152606401610ac6565b600083815261012d60205260409020546000036117da5782158061177a575060006117786108ac60018661460c565b115b6117c65760405162461bcd60e51b815260206004820152601860248201527f4944732073686f756c642062652073657175656e7469616c00000000000000006044820152606401610ac6565b6117d56101c680546001019055565b6117e3565b6117e3836129e7565b6117fe82848360405180602001604052806000815250612b37565b6001600160a01b038216336001600160a01b0316847fd221ed6d0b64f2e9f972fbc48b2ce5210f880f75f0cd09111b73eca6937827eb8460405161122c91815260200190565b60003361185385828686612c5c565b60019150505b9392505050565b610160546001600160a01b0316336001600160a01b0316146118945760405162461bcd60e51b8152600401610ac6906144fe565b6101926118a18282614716565b50336001600160a01b03167f1ca91f64ead03abb06ea28975dfbf18044ac06f9fa1cb62a54ccc905df1028ed826040516118db9190613fa4565b60405180910390a250565b6101c4546001600160a01b0316336001600160a01b0316146119345760405162461bcd60e51b815260206004820152600760248201526610b13ab93732b960c91b6044820152606401610ac6565b61193f838383612d78565b61194a338483612e3e565b336001600160a01b0316826001600160a01b0316847fdb4551d821f9bf9edb0048f9934670b828fb65984ea5c99872b225a933641bc08460405161122c91815260200190565b611417338383612fd2565b610160546001600160a01b0316336001600160a01b0316146119cf5760405162461bcd60e51b8152600401610ac6906144fe565b6101c4546001600160a01b03808316911603611a1b5760405162461bcd60e51b815260206004820152600b60248201526a29b0b6b290313ab93732b960a91b6044820152606401610ac6565b6101c480546001600160a01b0319166001600160a01b03831690811790915560405133907f0258795f167353770fc90e124d23e59bea1e1a7005a96e27c9bcadedf7775f7190600090a350565b60006001600160a01b0382163b610e405760405162461bcd60e51b81526020600482015260096024820152680858dbdb9d1c9858dd60ba1b6044820152606401610ac6565b61019280546115ab9061451e565b6001600160a01b0385163314801590611adb5750611ad98533610930565b155b15611b8d576000838152610161602090815260408083206001600160a01b03891684528252808320338452909152902054821115611b4c5760405162461bcd60e51b815260206004820152600e60248201526d139bdd08185d5d1a1bdc9a5e995960921b6044820152606401610ac6565b6000838152610161602090815260408083206001600160a01b0389168452825280832033845290915281208054849290611b8790849061460c565b90915550505b6110d985858585856130b2565b610160546001600160a01b0316336001600160a01b031614611bce5760405162461bcd60e51b8152600401610ac6906144fe565b6101c5546001600160a01b03808316911603611c1d5760405162461bcd60e51b815260206004820152600e60248201526d29b0b6b2903232b837b9b4ba37b960911b6044820152606401610ac6565b6101c580546001600160a01b0319166001600160a01b03831690811790915560405133907f59606f7c19dcf70cc6969f5671e89f2bd4a978609c2f5a522b79aaf715c32d8c90600090a350565b610160546001600160a01b0316336001600160a01b031614611c9e5760405162461bcd60e51b8152600401610ac6906144fe565b610bec816131ee565b600054610100900460ff1615808015611cc75750600054600160ff909116105b80611ce15750303b158015611ce1575060005460ff166001145b611d445760405162461bcd60e51b815260206004820152602e60248201527f496e697469616c697a61626c653a20636f6e747261637420697320616c72656160448201526d191e481a5b9a5d1a585b1a5e995960921b6064820152608401610ac6565b6000805460ff191660011790558015611d67576000805461ff0019166101001790555b611d72858585613241565b6101c780546001600160a01b0319166001600160a01b03841617905580156110d9576000805461ff0019169055604051600181527f7f26b83ff96e1f2b6a682f133852f6798a09c465da95921460cefb38474024989060200160405180910390a15050505050565b600080611de684610afa565b60008581526101c9602090815260408083206001600160a01b0388168452909152902054909150611e17908261460c565b611e218486610a5f565b611e2b91906145df565b60008581526101ca602090815260408083206001600160a01b0388168452909152902054610b8291906144eb565b610160546001600160a01b0316336001600160a01b031614611e8d5760405162461bcd60e51b8152600401610ac6906144fe565b6101c3546001600160a01b03808316911603611ed95760405162461bcd60e51b815260206004820152600b60248201526a29b0b6b29036b4b73a32b960a91b6044820152606401610ac6565b6101c380546001600160a01b0319166001600160a01b03831690811790915560405133907fe490d3138e32f1f66ef3971a3c73c7f7704ba0c1d1000f1e2c3df6fc0376610b90600090a350565b6101c5546001600160a01b0316336001600160a01b031614611f775760405162461bcd60e51b815260206004820152600a60248201526910b232b837b9b4ba37b960b11b6044820152606401610ac6565b60008311611fb25760405162461bcd60e51b81526020600482015260086024820152670859195c1bdcda5d60c21b6044820152606401610ac6565b611fcb336101c7546001600160a01b0316903086613283565b60008481526101c860209081526040808320815160808101835281548152600182015493810193909352600201546001600160801b0380821692840192909252600160801b90041660608201529061202282612166565b9050600061203084426147d5565b600088815261012d602052604090205490915061204d90836144c9565b60008881526101c860205260408120805490919061206c9084906144eb565b90915550506020830151869061208390849061460c565b61208d91906144eb565b60008881526101c860205260409020600181019190915560020180546001600160801b0319166001600160801b0383161790556120ca85826147d5565b60008881526101c86020526040902060020180546001600160801b03928316600160801b0292169190911790556120fe3390565b6001600160a01b0316877f92f5bc4d0fcc25855c1ca8de441fefdfaf48011e0b8142570f85c47b34cd524488846121358a826147d5565b604080519384526001600160801b03928316602085015291169082015260600160405180910390a350505050505050565b600081604001516001600160801b031661217d4290565b6001600160801b03161161219357506000919050565b60608201516001600160801b0316426001600160801b0316106121b857506020015190565b6000826040015183606001516121ce91906147fc565b9050806001600160801b031683604001516121e64290565b6121f091906147fc565b6001600160801b0316846020015161220891906145df565b61185991906144c9565b60006001600160e01b03198216636cdb3d1360e11b148061224357506001600160e01b031982166303a24d0760e21b145b80610af45750610af4826132bb565b60fd6114178282614716565b6127106001600160601b03821611156122895760405162461bcd60e51b8152600401610ac69061481c565b6001600160a01b0382166122df5760405162461bcd60e51b815260206004820152601960248201527f455243323938313a20696e76616c6964207265636569766572000000000000006044820152606401610ac6565b604080518082019091526001600160a01b039092168083526001600160601b039091166020909201829052600160a01b9091021760c955565b606060fd80546123279061451e565b80601f01602080910402602001604051908101604052809291908181526020018280546123539061451e565b80156123a05780601f10612375576101008083540402835291602001916123a0565b820191906000526020600020905b81548152906001019060200180831161238357829003601f168201915b50505050509050919050565b606060006123b9836132f0565b60010190506000816001600160401b038111156123d8576123d8613e21565b6040519080825280601f01601f191660200182016040528015612402576020820181803683370190505b5090508181016020015b600019016f181899199a1a9b1b9c1cb0b131b232b360811b600a86061a8153600a850494508461240c57509392505050565b81518351146124a05760405162461bcd60e51b815260206004820152602860248201527f455243313135353a2069647320616e6420616d6f756e7473206c656e677468206044820152670dad2e6dac2e8c6d60c31b6064820152608401610ac6565b6001600160a01b0384166124c65760405162461bcd60e51b8152600401610ac690614866565b336124d58187878787876133c8565b60005b84518110156125be5760008582815181106124f5576124f56145f6565b602002602001015190506000858381518110612513576125136145f6565b602090810291909101810151600084815260fb835260408082206001600160a01b038e1683529093529190912054909150818110156125645760405162461bcd60e51b8152600401610ac6906148ab565b600083815260fb602090815260408083206001600160a01b038e8116855292528083208585039055908b168252812080548492906125a39084906144eb565b92505081905550505050806125b79061461f565b90506124d8565b50846001600160a01b0316866001600160a01b0316826001600160a01b03167f4a39dc06d4c0dbc64b70af90fd698a233a518aa5d07e595d983b8c0526c8f7fb878760405161260e9291906148f5565b60405180910390a461262481878787878761343a565b505050505050565b600080516020614b59833981519152546001600160a01b031690565b610160546001600160a01b0316336001600160a01b031614610bec5760405162461bcd60e51b8152600401610ac6906144fe565b7f4910fdfa16fed3260ed0e7147f7cc6da11a60208b5b9406d12a635614ffd91435460ff16156126b4576126af83613595565b505050565b826001600160a01b03166352d1902d6040518163ffffffff1660e01b8152600401602060405180830381865afa92505050801561270e575060408051601f3d908101601f1916820190925261270b9181019061491a565b60015b6127715760405162461bcd60e51b815260206004820152602e60248201527f45524331393637557067726164653a206e657720696d706c656d656e7461746960448201526d6f6e206973206e6f74205555505360901b6064820152608401610ac6565b600080516020614b5983398151915281146127e05760405162461bcd60e51b815260206004820152602960248201527f45524331393637557067726164653a20756e737570706f727465642070726f786044820152681a58589b195555525160ba1b6064820152608401610ac6565b506126af838383613631565b6127f581610e11565b6127fd575050565b600061280883610afa565b60008481526101c9602090815260408083206001600160a01b0387168452909152902054909150612839908261460c565b6128438385610a5f565b61284d91906145df565b60008481526101ca602090815260408083206001600160a01b0387168452909152812080549091906128809084906144eb565b909155505060009283526101c9602090815260408085206001600160a01b039094168552929052912055565b6040516001600160a01b0383166024820152604481018290526126af90849063a9059cbb60e01b906064015b60408051601f198184030181529190526020810180516001600160e01b03166001600160e01b031990931692909217909152613656565b61015f6114178282614716565b6127106001600160601b03821611156129475760405162461bcd60e51b8152600401610ac69061481c565b6001600160a01b03821661299d5760405162461bcd60e51b815260206004820152601b60248201527f455243323938313a20496e76616c696420706172616d657465727300000000006044820152606401610ac6565b6040805180820182526001600160a01b0393841681526001600160601b039283166020808301918252600096875260ca90529190942093519051909116600160a01b029116179055565b60008181526101c8602090815260409182902082516080810184528154815260018201549281018390526002909101546001600160801b0380821694830194909452600160801b900490921660608301521580612a5a575060408101516001600160801b0316426001600160801b031611155b15612a63575050565b600082815261012d602052604081205490819003612a8057505050565b6000612a8b83612166565b9050806101c860008681526020019081526020016000206001016000828254612ab4919061460c565b90915550612ac4905082826144c9565b60008581526101c8602052604081208054909190612ae39084906144eb565b909155505060608301516001600160801b0316426001600160801b031611612b315760008481526101c86020526040902060020180546001600160801b031916426001600160801b03161790555b50505050565b6001600160a01b038416612b975760405162461bcd60e51b815260206004820152602160248201527f455243313135353a206d696e7420746f20746865207a65726f206164647265736044820152607360f81b6064820152608401610ac6565b336000612ba385613728565b90506000612bb085613728565b9050612bc1836000898585896133c8565b600086815260fb602090815260408083206001600160a01b038b16845290915281208054879290612bf39084906144eb565b909155505060408051878152602081018790526001600160a01b03808a1692600092918716917fc3d58168c5ae7397731d063d5bbf3d657854427343f4c083240f7aacaa2d0f62910160405180910390a4612c5383600089898989613773565b50505050505050565b6001600160a01b038316612cb25760405162461bcd60e51b815260206004820152601d60248201527f417070726f76652066726f6d20746865207a65726f20616464726573730000006044820152606401610ac6565b6001600160a01b038216612d085760405162461bcd60e51b815260206004820152601b60248201527f417070726f766520746f20746865207a65726f206164647265737300000000006044820152606401610ac6565b6000848152610161602090815260408083206001600160a01b03878116808652918452828520908716808652908452938290208590559051848152909187917f69e4aaf23f9318cf40839ac20453d8fbedaac2955eb08a27ae5189cc71925716910160405180910390a450505050565b612d81836129e7565b6000612d8c84610afa565b60008581526101c9602090815260408083206001600160a01b0388168452909152902054909150612dbd908261460c565b82612dc88587610a5f565b612dd291906144eb565b612ddc91906145df565b60008581526101ca602090815260408083206001600160a01b038816845290915281208054909190612e0f9084906144eb565b909155505060009384526101c9602090815260408086206001600160a01b039095168652939052919092205550565b6001600160a01b038316612ea05760405162461bcd60e51b815260206004820152602360248201527f455243313135353a206275726e2066726f6d20746865207a65726f206164647260448201526265737360e81b6064820152608401610ac6565b336000612eac84613728565b90506000612eb984613728565b9050612ed9838760008585604051806020016040528060008152506133c8565b600085815260fb602090815260408083206001600160a01b038a16845290915290205484811015612f585760405162461bcd60e51b8152602060048201526024808201527f455243313135353a206275726e20616d6f756e7420657863656564732062616c604482015263616e636560e01b6064820152608401610ac6565b600086815260fb602090815260408083206001600160a01b038b81168086529184528285208a8703905582518b81529384018a90529092908816917fc3d58168c5ae7397731d063d5bbf3d657854427343f4c083240f7aacaa2d0f62910160405180910390a4604080516020810190915260009052612c53565b816001600160a01b0316836001600160a01b0316036130455760405162461bcd60e51b815260206004820152602960248201527f455243313135353a2073657474696e6720617070726f76616c20737461747573604482015268103337b91039b2b63360b91b6064820152608401610ac6565b6001600160a01b03838116600081815260fc6020908152604080832094871680845294825291829020805460ff191686151590811790915591519182527f17307eab39ab6107e8899845ad3d59bd9653f200f220920489ca2b5937696c31910160405180910390a3505050565b6001600160a01b0384166130d85760405162461bcd60e51b8152600401610ac690614866565b3360006130e485613728565b905060006130f185613728565b90506131018389898585896133c8565b600086815260fb602090815260408083206001600160a01b038c168452909152902054858110156131445760405162461bcd60e51b8152600401610ac6906148ab565b600087815260fb602090815260408083206001600160a01b038d8116855292528083208985039055908a168252812080548892906131839084906144eb565b909155505060408051888152602081018890526001600160a01b03808b16928c821692918816917fc3d58168c5ae7397731d063d5bbf3d657854427343f4c083240f7aacaa2d0f62910160405180910390a46131e3848a8a8a8a8a613773565b505050505050505050565b61019180546001600160a01b038381166001600160a01b0319831681179093556040519116919082907f8be0079c531659141344cd1fd0a4f28419497f9722a3daafe3b4186f6b6457e090600090a35050565b600054610100900460ff166132685760405162461bcd60e51b8152600401610ac690614933565b61327061382e565b61327a8383613857565b6126af816138a0565b6040516001600160a01b0380851660248301528316604482015260648101829052612b319085906323b872dd60e01b906084016128d8565b60006001600160e01b0319821663152a902d60e11b1480610af457506301ffc9a760e01b6001600160e01b0319831614610af4565b60008072184f03e93ff9f4daa797ed6e38ed64bf6a1f0160401b831061332f5772184f03e93ff9f4daa797ed6e38ed64bf6a1f0160401b830492506040015b6d04ee2d6d415b85acef8100000000831061335b576d04ee2d6d415b85acef8100000000830492506020015b662386f26fc10000831061337957662386f26fc10000830492506010015b6305f5e1008310613391576305f5e100830492506008015b61271083106133a557612710830492506004015b606483106133b7576064830492506002015b600a8310610af45760010192915050565b6133d68686868686866138c7565b60005b8351811015612c53576134058482815181106133f7576133f76145f6565b6020026020010151876127ec565b61342884828151811061341a5761341a6145f6565b6020026020010151866127ec565b806134328161461f565b9150506133d9565b6001600160a01b0384163b156126245760405163bc197c8160e01b81526001600160a01b0385169063bc197c819061347e908990899088908890889060040161497e565b6020604051808303816000875af19250505080156134b9575060408051601f3d908101601f191682019092526134b6918101906149dc565b60015b613565576134c56149f9565b806308c379a0036134fe57506134d9614a14565b806134e45750613500565b8060405162461bcd60e51b8152600401610ac69190613fa4565b505b60405162461bcd60e51b815260206004820152603460248201527f455243313135353a207472616e7366657220746f206e6f6e2d455243313135356044820152732932b1b2b4bb32b91034b6b83632b6b2b73a32b960611b6064820152608401610ac6565b6001600160e01b0319811663bc197c8160e01b14612c535760405162461bcd60e51b8152600401610ac690614a9d565b6001600160a01b0381163b6136025760405162461bcd60e51b815260206004820152602d60248201527f455243313936373a206e657720696d706c656d656e746174696f6e206973206e60448201526c1bdd08184818dbdb9d1c9858dd609a1b6064820152608401610ac6565b600080516020614b5983398151915280546001600160a01b0319166001600160a01b0392909216919091179055565b61363a836138d5565b6000825111806136475750805b156126af57612b318383613915565b60006136ab826040518060400160405280602081526020017f5361666545524332303a206c6f772d6c6576656c2063616c6c206661696c6564815250856001600160a01b0316613a099092919063ffffffff16565b8051909150156126af57808060200190518101906136c99190614ae5565b6126af5760405162461bcd60e51b815260206004820152602a60248201527f5361666545524332303a204552433230206f7065726174696f6e20646964206e6044820152691bdd081cdd58d8d9595960b21b6064820152608401610ac6565b60408051600180825281830190925260609160009190602080830190803683370190505090508281600081518110613762576137626145f6565b602090810291909101015292915050565b6001600160a01b0384163b156126245760405163f23a6e6160e01b81526001600160a01b0385169063f23a6e61906137b79089908990889088908890600401614b02565b6020604051808303816000875af19250505080156137f2575060408051601f3d908101601f191682019092526137ef918101906149dc565b60015b6137fe576134c56149f9565b6001600160e01b0319811663f23a6e6160e01b14612c535760405162461bcd60e51b8152600401610ac690614a9d565b600054610100900460ff166138555760405162461bcd60e51b8152600401610ac690614933565b565b600054610100900460ff1661387e5760405162461bcd60e51b8152600401610ac690614933565b61388661382e565b61388f82613a18565b61389761382e565b61141781613a48565b600054610100900460ff16611c9e5760405162461bcd60e51b8152600401610ac690614933565b612624868686868686613a6f565b6138de81613595565b6040516001600160a01b038216907fbc7cd75a20ee27fd9adebab32041f755214dbc6bffa90cc0225b39da2e5c2d3b90600090a250565b60606001600160a01b0383163b61397d5760405162461bcd60e51b815260206004820152602660248201527f416464726573733a2064656c65676174652063616c6c20746f206e6f6e2d636f6044820152651b9d1c9858dd60d21b6064820152608401610ac6565b600080846001600160a01b0316846040516139989190614b3c565b600060405180830381855af49150503d80600081146139d3576040519150601f19603f3d011682016040523d82523d6000602084013e6139d8565b606091505b5091509150613a008282604051806060016040528060278152602001614b7960279139613beb565b95945050505050565b6060610b828484600085613c04565b600054610100900460ff16613a3f5760405162461bcd60e51b8152600401610ac690614933565b610bec81613cdf565b600054610100900460ff166116b05760405162461bcd60e51b8152600401610ac690614933565b6001600160a01b038516613af75760005b8351811015613af557828181518110613a9b57613a9b6145f6565b602002602001015161012d6000868481518110613aba57613aba6145f6565b602002602001015181526020019081526020016000206000828254613adf91906144eb565b90915550613aee90508161461f565b9050613a80565b505b6001600160a01b0384166126245760005b8351811015612c53576000848281518110613b2557613b256145f6565b602002602001015190506000848381518110613b4357613b436145f6565b60200260200101519050600061012d600084815260200190815260200160002054905081811015613bc75760405162461bcd60e51b815260206004820152602860248201527f455243313135353a206275726e20616d6f756e74206578636565647320746f74604482015267616c537570706c7960c01b6064820152608401610ac6565b600092835261012d602052604090922091039055613be48161461f565b9050613b08565b60608315613bfa575081611859565b6118598383613d06565b606082471015613c655760405162461bcd60e51b815260206004820152602660248201527f416464726573733a20696e73756666696369656e742062616c616e636520666f6044820152651c8818d85b1b60d21b6064820152608401610ac6565b600080866001600160a01b03168587604051613c819190614b3c565b60006040518083038185875af1925050503d8060008114613cbe576040519150601f19603f3d011682016040523d82523d6000602084013e613cc3565b606091505b5091509150613cd487838387613d16565b979650505050505050565b600054610100900460ff16610be35760405162461bcd60e51b8152600401610ac690614933565b8151156134e45781518083602001fd5b60608315613d85578251600003613d7e576001600160a01b0385163b613d7e5760405162461bcd60e51b815260206004820152601d60248201527f416464726573733a2063616c6c20746f206e6f6e2d636f6e74726163740000006044820152606401610ac6565b5081610b82565b610b828383613d06565b80356001600160a01b0381168114613da657600080fd5b919050565b60008060408385031215613dbe57600080fd5b613dc783613d8f565b946020939093013593505050565b600060208284031215613de757600080fd5b5035919050565b6001600160e01b031981168114610bec57600080fd5b600060208284031215613e1657600080fd5b813561185981613dee565b634e487b7160e01b600052604160045260246000fd5b601f8201601f191681016001600160401b0381118282101715613e5c57613e5c613e21565b6040525050565b600082601f830112613e7457600080fd5b81356001600160401b03811115613e8d57613e8d613e21565b604051613ea4601f8301601f191660200182613e37565b818152846020838601011115613eb957600080fd5b816020850160208301376000918101602001919091529392505050565b600060208284031215613ee857600080fd5b81356001600160401b03811115613efe57600080fd5b610b8284828501613e63565b80356001600160601b0381168114613da657600080fd5b60008060408385031215613f3457600080fd5b613f3d83613d8f565b9150613f4b60208401613f0a565b90509250929050565b60005b83811015613f6f578181015183820152602001613f57565b50506000910152565b60008151808452613f90816020860160208601613f54565b601f01601f19169290920160200192915050565b6020815260006118596020830184613f78565b8015158114610bec57600080fd5b60008060408385031215613fd857600080fd5b613fe183613d8f565b91506020830135613ff181613fb7565b809150509250929050565b60006020828403121561400e57600080fd5b61185982613d8f565b6000806040838503121561402a57600080fd5b50508035926020909101359150565b60006001600160401b0382111561405257614052613e21565b5060051b60200190565b600082601f83011261406d57600080fd5b8135602061407a82614039565b6040516140878282613e37565b83815260059390931b85018201928281019150868411156140a757600080fd5b8286015b848110156140c257803583529183019183016140ab565b509695505050505050565b600080600080600060a086880312156140e557600080fd5b6140ee86613d8f565b94506140fc60208701613d8f565b935060408601356001600160401b038082111561411857600080fd5b61412489838a0161405c565b9450606088013591508082111561413a57600080fd5b61414689838a0161405c565b9350608088013591508082111561415c57600080fd5b5061416988828901613e63565b9150509295509295909350565b6000806040838503121561418957600080fd5b82359150613f4b60208401613d8f565b600080604083850312156141ac57600080fd5b82356001600160401b03808211156141c357600080fd5b818501915085601f8301126141d757600080fd5b813560206141e482614039565b6040516141f18282613e37565b83815260059390931b850182019282810191508984111561421157600080fd5b948201945b838610156142365761422786613d8f565b82529482019490820190614216565b9650508601359250508082111561424c57600080fd5b506142598582860161405c565b9150509250929050565b600081518084526020808501945080840160005b8381101561429357815187529582019590820190600101614277565b509495945050505050565b6020815260006118596020830184614263565b600080604083850312156142c457600080fd5b6142cd83613d8f565b915060208301356001600160401b038111156142e857600080fd5b61425985828601613e63565b60008060006060848603121561430957600080fd5b8335925061431960208501613d8f565b915061432760408501613f0a565b90509250925092565b60008060006060848603121561434557600080fd5b8335925061435560208501613d8f565b9150604084013590509250925092565b6000806040838503121561437857600080fd5b61438183613d8f565b9150613f4b60208401613d8f565b600080600080600060a086880312156143a757600080fd5b6143b086613d8f565b94506143be60208701613d8f565b9350604086013592506060860135915060808601356001600160401b038111156143e757600080fd5b61416988828901613e63565b6000806000806080858703121561440957600080fd5b84356001600160401b0381111561441f57600080fd5b61442b87828801613e63565b94505061443a60208601613d8f565b925061444860408601613d8f565b915061445660608601613d8f565b905092959194509250565b80356001600160801b0381168114613da657600080fd5b6000806000806080858703121561448e57600080fd5b84359350602085013592506144a560408601614461565b915061445660608601614461565b634e487b7160e01b600052601160045260246000fd5b6000826144e657634e487b7160e01b600052601260045260246000fd5b500490565b80820180821115610af457610af46144b3565b60208082526006908201526510b0b236b4b760d11b604082015260600190565b600181811c9082168061453257607f821691505b60208210810361455257634e487b7160e01b600052602260045260246000fd5b50919050565b60008084546145668161451e565b6001828116801561457e5760018114614593576145c2565b60ff19841687528215158302870194506145c2565b8860005260208060002060005b858110156145b95781548a8201529084019082016145a0565b50505082870194505b5050505083516145d6818360208801613f54565b01949350505050565b8082028115828204841417610af457610af46144b3565b634e487b7160e01b600052603260045260246000fd5b81810381811115610af457610af46144b3565b600060018201614631576146316144b3565b5060010190565b6020808252602c908201527f46756e6374696f6e206d7573742062652063616c6c6564207468726f7567682060408201526b19195b1959d85d1958d85b1b60a21b606082015260800190565b6020808252602c908201527f46756e6374696f6e206d7573742062652063616c6c6564207468726f7567682060408201526b6163746976652070726f787960a01b606082015260800190565b601f8211156126af57600081815260208120601f850160051c810160208610156146f75750805b601f850160051c820191505b8181101561262457828155600101614703565b81516001600160401b0381111561472f5761472f613e21565b6147438161473d845461451e565b846146d0565b602080601f83116001811461477857600084156147605750858301515b600019600386901b1c1916600185901b178555612624565b600085815260208120601f198616915b828110156147a757888601518255948401946001909101908401614788565b50858210156147c55787850151600019600388901b60f8161c191681555b5050505050600190811b01905550565b6001600160801b038181168382160190808211156147f5576147f56144b3565b5092915050565b6001600160801b038281168282160390808211156147f5576147f56144b3565b6020808252602a908201527f455243323938313a20726f79616c7479206665652077696c6c206578636565646040820152692073616c65507269636560b01b606082015260800190565b60208082526025908201527f455243313135353a207472616e7366657220746f20746865207a65726f206164604082015264647265737360d81b606082015260800190565b6020808252602a908201527f455243313135353a20696e73756666696369656e742062616c616e636520666f60408201526939103a3930b739b332b960b11b606082015260800190565b6040815260006149086040830185614263565b8281036020840152613a008185614263565b60006020828403121561492c57600080fd5b5051919050565b6020808252602b908201527f496e697469616c697a61626c653a20636f6e7472616374206973206e6f74206960408201526a6e697469616c697a696e6760a81b606082015260800190565b6001600160a01b0386811682528516602082015260a0604082018190526000906149aa90830186614263565b82810360608401526149bc8186614263565b905082810360808401526149d08185613f78565b98975050505050505050565b6000602082840312156149ee57600080fd5b815161185981613dee565b600060033d11156114cc5760046000803e5060005160e01c90565b600060443d1015614a225790565b6040516003193d81016004833e81513d6001600160401b038160248401118184111715614a5157505050505090565b8285019150815181811115614a695750505050505090565b843d8701016020828501011115614a835750505050505090565b614a9260208286010187613e37565b509095945050505050565b60208082526028908201527f455243313135353a204552433131353552656365697665722072656a656374656040820152676420746f6b656e7360c01b606082015260800190565b600060208284031215614af757600080fd5b815161185981613fb7565b6001600160a01b03868116825285166020820152604081018490526060810183905260a060808201819052600090613cd490830184613f78565b60008251614b4e818460208701613f54565b919091019291505056fe360894a13ba1a3210667c828492db98dca3e2076cc3735a920a3ca505d382bbc416464726573733a206c6f772d6c6576656c2064656c65676174652063616c6c206661696c6564a2646970667358221220a5d6f4c713211984f3637124a5c71b310fc7365ef7efacb9877477e841270ddc64736f6c63430008110033",
  "devdoc": {
    "author": "Yuri Fernandes (HorizonDAO)",
    "events": {
      "ClaimYield(uint256,address,address,uint256)": {
        "details": "Emitted when yield is claimed"
      },
      "ContractWhitelisted(address,address,bool)": {
        "details": "Emitted when a contract is whitelisted or blacklisted"
      },
      "NewDeposit(uint256,address,uint256,uint128,uint128)": {
        "details": "Emitted when yield is deposited"
      },
      "RealEstateNFTBurned(uint256,address,address,uint256)": {
        "details": "Emitted when reNFTs are burned"
      },
      "RealEstateNFTMinted(uint256,address,address,uint256)": {
        "details": "Emitted when new reNFTs are minted"
      },
      "SetBurner(address,address)": {
        "details": "Emitted when a new burner is set"
      },
      "SetDepositor(address,address)": {
        "details": "Emitted when a new depositor is set"
      },
      "SetMinter(address,address)": {
        "details": "Emitted when a new minter is set"
      }
    },
    "kind": "dev",
    "methods": {
      "approve(uint256,address,uint256)": {
        "params": {
          "_amount": "Amount allowed",
          "_spender": "Spender address",
          "_tokenId": "Collection ID"
        }
      },
      "balanceOf(address,uint256)": {
        "details": "See {IERC1155-balanceOf}. Requirements: - `account` cannot be the zero address."
      },
      "balanceOfBatch(address[],uint256[])": {
        "details": "See {IERC1155-balanceOfBatch}. Requirements: - `accounts` and `ids` must have the same length."
      },
      "burn(uint256,address,uint256)": {
        "details": "Burns own tokens (will be used for buyouts)Requires Burner role",
        "params": {
          "_amount": "Amount of tokens to burn",
          "_id": "Token ID",
          "_originAccount": "Origin account of the tokens"
        }
      },
      "claimYield(uint256,address)": {
        "params": {
          "_id": "Token ID",
          "_to": "Yield receiver"
        }
      },
      "deposit(uint256,uint256,uint128,uint128)": {
        "details": "Deposit yield to a given token ID",
        "params": {
          "_amount": "Amount to deposit",
          "_duration": "Time to distribute the cumulative yield",
          "_id": "Token ID",
          "_startOffset": "Period of time before yield starts to cumulate"
        }
      },
      "eligibleForYields(address)": {
        "params": {
          "_address": "Arbitrary address"
        }
      },
      "exists(uint256)": {
        "details": "Indicates whether any token exist with a given id, or not."
      },
      "initialize(string,address,address,address)": {
        "details": "Initialize RealEstateNFT",
        "params": {
          "_admin": "Address with contract administration privileges",
          "_owner": "EOA to be used as OpenSea token admin",
          "_uri": "Standard (fallback) URI for the offchain NFT metadata"
        }
      },
      "isApprovedForAll(address,address)": {
        "details": "See {IERC1155-isApprovedForAll}."
      },
      "isContractWhitelisted(address)": {
        "params": {
          "_contract": "Contract address"
        }
      },
      "isOwner(address)": {
        "returns": {
          "_0": "true if the caller is the current owner."
        }
      },
      "mint(uint256,address,uint256)": {
        "details": "Mint new reNFT tokensRequires Minter role",
        "params": {
          "_amount": "Amount to mint",
          "_id": "Token ID",
          "_to": "Address to transfer minted tokens"
        }
      },
      "pendingYield(uint256,address)": {
        "params": {
          "_account": "Account to check for pending yield",
          "_id": "Token ID"
        }
      },
      "proxiableUUID()": {
        "details": "Implementation of the ERC1822 {proxiableUUID} function. This returns the storage slot used by the implementation. It is used to validate the implementation's compatibility when performing an upgrade. IMPORTANT: A proxy pointing at a proxiable contract should not be considered proxiable itself, because this risks bricking a proxy that upgrades to it, by delegating to itself until out of gas. Thus it is critical that this function revert if invoked through a proxy. This is guaranteed by the `notDelegated` modifier."
      },
      "royaltyInfo(uint256,uint256)": {
        "details": "Returns how much royalty is owed and to whom, based on a sale price that may be denominated in any unit of exchange. The royalty amount is denominated and should be paid in that same unit of exchange."
      },
      "safeBatchTransferFrom(address,address,uint256[],uint256[],bytes)": {
        "details": "xref:ROOT:erc1155.adoc#batch-operations[Batched] version of {safeTransferFrom}. Emits a {TransferBatch} event. Requirements: - `ids` and `amounts` must have the same length. - If `to` refers to a smart contract, it must implement {IERC1155Receiver-onERC1155BatchReceived} and return the acceptance magic value."
      },
      "safeTransferFrom(address,address,uint256,uint256,bytes)": {
        "details": "Transfers `amount` tokens of token type `id` from `from` to `to`. Emits a {TransferSingle} event. Requirements: - `to` cannot be the zero address. - If the caller is not `from`, it must have been approved to spend ``from``'s tokens via {setApprovalForAll}. - `from` must have a balance of tokens of type `id` of at least `amount`. - If `to` refers to a smart contract, it must implement {IERC1155Receiver-onERC1155Received} and return the acceptance magic value."
      },
      "setAdmin(address)": {
        "details": "Set new admin role",
        "params": {
          "_admin": "New admin address"
        }
      },
      "setApprovalForAll(address,bool)": {
        "details": "See {IERC1155-setApprovalForAll}."
      },
      "setBaseURI(string)": {
        "details": "Sets the {baseURI} for the contract tokens",
        "params": {
          "baseURI_": "Base URI string ended by SLASH"
        }
      },
      "setBurner(address)": {
        "details": "Set new burner role",
        "params": {
          "_burner": "New burner address"
        }
      },
      "setContractURI(string)": {
        "details": "Restricted access function which updates the contract URI",
        "params": {
          "_contractURI": "new contract URI to set"
        }
      },
      "setDefaultRoyalty(address,uint96)": {
        "details": "Set the default royalties info (for all token IDs)",
        "params": {
          "_feeNumerator": "Fee in basis points",
          "_receiver": "Address of the royalties receiver"
        }
      },
      "setMinter(address)": {
        "details": "Set new minter role",
        "params": {
          "_minter": "New minter address"
        }
      },
      "setTokenRoyalty(uint256,address,uint96)": {
        "details": "Set royalties info for a specific token ID",
        "params": {
          "_feeNumerator": "Fee in basis points",
          "_receiver": "Address of the royalties receiver",
          "_tokenId": "Token"
        }
      },
      "setURI(string)": {
        "details": "Sets default URI",
        "params": {
          "_tokenURI": "URI of the token (will be prepended by _baseURI when uri function is called)"
        }
      },
      "supportsInterface(bytes4)": {
        "details": "See {IERC165-supportsInterface}."
      },
      "toggleWhitelistContract(address,bool)": {
        "details": "Toggle yield whitelisting for a contract",
        "params": {
          "_contract": "Contract address",
          "_whitelisted": "Whether to whitelist or not"
        }
      },
      "totalSupply(uint256)": {
        "details": "Total amount of tokens in with a given id."
      },
      "transferOwnership(address)": {
        "details": "Restricted access function to set smart contract \"owner\"      Note: an \"owner\" set doesn't have any authority, and cannot even update \"owner\"",
        "params": {
          "_owner": "new \"owner\" of the smart contract"
        }
      },
      "upgradeTo(address)": {
        "details": "Upgrade the implementation of the proxy to `newImplementation`. Calls {_authorizeUpgrade}. Emits an {Upgraded} event."
      },
      "upgradeToAndCall(address,bytes)": {
        "details": "Upgrade the implementation of the proxy to `newImplementation`, and subsequently execute the function call encoded in `data`. Calls {_authorizeUpgrade}. Emits an {Upgraded} event."
      },
      "uri(uint256)": {
        "params": {
          "_tokenId": "to get the matadata URI"
        }
      },
      "yieldPerToken(uint256)": {
        "params": {
          "_id": "Token ID"
        }
      }
    },
    "stateVariables": {
      "__gap": {
        "details": "This empty reserved space is put in place to allow future versions to add new variables without shifting down storage in the inheritance chain. See https://docs.openzeppelin.com/contracts/4.x/upgradeable#storage_gaps"
      },
      "_contractWhitelisted": {
        "details": "mapping (contractAddress => isWhitelisted)"
      },
      "_currentId": {
        "details": "Current value shows the next available token ID"
      },
      "_deposits": {
        "details": "mapping (tokenId => Deposit)"
      },
      "burner": {
        "details": "Address of the burner: Can execute burn function"
      },
      "depositor": {
        "details": "Address of the depositor: Can execute deposit function"
      },
      "minter": {
        "details": "Address of the minter: Can execute mint function"
      },
      "yieldBalance": {
        "details": "mapping (tokenId => account => yieldBalance)"
      },
      "yieldCurrency": {
        "details": "Currency used to pay yield"
      },
      "yieldPerTokenClaimed": {
        "details": "mapping (tokenId => account => yieldPerTokenClaimed)"
      }
    },
    "title": "Real Estate NFT",
    "version": 1
  },
  "userdoc": {
    "kind": "user",
    "methods": {
      "approve(uint256,address,uint256)": {
        "notice": "Approve a spender to transfer tokens"
      },
      "claimYield(uint256,address)": {
        "notice": "Claim Yield for a given token ID"
      },
      "contractURI()": {
        "notice": "Contract level metadata to define collection name, description, and royalty fees.         see https://docs.opensea.io/docs/contract-level-metadata"
      },
      "eligibleForYields(address)": {
        "notice": "Whether an address is eligible for yields or not"
      },
      "feeDenominator()": {
        "notice": "The denominator of which will be used to calculate the fee (feeNumerator/feeDenominator)"
      },
      "implementation()": {
        "notice": "Get implementation address"
      },
      "isContractWhitelisted(address)": {
        "notice": "Check if contract is whitelisted for yields"
      },
      "isOwner(address)": {
        "notice": "Checks if the address supplied is an \"owner\" of the smart contract      Note: an \"owner\" doesn't have any authority on the smart contract and is \"nominal\""
      },
      "name()": {
        "notice": "Returns the name of the RealEstateERC1155 contract"
      },
      "nextRealEstateId()": {
        "notice": "Returns the ID of the next available reNFT"
      },
      "now128()": {
        "notice": "Current time limited to 128 bits"
      },
      "pendingYield(uint256,address)": {
        "notice": "Get the amount of yield pending for a given token ID and account"
      },
      "symbol()": {
        "notice": "Returns the symbol of the RealEstateERC1155 contract"
      },
      "uri(uint256)": {
        "notice": "Returns the {baseURI} concatenated with {tokenId}"
      },
      "yieldPerToken(uint256)": {
        "notice": "Get current yield per token"
      }
    },
    "notice": "Used to Tokenize and Fractionate Real EstateOnly minter can mint tokens and set token metadataNew tokens should be minted by incrementing the tokenId by 1",
    "version": 1
  },
  "storageLayout": {
    "storage": [
      {
        "astId": 598,
        "contract": "contracts/token/RealEstateERC1155.sol:RealEstateERC1155",
        "label": "_initialized",
        "offset": 0,
        "slot": "0",
        "type": "t_uint8"
      },
      {
        "astId": 601,
        "contract": "contracts/token/RealEstateERC1155.sol:RealEstateERC1155",
        "label": "_initializing",
        "offset": 1,
        "slot": "0",
        "type": "t_bool"
      },
      {
        "astId": 580,
        "contract": "contracts/token/RealEstateERC1155.sol:RealEstateERC1155",
        "label": "__gap",
        "offset": 0,
        "slot": "1",
        "type": "t_array(t_uint256)50_storage"
      },
      {
        "astId": 895,
        "contract": "contracts/token/RealEstateERC1155.sol:RealEstateERC1155",
        "label": "__gap",
        "offset": 0,
        "slot": "51",
        "type": "t_array(t_uint256)50_storage"
      },
      {
        "astId": 3548,
        "contract": "contracts/token/RealEstateERC1155.sol:RealEstateERC1155",
        "label": "__gap",
        "offset": 0,
        "slot": "101",
        "type": "t_array(t_uint256)50_storage"
      },
      {
        "astId": 3901,
        "contract": "contracts/token/RealEstateERC1155.sol:RealEstateERC1155",
        "label": "__gap",
        "offset": 0,
        "slot": "151",
        "type": "t_array(t_uint256)50_storage"
      },
      {
        "astId": 3037,
        "contract": "contracts/token/RealEstateERC1155.sol:RealEstateERC1155",
        "label": "_defaultRoyaltyInfo",
        "offset": 0,
        "slot": "201",
        "type": "t_struct(RoyaltyInfo)3034_storage"
      },
      {
        "astId": 3042,
        "contract": "contracts/token/RealEstateERC1155.sol:RealEstateERC1155",
        "label": "_tokenRoyaltyInfo",
        "offset": 0,
        "slot": "202",
        "type": "t_mapping(t_uint256,t_struct(RoyaltyInfo)3034_storage)"
      },
      {
        "astId": 3222,
        "contract": "contracts/token/RealEstateERC1155.sol:RealEstateERC1155",
        "label": "__gap",
        "offset": 0,
        "slot": "203",
        "type": "t_array(t_uint256)48_storage"
      },
      {
        "astId": 925,
        "contract": "contracts/token/RealEstateERC1155.sol:RealEstateERC1155",
        "label": "_balances",
        "offset": 0,
        "slot": "251",
        "type": "t_mapping(t_uint256,t_mapping(t_address,t_uint256))"
      },
      {
        "astId": 931,
        "contract": "contracts/token/RealEstateERC1155.sol:RealEstateERC1155",
        "label": "_operatorApprovals",
        "offset": 0,
        "slot": "252",
        "type": "t_mapping(t_address,t_mapping(t_address,t_bool))"
      },
      {
        "astId": 933,
        "contract": "contracts/token/RealEstateERC1155.sol:RealEstateERC1155",
        "label": "_uri",
        "offset": 0,
        "slot": "253",
        "type": "t_string_storage"
      },
      {
        "astId": 2140,
        "contract": "contracts/token/RealEstateERC1155.sol:RealEstateERC1155",
        "label": "__gap",
        "offset": 0,
        "slot": "254",
        "type": "t_array(t_uint256)47_storage"
      },
      {
        "astId": 2329,
        "contract": "contracts/token/RealEstateERC1155.sol:RealEstateERC1155",
        "label": "_totalSupply",
        "offset": 0,
        "slot": "301",
        "type": "t_mapping(t_uint256,t_uint256)"
      },
      {
        "astId": 2480,
        "contract": "contracts/token/RealEstateERC1155.sol:RealEstateERC1155",
        "label": "__gap",
        "offset": 0,
        "slot": "302",
        "type": "t_array(t_uint256)49_storage"
      },
      {
        "astId": 13294,
        "contract": "contracts/token/RealEstateERC1155.sol:RealEstateERC1155",
        "label": "baseURI",
        "offset": 0,
        "slot": "351",
        "type": "t_string_storage"
      },
      {
        "astId": 13297,
        "contract": "contracts/token/RealEstateERC1155.sol:RealEstateERC1155",
        "label": "admin",
        "offset": 0,
        "slot": "352",
        "type": "t_address"
      },
      {
        "astId": 13306,
        "contract": "contracts/token/RealEstateERC1155.sol:RealEstateERC1155",
        "label": "_allowances",
        "offset": 0,
        "slot": "353",
        "type": "t_mapping(t_uint256,t_mapping(t_address,t_mapping(t_address,t_uint256)))"
      },
      {
        "astId": 13709,
        "contract": "contracts/token/RealEstateERC1155.sol:RealEstateERC1155",
        "label": "__gap",
        "offset": 0,
        "slot": "354",
        "type": "t_array(t_uint256)47_storage"
      },
      {
        "astId": 13038,
        "contract": "contracts/token/RealEstateERC1155.sol:RealEstateERC1155",
        "label": "owner",
        "offset": 0,
        "slot": "401",
        "type": "t_address"
      },
      {
        "astId": 13041,
        "contract": "contracts/token/RealEstateERC1155.sol:RealEstateERC1155",
        "label": "contractURI",
        "offset": 0,
        "slot": "402",
        "type": "t_string_storage"
      },
      {
        "astId": 13229,
        "contract": "contracts/token/RealEstateERC1155.sol:RealEstateERC1155",
        "label": "__gap",
        "offset": 0,
        "slot": "403",
        "type": "t_array(t_uint256)48_storage"
      },
      {
        "astId": 12007,
        "contract": "contracts/token/RealEstateERC1155.sol:RealEstateERC1155",
        "label": "minter",
        "offset": 0,
        "slot": "451",
        "type": "t_address"
      },
      {
        "astId": 12010,
        "contract": "contracts/token/RealEstateERC1155.sol:RealEstateERC1155",
        "label": "burner",
        "offset": 0,
        "slot": "452",
        "type": "t_address"
      },
      {
        "astId": 12013,
        "contract": "contracts/token/RealEstateERC1155.sol:RealEstateERC1155",
        "label": "depositor",
        "offset": 0,
        "slot": "453",
        "type": "t_address"
      },
      {
        "astId": 12017,
        "contract": "contracts/token/RealEstateERC1155.sol:RealEstateERC1155",
        "label": "_currentId",
        "offset": 0,
        "slot": "454",
        "type": "t_struct(Counter)3555_storage"
      },
      {
        "astId": 12020,
        "contract": "contracts/token/RealEstateERC1155.sol:RealEstateERC1155",
        "label": "yieldCurrency",
        "offset": 0,
        "slot": "455",
        "type": "t_address"
      },
      {
        "astId": 12026,
        "contract": "contracts/token/RealEstateERC1155.sol:RealEstateERC1155",
        "label": "_deposits",
        "offset": 0,
        "slot": "456",
        "type": "t_mapping(t_uint256,t_struct(Deposit)12004_storage)"
      },
      {
        "astId": 12033,
        "contract": "contracts/token/RealEstateERC1155.sol:RealEstateERC1155",
        "label": "yieldPerTokenClaimed",
        "offset": 0,
        "slot": "457",
        "type": "t_mapping(t_uint256,t_mapping(t_address,t_uint256))"
      },
      {
        "astId": 12040,
        "contract": "contracts/token/RealEstateERC1155.sol:RealEstateERC1155",
        "label": "yieldBalance",
        "offset": 0,
        "slot": "458",
        "type": "t_mapping(t_uint256,t_mapping(t_address,t_uint256))"
      },
      {
        "astId": 12045,
        "contract": "contracts/token/RealEstateERC1155.sol:RealEstateERC1155",
        "label": "_contractWhitelisted",
        "offset": 0,
        "slot": "459",
        "type": "t_mapping(t_address,t_bool)"
      },
      {
        "astId": 12983,
        "contract": "contracts/token/RealEstateERC1155.sol:RealEstateERC1155",
        "label": "__gap",
        "offset": 0,
        "slot": "460",
        "type": "t_array(t_uint256)41_storage"
      }
    ],
    "types": {
      "t_address": {
        "encoding": "inplace",
        "label": "address",
        "numberOfBytes": "20"
      },
      "t_array(t_uint256)41_storage": {
        "base": "t_uint256",
        "encoding": "inplace",
        "label": "uint256[41]",
        "numberOfBytes": "1312"
      },
      "t_array(t_uint256)47_storage": {
        "base": "t_uint256",
        "encoding": "inplace",
        "label": "uint256[47]",
        "numberOfBytes": "1504"
      },
      "t_array(t_uint256)48_storage": {
        "base": "t_uint256",
        "encoding": "inplace",
        "label": "uint256[48]",
        "numberOfBytes": "1536"
      },
      "t_array(t_uint256)49_storage": {
        "base": "t_uint256",
        "encoding": "inplace",
        "label": "uint256[49]",
        "numberOfBytes": "1568"
      },
      "t_array(t_uint256)50_storage": {
        "base": "t_uint256",
        "encoding": "inplace",
        "label": "uint256[50]",
        "numberOfBytes": "1600"
      },
      "t_bool": {
        "encoding": "inplace",
        "label": "bool",
        "numberOfBytes": "1"
      },
      "t_mapping(t_address,t_bool)": {
        "encoding": "mapping",
        "key": "t_address",
        "label": "mapping(address => bool)",
        "numberOfBytes": "32",
        "value": "t_bool"
      },
      "t_mapping(t_address,t_mapping(t_address,t_bool))": {
        "encoding": "mapping",
        "key": "t_address",
        "label": "mapping(address => mapping(address => bool))",
        "numberOfBytes": "32",
        "value": "t_mapping(t_address,t_bool)"
      },
      "t_mapping(t_address,t_mapping(t_address,t_uint256))": {
        "encoding": "mapping",
        "key": "t_address",
        "label": "mapping(address => mapping(address => uint256))",
        "numberOfBytes": "32",
        "value": "t_mapping(t_address,t_uint256)"
      },
      "t_mapping(t_address,t_uint256)": {
        "encoding": "mapping",
        "key": "t_address",
        "label": "mapping(address => uint256)",
        "numberOfBytes": "32",
        "value": "t_uint256"
      },
      "t_mapping(t_uint256,t_mapping(t_address,t_mapping(t_address,t_uint256)))": {
        "encoding": "mapping",
        "key": "t_uint256",
        "label": "mapping(uint256 => mapping(address => mapping(address => uint256)))",
        "numberOfBytes": "32",
        "value": "t_mapping(t_address,t_mapping(t_address,t_uint256))"
      },
      "t_mapping(t_uint256,t_mapping(t_address,t_uint256))": {
        "encoding": "mapping",
        "key": "t_uint256",
        "label": "mapping(uint256 => mapping(address => uint256))",
        "numberOfBytes": "32",
        "value": "t_mapping(t_address,t_uint256)"
      },
      "t_mapping(t_uint256,t_struct(Deposit)12004_storage)": {
        "encoding": "mapping",
        "key": "t_uint256",
        "label": "mapping(uint256 => struct RealEstateERC1155.Deposit)",
        "numberOfBytes": "32",
        "value": "t_struct(Deposit)12004_storage"
      },
      "t_mapping(t_uint256,t_struct(RoyaltyInfo)3034_storage)": {
        "encoding": "mapping",
        "key": "t_uint256",
        "label": "mapping(uint256 => struct ERC2981Upgradeable.RoyaltyInfo)",
        "numberOfBytes": "32",
        "value": "t_struct(RoyaltyInfo)3034_storage"
      },
      "t_mapping(t_uint256,t_uint256)": {
        "encoding": "mapping",
        "key": "t_uint256",
        "label": "mapping(uint256 => uint256)",
        "numberOfBytes": "32",
        "value": "t_uint256"
      },
      "t_string_storage": {
        "encoding": "bytes",
        "label": "string",
        "numberOfBytes": "32"
      },
      "t_struct(Counter)3555_storage": {
        "encoding": "inplace",
        "label": "struct CountersUpgradeable.Counter",
        "members": [
          {
            "astId": 3554,
            "contract": "contracts/token/RealEstateERC1155.sol:RealEstateERC1155",
            "label": "_value",
            "offset": 0,
            "slot": "0",
            "type": "t_uint256"
          }
        ],
        "numberOfBytes": "32"
      },
      "t_struct(Deposit)12004_storage": {
        "encoding": "inplace",
        "label": "struct RealEstateERC1155.Deposit",
        "members": [
          {
            "astId": 11997,
            "contract": "contracts/token/RealEstateERC1155.sol:RealEstateERC1155",
            "label": "unlockedAmountPerToken",
            "offset": 0,
            "slot": "0",
            "type": "t_uint256"
          },
          {
            "astId": 11999,
            "contract": "contracts/token/RealEstateERC1155.sol:RealEstateERC1155",
            "label": "lockedAmount",
            "offset": 0,
            "slot": "1",
            "type": "t_uint256"
          },
          {
            "astId": 12001,
            "contract": "contracts/token/RealEstateERC1155.sol:RealEstateERC1155",
            "label": "unlockStart",
            "offset": 0,
            "slot": "2",
            "type": "t_uint128"
          },
          {
            "astId": 12003,
            "contract": "contracts/token/RealEstateERC1155.sol:RealEstateERC1155",
            "label": "unlockEnd",
            "offset": 16,
            "slot": "2",
            "type": "t_uint128"
          }
        ],
        "numberOfBytes": "96"
      },
      "t_struct(RoyaltyInfo)3034_storage": {
        "encoding": "inplace",
        "label": "struct ERC2981Upgradeable.RoyaltyInfo",
        "members": [
          {
            "astId": 3031,
            "contract": "contracts/token/RealEstateERC1155.sol:RealEstateERC1155",
            "label": "receiver",
            "offset": 0,
            "slot": "0",
            "type": "t_address"
          },
          {
            "astId": 3033,
            "contract": "contracts/token/RealEstateERC1155.sol:RealEstateERC1155",
            "label": "royaltyFraction",
            "offset": 20,
            "slot": "0",
            "type": "t_uint96"
          }
        ],
        "numberOfBytes": "32"
      },
      "t_uint128": {
        "encoding": "inplace",
        "label": "uint128",
        "numberOfBytes": "16"
      },
      "t_uint256": {
        "encoding": "inplace",
        "label": "uint256",
        "numberOfBytes": "32"
      },
      "t_uint8": {
        "encoding": "inplace",
        "label": "uint8",
        "numberOfBytes": "1"
      },
      "t_uint96": {
        "encoding": "inplace",
        "label": "uint96",
        "numberOfBytes": "12"
      }
    }
  }
}