{
  "address": "0x4CdbF8335C091c3FaFb12f0b588ff97ba04CA424",
  "abi": [
    {
      "inputs": [
        {
          "internalType": "address",
          "name": "_admin",
          "type": "address"
        },
        {
          "internalType": "uint256",
          "name": "_initialSupply",
          "type": "uint256"
        },
        {
          "internalType": "address",
          "name": "_initialHolder",
          "type": "address"
        }
      ],
      "stateMutability": "nonpayable",
      "type": "constructor"
    },
    {
      "anonymous": false,
      "inputs": [
        {
          "indexed": true,
          "internalType": "address",
          "name": "owner",
          "type": "address"
        },
        {
          "indexed": true,
          "internalType": "address",
          "name": "spender",
          "type": "address"
        },
        {
          "indexed": false,
          "internalType": "uint256",
          "name": "value",
          "type": "uint256"
        }
      ],
      "name": "Approval",
      "type": "event"
    },
    {
      "anonymous": false,
      "inputs": [
        {
          "indexed": true,
          "internalType": "address",
          "name": "_minter",
          "type": "address"
        },
        {
          "indexed": true,
          "internalType": "address",
          "name": "_receiver",
          "type": "address"
        },
        {
          "indexed": false,
          "internalType": "uint256",
          "name": "_amount",
          "type": "uint256"
        }
      ],
      "name": "Mint",
      "type": "event"
    },
    {
      "anonymous": false,
      "inputs": [
        {
          "indexed": true,
          "internalType": "address",
          "name": "_by",
          "type": "address"
        },
        {
          "indexed": true,
          "internalType": "address",
          "name": "_admin",
          "type": "address"
        }
      ],
      "name": "SetAdmin",
      "type": "event"
    },
    {
      "anonymous": false,
      "inputs": [
        {
          "indexed": true,
          "internalType": "address",
          "name": "_by",
          "type": "address"
        },
        {
          "indexed": true,
          "internalType": "address",
          "name": "_minter",
          "type": "address"
        }
      ],
      "name": "SetMinter",
      "type": "event"
    },
    {
      "anonymous": false,
      "inputs": [
        {
          "indexed": true,
          "internalType": "address",
          "name": "from",
          "type": "address"
        },
        {
          "indexed": true,
          "internalType": "address",
          "name": "to",
          "type": "address"
        },
        {
          "indexed": false,
          "internalType": "uint256",
          "name": "value",
          "type": "uint256"
        }
      ],
      "name": "Transfer",
      "type": "event"
    },
    {
      "inputs": [],
      "name": "DOMAIN_SEPARATOR",
      "outputs": [
        {
          "internalType": "bytes32",
          "name": "",
          "type": "bytes32"
        }
      ],
      "stateMutability": "view",
      "type": "function"
    },
    {
      "inputs": [],
      "name": "EIP712_DOMAIN_TYPEHASH",
      "outputs": [
        {
          "internalType": "bytes32",
          "name": "",
          "type": "bytes32"
        }
      ],
      "stateMutability": "view",
      "type": "function"
    },
    {
      "inputs": [],
      "name": "MAX_SUPPLY",
      "outputs": [
        {
          "internalType": "uint256",
          "name": "",
          "type": "uint256"
        }
      ],
      "stateMutability": "view",
      "type": "function"
    },
    {
      "inputs": [],
      "name": "PERMIT_TYPEHASH",
      "outputs": [
        {
          "internalType": "bytes32",
          "name": "",
          "type": "bytes32"
        }
      ],
      "stateMutability": "view",
      "type": "function"
    },
    {
      "inputs": [],
      "name": "admin",
      "outputs": [
        {
          "internalType": "address",
          "name": "",
          "type": "address"
        }
      ],
      "stateMutability": "view",
      "type": "function"
    },
    {
      "inputs": [
        {
          "internalType": "address",
          "name": "owner",
          "type": "address"
        },
        {
          "internalType": "address",
          "name": "spender",
          "type": "address"
        }
      ],
      "name": "allowance",
      "outputs": [
        {
          "internalType": "uint256",
          "name": "",
          "type": "uint256"
        }
      ],
      "stateMutability": "view",
      "type": "function"
    },
    {
      "inputs": [
        {
          "internalType": "address",
          "name": "spender",
          "type": "address"
        },
        {
          "internalType": "uint256",
          "name": "amount",
          "type": "uint256"
        }
      ],
      "name": "approve",
      "outputs": [
        {
          "internalType": "bool",
          "name": "",
          "type": "bool"
        }
      ],
      "stateMutability": "nonpayable",
      "type": "function"
    },
    {
      "inputs": [
        {
          "internalType": "address",
          "name": "account",
          "type": "address"
        }
      ],
      "name": "balanceOf",
      "outputs": [
        {
          "internalType": "uint256",
          "name": "",
          "type": "uint256"
        }
      ],
      "stateMutability": "view",
      "type": "function"
    },
    {
      "inputs": [],
      "name": "decimals",
      "outputs": [
        {
          "internalType": "uint8",
          "name": "",
          "type": "uint8"
        }
      ],
      "stateMutability": "view",
      "type": "function"
    },
    {
      "inputs": [
        {
          "internalType": "address",
          "name": "spender",
          "type": "address"
        },
        {
          "internalType": "uint256",
          "name": "subtractedValue",
          "type": "uint256"
        }
      ],
      "name": "decreaseAllowance",
      "outputs": [
        {
          "internalType": "bool",
          "name": "",
          "type": "bool"
        }
      ],
      "stateMutability": "nonpayable",
      "type": "function"
    },
    {
      "inputs": [
        {
          "internalType": "address",
          "name": "spender",
          "type": "address"
        },
        {
          "internalType": "uint256",
          "name": "addedValue",
          "type": "uint256"
        }
      ],
      "name": "increaseAllowance",
      "outputs": [
        {
          "internalType": "bool",
          "name": "",
          "type": "bool"
        }
      ],
      "stateMutability": "nonpayable",
      "type": "function"
    },
    {
      "inputs": [
        {
          "internalType": "address",
          "name": "_to",
          "type": "address"
        },
        {
          "internalType": "uint256",
          "name": "_amount",
          "type": "uint256"
        }
      ],
      "name": "mint",
      "outputs": [],
      "stateMutability": "nonpayable",
      "type": "function"
    },
    {
      "inputs": [],
      "name": "mintableSupply",
      "outputs": [
        {
          "internalType": "uint256",
          "name": "",
          "type": "uint256"
        }
      ],
      "stateMutability": "view",
      "type": "function"
    },
    {
      "inputs": [],
      "name": "minter",
      "outputs": [
        {
          "internalType": "address",
          "name": "",
          "type": "address"
        }
      ],
      "stateMutability": "view",
      "type": "function"
    },
    {
      "inputs": [],
      "name": "name",
      "outputs": [
        {
          "internalType": "string",
          "name": "",
          "type": "string"
        }
      ],
      "stateMutability": "view",
      "type": "function"
    },
    {
      "inputs": [
        {
          "internalType": "address",
          "name": "_owner",
          "type": "address"
        }
      ],
      "name": "nonces",
      "outputs": [
        {
          "internalType": "uint256",
          "name": "",
          "type": "uint256"
        }
      ],
      "stateMutability": "view",
      "type": "function"
    },
    {
      "inputs": [
        {
          "internalType": "address",
          "name": "_owner",
          "type": "address"
        },
        {
          "internalType": "address",
          "name": "_spender",
          "type": "address"
        },
        {
          "internalType": "uint256",
          "name": "_value",
          "type": "uint256"
        },
        {
          "internalType": "uint256",
          "name": "_deadline",
          "type": "uint256"
        },
        {
          "internalType": "bytes",
          "name": "_signature",
          "type": "bytes"
        }
      ],
      "name": "permit",
      "outputs": [],
      "stateMutability": "nonpayable",
      "type": "function"
    },
    {
      "inputs": [
        {
          "internalType": "address",
          "name": "_admin",
          "type": "address"
        }
      ],
      "name": "setAdmin",
      "outputs": [],
      "stateMutability": "nonpayable",
      "type": "function"
    },
    {
      "inputs": [
        {
          "internalType": "address",
          "name": "_minter",
          "type": "address"
        }
      ],
      "name": "setMinter",
      "outputs": [],
      "stateMutability": "nonpayable",
      "type": "function"
    },
    {
      "inputs": [
        {
          "internalType": "bytes4",
          "name": "interfaceId",
          "type": "bytes4"
        }
      ],
      "name": "supportsInterface",
      "outputs": [
        {
          "internalType": "bool",
          "name": "",
          "type": "bool"
        }
      ],
      "stateMutability": "pure",
      "type": "function"
    },
    {
      "inputs": [],
      "name": "symbol",
      "outputs": [
        {
          "internalType": "string",
          "name": "",
          "type": "string"
        }
      ],
      "stateMutability": "view",
      "type": "function"
    },
    {
      "inputs": [],
      "name": "totalSupply",
      "outputs": [
        {
          "internalType": "uint256",
          "name": "",
          "type": "uint256"
        }
      ],
      "stateMutability": "view",
      "type": "function"
    },
    {
      "inputs": [
        {
          "internalType": "address",
          "name": "to",
          "type": "address"
        },
        {
          "internalType": "uint256",
          "name": "amount",
          "type": "uint256"
        }
      ],
      "name": "transfer",
      "outputs": [
        {
          "internalType": "bool",
          "name": "",
          "type": "bool"
        }
      ],
      "stateMutability": "nonpayable",
      "type": "function"
    },
    {
      "inputs": [
        {
          "internalType": "address",
          "name": "from",
          "type": "address"
        },
        {
          "internalType": "address",
          "name": "to",
          "type": "address"
        },
        {
          "internalType": "uint256",
          "name": "amount",
          "type": "uint256"
        }
      ],
      "name": "transferFrom",
      "outputs": [
        {
          "internalType": "bool",
          "name": "",
          "type": "bool"
        }
      ],
      "stateMutability": "nonpayable",
      "type": "function"
    }
  ],
  "transactionHash": "0xa22a9a88d2bf0393b1c35cbdf4bb5690c2d1d550ceb8aeb700b328d14115ab78",
  "args": [
    "0x39a242169BA3B28623E6d235A4Bdd46287d4bae3",
    "1000000000000000000000000",
    "0x39a242169BA3B28623E6d235A4Bdd46287d4bae3"
  ],
  "numDeployments": 1,
  "solcInputHash": "2831fa300ab05e3c9bfab191d86cab1c",
  "bytecode": "0x60a06040523480156200001157600080fd5b50604051620018c0380380620018c083398101604081905262000034916200030e565b6040518060400160405280601081526020016f2437b934bd37b72220a7902a37b5b2b760811b81525060405180604001604052806003815260200162534b5960e81b815250818181600390816200008c9190620003f3565b5060046200009b8282620003f3565b50508251602080850191909120604080517f8b73c3c69bb8fe3d512ecc4cf759cc79239f7b179b0ffacaa9a75d522b39400f938101939093528201527fc89efdaa54c0f20c7adf612882df0950f5a951637e0307cdcb4c672f298b8bc660608201524660808201523060a082015260c001905060408051601f19818403018152919052805160209091012060805250506a52b7d2dcc80cd2e4000000821115620001795760405162461bcd60e51b815260206004820152600a6024820152694d41585f535550504c5960b01b60448201526064015b60405180910390fd5b62000185818362000229565b6040518281526001600160a01b0382169033907fab8530f87dc9b59234c4623bf917212bb2536d647574c8e7e5da92c2ede0c9f89060200160405180910390a3600680546001600160a01b0319166001600160a01b038516908117909155620001eb3390565b6001600160a01b03167f848ac24ab84501710d6631faab117b66b79aba7ec6f7778cf3bcff428c1a4efc60405160405180910390a3505050620004e7565b6001600160a01b038216620002815760405162461bcd60e51b815260206004820152601f60248201527f45524332303a206d696e7420746f20746865207a65726f206164647265737300604482015260640162000170565b8060026000828254620002959190620004bf565b90915550506001600160a01b038216600081815260208181526040808320805486019055518481527fddf252ad1be2c89b69c2b068fc378daa952ba7f163c4a11628f55a4df523b3ef910160405180910390a35050565b505050565b80516001600160a01b03811681146200030957600080fd5b919050565b6000806000606084860312156200032457600080fd5b6200032f84620002f1565b9250602084015191506200034660408501620002f1565b90509250925092565b634e487b7160e01b600052604160045260246000fd5b600181811c908216806200037a57607f821691505b6020821081036200039b57634e487b7160e01b600052602260045260246000fd5b50919050565b601f821115620002ec57600081815260208120601f850160051c81016020861015620003ca5750805b601f850160051c820191505b81811015620003eb57828155600101620003d6565b505050505050565b81516001600160401b038111156200040f576200040f6200034f565b620004278162000420845462000365565b84620003a1565b602080601f8311600181146200045f5760008415620004465750858301515b600019600386901b1c1916600185901b178555620003eb565b600085815260208120601f198616915b8281101562000490578886015182559484019460019091019084016200046f565b5085821015620004af5787850151600019600388901b60f8161c191681555b5050505050600190811b01905550565b80820180821115620004e157634e487b7160e01b600052601160045260246000fd5b92915050565b6080516113b66200050a6000396000818161024a015261079b01526113b66000f3fe608060405234801561001057600080fd5b50600436106101585760003560e01c8063704b6c02116100c3578063a9059cbb1161007c578063a9059cbb14610311578063c7977be714610324578063cc5c095c1461034b578063dd62ed3e14610353578063f851a44014610366578063fca3b5aa1461037957600080fd5b8063704b6c021461029457806370a08231146102a75780637ecebe00146102d057806395d89b41146102e35780639fd5a6cf146102eb578063a457c2d7146102fe57600080fd5b806330adf81f1161011557806330adf81f146101fd578063313ce5671461022457806332cb6b0c146102335780633644e51514610245578063395093511461026c57806340c10f191461027f57600080fd5b806301ffc9a71461015d57806306fdde0314610185578063075461721461019a578063095ea7b3146101c557806318160ddd146101d857806323b872dd146101ea575b600080fd5b61017061016b3660046110a9565b61038c565b60405190151581526020015b60405180910390f35b61018d6103c3565b60405161017c91906110da565b6007546101ad906001600160a01b031681565b6040516001600160a01b03909116815260200161017c565b6101706101d3366004611144565b610455565b6002545b60405190815260200161017c565b6101706101f836600461116e565b61046d565b6101dc7f6e71edae12b1b97f4d1f60370fef10105fa2faae0126114a169c64845d6126c981565b6040516012815260200161017c565b6101dc6a52b7d2dcc80cd2e400000081565b6101dc7f000000000000000000000000000000000000000000000000000000000000000081565b61017061027a366004611144565b610491565b61029261028d366004611144565b6104b3565b005b6102926102a23660046111aa565b6105af565b6101dc6102b53660046111aa565b6001600160a01b031660009081526020819052604090205490565b6101dc6102de3660046111aa565b610691565b61018d6106af565b6102926102f93660046111db565b6106be565b61017061030c366004611144565b610879565b61017061031f366004611144565b6108f4565b6101dc7f8b73c3c69bb8fe3d512ecc4cf759cc79239f7b179b0ffacaa9a75d522b39400f81565b6101dc610902565b6101dc6103613660046112c1565b610927565b6006546101ad906001600160a01b031681565b6102926103873660046111aa565b610952565b60006301ffc9a760e01b6001600160e01b0319831614806103bd57506336372b0760e01b6001600160e01b03198316145b92915050565b6060600380546103d2906112f4565b80601f01602080910402602001604051908101604052809291908181526020018280546103fe906112f4565b801561044b5780601f106104205761010080835404028352916020019161044b565b820191906000526020600020905b81548152906001019060200180831161042e57829003601f168201915b5050505050905090565b600033610463818585610a35565b5060019392505050565b60003361047b858285610b59565b610486858585610bd3565b506001949350505050565b6000336104638185856104a48383610927565b6104ae9190611344565b610a35565b6007546001600160a01b0316336001600160a01b0316146105055760405162461bcd60e51b815260206004820152600760248201526610b6b4b73a32b960c91b60448201526064015b60405180910390fd5b6a52b7d2dcc80cd2e40000008161051b60025490565b6105259190611344565b11156105605760405162461bcd60e51b815260206004820152600a6024820152694d41585f535550504c5960b01b60448201526064016104fc565b61056a8282610d77565b6040518181526001600160a01b0383169033907fab8530f87dc9b59234c4623bf917212bb2536d647574c8e7e5da92c2ede0c9f8906020015b60405180910390a35050565b6006546001600160a01b0316336001600160a01b0316146105fb5760405162461bcd60e51b815260206004820152600660248201526510b0b236b4b760d11b60448201526064016104fc565b6006546001600160a01b038083169116036106455760405162461bcd60e51b815260206004820152600a60248201526929b0b6b29030b236b4b760b11b60448201526064016104fc565b600680546001600160a01b0319166001600160a01b03831690811790915560405133907f848ac24ab84501710d6631faab117b66b79aba7ec6f7778cf3bcff428c1a4efc90600090a350565b6001600160a01b0381166000908152600560205260408120546103bd565b6060600480546103d2906112f4565b8142111561070e5760405162461bcd60e51b815260206004820152601d60248201527f45524332305065726d69743a20646561646c696e65207265616368656400000060448201526064016104fc565b6001600160a01b038581166000818152600560209081526040918290205482517f6e71edae12b1b97f4d1f60370fef10105fa2faae0126114a169c64845d6126c98184015280840185905294891660608601526080850188905260a0850181905260c08086018890528351808703909101815260e08601845280519083012061190160f01b6101008701527f000000000000000000000000000000000000000000000000000000000000000061010287015261012280870191909152835180870390910181526101429095019092528351930192909220906107f08285610e2f565b6001600160a01b0316146108465760405162461bcd60e51b815260206004820152601b60248201527f45524332305065726d69743a20696e76616c6964207065726d6974000000000060448201526064016104fc565b6001600160a01b038716600090815260056020526040902080546001019055610870878787610a35565b50505050505050565b600033816108878286610927565b9050838110156108e75760405162461bcd60e51b815260206004820152602560248201527f45524332303a2064656372656173656420616c6c6f77616e63652062656c6f77604482015264207a65726f60d81b60648201526084016104fc565b6104868286868403610a35565b600033610463818585610bd3565b600061090d60025490565b610922906a52b7d2dcc80cd2e4000000611357565b905090565b6001600160a01b03918216600090815260016020908152604080832093909416825291909152205490565b6006546001600160a01b0316336001600160a01b03161461099e5760405162461bcd60e51b815260206004820152600660248201526510b0b236b4b760d11b60448201526064016104fc565b6007546001600160a01b038083169116036109e95760405162461bcd60e51b815260206004820152600b60248201526a29b0b6b29036b4b73a32b960a91b60448201526064016104fc565b600780546001600160a01b0319166001600160a01b03831690811790915560405133907fe490d3138e32f1f66ef3971a3c73c7f7704ba0c1d1000f1e2c3df6fc0376610b90600090a350565b6001600160a01b038316610a975760405162461bcd60e51b8152602060048201526024808201527f45524332303a20617070726f76652066726f6d20746865207a65726f206164646044820152637265737360e01b60648201526084016104fc565b6001600160a01b038216610af85760405162461bcd60e51b815260206004820152602260248201527f45524332303a20617070726f766520746f20746865207a65726f206164647265604482015261737360f01b60648201526084016104fc565b6001600160a01b0383811660008181526001602090815260408083209487168084529482529182902085905590518481527f8c5be1e5ebec7d5bd14f71427d1e84f3dd0314c0f7b2291e5b200ac8c7c3b925910160405180910390a3505050565b6000610b658484610927565b90506000198114610bcd5781811015610bc05760405162461bcd60e51b815260206004820152601d60248201527f45524332303a20696e73756666696369656e7420616c6c6f77616e636500000060448201526064016104fc565b610bcd8484848403610a35565b50505050565b6001600160a01b038316610c375760405162461bcd60e51b815260206004820152602560248201527f45524332303a207472616e736665722066726f6d20746865207a65726f206164604482015264647265737360d81b60648201526084016104fc565b6001600160a01b038216610c995760405162461bcd60e51b815260206004820152602360248201527f45524332303a207472616e7366657220746f20746865207a65726f206164647260448201526265737360e81b60648201526084016104fc565b6001600160a01b03831660009081526020819052604090205481811015610d115760405162461bcd60e51b815260206004820152602660248201527f45524332303a207472616e7366657220616d6f756e7420657863656564732062604482015265616c616e636560d01b60648201526084016104fc565b6001600160a01b03848116600081815260208181526040808320878703905593871680835291849020805487019055925185815290927fddf252ad1be2c89b69c2b068fc378daa952ba7f163c4a11628f55a4df523b3ef910160405180910390a3610bcd565b6001600160a01b038216610dcd5760405162461bcd60e51b815260206004820152601f60248201527f45524332303a206d696e7420746f20746865207a65726f20616464726573730060448201526064016104fc565b8060026000828254610ddf9190611344565b90915550506001600160a01b038216600081815260208181526040808320805486019055518481527fddf252ad1be2c89b69c2b068fc378daa952ba7f163c4a11628f55a4df523b3ef91016105a3565b6000806000610e3e8585610e53565b91509150610e4b81610e98565b509392505050565b6000808251604103610e895760208301516040840151606085015160001a610e7d87828585610fe5565b94509450505050610e91565b506000905060025b9250929050565b6000816004811115610eac57610eac61136a565b03610eb45750565b6001816004811115610ec857610ec861136a565b03610f155760405162461bcd60e51b815260206004820152601860248201527f45434453413a20696e76616c6964207369676e6174757265000000000000000060448201526064016104fc565b6002816004811115610f2957610f2961136a565b03610f765760405162461bcd60e51b815260206004820152601f60248201527f45434453413a20696e76616c6964207369676e6174757265206c656e6774680060448201526064016104fc565b6003816004811115610f8a57610f8a61136a565b03610fe25760405162461bcd60e51b815260206004820152602260248201527f45434453413a20696e76616c6964207369676e6174757265202773272076616c604482015261756560f01b60648201526084016104fc565b50565b6000807f7fffffffffffffffffffffffffffffff5d576e7357a4501ddfe92f46681b20a083111561101c57506000905060036110a0565b6040805160008082526020820180845289905260ff881692820192909252606081018690526080810185905260019060a0016020604051602081039080840390855afa158015611070573d6000803e3d6000fd5b5050604051601f1901519150506001600160a01b038116611099576000600192509250506110a0565b9150600090505b94509492505050565b6000602082840312156110bb57600080fd5b81356001600160e01b0319811681146110d357600080fd5b9392505050565b600060208083528351808285015260005b81811015611107578581018301518582016040015282016110eb565b506000604082860101526040601f19601f8301168501019250505092915050565b80356001600160a01b038116811461113f57600080fd5b919050565b6000806040838503121561115757600080fd5b61116083611128565b946020939093013593505050565b60008060006060848603121561118357600080fd5b61118c84611128565b925061119a60208501611128565b9150604084013590509250925092565b6000602082840312156111bc57600080fd5b6110d382611128565b634e487b7160e01b600052604160045260246000fd5b600080600080600060a086880312156111f357600080fd5b6111fc86611128565b945061120a60208701611128565b93506040860135925060608601359150608086013567ffffffffffffffff8082111561123557600080fd5b818801915088601f83011261124957600080fd5b81358181111561125b5761125b6111c5565b604051601f8201601f19908116603f01168101908382118183101715611283576112836111c5565b816040528281528b602084870101111561129c57600080fd5b8260208601602083013760006020848301015280955050505050509295509295909350565b600080604083850312156112d457600080fd5b6112dd83611128565b91506112eb60208401611128565b90509250929050565b600181811c9082168061130857607f821691505b60208210810361132857634e487b7160e01b600052602260045260246000fd5b50919050565b634e487b7160e01b600052601160045260246000fd5b808201808211156103bd576103bd61132e565b818103818111156103bd576103bd61132e565b634e487b7160e01b600052602160045260246000fdfea2646970667358221220949cdae9a66068f5969d5d37652a3a298444df9121875643eb72d6d0e5be380764736f6c63430008110033",
  "devdoc": {
    "author": "Yuri Fernandes (HorizonDAO)",
    "events": {
      "Mint(address,address,uint256)": {
        "details": "Emitted when additional supply is minted"
      },
      "SetAdmin(address,address)": {
        "details": "Emitted when a new admin is set"
      },
      "SetMinter(address,address)": {
        "details": "Emitted when a new minter is set"
      }
    },
    "kind": "dev",
    "methods": {
      "allowance(address,address)": {
        "details": "See {IERC20-allowance}."
      },
      "approve(address,uint256)": {
        "details": "See {IERC20-approve}. NOTE: If `amount` is the maximum `uint256`, the allowance is not updated on `transferFrom`. This is semantically equivalent to an infinite approval. Requirements: - `spender` cannot be the zero address."
      },
      "balanceOf(address)": {
        "details": "See {IERC20-balanceOf}."
      },
      "constructor": {
        "details": "Initialize SkyERC20 contract",
        "params": {
          "_admin": "Address of the admin of the contract"
        }
      },
      "decimals()": {
        "details": "Returns the number of decimals used to get its user representation. For example, if `decimals` equals `2`, a balance of `505` tokens should be displayed to a user as `5.05` (`505 / 10 ** 2`). Tokens usually opt for a value of 18, imitating the relationship between Ether and Wei. This is the value {ERC20} uses, unless this function is overridden; NOTE: This information is only used for _display_ purposes: it in no way affects any of the arithmetic of the contract, including {IERC20-balanceOf} and {IERC20-transfer}."
      },
      "decreaseAllowance(address,uint256)": {
        "details": "Atomically decreases the allowance granted to `spender` by the caller. This is an alternative to {approve} that can be used as a mitigation for problems described in {IERC20-approve}. Emits an {Approval} event indicating the updated allowance. Requirements: - `spender` cannot be the zero address. - `spender` must have allowance for the caller of at least `subtractedValue`."
      },
      "increaseAllowance(address,uint256)": {
        "details": "Atomically increases the allowance granted to `spender` by the caller. This is an alternative to {approve} that can be used as a mitigation for problems described in {IERC20-approve}. Emits an {Approval} event indicating the updated allowance. Requirements: - `spender` cannot be the zero address."
      },
      "mint(address,uint256)": {
        "details": "Mints an amount of tokens to an arbitrary accountMINTER_ROLE is required to execute this function",
        "params": {
          "_amount": "The amount of tokens to mint",
          "_to": "Account to mint the tokens to"
        }
      },
      "name()": {
        "details": "Returns the name of the token."
      },
      "nonces(address)": {
        "details": "Current valid nonce for an user",
        "params": {
          "_owner": "User address"
        }
      },
      "permit(address,address,uint256,uint256,bytes)": {
        "params": {
          "_deadline": "EIP-712 signed message validity",
          "_owner": "Token owner address",
          "_signature": "EIP-712 signature",
          "_spender": "Spender address",
          "_value": "Amount to give allowance to `_spender`"
        }
      },
      "setAdmin(address)": {
        "details": "Set new admin role",
        "params": {
          "_admin": "New admin address"
        }
      },
      "setMinter(address)": {
        "details": "Set new minter role",
        "params": {
          "_minter": "New minter address"
        }
      },
      "supportsInterface(bytes4)": {
        "details": "Returns true if this contract implements the interface defined by `interfaceId`. See the corresponding https://eips.ethereum.org/EIPS/eip-165#how-interfaces-are-identified[EIP section] to learn more about how these ids are created. This function call must use less than 30 000 gas."
      },
      "symbol()": {
        "details": "Returns the symbol of the token, usually a shorter version of the name."
      },
      "totalSupply()": {
        "details": "See {IERC20-totalSupply}."
      },
      "transfer(address,uint256)": {
        "details": "See {IERC20-transfer}. Requirements: - `to` cannot be the zero address. - the caller must have a balance of at least `amount`."
      },
      "transferFrom(address,address,uint256)": {
        "details": "See {IERC20-transferFrom}. Emits an {Approval} event indicating the updated allowance. This is not required by the EIP. See the note at the beginning of {ERC20}. NOTE: Does not update the allowance if the current allowance is the maximum `uint256`. Requirements: - `from` and `to` cannot be the zero address. - `from` must have a balance of at least `amount`. - the caller must have allowance for ``from``'s tokens of at least `amount`."
      }
    },
    "stateVariables": {
      "MAX_SUPPLY": {
        "details": "Maximum supply of 100M tokens (with 18 decimal points)"
      },
      "admin": {
        "details": "Address of the admin: Can set new admin, burner and minter addresses"
      },
      "minter": {
        "details": "Address of the minter: Can execute mint function"
      }
    },
    "title": "Sky Token",
    "version": 1
  },
  "userdoc": {
    "kind": "user",
    "methods": {
      "mintableSupply()": {
        "notice": "Returns how many tokens are available for minting"
      },
      "permit(address,address,uint256,uint256,bytes)": {
        "notice": "Sets `_value` as the allowance of `_spender` over the owners's tokens.Anyone with a signed permit message hash by the `_owner`, can execute this function."
      }
    },
    "notice": "HorizonDAO Governance token",
    "version": 1
  },
  "storageLayout": {
    "storage": [
      {
        "astId": 6453,
        "contract": "contracts/token/SkyERC20.sol:SkyERC20",
        "label": "_balances",
        "offset": 0,
        "slot": "0",
        "type": "t_mapping(t_address,t_uint256)"
      },
      {
        "astId": 6459,
        "contract": "contracts/token/SkyERC20.sol:SkyERC20",
        "label": "_allowances",
        "offset": 0,
        "slot": "1",
        "type": "t_mapping(t_address,t_mapping(t_address,t_uint256))"
      },
      {
        "astId": 6461,
        "contract": "contracts/token/SkyERC20.sol:SkyERC20",
        "label": "_totalSupply",
        "offset": 0,
        "slot": "2",
        "type": "t_uint256"
      },
      {
        "astId": 6463,
        "contract": "contracts/token/SkyERC20.sol:SkyERC20",
        "label": "_name",
        "offset": 0,
        "slot": "3",
        "type": "t_string_storage"
      },
      {
        "astId": 6465,
        "contract": "contracts/token/SkyERC20.sol:SkyERC20",
        "label": "_symbol",
        "offset": 0,
        "slot": "4",
        "type": "t_string_storage"
      },
      {
        "astId": 11803,
        "contract": "contracts/token/SkyERC20.sol:SkyERC20",
        "label": "_nonces",
        "offset": 0,
        "slot": "5",
        "type": "t_mapping(t_address,t_struct(Counter)7802_storage)"
      },
      {
        "astId": 13726,
        "contract": "contracts/token/SkyERC20.sol:SkyERC20",
        "label": "admin",
        "offset": 0,
        "slot": "6",
        "type": "t_address"
      },
      {
        "astId": 13729,
        "contract": "contracts/token/SkyERC20.sol:SkyERC20",
        "label": "minter",
        "offset": 0,
        "slot": "7",
        "type": "t_address"
      }
    ],
    "types": {
      "t_address": {
        "encoding": "inplace",
        "label": "address",
        "numberOfBytes": "20"
      },
      "t_mapping(t_address,t_mapping(t_address,t_uint256))": {
        "encoding": "mapping",
        "key": "t_address",
        "label": "mapping(address => mapping(address => uint256))",
        "numberOfBytes": "32",
        "value": "t_mapping(t_address,t_uint256)"
      },
      "t_mapping(t_address,t_struct(Counter)7802_storage)": {
        "encoding": "mapping",
        "key": "t_address",
        "label": "mapping(address => struct Counters.Counter)",
        "numberOfBytes": "32",
        "value": "t_struct(Counter)7802_storage"
      },
      "t_mapping(t_address,t_uint256)": {
        "encoding": "mapping",
        "key": "t_address",
        "label": "mapping(address => uint256)",
        "numberOfBytes": "32",
        "value": "t_uint256"
      },
      "t_string_storage": {
        "encoding": "bytes",
        "label": "string",
        "numberOfBytes": "32"
      },
      "t_struct(Counter)7802_storage": {
        "encoding": "inplace",
        "label": "struct Counters.Counter",
        "members": [
          {
            "astId": 7801,
            "contract": "contracts/token/SkyERC20.sol:SkyERC20",
            "label": "_value",
            "offset": 0,
            "slot": "0",
            "type": "t_uint256"
          }
        ],
        "numberOfBytes": "32"
      },
      "t_uint256": {
        "encoding": "inplace",
        "label": "uint256",
        "numberOfBytes": "32"
      }
    }
  }
}