{
  "address": "0x90c4512c6F05b1883fB7eB4423dbD99147f7763F",
  "abi": [
    {
      "inputs": [
        {
          "internalType": "address",
          "name": "_authority",
          "type": "address"
        }
      ],
      "stateMutability": "nonpayable",
      "type": "constructor"
    },
    {
      "anonymous": false,
      "inputs": [
        {
          "indexed": true,
          "internalType": "address",
          "name": "owner",
          "type": "address"
        },
        {
          "indexed": true,
          "internalType": "address",
          "name": "spender",
          "type": "address"
        },
        {
          "indexed": false,
          "internalType": "uint256",
          "name": "value",
          "type": "uint256"
        }
      ],
      "name": "Approval",
      "type": "event"
    },
    {
      "anonymous": false,
      "inputs": [
        {
          "indexed": true,
          "internalType": "address",
          "name": "from",
          "type": "address"
        },
        {
          "indexed": true,
          "internalType": "address",
          "name": "to",
          "type": "address"
        },
        {
          "indexed": false,
          "internalType": "uint256",
          "name": "value",
          "type": "uint256"
        }
      ],
      "name": "Transfer",
      "type": "event"
    },
    {
      "inputs": [],
      "name": "DOMAIN_SEPARATOR",
      "outputs": [
        {
          "internalType": "bytes32",
          "name": "",
          "type": "bytes32"
        }
      ],
      "stateMutability": "view",
      "type": "function"
    },
    {
      "inputs": [],
      "name": "EIP712_DOMAIN_TYPEHASH",
      "outputs": [
        {
          "internalType": "bytes32",
          "name": "",
          "type": "bytes32"
        }
      ],
      "stateMutability": "view",
      "type": "function"
    },
    {
      "inputs": [],
      "name": "PERMIT_TYPEHASH",
      "outputs": [
        {
          "internalType": "bytes32",
          "name": "",
          "type": "bytes32"
        }
      ],
      "stateMutability": "view",
      "type": "function"
    },
    {
      "inputs": [
        {
          "internalType": "address",
          "name": "owner",
          "type": "address"
        },
        {
          "internalType": "address",
          "name": "spender",
          "type": "address"
        }
      ],
      "name": "allowance",
      "outputs": [
        {
          "internalType": "uint256",
          "name": "",
          "type": "uint256"
        }
      ],
      "stateMutability": "view",
      "type": "function"
    },
    {
      "inputs": [
        {
          "internalType": "address",
          "name": "spender",
          "type": "address"
        },
        {
          "internalType": "uint256",
          "name": "amount",
          "type": "uint256"
        }
      ],
      "name": "approve",
      "outputs": [
        {
          "internalType": "bool",
          "name": "",
          "type": "bool"
        }
      ],
      "stateMutability": "nonpayable",
      "type": "function"
    },
    {
      "inputs": [],
      "name": "authority",
      "outputs": [
        {
          "internalType": "address",
          "name": "",
          "type": "address"
        }
      ],
      "stateMutability": "view",
      "type": "function"
    },
    {
      "inputs": [
        {
          "internalType": "address",
          "name": "account",
          "type": "address"
        }
      ],
      "name": "balanceOf",
      "outputs": [
        {
          "internalType": "uint256",
          "name": "",
          "type": "uint256"
        }
      ],
      "stateMutability": "view",
      "type": "function"
    },
    {
      "inputs": [
        {
          "internalType": "address",
          "name": "_authority",
          "type": "address"
        }
      ],
      "name": "changeAuthority",
      "outputs": [],
      "stateMutability": "nonpayable",
      "type": "function"
    },
    {
      "inputs": [],
      "name": "decimals",
      "outputs": [
        {
          "internalType": "uint8",
          "name": "",
          "type": "uint8"
        }
      ],
      "stateMutability": "view",
      "type": "function"
    },
    {
      "inputs": [
        {
          "internalType": "address",
          "name": "spender",
          "type": "address"
        },
        {
          "internalType": "uint256",
          "name": "subtractedValue",
          "type": "uint256"
        }
      ],
      "name": "decreaseAllowance",
      "outputs": [
        {
          "internalType": "bool",
          "name": "",
          "type": "bool"
        }
      ],
      "stateMutability": "nonpayable",
      "type": "function"
    },
    {
      "inputs": [
        {
          "internalType": "address",
          "name": "_to",
          "type": "address"
        },
        {
          "internalType": "uint256",
          "name": "_amount",
          "type": "uint256"
        }
      ],
      "name": "freeMint",
      "outputs": [],
      "stateMutability": "nonpayable",
      "type": "function"
    },
    {
      "inputs": [
        {
          "internalType": "address",
          "name": "spender",
          "type": "address"
        },
        {
          "internalType": "uint256",
          "name": "addedValue",
          "type": "uint256"
        }
      ],
      "name": "increaseAllowance",
      "outputs": [
        {
          "internalType": "bool",
          "name": "",
          "type": "bool"
        }
      ],
      "stateMutability": "nonpayable",
      "type": "function"
    },
    {
      "inputs": [],
      "name": "name",
      "outputs": [
        {
          "internalType": "string",
          "name": "",
          "type": "string"
        }
      ],
      "stateMutability": "view",
      "type": "function"
    },
    {
      "inputs": [
        {
          "internalType": "address",
          "name": "_owner",
          "type": "address"
        }
      ],
      "name": "nonces",
      "outputs": [
        {
          "internalType": "uint256",
          "name": "",
          "type": "uint256"
        }
      ],
      "stateMutability": "view",
      "type": "function"
    },
    {
      "inputs": [
        {
          "internalType": "address",
          "name": "_owner",
          "type": "address"
        },
        {
          "internalType": "address",
          "name": "_spender",
          "type": "address"
        },
        {
          "internalType": "uint256",
          "name": "_value",
          "type": "uint256"
        },
        {
          "internalType": "uint256",
          "name": "_deadline",
          "type": "uint256"
        },
        {
          "internalType": "bytes",
          "name": "_signature",
          "type": "bytes"
        }
      ],
      "name": "permit",
      "outputs": [],
      "stateMutability": "nonpayable",
      "type": "function"
    },
    {
      "inputs": [
        {
          "internalType": "bytes4",
          "name": "interfaceId",
          "type": "bytes4"
        }
      ],
      "name": "supportsInterface",
      "outputs": [
        {
          "internalType": "bool",
          "name": "",
          "type": "bool"
        }
      ],
      "stateMutability": "pure",
      "type": "function"
    },
    {
      "inputs": [],
      "name": "symbol",
      "outputs": [
        {
          "internalType": "string",
          "name": "",
          "type": "string"
        }
      ],
      "stateMutability": "view",
      "type": "function"
    },
    {
      "inputs": [],
      "name": "totalSupply",
      "outputs": [
        {
          "internalType": "uint256",
          "name": "",
          "type": "uint256"
        }
      ],
      "stateMutability": "view",
      "type": "function"
    },
    {
      "inputs": [
        {
          "internalType": "address",
          "name": "to",
          "type": "address"
        },
        {
          "internalType": "uint256",
          "name": "amount",
          "type": "uint256"
        }
      ],
      "name": "transfer",
      "outputs": [
        {
          "internalType": "bool",
          "name": "",
          "type": "bool"
        }
      ],
      "stateMutability": "nonpayable",
      "type": "function"
    },
    {
      "inputs": [
        {
          "internalType": "address",
          "name": "from",
          "type": "address"
        },
        {
          "internalType": "address",
          "name": "to",
          "type": "address"
        },
        {
          "internalType": "uint256",
          "name": "amount",
          "type": "uint256"
        }
      ],
      "name": "transferFrom",
      "outputs": [
        {
          "internalType": "bool",
          "name": "",
          "type": "bool"
        }
      ],
      "stateMutability": "nonpayable",
      "type": "function"
    }
  ],
  "transactionHash": "0x36f90521b43aaae302b681b4cd1a5647ab65e0cb7e75c2106743247e09bea067",
  "args": [
    "0x39a242169BA3B28623E6d235A4Bdd46287d4bae3"
  ],
  "numDeployments": 1,
  "solcInputHash": "ebfb37ed58d535c4764388309a1c8ed7",
  "bytecode": "0x60a06040523480156200001157600080fd5b506040516200143438038062001434833981016040819052620000349162000151565b6040518060400160405280600981526020016855534454204d6f636b60b81b815250604051806040016040528060048152602001631554d11560e21b81525081818181816003908162000088919062000228565b50600462000097828262000228565b50508251602080850191909120604080517f8b73c3c69bb8fe3d512ecc4cf759cc79239f7b179b0ffacaa9a75d522b39400f938101939093528201527fc89efdaa54c0f20c7adf612882df0950f5a951637e0307cdcb4c672f298b8bc660608201524660808201523060a082015260c001905060408051808303601f1901815291905280516020909101206080525050600680546001600160a01b0319166001600160a01b03949094169390931790925550620002f49050565b6000602082840312156200016457600080fd5b81516001600160a01b03811681146200017c57600080fd5b9392505050565b634e487b7160e01b600052604160045260246000fd5b600181811c90821680620001ae57607f821691505b602082108103620001cf57634e487b7160e01b600052602260045260246000fd5b50919050565b601f8211156200022357600081815260208120601f850160051c81016020861015620001fe5750805b601f850160051c820191505b818110156200021f578281556001016200020a565b5050505b505050565b81516001600160401b0381111562000244576200024462000183565b6200025c8162000255845462000199565b84620001d5565b602080601f8311600181146200029457600084156200027b5750858301515b600019600386901b1c1916600185901b1785556200021f565b600085815260208120601f198616915b82811015620002c557888601518255948401946001909101908401620002a4565b5085821015620002e45787850151600019600388901b60f8161c191681555b5050505050600190811b01905550565b60805161111d62000317600039600081816101f60152610614015261111d6000f3fe608060405234801561001057600080fd5b506004361061012c5760003560e01c806370a08231116100ad578063a457c2d711610071578063a457c2d714610295578063a9059cbb146102a8578063bf7e214f146102bb578063c7977be7146102e6578063dd62ed3e1461030d57600080fd5b806370a082311461022b5780637ecebe001461025457806395d89b41146102675780639883566e1461026f5780639fd5a6cf1461028257600080fd5b806323b872dd116100f457806323b872dd146101a857806330adf81f146101bb578063313ce567146101e25780633644e515146101f1578063395093511461021857600080fd5b806301ffc9a71461013157806306fdde0314610159578063095ea7b31461016e578063116877cc1461018157806318160ddd14610196575b600080fd5b61014461013f366004610e2b565b610320565b60405190151581526020015b60405180910390f35b610161610357565b6040516101509190610e5c565b61014461017c366004610ec6565b6103e9565b61019461018f366004610ef0565b610401565b005b6002545b604051908152602001610150565b6101446101b6366004610f0b565b61046f565b61019a7f6e71edae12b1b97f4d1f60370fef10105fa2faae0126114a169c64845d6126c981565b60405160128152602001610150565b61019a7f000000000000000000000000000000000000000000000000000000000000000081565b610144610226366004610ec6565b610493565b61019a610239366004610ef0565b6001600160a01b031660009081526020819052604090205490565b61019a610262366004610ef0565b6104b5565b6101616104d3565b61019461027d366004610ec6565b6104e2565b610194610290366004610f5d565b610537565b6101446102a3366004610ec6565b6106f2565b6101446102b6366004610ec6565b61076d565b6006546102ce906001600160a01b031681565b6040516001600160a01b039091168152602001610150565b61019a7f8b73c3c69bb8fe3d512ecc4cf759cc79239f7b179b0ffacaa9a75d522b39400f81565b61019a61031b366004611043565b61077b565b60006301ffc9a760e01b6001600160e01b03198316148061035157506336372b0760e01b6001600160e01b03198316145b92915050565b60606003805461036690611076565b80601f016020809104026020016040519081016040528092919081815260200182805461039290611076565b80156103df5780601f106103b4576101008083540402835291602001916103df565b820191906000526020600020905b8154815290600101906020018083116103c257829003601f168201915b5050505050905090565b6000336103f78185856107a6565b5060019392505050565b6006546001600160a01b0316331461044d5760405162461bcd60e51b815260206004820152600a60248201526921617574686f7269747960b01b60448201526064015b60405180910390fd5b600680546001600160a01b0319166001600160a01b0392909216919091179055565b60003361047d8582856108ca565b610488858585610944565b506001949350505050565b6000336103f78185856104a6838361077b565b6104b091906110b0565b6107a6565b6001600160a01b038116600090815260056020526040812054610351565b60606004805461036690611076565b6006546001600160a01b031633146105295760405162461bcd60e51b815260206004820152600a60248201526921617574686f7269747960b01b6044820152606401610444565b6105338282610ae8565b5050565b814211156105875760405162461bcd60e51b815260206004820152601d60248201527f45524332305065726d69743a20646561646c696e6520726561636865640000006044820152606401610444565b6001600160a01b038581166000818152600560209081526040918290205482517f6e71edae12b1b97f4d1f60370fef10105fa2faae0126114a169c64845d6126c98184015280840185905294891660608601526080850188905260a0850181905260c08086018890528351808703909101815260e08601845280519083012061190160f01b6101008701527f000000000000000000000000000000000000000000000000000000000000000061010287015261012280870191909152835180870390910181526101429095019092528351930192909220906106698285610af2565b6001600160a01b0316146106bf5760405162461bcd60e51b815260206004820152601b60248201527f45524332305065726d69743a20696e76616c6964207065726d697400000000006044820152606401610444565b6001600160a01b0387166000908152600560205260409020805460010190556106e98787876107a6565b50505050505050565b60003381610700828661077b565b9050838110156107605760405162461bcd60e51b815260206004820152602560248201527f45524332303a2064656372656173656420616c6c6f77616e63652062656c6f77604482015264207a65726f60d81b6064820152608401610444565b61048882868684036107a6565b6000336103f7818585610944565b6001600160a01b03918216600090815260016020908152604080832093909416825291909152205490565b6001600160a01b0383166108085760405162461bcd60e51b8152602060048201526024808201527f45524332303a20617070726f76652066726f6d20746865207a65726f206164646044820152637265737360e01b6064820152608401610444565b6001600160a01b0382166108695760405162461bcd60e51b815260206004820152602260248201527f45524332303a20617070726f766520746f20746865207a65726f206164647265604482015261737360f01b6064820152608401610444565b6001600160a01b0383811660008181526001602090815260408083209487168084529482529182902085905590518481527f8c5be1e5ebec7d5bd14f71427d1e84f3dd0314c0f7b2291e5b200ac8c7c3b925910160405180910390a3505050565b60006108d6848461077b565b9050600019811461093e57818110156109315760405162461bcd60e51b815260206004820152601d60248201527f45524332303a20696e73756666696369656e7420616c6c6f77616e63650000006044820152606401610444565b61093e84848484036107a6565b50505050565b6001600160a01b0383166109a85760405162461bcd60e51b815260206004820152602560248201527f45524332303a207472616e736665722066726f6d20746865207a65726f206164604482015264647265737360d81b6064820152608401610444565b6001600160a01b038216610a0a5760405162461bcd60e51b815260206004820152602360248201527f45524332303a207472616e7366657220746f20746865207a65726f206164647260448201526265737360e81b6064820152608401610444565b6001600160a01b03831660009081526020819052604090205481811015610a825760405162461bcd60e51b815260206004820152602660248201527f45524332303a207472616e7366657220616d6f756e7420657863656564732062604482015265616c616e636560d01b6064820152608401610444565b6001600160a01b03848116600081815260208181526040808320878703905593871680835291849020805487019055925185815290927fddf252ad1be2c89b69c2b068fc378daa952ba7f163c4a11628f55a4df523b3ef910160405180910390a361093e565b6105338282610b16565b6000806000610b018585610bd5565b91509150610b0e81610c1a565b509392505050565b6001600160a01b038216610b6c5760405162461bcd60e51b815260206004820152601f60248201527f45524332303a206d696e7420746f20746865207a65726f2061646472657373006044820152606401610444565b8060026000828254610b7e91906110b0565b90915550506001600160a01b038216600081815260208181526040808320805486019055518481527fddf252ad1be2c89b69c2b068fc378daa952ba7f163c4a11628f55a4df523b3ef910160405180910390a35050565b6000808251604103610c0b5760208301516040840151606085015160001a610bff87828585610d67565b94509450505050610c13565b506000905060025b9250929050565b6000816004811115610c2e57610c2e6110d1565b03610c365750565b6001816004811115610c4a57610c4a6110d1565b03610c975760405162461bcd60e51b815260206004820152601860248201527f45434453413a20696e76616c6964207369676e617475726500000000000000006044820152606401610444565b6002816004811115610cab57610cab6110d1565b03610cf85760405162461bcd60e51b815260206004820152601f60248201527f45434453413a20696e76616c6964207369676e6174757265206c656e677468006044820152606401610444565b6003816004811115610d0c57610d0c6110d1565b03610d645760405162461bcd60e51b815260206004820152602260248201527f45434453413a20696e76616c6964207369676e6174757265202773272076616c604482015261756560f01b6064820152608401610444565b50565b6000807f7fffffffffffffffffffffffffffffff5d576e7357a4501ddfe92f46681b20a0831115610d9e5750600090506003610e22565b6040805160008082526020820180845289905260ff881692820192909252606081018690526080810185905260019060a0016020604051602081039080840390855afa158015610df2573d6000803e3d6000fd5b5050604051601f1901519150506001600160a01b038116610e1b57600060019250925050610e22565b9150600090505b94509492505050565b600060208284031215610e3d57600080fd5b81356001600160e01b031981168114610e5557600080fd5b9392505050565b600060208083528351808285015260005b81811015610e8957858101830151858201604001528201610e6d565b506000604082860101526040601f19601f8301168501019250505092915050565b80356001600160a01b0381168114610ec157600080fd5b919050565b60008060408385031215610ed957600080fd5b610ee283610eaa565b946020939093013593505050565b600060208284031215610f0257600080fd5b610e5582610eaa565b600080600060608486031215610f2057600080fd5b610f2984610eaa565b9250610f3760208501610eaa565b9150604084013590509250925092565b634e487b7160e01b600052604160045260246000fd5b600080600080600060a08688031215610f7557600080fd5b610f7e86610eaa565b9450610f8c60208701610eaa565b93506040860135925060608601359150608086013567ffffffffffffffff80821115610fb757600080fd5b818801915088601f830112610fcb57600080fd5b813581811115610fdd57610fdd610f47565b604051601f8201601f19908116603f0116810190838211818310171561100557611005610f47565b816040528281528b602084870101111561101e57600080fd5b8260208601602083013760006020848301015280955050505050509295509295909350565b6000806040838503121561105657600080fd5b61105f83610eaa565b915061106d60208401610eaa565b90509250929050565b600181811c9082168061108a57607f821691505b6020821081036110aa57634e487b7160e01b600052602260045260246000fd5b50919050565b8082018082111561035157634e487b7160e01b600052601160045260246000fd5b634e487b7160e01b600052602160045260246000fdfea2646970667358221220e32f28467270c995634a7ad268e885d1b2e5f2fa8e1d8b0779228357148a1b1164736f6c63430008110033",
  "devdoc": {
    "kind": "dev",
    "methods": {
      "allowance(address,address)": {
        "details": "See {IERC20-allowance}."
      },
      "approve(address,uint256)": {
        "details": "See {IERC20-approve}. NOTE: If `amount` is the maximum `uint256`, the allowance is not updated on `transferFrom`. This is semantically equivalent to an infinite approval. Requirements: - `spender` cannot be the zero address."
      },
      "balanceOf(address)": {
        "details": "See {IERC20-balanceOf}."
      },
      "decimals()": {
        "details": "Returns the number of decimals used to get its user representation. For example, if `decimals` equals `2`, a balance of `505` tokens should be displayed to a user as `5.05` (`505 / 10 ** 2`). Tokens usually opt for a value of 18, imitating the relationship between Ether and Wei. This is the value {ERC20} uses, unless this function is overridden; NOTE: This information is only used for _display_ purposes: it in no way affects any of the arithmetic of the contract, including {IERC20-balanceOf} and {IERC20-transfer}."
      },
      "decreaseAllowance(address,uint256)": {
        "details": "Atomically decreases the allowance granted to `spender` by the caller. This is an alternative to {approve} that can be used as a mitigation for problems described in {IERC20-approve}. Emits an {Approval} event indicating the updated allowance. Requirements: - `spender` cannot be the zero address. - `spender` must have allowance for the caller of at least `subtractedValue`."
      },
      "increaseAllowance(address,uint256)": {
        "details": "Atomically increases the allowance granted to `spender` by the caller. This is an alternative to {approve} that can be used as a mitigation for problems described in {IERC20-approve}. Emits an {Approval} event indicating the updated allowance. Requirements: - `spender` cannot be the zero address."
      },
      "name()": {
        "details": "Returns the name of the token."
      },
      "nonces(address)": {
        "details": "Current valid nonce for an user",
        "params": {
          "_owner": "User address"
        }
      },
      "permit(address,address,uint256,uint256,bytes)": {
        "params": {
          "_deadline": "EIP-712 signed message validity",
          "_owner": "Token owner address",
          "_signature": "EIP-712 signature",
          "_spender": "Spender address",
          "_value": "Amount to give allowance to `_spender`"
        }
      },
      "supportsInterface(bytes4)": {
        "details": "Returns true if this contract implements the interface defined by `interfaceId`. See the corresponding https://eips.ethereum.org/EIPS/eip-165#how-interfaces-are-identified[EIP section] to learn more about how these ids are created. This function call must use less than 30 000 gas."
      },
      "symbol()": {
        "details": "Returns the symbol of the token, usually a shorter version of the name."
      },
      "totalSupply()": {
        "details": "See {IERC20-totalSupply}."
      },
      "transfer(address,uint256)": {
        "details": "See {IERC20-transfer}. Requirements: - `to` cannot be the zero address. - the caller must have a balance of at least `amount`."
      },
      "transferFrom(address,address,uint256)": {
        "details": "See {IERC20-transferFrom}. Emits an {Approval} event indicating the updated allowance. This is not required by the EIP. See the note at the beginning of {ERC20}. NOTE: Does not update the allowance if the current allowance is the maximum `uint256`. Requirements: - `from` and `to` cannot be the zero address. - `from` must have a balance of at least `amount`. - the caller must have allowance for ``from``'s tokens of at least `amount`."
      }
    },
    "version": 1
  },
  "userdoc": {
    "kind": "user",
    "methods": {
      "permit(address,address,uint256,uint256,bytes)": {
        "notice": "Sets `_value` as the allowance of `_spender` over the owners's tokens.Anyone with a signed permit message hash by the `_owner`, can execute this function."
      }
    },
    "version": 1
  },
  "storageLayout": {
    "storage": [
      {
        "astId": 1840,
        "contract": "contracts/mocks/USDTMock.sol:USDTMock",
        "label": "_balances",
        "offset": 0,
        "slot": "0",
        "type": "t_mapping(t_address,t_uint256)"
      },
      {
        "astId": 1846,
        "contract": "contracts/mocks/USDTMock.sol:USDTMock",
        "label": "_allowances",
        "offset": 0,
        "slot": "1",
        "type": "t_mapping(t_address,t_mapping(t_address,t_uint256))"
      },
      {
        "astId": 1848,
        "contract": "contracts/mocks/USDTMock.sol:USDTMock",
        "label": "_totalSupply",
        "offset": 0,
        "slot": "2",
        "type": "t_uint256"
      },
      {
        "astId": 1850,
        "contract": "contracts/mocks/USDTMock.sol:USDTMock",
        "label": "_name",
        "offset": 0,
        "slot": "3",
        "type": "t_string_storage"
      },
      {
        "astId": 1852,
        "contract": "contracts/mocks/USDTMock.sol:USDTMock",
        "label": "_symbol",
        "offset": 0,
        "slot": "4",
        "type": "t_string_storage"
      },
      {
        "astId": 5346,
        "contract": "contracts/mocks/USDTMock.sol:USDTMock",
        "label": "_nonces",
        "offset": 0,
        "slot": "5",
        "type": "t_mapping(t_address,t_struct(Counter)2542_storage)"
      },
      {
        "astId": 4119,
        "contract": "contracts/mocks/USDTMock.sol:USDTMock",
        "label": "authority",
        "offset": 0,
        "slot": "6",
        "type": "t_address"
      }
    ],
    "types": {
      "t_address": {
        "encoding": "inplace",
        "label": "address",
        "numberOfBytes": "20"
      },
      "t_mapping(t_address,t_mapping(t_address,t_uint256))": {
        "encoding": "mapping",
        "key": "t_address",
        "label": "mapping(address => mapping(address => uint256))",
        "numberOfBytes": "32",
        "value": "t_mapping(t_address,t_uint256)"
      },
      "t_mapping(t_address,t_struct(Counter)2542_storage)": {
        "encoding": "mapping",
        "key": "t_address",
        "label": "mapping(address => struct Counters.Counter)",
        "numberOfBytes": "32",
        "value": "t_struct(Counter)2542_storage"
      },
      "t_mapping(t_address,t_uint256)": {
        "encoding": "mapping",
        "key": "t_address",
        "label": "mapping(address => uint256)",
        "numberOfBytes": "32",
        "value": "t_uint256"
      },
      "t_string_storage": {
        "encoding": "bytes",
        "label": "string",
        "numberOfBytes": "32"
      },
      "t_struct(Counter)2542_storage": {
        "encoding": "inplace",
        "label": "struct Counters.Counter",
        "members": [
          {
            "astId": 2541,
            "contract": "contracts/mocks/USDTMock.sol:USDTMock",
            "label": "_value",
            "offset": 0,
            "slot": "0",
            "type": "t_uint256"
          }
        ],
        "numberOfBytes": "32"
      },
      "t_uint256": {
        "encoding": "inplace",
        "label": "uint256",
        "numberOfBytes": "32"
      }
    }
  }
}