{
  "address": "0xd5d12Af29B40a99977307D194FDa607E6331f5f9",
  "abi": [
    {
      "inputs": [
        {
          "internalType": "string",
          "name": "_baseUri",
          "type": "string"
        },
        {
          "internalType": "address",
          "name": "_admin",
          "type": "address"
        },
        {
          "internalType": "address",
          "name": "_owner",
          "type": "address"
        }
      ],
      "stateMutability": "nonpayable",
      "type": "constructor"
    },
    {
      "anonymous": false,
      "inputs": [
        {
          "indexed": true,
          "internalType": "uint256",
          "name": "_id",
          "type": "uint256"
        },
        {
          "indexed": true,
          "internalType": "address",
          "name": "_owner",
          "type": "address"
        },
        {
          "indexed": true,
          "internalType": "address",
          "name": "_spender",
          "type": "address"
        },
        {
          "indexed": false,
          "internalType": "uint256",
          "name": "_amount",
          "type": "uint256"
        }
      ],
      "name": "Approval",
      "type": "event"
    },
    {
      "anonymous": false,
      "inputs": [
        {
          "indexed": true,
          "internalType": "address",
          "name": "account",
          "type": "address"
        },
        {
          "indexed": true,
          "internalType": "address",
          "name": "operator",
          "type": "address"
        },
        {
          "indexed": false,
          "internalType": "bool",
          "name": "approved",
          "type": "bool"
        }
      ],
      "name": "ApprovalForAll",
      "type": "event"
    },
    {
      "anonymous": false,
      "inputs": [
        {
          "indexed": true,
          "internalType": "address",
          "name": "_by",
          "type": "address"
        },
        {
          "indexed": false,
          "internalType": "string",
          "name": "_value",
          "type": "string"
        }
      ],
      "name": "ContractURIUpdated",
      "type": "event"
    },
    {
      "anonymous": false,
      "inputs": [
        {
          "indexed": true,
          "internalType": "address",
          "name": "_contractAddress",
          "type": "address"
        },
        {
          "indexed": true,
          "internalType": "bool",
          "name": "_isPerpetual",
          "type": "bool"
        }
      ],
      "name": "LogTogglePerpetual",
      "type": "event"
    },
    {
      "anonymous": false,
      "inputs": [
        {
          "indexed": true,
          "internalType": "address",
          "name": "_admin",
          "type": "address"
        }
      ],
      "name": "NewAdmin",
      "type": "event"
    },
    {
      "anonymous": false,
      "inputs": [
        {
          "indexed": true,
          "internalType": "address",
          "name": "_burner",
          "type": "address"
        }
      ],
      "name": "NewBurner",
      "type": "event"
    },
    {
      "anonymous": false,
      "inputs": [
        {
          "indexed": true,
          "internalType": "address",
          "name": "_minter",
          "type": "address"
        }
      ],
      "name": "NewMinter",
      "type": "event"
    },
    {
      "anonymous": false,
      "inputs": [
        {
          "indexed": true,
          "internalType": "address",
          "name": "_by",
          "type": "address"
        },
        {
          "indexed": true,
          "internalType": "address",
          "name": "_oldVal",
          "type": "address"
        },
        {
          "indexed": true,
          "internalType": "address",
          "name": "_newVal",
          "type": "address"
        }
      ],
      "name": "OwnerUpdated",
      "type": "event"
    },
    {
      "anonymous": false,
      "inputs": [
        {
          "indexed": true,
          "internalType": "uint256",
          "name": "_id",
          "type": "uint256"
        },
        {
          "indexed": true,
          "internalType": "address",
          "name": "_minter",
          "type": "address"
        },
        {
          "indexed": true,
          "internalType": "address",
          "name": "_to",
          "type": "address"
        },
        {
          "indexed": false,
          "internalType": "uint256",
          "name": "_amount",
          "type": "uint256"
        }
      ],
      "name": "RealEstateNFTMinted",
      "type": "event"
    },
    {
      "anonymous": false,
      "inputs": [
        {
          "indexed": true,
          "internalType": "uint256",
          "name": "_id",
          "type": "uint256"
        },
        {
          "indexed": true,
          "internalType": "address",
          "name": "_account",
          "type": "address"
        },
        {
          "indexed": false,
          "internalType": "uint256",
          "name": "_updatedAt",
          "type": "uint256"
        },
        {
          "indexed": false,
          "internalType": "uint256",
          "name": "_extendedTo",
          "type": "uint256"
        }
      ],
      "name": "RenovationTimeUpdated",
      "type": "event"
    },
    {
      "anonymous": false,
      "inputs": [
        {
          "indexed": true,
          "internalType": "address",
          "name": "_by",
          "type": "address"
        },
        {
          "indexed": true,
          "internalType": "address",
          "name": "_receiver",
          "type": "address"
        },
        {
          "indexed": false,
          "internalType": "uint16",
          "name": "_percentage",
          "type": "uint16"
        }
      ],
      "name": "RoyaltyInfoUpdated",
      "type": "event"
    },
    {
      "anonymous": false,
      "inputs": [
        {
          "indexed": true,
          "internalType": "uint256",
          "name": "_id",
          "type": "uint256"
        },
        {
          "indexed": false,
          "internalType": "string",
          "name": "_name",
          "type": "string"
        },
        {
          "indexed": false,
          "internalType": "string",
          "name": "_symbol",
          "type": "string"
        },
        {
          "indexed": false,
          "internalType": "uint256",
          "name": "_renovationTime",
          "type": "uint256"
        }
      ],
      "name": "SetCollectionMetadata",
      "type": "event"
    },
    {
      "anonymous": false,
      "inputs": [
        {
          "indexed": true,
          "internalType": "address",
          "name": "operator",
          "type": "address"
        },
        {
          "indexed": true,
          "internalType": "address",
          "name": "from",
          "type": "address"
        },
        {
          "indexed": true,
          "internalType": "address",
          "name": "to",
          "type": "address"
        },
        {
          "indexed": false,
          "internalType": "uint256[]",
          "name": "ids",
          "type": "uint256[]"
        },
        {
          "indexed": false,
          "internalType": "uint256[]",
          "name": "values",
          "type": "uint256[]"
        }
      ],
      "name": "TransferBatch",
      "type": "event"
    },
    {
      "anonymous": false,
      "inputs": [
        {
          "indexed": true,
          "internalType": "address",
          "name": "operator",
          "type": "address"
        },
        {
          "indexed": true,
          "internalType": "address",
          "name": "from",
          "type": "address"
        },
        {
          "indexed": true,
          "internalType": "address",
          "name": "to",
          "type": "address"
        },
        {
          "indexed": false,
          "internalType": "uint256",
          "name": "id",
          "type": "uint256"
        },
        {
          "indexed": false,
          "internalType": "uint256",
          "name": "value",
          "type": "uint256"
        }
      ],
      "name": "TransferSingle",
      "type": "event"
    },
    {
      "anonymous": false,
      "inputs": [
        {
          "indexed": false,
          "internalType": "string",
          "name": "value",
          "type": "string"
        },
        {
          "indexed": true,
          "internalType": "uint256",
          "name": "id",
          "type": "uint256"
        }
      ],
      "name": "URI",
      "type": "event"
    },
    {
      "inputs": [
        {
          "internalType": "uint256",
          "name": "",
          "type": "uint256"
        },
        {
          "internalType": "address",
          "name": "",
          "type": "address"
        }
      ],
      "name": "accountExpirationTime",
      "outputs": [
        {
          "internalType": "uint256",
          "name": "",
          "type": "uint256"
        }
      ],
      "stateMutability": "view",
      "type": "function"
    },
    {
      "inputs": [
        {
          "internalType": "uint256",
          "name": "_id",
          "type": "uint256"
        },
        {
          "internalType": "address",
          "name": "_account",
          "type": "address"
        }
      ],
      "name": "accountExpired",
      "outputs": [
        {
          "internalType": "bool",
          "name": "",
          "type": "bool"
        }
      ],
      "stateMutability": "view",
      "type": "function"
    },
    {
      "inputs": [],
      "name": "admin",
      "outputs": [
        {
          "internalType": "address",
          "name": "",
          "type": "address"
        }
      ],
      "stateMutability": "view",
      "type": "function"
    },
    {
      "inputs": [
        {
          "internalType": "uint256",
          "name": "_id",
          "type": "uint256"
        },
        {
          "internalType": "address",
          "name": "_spender",
          "type": "address"
        },
        {
          "internalType": "uint256",
          "name": "_amount",
          "type": "uint256"
        }
      ],
      "name": "approve",
      "outputs": [
        {
          "internalType": "bool",
          "name": "",
          "type": "bool"
        }
      ],
      "stateMutability": "nonpayable",
      "type": "function"
    },
    {
      "inputs": [
        {
          "internalType": "address",
          "name": "account",
          "type": "address"
        },
        {
          "internalType": "uint256",
          "name": "id",
          "type": "uint256"
        }
      ],
      "name": "balanceOf",
      "outputs": [
        {
          "internalType": "uint256",
          "name": "",
          "type": "uint256"
        }
      ],
      "stateMutability": "view",
      "type": "function"
    },
    {
      "inputs": [
        {
          "internalType": "address[]",
          "name": "accounts",
          "type": "address[]"
        },
        {
          "internalType": "uint256[]",
          "name": "ids",
          "type": "uint256[]"
        }
      ],
      "name": "balanceOfBatch",
      "outputs": [
        {
          "internalType": "uint256[]",
          "name": "",
          "type": "uint256[]"
        }
      ],
      "stateMutability": "view",
      "type": "function"
    },
    {
      "inputs": [
        {
          "internalType": "uint256",
          "name": "_id",
          "type": "uint256"
        },
        {
          "internalType": "uint256",
          "name": "_amount",
          "type": "uint256"
        }
      ],
      "name": "burn",
      "outputs": [],
      "stateMutability": "nonpayable",
      "type": "function"
    },
    {
      "inputs": [],
      "name": "burner",
      "outputs": [
        {
          "internalType": "address",
          "name": "",
          "type": "address"
        }
      ],
      "stateMutability": "view",
      "type": "function"
    },
    {
      "inputs": [
        {
          "internalType": "uint256",
          "name": "",
          "type": "uint256"
        }
      ],
      "name": "collectionName",
      "outputs": [
        {
          "internalType": "string",
          "name": "",
          "type": "string"
        }
      ],
      "stateMutability": "view",
      "type": "function"
    },
    {
      "inputs": [
        {
          "internalType": "uint256",
          "name": "",
          "type": "uint256"
        }
      ],
      "name": "collectionRenovationTime",
      "outputs": [
        {
          "internalType": "uint256",
          "name": "",
          "type": "uint256"
        }
      ],
      "stateMutability": "view",
      "type": "function"
    },
    {
      "inputs": [
        {
          "internalType": "uint256",
          "name": "",
          "type": "uint256"
        }
      ],
      "name": "collectionSymbol",
      "outputs": [
        {
          "internalType": "string",
          "name": "",
          "type": "string"
        }
      ],
      "stateMutability": "view",
      "type": "function"
    },
    {
      "inputs": [],
      "name": "contractURI",
      "outputs": [
        {
          "internalType": "string",
          "name": "",
          "type": "string"
        }
      ],
      "stateMutability": "view",
      "type": "function"
    },
    {
      "inputs": [
        {
          "internalType": "uint256",
          "name": "id",
          "type": "uint256"
        }
      ],
      "name": "exists",
      "outputs": [
        {
          "internalType": "bool",
          "name": "",
          "type": "bool"
        }
      ],
      "stateMutability": "view",
      "type": "function"
    },
    {
      "inputs": [
        {
          "internalType": "address",
          "name": "account",
          "type": "address"
        },
        {
          "internalType": "address",
          "name": "operator",
          "type": "address"
        }
      ],
      "name": "isApprovedForAll",
      "outputs": [
        {
          "internalType": "bool",
          "name": "",
          "type": "bool"
        }
      ],
      "stateMutability": "view",
      "type": "function"
    },
    {
      "inputs": [
        {
          "internalType": "uint256",
          "name": "_id",
          "type": "uint256"
        },
        {
          "internalType": "address",
          "name": "_account",
          "type": "address"
        }
      ],
      "name": "isLiquidable",
      "outputs": [
        {
          "internalType": "bool",
          "name": "",
          "type": "bool"
        }
      ],
      "stateMutability": "view",
      "type": "function"
    },
    {
      "inputs": [
        {
          "internalType": "address",
          "name": "_addr",
          "type": "address"
        }
      ],
      "name": "isOwner",
      "outputs": [
        {
          "internalType": "bool",
          "name": "",
          "type": "bool"
        }
      ],
      "stateMutability": "view",
      "type": "function"
    },
    {
      "inputs": [
        {
          "internalType": "address",
          "name": "",
          "type": "address"
        }
      ],
      "name": "isPerpetual",
      "outputs": [
        {
          "internalType": "bool",
          "name": "",
          "type": "bool"
        }
      ],
      "stateMutability": "view",
      "type": "function"
    },
    {
      "inputs": [],
      "name": "liquidator",
      "outputs": [
        {
          "internalType": "address",
          "name": "",
          "type": "address"
        }
      ],
      "stateMutability": "view",
      "type": "function"
    },
    {
      "inputs": [
        {
          "internalType": "uint256",
          "name": "_id",
          "type": "uint256"
        },
        {
          "internalType": "address",
          "name": "_to",
          "type": "address"
        },
        {
          "internalType": "uint256",
          "name": "_amount",
          "type": "uint256"
        }
      ],
      "name": "mint",
      "outputs": [],
      "stateMutability": "nonpayable",
      "type": "function"
    },
    {
      "inputs": [],
      "name": "minter",
      "outputs": [
        {
          "internalType": "address",
          "name": "",
          "type": "address"
        }
      ],
      "stateMutability": "view",
      "type": "function"
    },
    {
      "inputs": [],
      "name": "name",
      "outputs": [
        {
          "internalType": "string",
          "name": "",
          "type": "string"
        }
      ],
      "stateMutability": "pure",
      "type": "function"
    },
    {
      "inputs": [],
      "name": "owner",
      "outputs": [
        {
          "internalType": "address",
          "name": "",
          "type": "address"
        }
      ],
      "stateMutability": "view",
      "type": "function"
    },
    {
      "inputs": [],
      "name": "renovateAll",
      "outputs": [],
      "stateMutability": "nonpayable",
      "type": "function"
    },
    {
      "inputs": [
        {
          "internalType": "uint256",
          "name": "_id",
          "type": "uint256"
        }
      ],
      "name": "renovateExpirationTime",
      "outputs": [],
      "stateMutability": "nonpayable",
      "type": "function"
    },
    {
      "inputs": [
        {
          "internalType": "uint256",
          "name": "",
          "type": "uint256"
        },
        {
          "internalType": "uint256",
          "name": "_salePrice",
          "type": "uint256"
        }
      ],
      "name": "royaltyInfo",
      "outputs": [
        {
          "internalType": "address",
          "name": "receiver",
          "type": "address"
        },
        {
          "internalType": "uint256",
          "name": "royaltyAmount",
          "type": "uint256"
        }
      ],
      "stateMutability": "view",
      "type": "function"
    },
    {
      "inputs": [],
      "name": "royaltyPercentage",
      "outputs": [
        {
          "internalType": "uint16",
          "name": "",
          "type": "uint16"
        }
      ],
      "stateMutability": "view",
      "type": "function"
    },
    {
      "inputs": [],
      "name": "royaltyReceiver",
      "outputs": [
        {
          "internalType": "address",
          "name": "",
          "type": "address"
        }
      ],
      "stateMutability": "view",
      "type": "function"
    },
    {
      "inputs": [
        {
          "internalType": "address",
          "name": "_from",
          "type": "address"
        },
        {
          "internalType": "address",
          "name": "_to",
          "type": "address"
        },
        {
          "internalType": "uint256[]",
          "name": "_ids",
          "type": "uint256[]"
        },
        {
          "internalType": "uint256[]",
          "name": "_amounts",
          "type": "uint256[]"
        },
        {
          "internalType": "bytes",
          "name": "_data",
          "type": "bytes"
        }
      ],
      "name": "safeBatchTransferFrom",
      "outputs": [],
      "stateMutability": "nonpayable",
      "type": "function"
    },
    {
      "inputs": [
        {
          "internalType": "address",
          "name": "_from",
          "type": "address"
        },
        {
          "internalType": "address",
          "name": "_to",
          "type": "address"
        },
        {
          "internalType": "uint256",
          "name": "_id",
          "type": "uint256"
        },
        {
          "internalType": "uint256",
          "name": "_amount",
          "type": "uint256"
        },
        {
          "internalType": "bytes",
          "name": "_data",
          "type": "bytes"
        }
      ],
      "name": "safeTransferFrom",
      "outputs": [],
      "stateMutability": "nonpayable",
      "type": "function"
    },
    {
      "inputs": [
        {
          "internalType": "address",
          "name": "_admin",
          "type": "address"
        }
      ],
      "name": "setAdmin",
      "outputs": [],
      "stateMutability": "nonpayable",
      "type": "function"
    },
    {
      "inputs": [
        {
          "internalType": "address",
          "name": "operator",
          "type": "address"
        },
        {
          "internalType": "bool",
          "name": "approved",
          "type": "bool"
        }
      ],
      "name": "setApprovalForAll",
      "outputs": [],
      "stateMutability": "nonpayable",
      "type": "function"
    },
    {
      "inputs": [
        {
          "internalType": "address",
          "name": "_burner",
          "type": "address"
        }
      ],
      "name": "setBurner",
      "outputs": [],
      "stateMutability": "nonpayable",
      "type": "function"
    },
    {
      "inputs": [
        {
          "internalType": "uint256",
          "name": "_id",
          "type": "uint256"
        },
        {
          "internalType": "string",
          "name": "_name",
          "type": "string"
        },
        {
          "internalType": "string",
          "name": "_symbol",
          "type": "string"
        },
        {
          "internalType": "uint256",
          "name": "_renovationTime",
          "type": "uint256"
        }
      ],
      "name": "setCollectionMetadata",
      "outputs": [],
      "stateMutability": "nonpayable",
      "type": "function"
    },
    {
      "inputs": [
        {
          "internalType": "string",
          "name": "_contractURI",
          "type": "string"
        }
      ],
      "name": "setContractURI",
      "outputs": [],
      "stateMutability": "nonpayable",
      "type": "function"
    },
    {
      "inputs": [
        {
          "internalType": "address",
          "name": "_liquidator",
          "type": "address"
        }
      ],
      "name": "setLiquidator",
      "outputs": [],
      "stateMutability": "nonpayable",
      "type": "function"
    },
    {
      "inputs": [
        {
          "internalType": "address",
          "name": "_minter",
          "type": "address"
        }
      ],
      "name": "setMinter",
      "outputs": [],
      "stateMutability": "nonpayable",
      "type": "function"
    },
    {
      "inputs": [
        {
          "internalType": "address",
          "name": "_royaltyReceiver",
          "type": "address"
        },
        {
          "internalType": "uint16",
          "name": "_royaltyPercentage",
          "type": "uint16"
        }
      ],
      "name": "setRoyaltyInfo",
      "outputs": [],
      "stateMutability": "nonpayable",
      "type": "function"
    },
    {
      "inputs": [
        {
          "internalType": "bytes4",
          "name": "interfaceId",
          "type": "bytes4"
        }
      ],
      "name": "supportsInterface",
      "outputs": [
        {
          "internalType": "bool",
          "name": "",
          "type": "bool"
        }
      ],
      "stateMutability": "view",
      "type": "function"
    },
    {
      "inputs": [],
      "name": "symbol",
      "outputs": [
        {
          "internalType": "string",
          "name": "",
          "type": "string"
        }
      ],
      "stateMutability": "pure",
      "type": "function"
    },
    {
      "inputs": [
        {
          "internalType": "uint256",
          "name": "_id",
          "type": "uint256"
        },
        {
          "internalType": "address",
          "name": "_account",
          "type": "address"
        },
        {
          "internalType": "bytes",
          "name": "_data",
          "type": "bytes"
        }
      ],
      "name": "takeCustody",
      "outputs": [],
      "stateMutability": "nonpayable",
      "type": "function"
    },
    {
      "inputs": [
        {
          "internalType": "address",
          "name": "_contractAddress",
          "type": "address"
        },
        {
          "internalType": "bool",
          "name": "_isPerpetual",
          "type": "bool"
        }
      ],
      "name": "togglePerpetual",
      "outputs": [],
      "stateMutability": "nonpayable",
      "type": "function"
    },
    {
      "inputs": [
        {
          "internalType": "uint256",
          "name": "id",
          "type": "uint256"
        }
      ],
      "name": "totalSupply",
      "outputs": [
        {
          "internalType": "uint256",
          "name": "",
          "type": "uint256"
        }
      ],
      "stateMutability": "view",
      "type": "function"
    },
    {
      "inputs": [
        {
          "internalType": "address",
          "name": "_owner",
          "type": "address"
        }
      ],
      "name": "transferOwnership",
      "outputs": [],
      "stateMutability": "nonpayable",
      "type": "function"
    },
    {
      "inputs": [
        {
          "internalType": "uint256",
          "name": "_id",
          "type": "uint256"
        }
      ],
      "name": "uri",
      "outputs": [
        {
          "internalType": "string",
          "name": "",
          "type": "string"
        }
      ],
      "stateMutability": "view",
      "type": "function"
    }
  ],
  "transactionHash": "0x79b97cc3b169f8add1c4bb61f134ecf0a8b9ad6669f6c94264d87eebd691fcc8",
  "args": [
    "",
    "0x63926E60619172FE58870BCeb057b3B437Fa62FC",
    "0x39a242169BA3B28623E6d235A4Bdd46287d4bae3"
  ],
  "numDeployments": 1,
  "solcInputHash": "d3fa7695448e8ce26fe5b1f05765ed23",
  "bytecode": "0x60806040523480156200001157600080fd5b506040516200356a3803806200356a8339810160408190526200003491620000ec565b828282826200004381620000a7565b50600580546001600160a01b038084166001600160a01b0319928316179092556006805492851692909116821790556040517f71614071b88dee5e0b2ae578a9dd7b2ebbe9ae832ba419dc0242cd065a290b6c90600090a250505050505062000341565b6002620000b5828262000275565b5050565b634e487b7160e01b600052604160045260246000fd5b80516001600160a01b0381168114620000e757600080fd5b919050565b6000806000606084860312156200010257600080fd5b83516001600160401b03808211156200011a57600080fd5b818601915086601f8301126200012f57600080fd5b815181811115620001445762000144620000b9565b604051601f8201601f19908116603f011681019083821181831017156200016f576200016f620000b9565b816040528281526020935089848487010111156200018c57600080fd5b600091505b82821015620001b0578482018401518183018501529083019062000191565b6000848483010152809750505050620001cb818701620000cf565b93505050620001dd60408501620000cf565b90509250925092565b600181811c90821680620001fb57607f821691505b6020821081036200021c57634e487b7160e01b600052602260045260246000fd5b50919050565b601f8211156200027057600081815260208120601f850160051c810160208610156200024b5750805b601f850160051c820191505b818110156200026c5782815560010162000257565b5050505b505050565b81516001600160401b03811115620002915762000291620000b9565b620002a981620002a28454620001e6565b8462000222565b602080601f831160018114620002e15760008415620002c85750858301515b600019600386901b1c1916600185901b1785556200026c565b600085815260208120601f198616915b828110156200031257888601518255948401946001909101908401620002f1565b5085821015620003315787850151600019600388901b60f8161c191681555b5050505050600190811b01905550565b61321980620003516000396000f3fe608060405234801561001057600080fd5b50600436106102735760003560e01c8063836a104011610151578063b48f1353116100c3578063e8cce94311610087578063e8cce94314610646578063e985e9c514610666578063f242432a146106a2578063f2fde38b146106b5578063f851a440146106c8578063fca3b5aa146106db57600080fd5b8063b48f1353146105bd578063b8584181146105d0578063bd85b039146105fb578063be8fadee1461061b578063e8a3d4851461063e57600080fd5b8063938e3d7b11610115578063938e3d7b1461053d57806395d89b41146105505780639fbc871314610571578063a22cb46514610584578063a996d6ce14610597578063b390c0ab146105aa57600080fd5b8063836a1040146104c95780638a71bb2d146104dc5780638cb0a511146105045780638d1d0d65146105175780638da5cb5b1461052a57600080fd5b80632a55205a116101ea5780634f558e79116101ae5780634f558e79146104535780636f273fd3146104755780636fb05fae1461047d578063704b6c0214610490578063723da008146104a357806372504a24146104b657600080fd5b80632a55205a146103b95780632eb2c2d6146103eb5780632f54bf6e146103fe5780634046ebae146104205780634e1273f41461043357600080fd5b806306fdde031161023c57806306fdde031461030957806307546172146103425780630e89341c1461036d5780630feea995146103805780631469499d1461039357806327810b6e146103a657600080fd5b8062fdd58e1461027857806301c76f811461029e57806301ffc9a7146102b357806303504235146102d65780630632631c146102f6575b600080fd5b61028b610286366004612658565b6106ee565b6040519081526020015b60405180910390f35b6102b16102ac366004612682565b610787565b005b6102c66102c13660046126b3565b610822565b6040519015158152602001610295565b6102e96102e43660046126d0565b610847565b6040516102959190612739565b6102c661030436600461274c565b6108e1565b60408051808201909152601a81527f4672616374696f6e616c205265616c20457374617465204e465400000000000060208201526102e9565b600954610355906001600160a01b031681565b6040516001600160a01b039091168152602001610295565b6102e961037b3660046126d0565b61090a565b6102b161038e3660046126d0565b6109a1565b6102b16103a136600461282d565b610a62565b600a54610355906001600160a01b031681565b6103cc6103c73660046128a1565b610bc9565b604080516001600160a01b039093168352602083019190915201610295565b6102b16103f9366004612957565b610c0a565b6102c661040c366004612682565b6005546001600160a01b0391821691161490565b600b54610355906001600160a01b031681565b610446610441366004612a00565b610ddc565b6040516102959190612b05565b6102c66104613660046126d0565b600090815260036020526040902054151590565b6102b1610f05565b6102e961048b3660046126d0565b610f41565b6102b161049e366004612682565b610f5a565b6102b16104b1366004612b18565b61101d565b6102b16104c4366004612b6e565b6110a1565b6102b16104d7366004612bac565b611186565b6007546104f190600160a01b900461ffff1681565b60405161ffff9091168152602001610295565b6102c6610512366004612bac565b61139e565b6102b1610525366004612be1565b6113b8565b600554610355906001600160a01b031681565b6102b161054b366004612c12565b61149c565b6040805180820190915260058152641c9953919560da1b60208201526102e9565b600754610355906001600160a01b031681565b6102b1610592366004612be1565b611517565b6102b16105a5366004612682565b611526565b6102b16105b83660046128a1565b6115e5565b6102c66105cb36600461274c565b61163d565b61028b6105de36600461274c565b600f60209081526000928352604080842090915290825290205481565b61028b6106093660046126d0565b60009081526003602052604090205490565b6102c6610629366004612682565b60116020526000908152604090205460ff1681565b6102e961168d565b61028b6106543660046126d0565b600e6020526000908152604090205481565b6102c6610674366004612c46565b6001600160a01b03918216600090815260016020908152604080832093909416825291909152205460ff1690565b6102b16106b0366004612c70565b61169a565b6102b16106c3366004612682565b611777565b600654610355906001600160a01b031681565b6102b16106e9366004612682565b6117ef565b60006001600160a01b03831661075e5760405162461bcd60e51b815260206004820152602a60248201527f455243313135353a2061646472657373207a65726f206973206e6f742061207660448201526930b634b21037bbb732b960b11b60648201526084015b60405180910390fd5b506000818152602081815260408083206001600160a01b03861684529091529020545b92915050565b6006546001600160a01b031633146107b15760405162461bcd60e51b815260040161075590612cd4565b600b546001600160a01b038083169116036108005760405162461bcd60e51b815260206004820152600f60248201526e29b0b6b2903634b8bab4b230ba37b960891b6044820152606401610755565b600b80546001600160a01b0319166001600160a01b0392909216919091179055565b60006001600160e01b0319821663152a902d60e11b14806107815750610781826118ae565b600c602052600090815260409020805461086090612cf4565b80601f016020809104026020016040519081016040528092919081815260200182805461088c90612cf4565b80156108d95780601f106108ae576101008083540402835291602001916108d9565b820191906000526020600020905b8154815290600101906020018083116108bc57829003601f168201915b505050505081565b600b546000906001600160a01b0316158015906109035750610903838361163d565b9392505050565b6000818152600360205260409020546060906109685760405162461bcd60e51b815260206004820152601a60248201527f4e6f6e2d6578697374656e7420636f6c6c656374696f6e2069640000000000006044820152606401610755565b610971826118fe565b61097a83611992565b60405160200161098b929190612d2e565b6040516020818303038152906040529050919050565b60006109ae335b836106ee565b116109e85760405162461bcd60e51b815260206004820152600a6024820152694e6f2062616c616e636560b01b6044820152606401610755565b6000818152600e6020526040812054610a019042612d73565b6000838152600f6020908152604080832033808552908352928190208490558051428152918201849052929350909184917f81485d0794af67acd82b669d1b05ff72de0f56df72d0536844fd90aa6a9b66f391015b60405180910390a35050565b6009546001600160a01b0316336001600160a01b031614610a955760405162461bcd60e51b815260040161075590612d86565b6009546001600160a01b0316336001600160a01b031614610ac85760405162461bcd60e51b815260040161075590612d86565b600884901c600090815260106020526040902054600160ff86161b1615610b275760405162461bcd60e51b81526020600482015260136024820152721b595d1859185d18525b9a5d1a585b1a5e9959606a1b6044820152606401610755565b6000848152600c60205260409020610b3f8482612ded565b506000848152600d60205260409020610b588382612ded565b506000848152600e60209081526040808320849055600887901c8352601090915290208054600160ff87161b179055837f4f19404c0873b39045bb62a574c0bcfa4c6ca022ca55eb68d30be8dc64221b80848484604051610bbb93929190612eac565b60405180910390a250505050565b60075460009081906001600160a01b0381169061271090610bf590600160a01b900461ffff1686612ee2565b610bff9190612f0f565b915091509250929050565b6001600160a01b0385163314801590610c2a5750610c288533610674565b155b15610dc85760005b8351811015610dc657828181518110610c4d57610c4d612f23565b602002602001015160046000868481518110610c6b57610c6b612f23565b602002602001015181526020019081526020016000206000886001600160a01b03166001600160a01b031681526020019081526020016000206000610cad3390565b6001600160a01b03166001600160a01b03168152602001908152602001600020541015610d0d5760405162461bcd60e51b815260206004820152600e60248201526d139bdd08185d5d1a1bdc9a5e995960921b6044820152606401610755565b828181518110610d1f57610d1f612f23565b602002602001015160046000868481518110610d3d57610d3d612f23565b602002602001015181526020019081526020016000206000886001600160a01b03166001600160a01b031681526020019081526020016000206000610d7f3390565b6001600160a01b03166001600160a01b031681526020019081526020016000206000828254610dae9190612f39565b90915550819050610dbe81612f4c565b915050610c32565b505b610dd58585858585611a9a565b5050505050565b60608151835114610e415760405162461bcd60e51b815260206004820152602960248201527f455243313135353a206163636f756e747320616e6420696473206c656e677468604482015268040dad2e6dac2e8c6d60bb1b6064820152608401610755565b600083516001600160401b03811115610e5c57610e5c612778565b604051908082528060200260200182016040528015610e85578160200160208202803683370190505b50905060005b8451811015610efd57610ed0858281518110610ea957610ea9612f23565b6020026020010151858381518110610ec357610ec3612f23565b60200260200101516106ee565b828281518110610ee257610ee2612f23565b6020908102919091010152610ef681612f4c565b9050610e8b565b509392505050565b60005b601254811015610f3e576000610f1d336109a8565b1115610f2c57610f2c816109a1565b80610f3681612f4c565b915050610f08565b50565b600d602052600090815260409020805461086090612cf4565b6006546001600160a01b03163314610f845760405162461bcd60e51b815260040161075590612cd4565b6006546001600160a01b03808316911603610fd35760405162461bcd60e51b815260206004820152600f60248201526e30b236b4b7101e9e902fb0b236b4b760891b6044820152606401610755565b600680546001600160a01b0319166001600160a01b0383169081179091556040517f71614071b88dee5e0b2ae578a9dd7b2ebbe9ae832ba419dc0242cd065a290b6c90600090a250565b600b546001600160a01b0316336001600160a01b0316148015611045575061104583836108e1565b6110865760405162461bcd60e51b8152602060048201526012602482015271131a5c5d5a59185d1a5bdb8819195b9a595960721b6044820152606401610755565b61109c82338561109633886106ee565b85611c85565b505050565b6006546001600160a01b031633146110cb5760405162461bcd60e51b815260040161075590612cd4565b6001600160a01b0382161515806110e4575061ffff8116155b6111235760405162461bcd60e51b815260206004820152601060248201526f34b73b30b634b2103932b1b2b4bb32b960811b6044820152606401610755565b600780546001600160a01b0384166001600160b01b03199091168117600160a01b61ffff8516908102919091179092556040519182529033907f9ca088b6b695032bcd5d1fa450e8fa2773391294f09e3710ace940c4ae8cffac90602001610a56565b6009546001600160a01b0316336001600160a01b0316146111b95760405162461bcd60e51b815260040161075590612d86565b600883901c600090815260106020526040902054600160ff85161b166112185760405162461bcd60e51b8152602060048201526014602482015273085b595d1859185d18525b9a5d1a585b1a5e995960621b6044820152606401610755565b6000838152600360205260409020546000036112b157600061123960125490565b905080158061125557506000611253610609600184612f39565b115b6112a15760405162461bcd60e51b815260206004820152601860248201527f4944732073686f756c642062652073657175656e7469616c00000000000000006044820152606401610755565b6112af601280546001019055565b505b6112cc82848360405180602001604052806000815250611dbd565b6000838152600e60205260408120546112e59042612d73565b6000858152600f602090815260408083206001600160a01b038816808552908352928190208490558051428152918201849052929350909186917f81485d0794af67acd82b669d1b05ff72de0f56df72d0536844fd90aa6a9b66f3910160405180910390a36001600160a01b038316336001600160a01b0316857fd221ed6d0b64f2e9f972fbc48b2ce5210f880f75f0cd09111b73eca6937827eb8560405161139091815260200190565b60405180910390a450505050565b6000336113ad85828686611ee0565b506001949350505050565b6006546001600160a01b031633146113e25760405162461bcd60e51b815260040161075590612cd4565b6001600160a01b0382163b6114485760405162461bcd60e51b815260206004820152602660248201527f4f6e6c7920636f6e74726163747320616c6c6f77656420746f206265207065726044820152651c195d1d585b60d21b6064820152608401610755565b6001600160a01b038216600081815260116020526040808220805460ff191685151590811790915590519092917f6b90fd065e4f282e7aa50e47573d643de92b0005644bf0d24923d75e40994ab391a35050565b6006546001600160a01b031633146114c65760405162461bcd60e51b815260040161075590612cd4565b60086114d28282612ded565b50336001600160a01b03167f1ca91f64ead03abb06ea28975dfbf18044ac06f9fa1cb62a54ccc905df1028ed8260405161150c9190612739565b60405180910390a250565b611522338383611ff2565b5050565b6006546001600160a01b031633146115505760405162461bcd60e51b815260040161075590612cd4565b600a546001600160a01b0380831691160361159b5760405162461bcd60e51b815260206004820152600b60248201526a29b0b6b290313ab93732b960a91b6044820152606401610755565b600a80546001600160a01b0319166001600160a01b0383169081179091556040517f5bb1db06eeb30d85c1e53ae2285b460ce83e4318c623bd1ca51df912f64c45a490600090a250565b600a546001600160a01b0316336001600160a01b0316146116325760405162461bcd60e51b815260206004820152600760248201526610b13ab93732b960c91b6044820152606401610755565b6115223383836120d2565b6001600160a01b03811660009081526011602052604081205460ff161580156109035750506000918252600f602090815260408084206001600160a01b0393909316845291905290205442101590565b6008805461086090612cf4565b6001600160a01b03851633148015906116ba57506116b88533610674565b155b1561176a5760008381526004602090815260408083206001600160a01b0389168452825280832033845290915290205482111561172a5760405162461bcd60e51b815260206004820152600e60248201526d139bdd08185d5d1a1bdc9a5e995960921b6044820152606401610755565b60008381526004602090815260408083206001600160a01b0389168452825280832033845290915281208054849290611764908490612f39565b90915550505b610dd58585858585611c85565b6006546001600160a01b031633146117a15760405162461bcd60e51b815260040161075590612cd4565b600580546001600160a01b0319166001600160a01b038316908117909155604051819033907fb9312e2100469bd44e3f762c248f4dcc8d7788906fabf34f79db45920c37e26990600090a450565b6006546001600160a01b031633146118195760405162461bcd60e51b815260040161075590612cd4565b6009546001600160a01b038083169116036118645760405162461bcd60e51b815260206004820152600b60248201526a29b0b6b29036b4b73a32b960a91b6044820152606401610755565b600980546001600160a01b0319166001600160a01b0383169081179091556040517f6adffd5c93085d835dac6f3b40adf7c242ca4b3284048d20c3d8a501748dc97390600090a250565b60006001600160e01b03198216636cdb3d1360e11b14806118df57506001600160e01b031982166303a24d0760e21b145b8061078157506301ffc9a760e01b6001600160e01b0319831614610781565b60606002805461190d90612cf4565b80601f016020809104026020016040519081016040528092919081815260200182805461193990612cf4565b80156119865780601f1061195b57610100808354040283529160200191611986565b820191906000526020600020905b81548152906001019060200180831161196957829003601f168201915b50505050509050919050565b6060816000036119b95750506040805180820190915260018152600360fc1b602082015290565b8160005b81156119e357806119cd81612f4c565b91506119dc9050600a83612f0f565b91506119bd565b6000816001600160401b038111156119fd576119fd612778565b6040519080825280601f01601f191660200182016040528015611a27576020820181803683370190505b5090505b8415611a9257611a3c600183612f39565b9150611a49600a86612f65565b611a54906030612d73565b60f81b818381518110611a6957611a69612f23565b60200101906001600160f81b031916908160001a905350611a8b600a86612f0f565b9450611a2b565b949350505050565b8151835114611afc5760405162461bcd60e51b815260206004820152602860248201527f455243313135353a2069647320616e6420616d6f756e7473206c656e677468206044820152670dad2e6dac2e8c6d60c31b6064820152608401610755565b6001600160a01b038416611b225760405162461bcd60e51b815260040161075590612f79565b33611b31818787878787612262565b60005b8451811015611c17576000858281518110611b5157611b51612f23565b602002602001015190506000858381518110611b6f57611b6f612f23565b602090810291909101810151600084815280835260408082206001600160a01b038e168352909352919091205490915081811015611bbf5760405162461bcd60e51b815260040161075590612fbe565b6000838152602081815260408083206001600160a01b038e8116855292528083208585039055908b16825281208054849290611bfc908490612d73565b9250508190555050505080611c1090612f4c565b9050611b34565b50846001600160a01b0316866001600160a01b0316826001600160a01b03167f4a39dc06d4c0dbc64b70af90fd698a233a518aa5d07e595d983b8c0526c8f7fb8787604051611c67929190613008565b60405180910390a4611c7d8187878787876123db565b505050505050565b6001600160a01b038416611cab5760405162461bcd60e51b815260040161075590612f79565b336000611cb785612536565b90506000611cc485612536565b9050611cd4838989858589612262565b6000868152602081815260408083206001600160a01b038c16845290915290205485811015611d155760405162461bcd60e51b815260040161075590612fbe565b6000878152602081815260408083206001600160a01b038d8116855292528083208985039055908a16825281208054889290611d52908490612d73565b909155505060408051888152602081018890526001600160a01b03808b16928c821692918816917fc3d58168c5ae7397731d063d5bbf3d657854427343f4c083240f7aacaa2d0f62910160405180910390a4611db2848a8a8a8a8a612581565b505050505050505050565b6001600160a01b038416611e1d5760405162461bcd60e51b815260206004820152602160248201527f455243313135353a206d696e7420746f20746865207a65726f206164647265736044820152607360f81b6064820152608401610755565b336000611e2985612536565b90506000611e3685612536565b9050611e4783600089858589612262565b6000868152602081815260408083206001600160a01b038b16845290915281208054879290611e77908490612d73565b909155505060408051878152602081018790526001600160a01b03808a1692600092918716917fc3d58168c5ae7397731d063d5bbf3d657854427343f4c083240f7aacaa2d0f62910160405180910390a4611ed783600089898989612581565b50505050505050565b6001600160a01b038316611f365760405162461bcd60e51b815260206004820152601d60248201527f417070726f76652066726f6d20746865207a65726f20616464726573730000006044820152606401610755565b6001600160a01b038216611f8c5760405162461bcd60e51b815260206004820152601b60248201527f417070726f766520746f20746865207a65726f206164647265737300000000006044820152606401610755565b60008481526004602090815260408083206001600160a01b03878116808652918452828520908716808652908452938290208590559051848152909187917f69e4aaf23f9318cf40839ac20453d8fbedaac2955eb08a27ae5189cc719257169101611390565b816001600160a01b0316836001600160a01b0316036120655760405162461bcd60e51b815260206004820152602960248201527f455243313135353a2073657474696e6720617070726f76616c20737461747573604482015268103337b91039b2b63360b91b6064820152608401610755565b6001600160a01b03838116600081815260016020908152604080832094871680845294825291829020805460ff191686151590811790915591519182527f17307eab39ab6107e8899845ad3d59bd9653f200f220920489ca2b5937696c31910160405180910390a3505050565b6001600160a01b0383166121345760405162461bcd60e51b815260206004820152602360248201527f455243313135353a206275726e2066726f6d20746865207a65726f206164647260448201526265737360e81b6064820152608401610755565b33600061214084612536565b9050600061214d84612536565b905061216d83876000858560405180602001604052806000815250612262565b6000858152602081815260408083206001600160a01b038a168452909152902054848110156121ea5760405162461bcd60e51b8152602060048201526024808201527f455243313135353a206275726e20616d6f756e7420657863656564732062616c604482015263616e636560e01b6064820152608401610755565b6000868152602081815260408083206001600160a01b038b81168086529184528285208a8703905582518b81529384018a90529092908816917fc3d58168c5ae7397731d063d5bbf3d657854427343f4c083240f7aacaa2d0f62910160405180910390a4604080516020810190915260009052611ed7565b6001600160a01b0385166122e95760005b83518110156122e75782818151811061228e5761228e612f23565b6020026020010151600360008684815181106122ac576122ac612f23565b6020026020010151815260200190815260200160002060008282546122d19190612d73565b909155506122e0905081612f4c565b9050612273565b505b6001600160a01b038416611c7d5760005b8351811015611ed757600084828151811061231757612317612f23565b60200260200101519050600084838151811061233557612335612f23565b60200260200101519050600060036000848152602001908152602001600020549050818110156123b85760405162461bcd60e51b815260206004820152602860248201527f455243313135353a206275726e20616d6f756e74206578636565647320746f74604482015267616c537570706c7960c01b6064820152608401610755565b600092835260036020526040909220910390556123d481612f4c565b90506122fa565b6001600160a01b0384163b15611c7d5760405163bc197c8160e01b81526001600160a01b0385169063bc197c819061241f9089908990889088908890600401613036565b6020604051808303816000875af192505050801561245a575060408051601f3d908101601f1916820190925261245791810190613094565b60015b612506576124666130b1565b806308c379a00361249f575061247a6130cd565b8061248557506124a1565b8060405162461bcd60e51b81526004016107559190612739565b505b60405162461bcd60e51b815260206004820152603460248201527f455243313135353a207472616e7366657220746f206e6f6e20455243313135356044820152732932b1b2b4bb32b91034b6b83632b6b2b73a32b960611b6064820152608401610755565b6001600160e01b0319811663bc197c8160e01b14611ed75760405162461bcd60e51b815260040161075590613156565b6040805160018082528183019092526060916000919060208083019080368337019050509050828160008151811061257057612570612f23565b602090810291909101015292915050565b6001600160a01b0384163b15611c7d5760405163f23a6e6160e01b81526001600160a01b0385169063f23a6e61906125c5908990899088908890889060040161319e565b6020604051808303816000875af1925050508015612600575060408051601f3d908101601f191682019092526125fd91810190613094565b60015b61260c576124666130b1565b6001600160e01b0319811663f23a6e6160e01b14611ed75760405162461bcd60e51b815260040161075590613156565b80356001600160a01b038116811461265357600080fd5b919050565b6000806040838503121561266b57600080fd5b6126748361263c565b946020939093013593505050565b60006020828403121561269457600080fd5b6109038261263c565b6001600160e01b031981168114610f3e57600080fd5b6000602082840312156126c557600080fd5b81356109038161269d565b6000602082840312156126e257600080fd5b5035919050565b60005b838110156127045781810151838201526020016126ec565b50506000910152565b600081518084526127258160208601602086016126e9565b601f01601f19169290920160200192915050565b602081526000610903602083018461270d565b6000806040838503121561275f57600080fd5b8235915061276f6020840161263c565b90509250929050565b634e487b7160e01b600052604160045260246000fd5b601f8201601f191681016001600160401b03811182821017156127b3576127b3612778565b6040525050565b600082601f8301126127cb57600080fd5b81356001600160401b038111156127e4576127e4612778565b6040516127fb601f8301601f19166020018261278e565b81815284602083860101111561281057600080fd5b816020850160208301376000918101602001919091529392505050565b6000806000806080858703121561284357600080fd5b8435935060208501356001600160401b038082111561286157600080fd5b61286d888389016127ba565b9450604087013591508082111561288357600080fd5b50612890878288016127ba565b949793965093946060013593505050565b600080604083850312156128b457600080fd5b50508035926020909101359150565b60006001600160401b038211156128dc576128dc612778565b5060051b60200190565b600082601f8301126128f757600080fd5b81356020612904826128c3565b604051612911828261278e565b83815260059390931b850182019282810191508684111561293157600080fd5b8286015b8481101561294c5780358352918301918301612935565b509695505050505050565b600080600080600060a0868803121561296f57600080fd5b6129788661263c565b94506129866020870161263c565b935060408601356001600160401b03808211156129a257600080fd5b6129ae89838a016128e6565b945060608801359150808211156129c457600080fd5b6129d089838a016128e6565b935060808801359150808211156129e657600080fd5b506129f3888289016127ba565b9150509295509295909350565b60008060408385031215612a1357600080fd5b82356001600160401b0380821115612a2a57600080fd5b818501915085601f830112612a3e57600080fd5b81356020612a4b826128c3565b604051612a58828261278e565b83815260059390931b8501820192828101915089841115612a7857600080fd5b948201945b83861015612a9d57612a8e8661263c565b82529482019490820190612a7d565b96505086013592505080821115612ab357600080fd5b50612ac0858286016128e6565b9150509250929050565b600081518084526020808501945080840160005b83811015612afa57815187529582019590820190600101612ade565b509495945050505050565b6020815260006109036020830184612aca565b600080600060608486031215612b2d57600080fd5b83359250612b3d6020850161263c565b915060408401356001600160401b03811115612b5857600080fd5b612b64868287016127ba565b9150509250925092565b60008060408385031215612b8157600080fd5b612b8a8361263c565b9150602083013561ffff81168114612ba157600080fd5b809150509250929050565b600080600060608486031215612bc157600080fd5b83359250612bd16020850161263c565b9150604084013590509250925092565b60008060408385031215612bf457600080fd5b612bfd8361263c565b915060208301358015158114612ba157600080fd5b600060208284031215612c2457600080fd5b81356001600160401b03811115612c3a57600080fd5b611a92848285016127ba565b60008060408385031215612c5957600080fd5b612c628361263c565b915061276f6020840161263c565b600080600080600060a08688031215612c8857600080fd5b612c918661263c565b9450612c9f6020870161263c565b9350604086013592506060860135915060808601356001600160401b03811115612cc857600080fd5b6129f3888289016127ba565b60208082526006908201526510b0b236b4b760d11b604082015260600190565b600181811c90821680612d0857607f821691505b602082108103612d2857634e487b7160e01b600052602260045260246000fd5b50919050565b60008351612d408184602088016126e9565b835190830190612d548183602088016126e9565b01949350505050565b634e487b7160e01b600052601160045260246000fd5b8082018082111561078157610781612d5d565b60208082526007908201526610b6b4b73a32b960c91b604082015260600190565b601f82111561109c57600081815260208120601f850160051c81016020861015612dce5750805b601f850160051c820191505b81811015611c7d57828155600101612dda565b81516001600160401b03811115612e0657612e06612778565b612e1a81612e148454612cf4565b84612da7565b602080601f831160018114612e4f5760008415612e375750858301515b600019600386901b1c1916600185901b178555611c7d565b600085815260208120601f198616915b82811015612e7e57888601518255948401946001909101908401612e5f565b5085821015612e9c5787850151600019600388901b60f8161c191681555b5050505050600190811b01905550565b606081526000612ebf606083018661270d565b8281036020840152612ed1818661270d565b915050826040830152949350505050565b808202811582820484141761078157610781612d5d565b634e487b7160e01b600052601260045260246000fd5b600082612f1e57612f1e612ef9565b500490565b634e487b7160e01b600052603260045260246000fd5b8181038181111561078157610781612d5d565b600060018201612f5e57612f5e612d5d565b5060010190565b600082612f7457612f74612ef9565b500690565b60208082526025908201527f455243313135353a207472616e7366657220746f20746865207a65726f206164604082015264647265737360d81b606082015260800190565b6020808252602a908201527f455243313135353a20696e73756666696369656e742062616c616e636520666f60408201526939103a3930b739b332b960b11b606082015260800190565b60408152600061301b6040830185612aca565b828103602084015261302d8185612aca565b95945050505050565b6001600160a01b0386811682528516602082015260a06040820181905260009061306290830186612aca565b82810360608401526130748186612aca565b90508281036080840152613088818561270d565b98975050505050505050565b6000602082840312156130a657600080fd5b81516109038161269d565b600060033d11156130ca5760046000803e5060005160e01c5b90565b600060443d10156130db5790565b6040516003193d81016004833e81513d6001600160401b03816024840111818411171561310a57505050505090565b82850191508151818111156131225750505050505090565b843d870101602082850101111561313c5750505050505090565b61314b6020828601018761278e565b509095945050505050565b60208082526028908201527f455243313135353a204552433131353552656365697665722072656a656374656040820152676420746f6b656e7360c01b606082015260800190565b6001600160a01b03868116825285166020820152604081018490526060810183905260a0608082018190526000906131d89083018461270d565b97965050505050505056fea2646970667358221220914373d12532020ac98806b81a30c5442991dae17ce45eaa57b881f1ad5e5aff64736f6c63430008110033",
  "devdoc": {
    "author": "Yuri Fernandes (HorizonDAO)",
    "events": {
      "LogTogglePerpetual(address,bool)": {
        "details": "Emitted when togglePerpetual function is successfully called"
      },
      "NewBurner(address)": {
        "details": "Emitted when a new burner is set"
      },
      "NewMinter(address)": {
        "details": "Emitted when a new minter is set"
      },
      "RealEstateNFTMinted(uint256,address,address,uint256)": {
        "details": "Emitted when new reNFTs are minted"
      },
      "RenovationTimeUpdated(uint256,address,uint256,uint256)": {
        "details": "Emitted when the renovation time of an user is updated (by itself)"
      },
      "SetCollectionMetadata(uint256,string,string,uint256)": {
        "details": "Emitted when a new reNFT collection metadata is configured"
      }
    },
    "kind": "dev",
    "methods": {
      "accountExpired(uint256,address)": {
        "params": {
          "_account": "Account address",
          "_id": "Collection ID"
        }
      },
      "approve(uint256,address,uint256)": {
        "params": {
          "_amount": "Amount allowed",
          "_id": "Collection ID",
          "_spender": "Spender address"
        }
      },
      "balanceOf(address,uint256)": {
        "details": "See {IERC1155-balanceOf}. Requirements: - `account` cannot be the zero address."
      },
      "balanceOfBatch(address[],uint256[])": {
        "details": "See {IERC1155-balanceOfBatch}. Requirements: - `accounts` and `ids` must have the same length."
      },
      "burn(uint256,uint256)": {
        "details": "Burns own tokensRequires Burner role",
        "params": {
          "_amount": "Amount of tokens to burn",
          "_id": "Collection ID"
        }
      },
      "constructor": {
        "details": "Initialize RealEstateNFT",
        "params": {
          "_admin": "Address with contract administration privileges",
          "_baseUri": "Base URI for the offchain NFT metadata",
          "_owner": "EOA to be used as OpenSea collection admin"
        }
      },
      "exists(uint256)": {
        "details": "Indicates whether any token exist with a given id, or not."
      },
      "isApprovedForAll(address,address)": {
        "details": "See {IERC1155-isApprovedForAll}."
      },
      "isLiquidable(uint256,address)": {
        "params": {
          "_account": "Account address",
          "_id": "Collection ID"
        }
      },
      "isOwner(address)": {
        "returns": {
          "_0": "true if the caller is the current owner."
        }
      },
      "mint(uint256,address,uint256)": {
        "details": "Mint new reNFT tokensRequires Minter role",
        "params": {
          "_amount": "Amount to mint",
          "_id": "Collection ID",
          "_to": "Address to transfer minted tokens"
        }
      },
      "renovateExpirationTime(uint256)": {
        "params": {
          "_id": "Collection ID"
        }
      },
      "royaltyInfo(uint256,uint256)": {
        "params": {
          "_salePrice": "the price (in any unit, .e.g wei, ERC20 token, et.c.) of the token to be sold"
        },
        "returns": {
          "receiver": "the royalty receiver",
          "royaltyAmount": "royalty amount in the same unit as _salePrice"
        }
      },
      "safeBatchTransferFrom(address,address,uint256[],uint256[],bytes)": {
        "details": "xref:ROOT:erc1155.adoc#batch-operations[Batched] version of {safeTransferFrom}. Emits a {TransferBatch} event. Requirements: - `ids` and `amounts` must have the same length. - If `to` refers to a smart contract, it must implement {IERC1155Receiver-onERC1155BatchReceived} and return the acceptance magic value."
      },
      "safeTransferFrom(address,address,uint256,uint256,bytes)": {
        "details": "Transfers `amount` tokens of token type `id` from `from` to `to`. Emits a {TransferSingle} event. Requirements: - `to` cannot be the zero address. - If the caller is not `from`, it must have been approved to spend ``from``'s tokens via {setApprovalForAll}. - `from` must have a balance of tokens of type `id` of at least `amount`. - If `to` refers to a smart contract, it must implement {IERC1155Receiver-onERC1155Received} and return the acceptance magic value."
      },
      "setAdmin(address)": {
        "details": "Set new admin role",
        "params": {
          "_admin": "New admin address"
        }
      },
      "setApprovalForAll(address,bool)": {
        "details": "See {IERC1155-setApprovalForAll}."
      },
      "setBurner(address)": {
        "details": "Set new burner role",
        "params": {
          "_burner": "New burner address"
        }
      },
      "setCollectionMetadata(uint256,string,string,uint256)": {
        "details": "Sets the metadata for a new reNFT collectionRequires Minter role",
        "params": {
          "_id": "Collection ID",
          "_name": "New collection name",
          "_renovationTime": "The amount of time an user is required to check-in",
          "_symbol": "New collection symbol"
        }
      },
      "setContractURI(string)": {
        "details": "Restricted access function which updates the contract URI",
        "params": {
          "_contractURI": "new contract URI to set"
        }
      },
      "setLiquidator(address)": {
        "details": "Set new liquidator role",
        "params": {
          "_liquidator": "New liquidator address"
        }
      },
      "setMinter(address)": {
        "details": "Set new minter role",
        "params": {
          "_minter": "New minter address"
        }
      },
      "setRoyaltyInfo(address,uint16)": {
        "details": "Restricted access function which updates the royalty info",
        "params": {
          "_royaltyPercentage": "new royalty percentage to set",
          "_royaltyReceiver": "new royalty receiver to set"
        }
      },
      "supportsInterface(bytes4)": {
        "details": "Returns true if this contract implements the interface defined by `interfaceId`. See the corresponding https://eips.ethereum.org/EIPS/eip-165#how-interfaces-are-identified[EIP section] to learn more about how these ids are created. This function call must use less than 30 000 gas."
      },
      "takeCustody(uint256,address,bytes)": {
        "details": "Allow the liquidator to take custody over expired accounts' tokens",
        "params": {
          "_account": "Account address to liquidate tokens from",
          "_data": "Additional data requirements in case liquidator is a contract",
          "_id": "Collection ID"
        }
      },
      "togglePerpetual(address,bool)": {
        "details": "Toggle renovation requirements for a contract",
        "params": {
          "_contractAddress": "Address of the contract to toggle renovation",
          "_isPerpetual": "Whether to disable or enable renovation"
        }
      },
      "totalSupply(uint256)": {
        "details": "Total amount of tokens in with a given id."
      },
      "transferOwnership(address)": {
        "details": "Restricted access function to set smart contract \"owner\"      Note: an \"owner\" set doesn't have any authority, and cannot even update \"owner\"",
        "params": {
          "_owner": "new \"owner\" of the smart contract"
        }
      },
      "uri(uint256)": {
        "params": {
          "_id": "Collection ID"
        },
        "returns": {
          "_0": "Concatenated BaseUri and collectionId"
        }
      }
    },
    "stateVariables": {
      "_currentId": {
        "details": "Current value shows the next available collection ID"
      },
      "_metadataInitialized": {
        "details": "mapping (tokenId => isInitialized)when a tokenId is initialized, it means it cannot change afterwards"
      },
      "accountExpirationTime": {
        "details": "mapping (tokenId => account => expiration time)Users' reNFTs can be put to auction after current_time >= accountExpirationTime, in order to avoid it, users should renovate it's expiration time"
      },
      "burner": {
        "details": "Address of the burner: Can execute burning functions"
      },
      "collectionName": {
        "details": "mapping (collectionId => collectionName)"
      },
      "collectionRenovationTime": {
        "details": "mapping (collectionId => renovationTime)When users renovate it's signature on reNFTs ownership users' expiration time will be extended to current_time + collectionRenovationTime"
      },
      "collectionSymbol": {
        "details": "mapping (collectionId => collectionSymbol)"
      },
      "isPerpetual": {
        "details": "mapping (contract => isPerpetual)Some addresses might need perpetual ownership in order     to use reNFTs as collateral, among other additional utilities,     to do so, they need to be safe of liquidation"
      },
      "liquidator": {
        "details": "Address responsible to move expired accounts tokens"
      },
      "minter": {
        "details": "Address of the minter: Can execute mint function"
      }
    },
    "title": "Fractional Real Estate NFT",
    "version": 1
  },
  "userdoc": {
    "kind": "user",
    "methods": {
      "accountExpired(uint256,address)": {
        "notice": "Whether an account has expired and are elligible for liquidation"
      },
      "approve(uint256,address,uint256)": {
        "notice": "Approve a spender to transfer tokens"
      },
      "contractURI()": {
        "notice": "Contract level metadata to define collection name, description, and royalty fees.         see https://docs.opensea.io/docs/contract-level-metadata"
      },
      "isLiquidable(uint256,address)": {
        "notice": "Check if an liquidation can be performed"
      },
      "isOwner(address)": {
        "notice": "Checks if the address supplied is an \"owner\" of the smart contract      Note: an \"owner\" doesn't have any authority on the smart contract and is \"nominal\""
      },
      "name()": {
        "notice": "Returns the name of the RealEstateERC1155 contract"
      },
      "renovateAll()": {
        "notice": "Renovate expiration time for all collections the user owns tokens"
      },
      "renovateExpirationTime(uint256)": {
        "notice": "Renovate expiration time (proving the account is active)"
      },
      "royaltyInfo(uint256,uint256)": {
        "notice": "EIP-2981 function to calculate royalties for sales in secondary marketplaces.         see https://eips.ethereum.org/EIPS/eip-2981"
      },
      "royaltyPercentage()": {
        "notice": "Percentage of token sale price to be used for EIP-2981 royalties from secondary sales         see https://eips.ethereum.org/EIPS/eip-2981"
      },
      "royaltyReceiver()": {
        "notice": "Address to receive EIP-2981 royalties from secondary sales         see https://eips.ethereum.org/EIPS/eip-2981"
      },
      "symbol()": {
        "notice": "Returns the symbol of the RealEstateERC1155 contract"
      },
      "uri(uint256)": {
        "notice": "Returns the URI for the given reNFT collection"
      }
    },
    "notice": "Used to Tokenize and Fractionate Real EstateUsers are required to renovate (check-in) after a certain amount of time     or their assets can be liquidated (necessary since reNFT holders can claim deeds if a buyout occur)Only a predefined minter can mint tokens and on a incremental order",
    "version": 1
  },
  "storageLayout": {
    "storage": [
      {
        "astId": 31,
        "contract": "contracts/token/FractionalRealEstateERC1155.sol:FractionalRealEstateERC1155",
        "label": "_balances",
        "offset": 0,
        "slot": "0",
        "type": "t_mapping(t_uint256,t_mapping(t_address,t_uint256))"
      },
      {
        "astId": 37,
        "contract": "contracts/token/FractionalRealEstateERC1155.sol:FractionalRealEstateERC1155",
        "label": "_operatorApprovals",
        "offset": 0,
        "slot": "1",
        "type": "t_mapping(t_address,t_mapping(t_address,t_bool))"
      },
      {
        "astId": 39,
        "contract": "contracts/token/FractionalRealEstateERC1155.sol:FractionalRealEstateERC1155",
        "label": "_uri",
        "offset": 0,
        "slot": "2",
        "type": "t_string_storage"
      },
      {
        "astId": 1401,
        "contract": "contracts/token/FractionalRealEstateERC1155.sol:FractionalRealEstateERC1155",
        "label": "_totalSupply",
        "offset": 0,
        "slot": "3",
        "type": "t_mapping(t_uint256,t_uint256)"
      },
      {
        "astId": 3302,
        "contract": "contracts/token/FractionalRealEstateERC1155.sol:FractionalRealEstateERC1155",
        "label": "_allowances",
        "offset": 0,
        "slot": "4",
        "type": "t_mapping(t_uint256,t_mapping(t_address,t_mapping(t_address,t_uint256)))"
      },
      {
        "astId": 3040,
        "contract": "contracts/token/FractionalRealEstateERC1155.sol:FractionalRealEstateERC1155",
        "label": "owner",
        "offset": 0,
        "slot": "5",
        "type": "t_address"
      },
      {
        "astId": 3043,
        "contract": "contracts/token/FractionalRealEstateERC1155.sol:FractionalRealEstateERC1155",
        "label": "admin",
        "offset": 0,
        "slot": "6",
        "type": "t_address"
      },
      {
        "astId": 3046,
        "contract": "contracts/token/FractionalRealEstateERC1155.sol:FractionalRealEstateERC1155",
        "label": "royaltyReceiver",
        "offset": 0,
        "slot": "7",
        "type": "t_address"
      },
      {
        "astId": 3049,
        "contract": "contracts/token/FractionalRealEstateERC1155.sol:FractionalRealEstateERC1155",
        "label": "royaltyPercentage",
        "offset": 20,
        "slot": "7",
        "type": "t_uint16"
      },
      {
        "astId": 3052,
        "contract": "contracts/token/FractionalRealEstateERC1155.sol:FractionalRealEstateERC1155",
        "label": "contractURI",
        "offset": 0,
        "slot": "8",
        "type": "t_string_storage"
      },
      {
        "astId": 2409,
        "contract": "contracts/token/FractionalRealEstateERC1155.sol:FractionalRealEstateERC1155",
        "label": "minter",
        "offset": 0,
        "slot": "9",
        "type": "t_address"
      },
      {
        "astId": 2412,
        "contract": "contracts/token/FractionalRealEstateERC1155.sol:FractionalRealEstateERC1155",
        "label": "burner",
        "offset": 0,
        "slot": "10",
        "type": "t_address"
      },
      {
        "astId": 2415,
        "contract": "contracts/token/FractionalRealEstateERC1155.sol:FractionalRealEstateERC1155",
        "label": "liquidator",
        "offset": 0,
        "slot": "11",
        "type": "t_address"
      },
      {
        "astId": 2420,
        "contract": "contracts/token/FractionalRealEstateERC1155.sol:FractionalRealEstateERC1155",
        "label": "collectionName",
        "offset": 0,
        "slot": "12",
        "type": "t_mapping(t_uint256,t_string_storage)"
      },
      {
        "astId": 2425,
        "contract": "contracts/token/FractionalRealEstateERC1155.sol:FractionalRealEstateERC1155",
        "label": "collectionSymbol",
        "offset": 0,
        "slot": "13",
        "type": "t_mapping(t_uint256,t_string_storage)"
      },
      {
        "astId": 2430,
        "contract": "contracts/token/FractionalRealEstateERC1155.sol:FractionalRealEstateERC1155",
        "label": "collectionRenovationTime",
        "offset": 0,
        "slot": "14",
        "type": "t_mapping(t_uint256,t_uint256)"
      },
      {
        "astId": 2437,
        "contract": "contracts/token/FractionalRealEstateERC1155.sol:FractionalRealEstateERC1155",
        "label": "accountExpirationTime",
        "offset": 0,
        "slot": "15",
        "type": "t_mapping(t_uint256,t_mapping(t_address,t_uint256))"
      },
      {
        "astId": 2441,
        "contract": "contracts/token/FractionalRealEstateERC1155.sol:FractionalRealEstateERC1155",
        "label": "_metadataInitialized",
        "offset": 0,
        "slot": "16",
        "type": "t_struct(BitMap)2224_storage"
      },
      {
        "astId": 2446,
        "contract": "contracts/token/FractionalRealEstateERC1155.sol:FractionalRealEstateERC1155",
        "label": "isPerpetual",
        "offset": 0,
        "slot": "17",
        "type": "t_mapping(t_address,t_bool)"
      },
      {
        "astId": 2450,
        "contract": "contracts/token/FractionalRealEstateERC1155.sol:FractionalRealEstateERC1155",
        "label": "_currentId",
        "offset": 0,
        "slot": "18",
        "type": "t_struct(Counter)1886_storage"
      }
    ],
    "types": {
      "t_address": {
        "encoding": "inplace",
        "label": "address",
        "numberOfBytes": "20"
      },
      "t_bool": {
        "encoding": "inplace",
        "label": "bool",
        "numberOfBytes": "1"
      },
      "t_mapping(t_address,t_bool)": {
        "encoding": "mapping",
        "key": "t_address",
        "label": "mapping(address => bool)",
        "numberOfBytes": "32",
        "value": "t_bool"
      },
      "t_mapping(t_address,t_mapping(t_address,t_bool))": {
        "encoding": "mapping",
        "key": "t_address",
        "label": "mapping(address => mapping(address => bool))",
        "numberOfBytes": "32",
        "value": "t_mapping(t_address,t_bool)"
      },
      "t_mapping(t_address,t_mapping(t_address,t_uint256))": {
        "encoding": "mapping",
        "key": "t_address",
        "label": "mapping(address => mapping(address => uint256))",
        "numberOfBytes": "32",
        "value": "t_mapping(t_address,t_uint256)"
      },
      "t_mapping(t_address,t_uint256)": {
        "encoding": "mapping",
        "key": "t_address",
        "label": "mapping(address => uint256)",
        "numberOfBytes": "32",
        "value": "t_uint256"
      },
      "t_mapping(t_uint256,t_mapping(t_address,t_mapping(t_address,t_uint256)))": {
        "encoding": "mapping",
        "key": "t_uint256",
        "label": "mapping(uint256 => mapping(address => mapping(address => uint256)))",
        "numberOfBytes": "32",
        "value": "t_mapping(t_address,t_mapping(t_address,t_uint256))"
      },
      "t_mapping(t_uint256,t_mapping(t_address,t_uint256))": {
        "encoding": "mapping",
        "key": "t_uint256",
        "label": "mapping(uint256 => mapping(address => uint256))",
        "numberOfBytes": "32",
        "value": "t_mapping(t_address,t_uint256)"
      },
      "t_mapping(t_uint256,t_string_storage)": {
        "encoding": "mapping",
        "key": "t_uint256",
        "label": "mapping(uint256 => string)",
        "numberOfBytes": "32",
        "value": "t_string_storage"
      },
      "t_mapping(t_uint256,t_uint256)": {
        "encoding": "mapping",
        "key": "t_uint256",
        "label": "mapping(uint256 => uint256)",
        "numberOfBytes": "32",
        "value": "t_uint256"
      },
      "t_string_storage": {
        "encoding": "bytes",
        "label": "string",
        "numberOfBytes": "32"
      },
      "t_struct(BitMap)2224_storage": {
        "encoding": "inplace",
        "label": "struct BitMaps.BitMap",
        "members": [
          {
            "astId": 2223,
            "contract": "contracts/token/FractionalRealEstateERC1155.sol:FractionalRealEstateERC1155",
            "label": "_data",
            "offset": 0,
            "slot": "0",
            "type": "t_mapping(t_uint256,t_uint256)"
          }
        ],
        "numberOfBytes": "32"
      },
      "t_struct(Counter)1886_storage": {
        "encoding": "inplace",
        "label": "struct Counters.Counter",
        "members": [
          {
            "astId": 1885,
            "contract": "contracts/token/FractionalRealEstateERC1155.sol:FractionalRealEstateERC1155",
            "label": "_value",
            "offset": 0,
            "slot": "0",
            "type": "t_uint256"
          }
        ],
        "numberOfBytes": "32"
      },
      "t_uint16": {
        "encoding": "inplace",
        "label": "uint16",
        "numberOfBytes": "2"
      },
      "t_uint256": {
        "encoding": "inplace",
        "label": "uint256",
        "numberOfBytes": "32"
      }
    }
  }
}