{
  "address": "0xAD206Bc2544dBa850c7410a628Af2Cac995c4383",
  "abi": [
    {
      "anonymous": false,
      "inputs": [
        {
          "indexed": false,
          "internalType": "address",
          "name": "previousAdmin",
          "type": "address"
        },
        {
          "indexed": false,
          "internalType": "address",
          "name": "newAdmin",
          "type": "address"
        }
      ],
      "name": "AdminChanged",
      "type": "event"
    },
    {
      "anonymous": false,
      "inputs": [
        {
          "indexed": true,
          "internalType": "address",
          "name": "beacon",
          "type": "address"
        }
      ],
      "name": "BeaconUpgraded",
      "type": "event"
    },
    {
      "anonymous": false,
      "inputs": [
        {
          "indexed": true,
          "internalType": "uint256",
          "name": "_iroId",
          "type": "uint256"
        },
        {
          "indexed": true,
          "internalType": "address",
          "name": "_by",
          "type": "address"
        },
        {
          "indexed": true,
          "internalType": "address",
          "name": "_to",
          "type": "address"
        },
        {
          "indexed": false,
          "internalType": "uint256",
          "name": "_commitAmount",
          "type": "uint256"
        }
      ],
      "name": "CashBack",
      "type": "event"
    },
    {
      "anonymous": false,
      "inputs": [
        {
          "indexed": true,
          "internalType": "uint256",
          "name": "_iroId",
          "type": "uint256"
        },
        {
          "indexed": true,
          "internalType": "address",
          "name": "_user",
          "type": "address"
        },
        {
          "indexed": true,
          "internalType": "address",
          "name": "_paymentToken",
          "type": "address"
        },
        {
          "indexed": false,
          "internalType": "uint256",
          "name": "_amountInBase",
          "type": "uint256"
        },
        {
          "indexed": false,
          "internalType": "uint256",
          "name": "_purchasedTokens",
          "type": "uint256"
        }
      ],
      "name": "Commit",
      "type": "event"
    },
    {
      "anonymous": false,
      "inputs": [
        {
          "indexed": true,
          "internalType": "uint256",
          "name": "_id",
          "type": "uint256"
        },
        {
          "indexed": true,
          "internalType": "address",
          "name": "_listingOwner",
          "type": "address"
        },
        {
          "indexed": false,
          "internalType": "uint256",
          "name": "_unitPrice",
          "type": "uint256"
        },
        {
          "indexed": false,
          "internalType": "uint16",
          "name": "_listingOwnerShare",
          "type": "uint16"
        },
        {
          "indexed": false,
          "internalType": "uint16",
          "name": "_treasuryFee",
          "type": "uint16"
        },
        {
          "indexed": false,
          "internalType": "uint64",
          "name": "_start",
          "type": "uint64"
        },
        {
          "indexed": false,
          "internalType": "uint64",
          "name": "_end",
          "type": "uint64"
        }
      ],
      "name": "CreateIRO",
      "type": "event"
    },
    {
      "anonymous": false,
      "inputs": [
        {
          "indexed": true,
          "internalType": "uint256",
          "name": "_iroId",
          "type": "uint256"
        },
        {
          "indexed": true,
          "internalType": "address",
          "name": "_by",
          "type": "address"
        },
        {
          "indexed": true,
          "internalType": "bool",
          "name": "_realEstateFundsSet",
          "type": "bool"
        },
        {
          "indexed": false,
          "internalType": "uint256",
          "name": "_listingOwnerAmount",
          "type": "uint256"
        },
        {
          "indexed": false,
          "internalType": "uint256",
          "name": "_treasuryAmount",
          "type": "uint256"
        },
        {
          "indexed": false,
          "internalType": "uint256",
          "name": "_realEstateFundsAmount",
          "type": "uint256"
        }
      ],
      "name": "FundsWithdrawn",
      "type": "event"
    },
    {
      "anonymous": false,
      "inputs": [
        {
          "indexed": false,
          "internalType": "uint8",
          "name": "version",
          "type": "uint8"
        }
      ],
      "name": "Initialized",
      "type": "event"
    },
    {
      "anonymous": false,
      "inputs": [
        {
          "indexed": true,
          "internalType": "uint256",
          "name": "_iroId",
          "type": "uint256"
        },
        {
          "indexed": true,
          "internalType": "address",
          "name": "_by",
          "type": "address"
        },
        {
          "indexed": true,
          "internalType": "address",
          "name": "_to",
          "type": "address"
        },
        {
          "indexed": false,
          "internalType": "uint256",
          "name": "_amount",
          "type": "uint256"
        }
      ],
      "name": "OwnerTokensClaimed",
      "type": "event"
    },
    {
      "anonymous": false,
      "inputs": [
        {
          "indexed": true,
          "internalType": "address",
          "name": "previousOwner",
          "type": "address"
        },
        {
          "indexed": true,
          "internalType": "address",
          "name": "newOwner",
          "type": "address"
        }
      ],
      "name": "OwnershipTransferred",
      "type": "event"
    },
    {
      "anonymous": false,
      "inputs": [
        {
          "indexed": true,
          "internalType": "address",
          "name": "_by",
          "type": "address"
        },
        {
          "indexed": true,
          "internalType": "address",
          "name": "_currency",
          "type": "address"
        }
      ],
      "name": "PathUpdated",
      "type": "event"
    },
    {
      "anonymous": false,
      "inputs": [
        {
          "indexed": true,
          "internalType": "address",
          "name": "_by",
          "type": "address"
        },
        {
          "indexed": true,
          "internalType": "address",
          "name": "_baseCurrency",
          "type": "address"
        }
      ],
      "name": "SetBaseCurrency",
      "type": "event"
    },
    {
      "anonymous": false,
      "inputs": [
        {
          "indexed": true,
          "internalType": "address",
          "name": "_by",
          "type": "address"
        },
        {
          "indexed": true,
          "internalType": "address",
          "name": "_paymentToken",
          "type": "address"
        },
        {
          "indexed": true,
          "internalType": "bool",
          "name": "allowed",
          "type": "bool"
        }
      ],
      "name": "TogglePaymentToken",
      "type": "event"
    },
    {
      "anonymous": false,
      "inputs": [
        {
          "indexed": true,
          "internalType": "uint256",
          "name": "_iroId",
          "type": "uint256"
        },
        {
          "indexed": true,
          "internalType": "address",
          "name": "_by",
          "type": "address"
        },
        {
          "indexed": true,
          "internalType": "address",
          "name": "_to",
          "type": "address"
        },
        {
          "indexed": false,
          "internalType": "uint256",
          "name": "_amount",
          "type": "uint256"
        }
      ],
      "name": "TokensClaimed",
      "type": "event"
    },
    {
      "anonymous": false,
      "inputs": [
        {
          "indexed": true,
          "internalType": "address",
          "name": "implementation",
          "type": "address"
        }
      ],
      "name": "Upgraded",
      "type": "event"
    },
    {
      "anonymous": false,
      "inputs": [
        {
          "indexed": true,
          "internalType": "address",
          "name": "_by",
          "type": "address"
        },
        {
          "indexed": true,
          "internalType": "address",
          "name": "_currency",
          "type": "address"
        },
        {
          "indexed": true,
          "internalType": "bool",
          "name": "_whitelist",
          "type": "bool"
        }
      ],
      "name": "WhitelistCurrency",
      "type": "event"
    },
    {
      "inputs": [
        {
          "internalType": "uint256",
          "name": "_iroId",
          "type": "uint256"
        },
        {
          "internalType": "address",
          "name": "_to",
          "type": "address"
        }
      ],
      "name": "claim",
      "outputs": [],
      "stateMutability": "nonpayable",
      "type": "function"
    },
    {
      "inputs": [
        {
          "internalType": "uint256",
          "name": "_iroId",
          "type": "uint256"
        },
        {
          "internalType": "address",
          "name": "_paymentToken",
          "type": "address"
        },
        {
          "internalType": "uint256",
          "name": "_amountToPay",
          "type": "uint256"
        },
        {
          "internalType": "uint256",
          "name": "_amountToPurchase",
          "type": "uint256"
        },
        {
          "internalType": "uint16",
          "name": "_slippage",
          "type": "uint16"
        }
      ],
      "name": "commit",
      "outputs": [],
      "stateMutability": "payable",
      "type": "function"
    },
    {
      "inputs": [
        {
          "internalType": "uint256",
          "name": "",
          "type": "uint256"
        },
        {
          "internalType": "address",
          "name": "",
          "type": "address"
        }
      ],
      "name": "commits",
      "outputs": [
        {
          "internalType": "uint256",
          "name": "",
          "type": "uint256"
        }
      ],
      "stateMutability": "view",
      "type": "function"
    },
    {
      "inputs": [
        {
          "internalType": "address",
          "name": "_listingOwner",
          "type": "address"
        },
        {
          "internalType": "uint16",
          "name": "_listingOwnerFee",
          "type": "uint16"
        },
        {
          "internalType": "uint16",
          "name": "_listingOwnerShare",
          "type": "uint16"
        },
        {
          "internalType": "uint16",
          "name": "_treasuryFee",
          "type": "uint16"
        },
        {
          "internalType": "uint64",
          "name": "_duration",
          "type": "uint64"
        },
        {
          "internalType": "uint256",
          "name": "_softCap",
          "type": "uint256"
        },
        {
          "internalType": "uint256",
          "name": "_hardCap",
          "type": "uint256"
        },
        {
          "internalType": "uint256",
          "name": "_unitPrice",
          "type": "uint256"
        },
        {
          "internalType": "uint64",
          "name": "_startOffset",
          "type": "uint64"
        }
      ],
      "name": "createIRO",
      "outputs": [],
      "stateMutability": "nonpayable",
      "type": "function"
    },
    {
      "inputs": [
        {
          "internalType": "uint256",
          "name": "_iroId",
          "type": "uint256"
        },
        {
          "internalType": "address",
          "name": "_paymentToken",
          "type": "address"
        },
        {
          "internalType": "uint256",
          "name": "_amountToPurchase",
          "type": "uint256"
        }
      ],
      "name": "expectedPrice",
      "outputs": [
        {
          "internalType": "uint256",
          "name": "",
          "type": "uint256"
        }
      ],
      "stateMutability": "view",
      "type": "function"
    },
    {
      "inputs": [],
      "name": "feeDenominator",
      "outputs": [
        {
          "internalType": "uint16",
          "name": "",
          "type": "uint16"
        }
      ],
      "stateMutability": "pure",
      "type": "function"
    },
    {
      "inputs": [],
      "name": "finance",
      "outputs": [
        {
          "internalType": "contract IUniswapV2Router01",
          "name": "swapRouter",
          "type": "address"
        },
        {
          "internalType": "contract IPriceOracle",
          "name": "priceOracle",
          "type": "address"
        },
        {
          "internalType": "address",
          "name": "weth",
          "type": "address"
        },
        {
          "internalType": "address",
          "name": "baseCurrency",
          "type": "address"
        }
      ],
      "stateMutability": "view",
      "type": "function"
    },
    {
      "inputs": [
        {
          "internalType": "uint256",
          "name": "_iroId",
          "type": "uint256"
        }
      ],
      "name": "getIRO",
      "outputs": [
        {
          "components": [
            {
              "internalType": "address",
              "name": "listingOwner",
              "type": "address"
            },
            {
              "internalType": "uint64",
              "name": "start",
              "type": "uint64"
            },
            {
              "internalType": "uint16",
              "name": "treasuryFee",
              "type": "uint16"
            },
            {
              "internalType": "uint16",
              "name": "listingOwnerFee",
              "type": "uint16"
            },
            {
              "internalType": "uint16",
              "name": "listingOwnerShare",
              "type": "uint16"
            },
            {
              "internalType": "uint64",
              "name": "end",
              "type": "uint64"
            },
            {
              "internalType": "uint256",
              "name": "softCap",
              "type": "uint256"
            },
            {
              "internalType": "uint256",
              "name": "hardCap",
              "type": "uint256"
            },
            {
              "internalType": "uint256",
              "name": "unitPrice",
              "type": "uint256"
            },
            {
              "internalType": "uint256",
              "name": "totalFunding",
              "type": "uint256"
            }
          ],
          "internalType": "struct InitialRealEstateOffering.IRO",
          "name": "",
          "type": "tuple"
        }
      ],
      "stateMutability": "view",
      "type": "function"
    },
    {
      "inputs": [
        {
          "internalType": "uint256",
          "name": "_iroId",
          "type": "uint256"
        }
      ],
      "name": "getStatus",
      "outputs": [
        {
          "internalType": "enum InitialRealEstateOffering.Status",
          "name": "",
          "type": "uint8"
        }
      ],
      "stateMutability": "view",
      "type": "function"
    },
    {
      "inputs": [
        {
          "internalType": "address",
          "name": "_owner",
          "type": "address"
        },
        {
          "internalType": "address",
          "name": "_realEstateNft",
          "type": "address"
        },
        {
          "internalType": "address",
          "name": "_treasury",
          "type": "address"
        },
        {
          "internalType": "address",
          "name": "_realEstateFunds",
          "type": "address"
        },
        {
          "internalType": "address",
          "name": "_baseCurrency",
          "type": "address"
        },
        {
          "internalType": "address",
          "name": "_priceFeedRegistry",
          "type": "address"
        },
        {
          "internalType": "address",
          "name": "_swapRouter",
          "type": "address"
        },
        {
          "internalType": "address",
          "name": "_weth",
          "type": "address"
        }
      ],
      "name": "initialize",
      "outputs": [],
      "stateMutability": "nonpayable",
      "type": "function"
    },
    {
      "inputs": [],
      "name": "iroLength",
      "outputs": [
        {
          "internalType": "uint256",
          "name": "",
          "type": "uint256"
        }
      ],
      "stateMutability": "view",
      "type": "function"
    },
    {
      "inputs": [
        {
          "internalType": "uint256",
          "name": "_iroId",
          "type": "uint256"
        },
        {
          "internalType": "address",
          "name": "_to",
          "type": "address"
        }
      ],
      "name": "listingOwnerClaim",
      "outputs": [],
      "stateMutability": "nonpayable",
      "type": "function"
    },
    {
      "inputs": [],
      "name": "now64",
      "outputs": [
        {
          "internalType": "uint64",
          "name": "",
          "type": "uint64"
        }
      ],
      "stateMutability": "view",
      "type": "function"
    },
    {
      "inputs": [],
      "name": "owner",
      "outputs": [
        {
          "internalType": "address",
          "name": "",
          "type": "address"
        }
      ],
      "stateMutability": "view",
      "type": "function"
    },
    {
      "inputs": [
        {
          "internalType": "uint256",
          "name": "_iroId",
          "type": "uint256"
        },
        {
          "internalType": "address",
          "name": "_paymentToken",
          "type": "address"
        },
        {
          "internalType": "uint256",
          "name": "_amountToPurchase",
          "type": "uint256"
        },
        {
          "internalType": "uint16",
          "name": "_slippage",
          "type": "uint16"
        }
      ],
      "name": "priceWithSlippage",
      "outputs": [
        {
          "internalType": "uint256",
          "name": "",
          "type": "uint256"
        }
      ],
      "stateMutability": "view",
      "type": "function"
    },
    {
      "inputs": [],
      "name": "proxiableUUID",
      "outputs": [
        {
          "internalType": "bytes32",
          "name": "",
          "type": "bytes32"
        }
      ],
      "stateMutability": "view",
      "type": "function"
    },
    {
      "inputs": [],
      "name": "realEstateFunds",
      "outputs": [
        {
          "internalType": "contract IRealEstateFunds",
          "name": "",
          "type": "address"
        }
      ],
      "stateMutability": "view",
      "type": "function"
    },
    {
      "inputs": [
        {
          "internalType": "uint256",
          "name": "",
          "type": "uint256"
        }
      ],
      "name": "realEstateId",
      "outputs": [
        {
          "internalType": "uint256",
          "name": "",
          "type": "uint256"
        }
      ],
      "stateMutability": "view",
      "type": "function"
    },
    {
      "inputs": [],
      "name": "realEstateNft",
      "outputs": [
        {
          "internalType": "contract IRealEstateERC1155",
          "name": "",
          "type": "address"
        }
      ],
      "stateMutability": "view",
      "type": "function"
    },
    {
      "inputs": [
        {
          "internalType": "uint256",
          "name": "_iroId",
          "type": "uint256"
        }
      ],
      "name": "remainingTokens",
      "outputs": [
        {
          "internalType": "uint256",
          "name": "",
          "type": "uint256"
        }
      ],
      "stateMutability": "view",
      "type": "function"
    },
    {
      "inputs": [],
      "name": "renounceOwnership",
      "outputs": [],
      "stateMutability": "nonpayable",
      "type": "function"
    },
    {
      "inputs": [
        {
          "internalType": "address",
          "name": "_baseCurrency",
          "type": "address"
        }
      ],
      "name": "setBaseCurrency",
      "outputs": [],
      "stateMutability": "nonpayable",
      "type": "function"
    },
    {
      "inputs": [
        {
          "internalType": "address",
          "name": "_realEstateFunds",
          "type": "address"
        }
      ],
      "name": "setRealEstateFunds",
      "outputs": [],
      "stateMutability": "nonpayable",
      "type": "function"
    },
    {
      "inputs": [
        {
          "internalType": "address",
          "name": "_treasury",
          "type": "address"
        }
      ],
      "name": "setTreasury",
      "outputs": [],
      "stateMutability": "nonpayable",
      "type": "function"
    },
    {
      "inputs": [
        {
          "internalType": "address",
          "name": "_currency",
          "type": "address"
        },
        {
          "internalType": "address[]",
          "name": "_relativePath",
          "type": "address[]"
        }
      ],
      "name": "setrelativePath",
      "outputs": [],
      "stateMutability": "nonpayable",
      "type": "function"
    },
    {
      "inputs": [],
      "name": "shareDenominator",
      "outputs": [
        {
          "internalType": "uint16",
          "name": "",
          "type": "uint16"
        }
      ],
      "stateMutability": "pure",
      "type": "function"
    },
    {
      "inputs": [],
      "name": "slippageDenominator",
      "outputs": [
        {
          "internalType": "uint16",
          "name": "",
          "type": "uint16"
        }
      ],
      "stateMutability": "pure",
      "type": "function"
    },
    {
      "inputs": [
        {
          "internalType": "address",
          "name": "newOwner",
          "type": "address"
        }
      ],
      "name": "transferOwnership",
      "outputs": [],
      "stateMutability": "nonpayable",
      "type": "function"
    },
    {
      "inputs": [],
      "name": "treasury",
      "outputs": [
        {
          "internalType": "address",
          "name": "",
          "type": "address"
        }
      ],
      "stateMutability": "view",
      "type": "function"
    },
    {
      "inputs": [
        {
          "internalType": "address",
          "name": "newImplementation",
          "type": "address"
        }
      ],
      "name": "upgradeTo",
      "outputs": [],
      "stateMutability": "nonpayable",
      "type": "function"
    },
    {
      "inputs": [
        {
          "internalType": "address",
          "name": "newImplementation",
          "type": "address"
        },
        {
          "internalType": "bytes",
          "name": "data",
          "type": "bytes"
        }
      ],
      "name": "upgradeToAndCall",
      "outputs": [],
      "stateMutability": "payable",
      "type": "function"
    },
    {
      "inputs": [
        {
          "internalType": "address",
          "name": "_currency",
          "type": "address"
        },
        {
          "internalType": "bool",
          "name": "_whitelist",
          "type": "bool"
        }
      ],
      "name": "whitelistCurrency",
      "outputs": [],
      "stateMutability": "nonpayable",
      "type": "function"
    },
    {
      "inputs": [
        {
          "internalType": "address",
          "name": "",
          "type": "address"
        }
      ],
      "name": "whitelistedCurrency",
      "outputs": [
        {
          "internalType": "bool",
          "name": "whitelisted",
          "type": "bool"
        }
      ],
      "stateMutability": "view",
      "type": "function"
    },
    {
      "inputs": [
        {
          "internalType": "uint256",
          "name": "_iroId",
          "type": "uint256"
        }
      ],
      "name": "withdraw",
      "outputs": [],
      "stateMutability": "nonpayable",
      "type": "function"
    }
  ],
  "transactionHash": "0x4ed734e7c2493caf3443c749d4bf947fdfd32981ed9c49f7c898c5dbdfb19d07",
  "args": [],
  "numDeployments": 1,
  "solcInputHash": "a64bd65a330daff2ff36be2e234b3703",
  "bytecode": "0x60a06040523060805234801561001457600080fd5b50608051613e9a61004c60003960008181610ef801528181610f3801528181610fd70152818161101701526110aa0152613e9a6000f3fe6080604052600436106101f95760003560e01c80637e32c2031161010d578063b478f416116100a0578063de9ee90b1161006f578063de9ee90b146105fb578063e915c5591461061f578063ef217dbd1461063f578063f0f4426014610654578063f2fde38b1461067457600080fd5b8063b478f416146105bb578063d484064114610266578063d831d49314610266578063ddd5e1b2146105db57600080fd5b80638c3bfb1c116100dc5780638c3bfb1c146105305780638da5cb5b1461055057806395ba7c5a1461056e5780639a19b73b1461058e57600080fd5b80637e32c2031461047857806388403470146104b8578063885d68a8146104d85780638a29e2de1461051057600080fd5b80634f1ef2861161019057806361d027b31161015f57806361d027b3146103cb57806369277bf7146104035780636b0c0b0a146104235780636ffc5f6f14610443578063715018a61461046357600080fd5b80634f1ef2861461034957806352d1902d1461035c5780635c622a0e14610371578063606b77db1461039e57600080fd5b806323b3359f116101cc57806323b3359f146102835780632e1a7d4d146102a3578063313b7b19146102c35780633659cfe61461032957600080fd5b806308e404d8146101fe57806310e9215f14610220578063171ee95a14610233578063180b0d7e14610266575b600080fd5b34801561020a57600080fd5b5061021e6102193660046133f8565b610694565b005b61021e61022e366004613425565b61070d565b34801561023f57600080fd5b5061025361024e366004613475565b610aaa565b6040519081526020015b60405180910390f35b34801561027257600080fd5b50604051612710815260200161025d565b34801561028f57600080fd5b5061021e61029e36600461348e565b610ae4565b3480156102af57600080fd5b5061021e6102be366004613475565b610d30565b3480156102cf57600080fd5b5060cc5460cd5460ce5460cf546102f6936001600160a01b03908116938116928116911684565b604080516001600160a01b039586168152938516602085015291841691830191909152909116606082015260800161025d565b34801561033557600080fd5b5061021e6103443660046133f8565b610eee565b61021e610357366004613500565b610fcd565b34801561036857600080fd5b5061025361109d565b34801561037d57600080fd5b5061039161038c366004613475565b611150565b60405161025d91906135bb565b3480156103aa57600080fd5b506102536103b9366004613475565b60d36020526000908152604090205481565b3480156103d757600080fd5b5060c9546103eb906001600160a01b031681565b6040516001600160a01b03909116815260200161025d565b34801561040f57600080fd5b5061025361041e3660046135e3565b611201565b34801561042f57600080fd5b5061021e61043e36600461363b565b611266565b34801561044f57600080fd5b5061025361045e3660046136ea565b611321565b34801561046f57600080fd5b5061021e61138a565b34801561048457600080fd5b506104a86104933660046133f8565b60d46020526000908152604090205460ff1681565b604051901515815260200161025d565b3480156104c457600080fd5b5060cb546103eb906001600160a01b031681565b3480156104e457600080fd5b506102536104f336600461348e565b60d260209081526000928352604080842090915290825290205481565b34801561051c57600080fd5b5061021e61052b366004613730565b61139e565b34801561053c57600080fd5b5061021e61054b3660046137d5565b6116fc565b34801561055c57600080fd5b506033546001600160a01b03166103eb565b34801561057a57600080fd5b5061021e610589366004613823565b6117a4565b34801561059a57600080fd5b506105ae6105a9366004613475565b611aff565b60405161025d91906138b6565b3480156105c757600080fd5b5061021e6105d63660046133f8565b611c48565b3480156105e757600080fd5b5061021e6105f636600461348e565b611ce3565b34801561060757600080fd5b506040516001600160401b034216815260200161025d565b34801561062b57600080fd5b5060ca546103eb906001600160a01b031681565b34801561064b57600080fd5b50610253611f21565b34801561066057600080fd5b5061021e61066f3660046133f8565b611f31565b34801561068057600080fd5b5061021e61068f3660046133f8565b611f9e565b61069c612014565b6001600160a01b0381166106eb5760405162461bcd60e51b8152602060048201526011602482015270215f7265616c45737461746546756e647360781b60448201526064015b60405180910390fd5b60cb80546001600160a01b0319166001600160a01b0392909216919091179055565b600082116107735760405162461bcd60e51b815260206004820152602d60248201527f5f616d6f756e74546f50757263686173652073686f756c64206265206772656160448201526c746572207468616e207a65726f60981b60648201526084016106e2565b6001600160a01b038416600090815260d46020908152604080832081518083018352815460ff161515815260018201805484518187028101870190955280855291949293858401939092908301828280156107f757602002820191906000526020600020905b81546001600160a01b031681526001909101906020018083116107d9575b50505091909252505060cf54919250506001600160a01b038681169116148061081e575080515b6108615760405162461bcd60e51b815260206004820152601460248201527310dd5c9c995b98de481b9bdd08185b1b1bddd95960621b60448201526064016106e2565b61271061ffff831611156108ab5760405162461bcd60e51b8152602060048201526011602482015270496e76616c6964205f736c69707061676560781b60448201526064016106e2565b60006108b687611aff565b905060016108c38261206e565b60038111156108d4576108d46135a5565b146109155760405162461bcd60e51b815260206004820152601160248201527049524f206973206e6f742061637469766560781b60448201526064016106e2565b60e081015161010082015161092a9086613988565b82610120015161093a919061399f565b111561097a5760405162461bcd60e51b815260206004820152600f60248201526e12185c9918d85c081c995858da1959608a1b60448201526064016106e2565b6001600160a01b038616158015906109925750600034115b156109a1576109a1333461211f565b6101008101516020808401516040805160808101825260cc546001600160a01b03908116825260cd5481169482019490945260ce5484169181019190915260cf5490921660608301526000926109ff92918a908a908a908a906121bf565b600089815260d260209081526040808320338452909152812080549293508792909190610a2d90849061399f565b9091555050600088815260d1602052604081206005018054839290610a5390849061399f565b909155505060408051828152602081018790526001600160a01b0389169133918b917f5a85eb554fd8d84f35068dd70b72c3eade7b5cd89deb5cd10d936626411beaa4910160405180910390a45050505050505050565b600080610ab683611aff565b90508061010001518161012001518260e00151610ad391906139b2565b610add91906139db565b9392505050565b6000610aef83611aff565b80519091506001600160a01b03163314610b365760405162461bcd60e51b815260206004820152600860248201526708585b1b1bddd95960c21b60448201526064016106e2565b610b4160d684612732565b15610b805760405162461bcd60e51b815260206004820152600f60248201526e105b1c9958591e4818db185a5b5959608a1b60448201526064016106e2565b6002610b8b8261206e565b6003811115610b9c57610b9c6135a5565b14610bde5760405162461bcd60e51b8152602060048201526012602482015271125493c81b9bdd081cdd58d8d95cdcd99d5b60721b60448201526064016106e2565b6000816080015161ffff1611610c295760405162461bcd60e51b815260206004820152601060248201526f4e6f7468696e6720746f20636c61696d60801b60448201526064016106e2565b6000610c448261012001518361010001518460800151612757565b60ca549091506001600160a01b031663836a1040610c6186612790565b6040516001600160e01b031960e084901b16815260048101919091526001600160a01b038616602482015260448101849052606401600060405180830381600087803b158015610cb057600080fd5b505af1158015610cc4573d6000803e3d6000fd5b50505050610cdc8460d661286590919063ffffffff16565b826001600160a01b0316336001600160a01b0316857f5e789de02041c87403c6f48bfd49a8cb3e5a5e8a53bcdef4f2fb597992326b4f84604051610d2291815260200190565b60405180910390a450505050565b6000610d3b82611aff565b90506002610d488261206e565b6003811115610d5957610d596135a5565b14610d9b5760405162461bcd60e51b8152602060048201526012602482015271125493c81b9bdd081cdd58d8d95cdcd99d5b60721b60448201526064016106e2565b610da660d583612732565b15610de75760405162461bcd60e51b815260206004820152601160248201527020b63932b0b23c903bb4ba34323930bbb760791b60448201526064016106e2565b805160c95460cb54600092839283928392610e749290916001600160a01b039182169116610e148a612790565b6101208a01516060808c01516040808e0151815160808101835260cc546001600160a01b03908116825260cd548116602083015260ce5481169382019390935260cf549092169382019390935296959493929161ffff918216911661288e565b60088a901c600090815260d5602052604090208054600160ff8d161b17905592965090945092509050604080518581526020810185905290810183905281151590339088907ff51dce7865db25a2ec6b47f91f3e97b1626e1e085200f50031aaceb3eda8df379060600160405180910390a4505050505050565b6001600160a01b037f0000000000000000000000000000000000000000000000000000000000000000163003610f365760405162461bcd60e51b81526004016106e2906139ef565b7f00000000000000000000000000000000000000000000000000000000000000006001600160a01b0316610f7f600080516020613e1e833981519152546001600160a01b031690565b6001600160a01b031614610fa55760405162461bcd60e51b81526004016106e290613a3b565b610fae816129d2565b60408051600080825260208201909252610fca918391906129da565b50565b6001600160a01b037f00000000000000000000000000000000000000000000000000000000000000001630036110155760405162461bcd60e51b81526004016106e2906139ef565b7f00000000000000000000000000000000000000000000000000000000000000006001600160a01b031661105e600080516020613e1e833981519152546001600160a01b031690565b6001600160a01b0316146110845760405162461bcd60e51b81526004016106e290613a3b565b61108d826129d2565b611099828260016129da565b5050565b6000306001600160a01b037f0000000000000000000000000000000000000000000000000000000000000000161461113d5760405162461bcd60e51b815260206004820152603860248201527f555550535570677261646561626c653a206d757374206e6f742062652063616c60448201527f6c6564207468726f7567682064656c656761746563616c6c000000000000000060648201526084016106e2565b50600080516020613e1e83398151915290565b600081815260d16020908152604080832081516101408101835281546001600160a01b03811682526001600160401b03600160a01b820481169583019590955261ffff600160e01b8204811694830194909452600160f01b900483166060820152600182015492831660808201526201000090920490921660a0820152600282015460c0820152600382015460e08201526004820154610100820152600590910154610120820152610add8161206e565b60008061120d85611aff565b6101008101516040805160808101825260cc546001600160a01b03908116825260cd548116602083015260ce5481169282019290925260cf54909116606082015291925061125d91908686612b45565b95945050505050565b61126e612014565b6001600160a01b0382166112b75760405162461bcd60e51b815260206004820152601060248201526f21696e76616c6964206164647265737360801b60448201526064016106e2565b6001600160a01b038216600090815260d46020908152604090912082516112e692600190920191840190613367565b506040516001600160a01b0383169033907f541e8ddf10373c23738bb2294d080cbb3fd1e8a673a6cf2cabac62a4b4c663b390600090a35050565b60008061132d86611aff565b6101008101516040805160808101825260cc546001600160a01b03908116825260cd548116602083015260ce5481169282019290925260cf54909116606082015291925061137e9190878787612b83565b9150505b949350505050565b611392612014565b61139c6000612bdd565b565b600054610100900460ff16158080156113be5750600054600160ff909116105b806113d85750303b1580156113d8575060005460ff166001145b61143b5760405162461bcd60e51b815260206004820152602e60248201527f496e697469616c697a61626c653a20636f6e747261637420697320616c72656160448201526d191e481a5b9a5d1a585b1a5e995960921b60648201526084016106e2565b6000805460ff19166001179055801561145e576000805461ff0019166101001790555b6001600160a01b0388166114a65760405162461bcd60e51b815260206004820152600f60248201526e0857dc99585b115cdd185d1953999d608a1b60448201526064016106e2565b6001600160a01b0387166114e95760405162461bcd60e51b815260206004820152600a602482015269215f747265617375727960b01b60448201526064016106e2565b6001600160a01b0385166115305760405162461bcd60e51b815260206004820152600e60248201526d215f6261736543757272656e637960901b60448201526064016106e2565b6001600160a01b03841661157c5760405162461bcd60e51b8152602060048201526013602482015272215f707269636546656564526567697374727960681b60448201526064016106e2565b6001600160a01b0383166115c15760405162461bcd60e51b815260206004820152600c60248201526b10afb9bbb0b82937baba32b960a11b60448201526064016106e2565b6001600160a01b0382166116005760405162461bcd60e51b8152602060048201526006602482015265042beeecae8d60d31b60448201526064016106e2565b60ca80546001600160a01b038a81166001600160a01b03199283161790925560c980548a841690831617905560cb805489841690831617905560cc8054821686841617905560cd8054821687841617905560ce8054821685841617905560cf80549091169187169190911790556000805260d46020527f834b227d13c404d05a4f2bec4fa9e463622e40f7854878f14ed9365914194b0c805460ff191660011790556116ab89612bdd565b80156116f1576000805461ff0019169055604051600181527f7f26b83ff96e1f2b6a682f133852f6798a09c465da95921460cefb38474024989060200160405180910390a15b505050505050505050565b611704612014565b6001600160a01b03821661174d5760405162461bcd60e51b815260206004820152601060248201526f21696e76616c6964206164647265737360801b60448201526064016106e2565b6001600160a01b038216600081815260d46020526040808220805460ff1916851515908117909155905190929133917fff9717957a4925fa759608c104b35e85f78592a929d5f5e9056bf381af31ef229190a45050565b6117ac612014565b61271061ffff881611156117f85760405162461bcd60e51b8152602060048201526013602482015272496e76616c6964206f776e657220736861726560681b60448201526064016106e2565b61271061ffff871611156118455760405162461bcd60e51b8152602060048201526014602482015273496e76616c69642074726561737572792066656560601b60448201526064016106e2565b8161185085856139b2565b61185a9190613a87565b156118b55760405162461bcd60e51b815260206004820152602560248201527f436170732073686f756c64206265206d756c7469706c6573206f6620756e6974604482015264507269636560d81b60648201526084016106e2565b60006118bf611f21565b905060006118cd8342613a9b565b905060006118db8883613a9b565b90506040518061014001604052808d6001600160a01b03168152602001836001600160401b031681526020018a61ffff1681526020018c61ffff1681526020018b61ffff168152602001826001600160401b03168152602001888152602001878152602001868152602001600081525060d1600085815260200190815260200160002060008201518160000160006101000a8154816001600160a01b0302191690836001600160a01b0316021790555060208201518160000160146101000a8154816001600160401b0302191690836001600160401b03160217905550604082015181600001601c6101000a81548161ffff021916908361ffff160217905550606082015181600001601e6101000a81548161ffff021916908361ffff16021790555060808201518160010160006101000a81548161ffff021916908361ffff16021790555060a08201518160010160026101000a8154816001600160401b0302191690836001600160401b0316021790555060c0820151816002015560e0820151816003015561010082015181600401556101208201518160050155905050611a8960d080546001019055565b6040805186815261ffff8c811660208301528b16818301526001600160401b0384811660608301528316608082015290516001600160a01b038e169185917f47623e9a1ac1276299a411e313416730652c442497bd1f561dba6cbc62857f7c9181900360a00190a3505050505050505050505050565b6040805161014081018252600080825260208201819052918101829052606081018290526080810182905260a0810182905260c0810182905260e081018290526101008101829052610120810191909152611b58611f21565b8210611b9d5760405162461bcd60e51b81526020600482015260146024820152735f69726f4964206f75742d6f662d626f756e647360601b60448201526064016106e2565b50600090815260d1602090815260409182902082516101408101845281546001600160a01b03811682526001600160401b03600160a01b820481169483019490945261ffff600160e01b8204811695830195909552600160f01b900484166060820152600182015493841660808201526201000090930490911660a0830152600281015460c0830152600381015460e083015260048101546101008301526005015461012082015290565b611c50612014565b6001600160a01b038116611c975760405162461bcd60e51b815260206004820152600e60248201526d215f6261736543757272656e637960901b60448201526064016106e2565b60cf80546001600160a01b0319166001600160a01b03831690811790915560405133907f6dde2141be69fabcd84e3864d206ba0f3f2d507125fb2703899c87de4c585d5f90600090a350565b6000611cee83611aff565b90506000611cfb8261206e565b90506001816003811115611d1157611d116135a5565b11611d515760405162461bcd60e51b815260206004820152601060248201526f125493c81b9bdd08199a5b9a5cda195960821b60448201526064016106e2565b600084815260d26020908152604080832033845290915290205480611daa5760405162461bcd60e51b815260206004820152600f60248201526e139bdd1a1a5b99c81d1bc81b5a5b9d608a1b60448201526064016106e2565b6002826003811115611dbe57611dbe6135a5565b03611ea557600083610100015182611dd691906139db565b60ca549091506001600160a01b031663836a1040611df388612790565b6040516001600160e01b031960e084901b168152600481019190915233602482015260448101849052606401600060405180830381600087803b158015611e3957600080fd5b505af1158015611e4d573d6000803e3d6000fd5b50505050846001600160a01b0316336001600160a01b0316877f9c4945d842cc8c6704877a0defcd9ab09f6d77b24a369a95c2610506c6c38ee784604051611e9791815260200190565b60405180910390a450611f1a565b60cf54611ebe90859083906001600160a01b0316612c2f565b600085815260d2602090815260408083203380855290835281842093909355518381526001600160a01b038716929188917e13b41c02877cabf07b7d6154ea39ec4503af8922f651f7a81f4afacd0c664f910160405180910390a45b5050505050565b6000611f2c60d05490565b905090565b611f39612014565b6001600160a01b038116611f7c5760405162461bcd60e51b815260206004820152600a602482015269215f747265617375727960b01b60448201526064016106e2565b60c980546001600160a01b0319166001600160a01b0392909216919091179055565b611fa6612014565b6001600160a01b03811661200b5760405162461bcd60e51b815260206004820152602660248201527f4f776e61626c653a206e6577206f776e657220697320746865207a65726f206160448201526564647265737360d01b60648201526084016106e2565b610fca81612bdd565b6033546001600160a01b0316331461139c5760405162461bcd60e51b815260206004820181905260248201527f4f776e61626c653a2063616c6c6572206973206e6f7420746865206f776e657260448201526064016106e2565b600081602001516001600160401b03166120854290565b6001600160401b03161161209b57506000919050565b60a08201516001600160401b0316426001600160401b031610156120d9578160e00151826101200151036120d157506002919050565b506001919050565b60a08201516001600160401b0316426001600160401b031610612117578160c00151826101200151101561210f57506003919050565b506002919050565b506003919050565b6000826001600160a01b03168260405160006040518083038185875af1925050503d806000811461216c576040519150601f19603f3d011682016040523d82523d6000602084013e612171565b606091505b50509050806121ba5760405162461bcd60e51b81526020600482015260156024820152744661696c65642073656e64696e672065746865727360581b60448201526064016106e2565b505050565b60006121cb8785613988565b905087606001516001600160a01b0316866001600160a01b0316036122445784811461222a5760405162461bcd60e51b815260206004820152600e60248201526d125b9d985b1a5908185b5bdd5b9d60921b60448201526064016106e2565b61223f6001600160a01b038716333084612c43565b612727565b6001600160a01b038616156124af57600061271061ffff85166122678289613988565b612271919061399f565b61227b91906139db565b90506122926001600160a01b038816333084612c43565b88516122a9906001600160a01b0389169083612cb4565b6000835160026122b9919061399f565b6001600160401b038111156122d0576122d06134ba565b6040519080825280602002602001820160405280156122f9578160200160208202803683370190505b509050878160008151811061231057612310613ac2565b60200260200101906001600160a01b031690816001600160a01b03168152505060005b845181101561239e5784818151811061234e5761234e613ac2565b602002602001015182826001612364919061399f565b8151811061237457612374613ac2565b6001600160a01b03909216602092830291909101909101528061239681613ad8565b915050612333565b50896060015181600183516123b391906139b2565b815181106123c3576123c3613ac2565b6001600160a01b0392831660209182029290920101528a51604051634401edf760e11b81526000929190911690638803dbee9061240c9087908790879030904290600401613b35565b6000604051808303816000875af115801561242b573d6000803e3d6000fd5b505050506040513d6000823e601f3d908101601f191682016040526124539190810190613b71565b9050828160008151811061246957612469613ac2565b602002602001015110156124a7576124a7338260008151811061248e5761248e613ac2565b6020026020010151856124a191906139b2565b8b612c2f565b505050612727565b600061271061ffff85166124c38289613988565b6124cd919061399f565b6124d791906139db565b9050803410156125225760405162461bcd60e51b8152602060048201526016602482015275139bdd08195b9bdd59da08195d1a195c9cc81cd95b9d60521b60448201526064016106e2565b600083516002612532919061399f565b6001600160401b03811115612549576125496134ba565b604051908082528060200260200182016040528015612572578160200160208202803683370190505b50905089604001518160008151811061258d5761258d613ac2565b60200260200101906001600160a01b031690816001600160a01b03168152505060005b845181101561261b578481815181106125cb576125cb613ac2565b6020026020010151828260016125e1919061399f565b815181106125f1576125f1613ac2565b6001600160a01b03909216602092830291909101909101528061261381613ad8565b9150506125b0565b508960600151816001835161263091906139b2565b8151811061264057612640613ac2565b6001600160a01b0392831660209182029290920101528a5160405163fb3bdb4160e01b8152600092919091169063fb3bdb41908590612689908890879030904290600401613bf6565b60006040518083038185885af11580156126a7573d6000803e3d6000fd5b50505050506040513d6000823e601f3d908101601f191682016040526126d09190810190613b71565b905034816000815181106126e6576126e6613ac2565b6020026020010151101561272357612723338260008151811061270b5761270b613ac2565b60200260200101513461271e91906139b2565b61211f565b5050505b979650505050505050565b600881901c600090815260208390526040902054600160ff83161b1615155b92915050565b60008061276484866139db565b905061277283612710613c2b565b61ffff168361ffff16826127869190613988565b61125d91906139db565b600061279d60d783612732565b6128525760ca60009054906101000a90046001600160a01b03166001600160a01b0316631579c1336040518163ffffffff1660e01b8152600401602060405180830381865afa1580156127f4573d6000803e3d6000fd5b505050506040513d601f19601f820116820180604052508101906128189190613c46565b600083815260d360209081526040808320849055600886901c835260d790915290208054600160ff86161b1790559050919050565b919050565b50600090815260d3602052604090205490565b600881901c600090815260209290925260409091208054600160ff9093169290921b9091179055565b600080808085156128c1576127106128a68888613988565b6128b091906139db565b93506128c18b858e60600151612c2f565b6127106128ce8887613988565b6128d891906139db565b92506128e4838561399f565b6128ee90886139b2565b91506001600160a01b038916156129ab575060018215612917576129178a848e60600151612c2f565b81156129a65760608c0151612936906001600160a01b03168a84612cb4565b60608c0151604051638dbdbe6d60e01b8152600481018a9052602481018490526001600160a01b039182166044820152908a1690638dbdbe6d90606401600060405180830381600087803b15801561298d57600080fd5b505af11580156129a1573d6000803e3d6000fd5b505050505b6129c3565b6129c38a6129b9868a6139b2565b8e60600151612c2f565b98509850985098945050505050565b610fca612014565b7f4910fdfa16fed3260ed0e7147f7cc6da11a60208b5b9406d12a635614ffd91435460ff1615612a0d576121ba83612dc9565b826001600160a01b03166352d1902d6040518163ffffffff1660e01b8152600401602060405180830381865afa925050508015612a67575060408051601f3d908101601f19168201909252612a6491810190613c46565b60015b612aca5760405162461bcd60e51b815260206004820152602e60248201527f45524331393637557067726164653a206e657720696d706c656d656e7461746960448201526d6f6e206973206e6f74205555505360901b60648201526084016106e2565b600080516020613e1e8339815191528114612b395760405162461bcd60e51b815260206004820152602960248201527f45524331393637557067726164653a20756e737570706f727465642070726f786044820152681a58589b195555525160ba1b60648201526084016106e2565b506121ba838383612e65565b600080612b528584613988565b905085606001516001600160a01b0316846001600160a01b031603612b78579050611382565b61137e868286612e8a565b600080612b9287878787612b45565b905086606001516001600160a01b0316856001600160a01b031603612bb857905061125d565b612710612bc58482613c5f565b612bd39061ffff1683613988565b61272791906139db565b603380546001600160a01b038381166001600160a01b0319831681179093556040519116919082907f8be0079c531659141344cd1fd0a4f28419497f9722a3daafe3b4186f6b6457e090600090a35050565b6121ba6001600160a01b0382168484612f9f565b6040516001600160a01b0380851660248301528316604482015260648101829052612cae9085906323b872dd60e01b906084015b60408051601f198184030181529190526020810180516001600160e01b03166001600160e01b031990931692909217909152612fcf565b50505050565b801580612d2e5750604051636eb1769f60e11b81523060048201526001600160a01b03838116602483015284169063dd62ed3e90604401602060405180830381865afa158015612d08573d6000803e3d6000fd5b505050506040513d601f19601f82011682018060405250810190612d2c9190613c46565b155b612d995760405162461bcd60e51b815260206004820152603660248201527f5361666545524332303a20617070726f76652066726f6d206e6f6e2d7a65726f60448201527520746f206e6f6e2d7a65726f20616c6c6f77616e636560501b60648201526084016106e2565b6040516001600160a01b0383166024820152604481018290526121ba90849063095ea7b360e01b90606401612c77565b6001600160a01b0381163b612e365760405162461bcd60e51b815260206004820152602d60248201527f455243313936373a206e657720696d706c656d656e746174696f6e206973206e60448201526c1bdd08184818dbdb9d1c9858dd609a1b60648201526084016106e2565b600080516020613e1e83398151915280546001600160a01b0319166001600160a01b0392909216919091179055565b612e6e836130a1565b600082511180612e7b5750805b156121ba57612cae83836130e1565b60208301516060840151604051635620c32d60e11b81526001600160a01b03848116600483015291821660248201526000928392169063ac41865a90604401602060405180830381865afa158015612ee6573d6000803e3d6000fd5b505050506040513d601f19601f82011682018060405250810190612f0a9190613c46565b90506000836001600160a01b031663313ce5676040518163ffffffff1660e01b8152600401602060405180830381865afa158015612f4c573d6000803e3d6000fd5b505050506040513d601f19601f82011682018060405250810190612f709190613c7a565b905081612f8160ff8316600a613d81565b612f8b9087613988565b612f9591906139db565b9695505050505050565b6040516001600160a01b0383166024820152604481018290526121ba90849063a9059cbb60e01b90606401612c77565b6000613024826040518060400160405280602081526020017f5361666545524332303a206c6f772d6c6576656c2063616c6c206661696c6564815250856001600160a01b03166131cc9092919063ffffffff16565b8051909150156121ba57808060200190518101906130429190613d8d565b6121ba5760405162461bcd60e51b815260206004820152602a60248201527f5361666545524332303a204552433230206f7065726174696f6e20646964206e6044820152691bdd081cdd58d8d9595960b21b60648201526084016106e2565b6130aa81612dc9565b6040516001600160a01b038216907fbc7cd75a20ee27fd9adebab32041f755214dbc6bffa90cc0225b39da2e5c2d3b90600090a250565b60606001600160a01b0383163b6131495760405162461bcd60e51b815260206004820152602660248201527f416464726573733a2064656c65676174652063616c6c20746f206e6f6e2d636f6044820152651b9d1c9858dd60d21b60648201526084016106e2565b600080846001600160a01b0316846040516131649190613dce565b600060405180830381855af49150503d806000811461319f576040519150601f19603f3d011682016040523d82523d6000602084013e6131a4565b606091505b509150915061125d8282604051806060016040528060278152602001613e3e602791396131db565b606061138284846000856131f4565b606083156131ea575081610add565b610add83836132c4565b6060824710156132555760405162461bcd60e51b815260206004820152602660248201527f416464726573733a20696e73756666696369656e742062616c616e636520666f6044820152651c8818d85b1b60d21b60648201526084016106e2565b600080866001600160a01b031685876040516132719190613dce565b60006040518083038185875af1925050503d80600081146132ae576040519150601f19603f3d011682016040523d82523d6000602084013e6132b3565b606091505b5091509150612727878383876132ee565b8151156132d45781518083602001fd5b8060405162461bcd60e51b81526004016106e29190613dea565b6060831561335d578251600003613356576001600160a01b0385163b6133565760405162461bcd60e51b815260206004820152601d60248201527f416464726573733a2063616c6c20746f206e6f6e2d636f6e747261637400000060448201526064016106e2565b5081611382565b61138283836132c4565b8280548282559060005260206000209081019282156133bc579160200282015b828111156133bc57825182546001600160a01b0319166001600160a01b03909116178255602090920191600190910190613387565b506133c89291506133cc565b5090565b5b808211156133c857600081556001016133cd565b80356001600160a01b038116811461284d57600080fd5b60006020828403121561340a57600080fd5b610add826133e1565b803561ffff8116811461284d57600080fd5b600080600080600060a0868803121561343d57600080fd5b8535945061344d602087016133e1565b9350604086013592506060860135915061346960808701613413565b90509295509295909350565b60006020828403121561348757600080fd5b5035919050565b600080604083850312156134a157600080fd5b823591506134b1602084016133e1565b90509250929050565b634e487b7160e01b600052604160045260246000fd5b604051601f8201601f191681016001600160401b03811182821017156134f8576134f86134ba565b604052919050565b6000806040838503121561351357600080fd5b61351c836133e1565b91506020808401356001600160401b038082111561353957600080fd5b818601915086601f83011261354d57600080fd5b81358181111561355f5761355f6134ba565b613571601f8201601f191685016134d0565b9150808252878482850101111561358757600080fd5b80848401858401376000848284010152508093505050509250929050565b634e487b7160e01b600052602160045260246000fd5b60208101600483106135dd57634e487b7160e01b600052602160045260246000fd5b91905290565b6000806000606084860312156135f857600080fd5b83359250613608602085016133e1565b9150604084013590509250925092565b60006001600160401b03821115613631576136316134ba565b5060051b60200190565b6000806040838503121561364e57600080fd5b613657836133e1565b91506020808401356001600160401b0381111561367357600080fd5b8401601f8101861361368457600080fd5b803561369761369282613618565b6134d0565b81815260059190911b820183019083810190888311156136b657600080fd5b928401925b828410156136db576136cc846133e1565b825292840192908401906136bb565b80955050505050509250929050565b6000806000806080858703121561370057600080fd5b84359350613710602086016133e1565b92506040850135915061372560608601613413565b905092959194509250565b600080600080600080600080610100898b03121561374d57600080fd5b613756896133e1565b975061376460208a016133e1565b965061377260408a016133e1565b955061378060608a016133e1565b945061378e60808a016133e1565b935061379c60a08a016133e1565b92506137aa60c08a016133e1565b91506137b860e08a016133e1565b90509295985092959890939650565b8015158114610fca57600080fd5b600080604083850312156137e857600080fd5b6137f1836133e1565b91506020830135613801816137c7565b809150509250929050565b80356001600160401b038116811461284d57600080fd5b60008060008060008060008060006101208a8c03121561384257600080fd5b61384b8a6133e1565b985061385960208b01613413565b975061386760408b01613413565b965061387560608b01613413565b955061388360808b0161380c565b945060a08a0135935060c08a0135925060e08a013591506138a76101008b0161380c565b90509295985092959850929598565b81516001600160a01b03168152610140810160208301516138e260208401826001600160401b03169052565b5060408301516138f8604084018261ffff169052565b50606083015161390e606084018261ffff169052565b506080830151613924608084018261ffff169052565b5060a083015161393f60a08401826001600160401b03169052565b5060c083015160c083015260e083015160e083015261010080840151818401525061012080840151818401525092915050565b634e487b7160e01b600052601160045260246000fd5b808202811582820484141761275157612751613972565b8082018082111561275157612751613972565b8181038181111561275157612751613972565b634e487b7160e01b600052601260045260246000fd5b6000826139ea576139ea6139c5565b500490565b6020808252602c908201527f46756e6374696f6e206d7573742062652063616c6c6564207468726f7567682060408201526b19195b1959d85d1958d85b1b60a21b606082015260800190565b6020808252602c908201527f46756e6374696f6e206d7573742062652063616c6c6564207468726f7567682060408201526b6163746976652070726f787960a01b606082015260800190565b600082613a9657613a966139c5565b500690565b6001600160401b03818116838216019080821115613abb57613abb613972565b5092915050565b634e487b7160e01b600052603260045260246000fd5b600060018201613aea57613aea613972565b5060010190565b600081518084526020808501945080840160005b83811015613b2a5781516001600160a01b031687529582019590820190600101613b05565b509495945050505050565b85815284602082015260a060408201526000613b5460a0830186613af1565b6001600160a01b0394909416606083015250608001529392505050565b60006020808385031215613b8457600080fd5b82516001600160401b03811115613b9a57600080fd5b8301601f81018513613bab57600080fd5b8051613bb961369282613618565b81815260059190911b82018301908381019087831115613bd857600080fd5b928401925b8284101561272757835182529284019290840190613bdd565b848152608060208201526000613c0f6080830186613af1565b6001600160a01b03949094166040830152506060015292915050565b61ffff828116828216039080821115613abb57613abb613972565b600060208284031215613c5857600080fd5b5051919050565b61ffff818116838216019080821115613abb57613abb613972565b600060208284031215613c8c57600080fd5b815160ff81168114610add57600080fd5b600181815b80851115613cd8578160001904821115613cbe57613cbe613972565b80851615613ccb57918102915b93841c9390800290613ca2565b509250929050565b600082613cef57506001612751565b81613cfc57506000612751565b8160018114613d125760028114613d1c57613d38565b6001915050612751565b60ff841115613d2d57613d2d613972565b50506001821b612751565b5060208310610133831016604e8410600b8410161715613d5b575081810a612751565b613d658383613c9d565b8060001904821115613d7957613d79613972565b029392505050565b6000610add8383613ce0565b600060208284031215613d9f57600080fd5b8151610add816137c7565b60005b83811015613dc5578181015183820152602001613dad565b50506000910152565b60008251613de0818460208701613daa565b9190910192915050565b6020815260008251806020840152613e09816040850160208701613daa565b601f01601f1916919091016040019291505056fe360894a13ba1a3210667c828492db98dca3e2076cc3735a920a3ca505d382bbc416464726573733a206c6f772d6c6576656c2064656c65676174652063616c6c206661696c6564a2646970667358221220dc4b96af8d5fe925627b37ea844b990b7ce638d7818ab89040a3979ecd0054f064736f6c63430008110033",
  "devdoc": {
    "author": "Horizon DAO (Yuri Fernandes)",
    "events": {
      "CashBack(uint256,address,address,uint256)": {
        "details": "Emitted when an investors withdraw it's funds after an IRO fails"
      },
      "Commit(uint256,address,address,uint256,uint256)": {
        "details": "Emitted when a new Commit is made to an IRO"
      },
      "CreateIRO(uint256,address,uint256,uint16,uint16,uint64,uint64)": {
        "details": "Emitted when a new IRO is created"
      },
      "FundsWithdrawn(uint256,address,bool,uint256,uint256,uint256)": {
        "details": "Emitted when funds from an IRO are withdrawn"
      },
      "OwnerTokensClaimed(uint256,address,address,uint256)": {
        "details": "Emitted when the listing owner claims it's shares of the tokens"
      },
      "PathUpdated(address,address)": {
        "details": "Emitted when the currency relative path is updated"
      },
      "SetBaseCurrency(address,address)": {
        "details": "Emitted when a new base currency is set"
      },
      "TogglePaymentToken(address,address,bool)": {
        "details": "Emitted when a new payment token is added"
      },
      "TokensClaimed(uint256,address,address,uint256)": {
        "details": "Emitted when tokens are claimed by investors"
      },
      "WhitelistCurrency(address,address,bool)": {
        "details": "Emitted when `whitelistCurrency` is executed"
      }
    },
    "kind": "dev",
    "methods": {
      "claim(uint256,address)": {
        "params": {
          "_iroId": "ID of the IRO",
          "_to": "Address to send the claimed tokens"
        }
      },
      "commit(uint256,address,uint256,uint256,uint16)": {
        "params": {
          "_amountToPay": "Expected amount to pay (without slippage)",
          "_amountToPurchase": "Amount of IRO tokens to purchase",
          "_iroId": "ID of the IRO",
          "_paymentToken": "Payment token address",
          "_slippage": "Slippage in basis points when swapping token by     base payment token (not applicable when paying directly with it)"
        }
      },
      "createIRO(address,uint16,uint16,uint16,uint64,uint256,uint256,uint256,uint64)": {
        "details": "Create new IRO",
        "params": {
          "_duration": "Duration of the IRO in seconds",
          "_hardCap": "Maximum fundraising in base price token",
          "_listingOwner": "Listing owner address",
          "_listingOwnerFee": "Listing owner fee in basis points",
          "_listingOwnerShare": "Listing owner share of IRO tokens in basis points",
          "_softCap": "Minimum fundraising in base price token",
          "_startOffset": "Time before IRO begins",
          "_treasuryFee": "Treasury fee percentage in basis points",
          "_unitPrice": "Price per unit of IRO token in base price token"
        }
      },
      "expectedPrice(uint256,address,uint256)": {
        "params": {
          "_amountToPurchase": "Amount of IRO tokens to purchase",
          "_iroId": "ID of the IRO",
          "_paymentToken": "Payment token address"
        }
      },
      "getIRO(uint256)": {
        "params": {
          "_iroId": "ID of the IRO"
        }
      },
      "getStatus(uint256)": {
        "params": {
          "_iroId": "ID of the IRO"
        }
      },
      "initialize(address,address,address,address,address,address,address,address)": {
        "details": "Initialize IRO contract",
        "params": {
          "_baseCurrency": "Base token used to precify the IRO tokens",
          "_priceFeedRegistry": "Chainlink Price Feed Registry address",
          "_realEstateFunds": "RealEstateFunds contract address",
          "_realEstateNft": "RealEstateNFT contract address",
          "_swapRouter": "Uniswap or Sushiswap swap router",
          "_treasury": "Treasury contract address",
          "_weth": "WETH contract address"
        }
      },
      "listingOwnerClaim(uint256,address)": {
        "params": {
          "_iroId": "ID of the IRO",
          "_to": "Address to send the tokens"
        }
      },
      "owner()": {
        "details": "Returns the address of the current owner."
      },
      "priceWithSlippage(uint256,address,uint256,uint16)": {
        "params": {
          "_amountToPurchase": "Amount of IRO tokens to purchase",
          "_iroId": "ID of the IRO",
          "_paymentToken": "Payment token address",
          "_slippage": "Swap slippage in basis points"
        }
      },
      "proxiableUUID()": {
        "details": "Implementation of the ERC1822 {proxiableUUID} function. This returns the storage slot used by the implementation. It is used to validate the implementation's compatibility when performing an upgrade. IMPORTANT: A proxy pointing at a proxiable contract should not be considered proxiable itself, because this risks bricking a proxy that upgrades to it, by delegating to itself until out of gas. Thus it is critical that this function revert if invoked through a proxy. This is guaranteed by the `notDelegated` modifier."
      },
      "remainingTokens(uint256)": {
        "params": {
          "_iroId": "ID of the IRO"
        }
      },
      "renounceOwnership()": {
        "details": "Leaves the contract without owner. It will not be possible to call `onlyOwner` functions anymore. Can only be called by the current owner. NOTE: Renouncing ownership will leave the contract without an owner, thereby removing any functionality that is only available to the owner."
      },
      "setBaseCurrency(address)": {
        "details": "Set a new base price token",
        "params": {
          "_baseCurrency": "Base price token address (ERC20)"
        }
      },
      "setRealEstateFunds(address)": {
        "details": "Set new real estate funds",
        "params": {
          "_realEstateFunds": "RealEstateFunds address"
        }
      },
      "setTreasury(address)": {
        "details": "Set new treasury",
        "params": {
          "_treasury": "Treasury address"
        }
      },
      "setrelativePath(address,address[])": {
        "details": "Update relative swap router path of a currency",
        "params": {
          "_currency": "Currency ERC20 address",
          "_relativePath": "Swap relative path"
        }
      },
      "transferOwnership(address)": {
        "details": "Transfers ownership of the contract to a new account (`newOwner`). Can only be called by the current owner."
      },
      "upgradeTo(address)": {
        "details": "Upgrade the implementation of the proxy to `newImplementation`. Calls {_authorizeUpgrade}. Emits an {Upgraded} event."
      },
      "upgradeToAndCall(address,bytes)": {
        "details": "Upgrade the implementation of the proxy to `newImplementation`, and subsequently execute the function call encoded in `data`. Calls {_authorizeUpgrade}. Emits an {Upgraded} event."
      },
      "whitelistCurrency(address,bool)": {
        "details": "Whitelist payment currencies",
        "params": {
          "_currency": "Currency ERC20 address",
          "_whitelist": "Whether to whitelist"
        }
      },
      "withdraw(uint256)": {
        "params": {
          "_iroId": "ID of the IRO"
        }
      }
    },
    "stateVariables": {
      "_fundsWithdrawn": {
        "details": "Points out whether funds have been withdrawn from IRO"
      },
      "_iros": {
        "details": "mapping (iroId => iro)"
      },
      "_listingOwnerClaimed": {
        "details": "Points out whether the listingOwner has claimed it's share"
      },
      "_nextAvailableId": {
        "details": "Next available IRO ID"
      },
      "_realEstateIdSet": {
        "details": "Whether an ID has already been set in the RealEstateNFT contract for the IRO"
      },
      "commits": {
        "details": "mapping (iroId => user => commit)"
      },
      "realEstateId": {
        "details": "mapping (iroId => realEstateId)"
      },
      "whitelistedCurrency": {
        "details": "mapping (currencyAddress => WhitelistedCurrency)"
      }
    },
    "title": "Initial Real Estate Offering (IRO)",
    "version": 1
  },
  "userdoc": {
    "kind": "user",
    "methods": {
      "claim(uint256,address)": {
        "notice": "Claim purchased tokens when IRO successful or     get back commit amount in base payment tokens if IRO failed"
      },
      "commit(uint256,address,uint256,uint256,uint16)": {
        "notice": "Commit to an IRO"
      },
      "expectedPrice(uint256,address,uint256)": {
        "notice": "Get the expected price of an IRO purchase (without slippage)"
      },
      "feeDenominator()": {
        "notice": "Check fee denominator"
      },
      "finance()": {
        "notice": "Structure composed by the addresses     of contracts responsible for making financial operations"
      },
      "getIRO(uint256)": {
        "notice": "Get IRO"
      },
      "getStatus(uint256)": {
        "notice": "Get IRO status"
      },
      "iroLength()": {
        "notice": "Get total amount of IROs"
      },
      "listingOwnerClaim(uint256,address)": {
        "notice": "Claim listing owner tokens"
      },
      "now64()": {
        "notice": "Get current time (uint64)"
      },
      "priceWithSlippage(uint256,address,uint256,uint16)": {
        "notice": "Get the price with slippage"
      },
      "realEstateFunds()": {
        "notice": "RealEstateFunds contract address"
      },
      "realEstateNft()": {
        "notice": "RealEstateNFT contract address"
      },
      "remainingTokens(uint256)": {
        "notice": "Get the amount of remaining IRO tokens"
      },
      "shareDenominator()": {
        "notice": "Check share denominator"
      },
      "slippageDenominator()": {
        "notice": "Check slippage denominator"
      },
      "treasury()": {
        "notice": "Treasury contract address"
      },
      "withdraw(uint256)": {
        "notice": "Withdraw and distribute funds from successful IROs"
      }
    },
    "notice": "Used to run IROs, mint tokens to RealEstateNFT     and distribute funds",
    "version": 1
  },
  "storageLayout": {
    "storage": [
      {
        "astId": 1083,
        "contract": "contracts/protocol/InitialRealEstateOffering.sol:InitialRealEstateOffering",
        "label": "_initialized",
        "offset": 0,
        "slot": "0",
        "type": "t_uint8"
      },
      {
        "astId": 1086,
        "contract": "contracts/protocol/InitialRealEstateOffering.sol:InitialRealEstateOffering",
        "label": "_initializing",
        "offset": 1,
        "slot": "0",
        "type": "t_bool"
      },
      {
        "astId": 4033,
        "contract": "contracts/protocol/InitialRealEstateOffering.sol:InitialRealEstateOffering",
        "label": "__gap",
        "offset": 0,
        "slot": "1",
        "type": "t_array(t_uint256)50_storage"
      },
      {
        "astId": 541,
        "contract": "contracts/protocol/InitialRealEstateOffering.sol:InitialRealEstateOffering",
        "label": "_owner",
        "offset": 0,
        "slot": "51",
        "type": "t_address"
      },
      {
        "astId": 661,
        "contract": "contracts/protocol/InitialRealEstateOffering.sol:InitialRealEstateOffering",
        "label": "__gap",
        "offset": 0,
        "slot": "52",
        "type": "t_array(t_uint256)49_storage"
      },
      {
        "astId": 1065,
        "contract": "contracts/protocol/InitialRealEstateOffering.sol:InitialRealEstateOffering",
        "label": "__gap",
        "offset": 0,
        "slot": "101",
        "type": "t_array(t_uint256)50_storage"
      },
      {
        "astId": 1380,
        "contract": "contracts/protocol/InitialRealEstateOffering.sol:InitialRealEstateOffering",
        "label": "__gap",
        "offset": 0,
        "slot": "151",
        "type": "t_array(t_uint256)50_storage"
      },
      {
        "astId": 12497,
        "contract": "contracts/protocol/InitialRealEstateOffering.sol:InitialRealEstateOffering",
        "label": "treasury",
        "offset": 0,
        "slot": "201",
        "type": "t_address"
      },
      {
        "astId": 12501,
        "contract": "contracts/protocol/InitialRealEstateOffering.sol:InitialRealEstateOffering",
        "label": "realEstateNft",
        "offset": 0,
        "slot": "202",
        "type": "t_contract(IRealEstateERC1155)11244"
      },
      {
        "astId": 12505,
        "contract": "contracts/protocol/InitialRealEstateOffering.sol:InitialRealEstateOffering",
        "label": "realEstateFunds",
        "offset": 0,
        "slot": "203",
        "type": "t_contract(IRealEstateFunds)11256"
      },
      {
        "astId": 12509,
        "contract": "contracts/protocol/InitialRealEstateOffering.sol:InitialRealEstateOffering",
        "label": "finance",
        "offset": 0,
        "slot": "204",
        "type": "t_struct(Finance)11316_storage"
      },
      {
        "astId": 12513,
        "contract": "contracts/protocol/InitialRealEstateOffering.sol:InitialRealEstateOffering",
        "label": "_nextAvailableId",
        "offset": 0,
        "slot": "208",
        "type": "t_struct(Counter)4040_storage"
      },
      {
        "astId": 12519,
        "contract": "contracts/protocol/InitialRealEstateOffering.sol:InitialRealEstateOffering",
        "label": "_iros",
        "offset": 0,
        "slot": "209",
        "type": "t_mapping(t_uint256,t_struct(IRO)12488_storage)"
      },
      {
        "astId": 12526,
        "contract": "contracts/protocol/InitialRealEstateOffering.sol:InitialRealEstateOffering",
        "label": "commits",
        "offset": 0,
        "slot": "210",
        "type": "t_mapping(t_uint256,t_mapping(t_address,t_uint256))"
      },
      {
        "astId": 12531,
        "contract": "contracts/protocol/InitialRealEstateOffering.sol:InitialRealEstateOffering",
        "label": "realEstateId",
        "offset": 0,
        "slot": "211",
        "type": "t_mapping(t_uint256,t_uint256)"
      },
      {
        "astId": 12537,
        "contract": "contracts/protocol/InitialRealEstateOffering.sol:InitialRealEstateOffering",
        "label": "whitelistedCurrency",
        "offset": 0,
        "slot": "212",
        "type": "t_mapping(t_address,t_struct(WhitelistedCurrency)12494_storage)"
      },
      {
        "astId": 12541,
        "contract": "contracts/protocol/InitialRealEstateOffering.sol:InitialRealEstateOffering",
        "label": "_fundsWithdrawn",
        "offset": 0,
        "slot": "213",
        "type": "t_struct(BitMap)5272_storage"
      },
      {
        "astId": 12545,
        "contract": "contracts/protocol/InitialRealEstateOffering.sol:InitialRealEstateOffering",
        "label": "_listingOwnerClaimed",
        "offset": 0,
        "slot": "214",
        "type": "t_struct(BitMap)5272_storage"
      },
      {
        "astId": 12549,
        "contract": "contracts/protocol/InitialRealEstateOffering.sol:InitialRealEstateOffering",
        "label": "_realEstateIdSet",
        "offset": 0,
        "slot": "215",
        "type": "t_struct(BitMap)5272_storage"
      }
    ],
    "types": {
      "t_address": {
        "encoding": "inplace",
        "label": "address",
        "numberOfBytes": "20"
      },
      "t_array(t_address)dyn_storage": {
        "base": "t_address",
        "encoding": "dynamic_array",
        "label": "address[]",
        "numberOfBytes": "32"
      },
      "t_array(t_uint256)49_storage": {
        "base": "t_uint256",
        "encoding": "inplace",
        "label": "uint256[49]",
        "numberOfBytes": "1568"
      },
      "t_array(t_uint256)50_storage": {
        "base": "t_uint256",
        "encoding": "inplace",
        "label": "uint256[50]",
        "numberOfBytes": "1600"
      },
      "t_bool": {
        "encoding": "inplace",
        "label": "bool",
        "numberOfBytes": "1"
      },
      "t_contract(IPriceOracle)11200": {
        "encoding": "inplace",
        "label": "contract IPriceOracle",
        "numberOfBytes": "20"
      },
      "t_contract(IRealEstateERC1155)11244": {
        "encoding": "inplace",
        "label": "contract IRealEstateERC1155",
        "numberOfBytes": "20"
      },
      "t_contract(IRealEstateFunds)11256": {
        "encoding": "inplace",
        "label": "contract IRealEstateFunds",
        "numberOfBytes": "20"
      },
      "t_contract(IUniswapV2Router01)11114": {
        "encoding": "inplace",
        "label": "contract IUniswapV2Router01",
        "numberOfBytes": "20"
      },
      "t_mapping(t_address,t_struct(WhitelistedCurrency)12494_storage)": {
        "encoding": "mapping",
        "key": "t_address",
        "label": "mapping(address => struct InitialRealEstateOffering.WhitelistedCurrency)",
        "numberOfBytes": "32",
        "value": "t_struct(WhitelistedCurrency)12494_storage"
      },
      "t_mapping(t_address,t_uint256)": {
        "encoding": "mapping",
        "key": "t_address",
        "label": "mapping(address => uint256)",
        "numberOfBytes": "32",
        "value": "t_uint256"
      },
      "t_mapping(t_uint256,t_mapping(t_address,t_uint256))": {
        "encoding": "mapping",
        "key": "t_uint256",
        "label": "mapping(uint256 => mapping(address => uint256))",
        "numberOfBytes": "32",
        "value": "t_mapping(t_address,t_uint256)"
      },
      "t_mapping(t_uint256,t_struct(IRO)12488_storage)": {
        "encoding": "mapping",
        "key": "t_uint256",
        "label": "mapping(uint256 => struct InitialRealEstateOffering.IRO)",
        "numberOfBytes": "32",
        "value": "t_struct(IRO)12488_storage"
      },
      "t_mapping(t_uint256,t_uint256)": {
        "encoding": "mapping",
        "key": "t_uint256",
        "label": "mapping(uint256 => uint256)",
        "numberOfBytes": "32",
        "value": "t_uint256"
      },
      "t_struct(BitMap)5272_storage": {
        "encoding": "inplace",
        "label": "struct BitMapsUpgradeable.BitMap",
        "members": [
          {
            "astId": 5271,
            "contract": "contracts/protocol/InitialRealEstateOffering.sol:InitialRealEstateOffering",
            "label": "_data",
            "offset": 0,
            "slot": "0",
            "type": "t_mapping(t_uint256,t_uint256)"
          }
        ],
        "numberOfBytes": "32"
      },
      "t_struct(Counter)4040_storage": {
        "encoding": "inplace",
        "label": "struct CountersUpgradeable.Counter",
        "members": [
          {
            "astId": 4039,
            "contract": "contracts/protocol/InitialRealEstateOffering.sol:InitialRealEstateOffering",
            "label": "_value",
            "offset": 0,
            "slot": "0",
            "type": "t_uint256"
          }
        ],
        "numberOfBytes": "32"
      },
      "t_struct(Finance)11316_storage": {
        "encoding": "inplace",
        "label": "struct IROFinance.Finance",
        "members": [
          {
            "astId": 11308,
            "contract": "contracts/protocol/InitialRealEstateOffering.sol:InitialRealEstateOffering",
            "label": "swapRouter",
            "offset": 0,
            "slot": "0",
            "type": "t_contract(IUniswapV2Router01)11114"
          },
          {
            "astId": 11311,
            "contract": "contracts/protocol/InitialRealEstateOffering.sol:InitialRealEstateOffering",
            "label": "priceOracle",
            "offset": 0,
            "slot": "1",
            "type": "t_contract(IPriceOracle)11200"
          },
          {
            "astId": 11313,
            "contract": "contracts/protocol/InitialRealEstateOffering.sol:InitialRealEstateOffering",
            "label": "weth",
            "offset": 0,
            "slot": "2",
            "type": "t_address"
          },
          {
            "astId": 11315,
            "contract": "contracts/protocol/InitialRealEstateOffering.sol:InitialRealEstateOffering",
            "label": "baseCurrency",
            "offset": 0,
            "slot": "3",
            "type": "t_address"
          }
        ],
        "numberOfBytes": "128"
      },
      "t_struct(IRO)12488_storage": {
        "encoding": "inplace",
        "label": "struct InitialRealEstateOffering.IRO",
        "members": [
          {
            "astId": 12469,
            "contract": "contracts/protocol/InitialRealEstateOffering.sol:InitialRealEstateOffering",
            "label": "listingOwner",
            "offset": 0,
            "slot": "0",
            "type": "t_address"
          },
          {
            "astId": 12471,
            "contract": "contracts/protocol/InitialRealEstateOffering.sol:InitialRealEstateOffering",
            "label": "start",
            "offset": 20,
            "slot": "0",
            "type": "t_uint64"
          },
          {
            "astId": 12473,
            "contract": "contracts/protocol/InitialRealEstateOffering.sol:InitialRealEstateOffering",
            "label": "treasuryFee",
            "offset": 28,
            "slot": "0",
            "type": "t_uint16"
          },
          {
            "astId": 12475,
            "contract": "contracts/protocol/InitialRealEstateOffering.sol:InitialRealEstateOffering",
            "label": "listingOwnerFee",
            "offset": 30,
            "slot": "0",
            "type": "t_uint16"
          },
          {
            "astId": 12477,
            "contract": "contracts/protocol/InitialRealEstateOffering.sol:InitialRealEstateOffering",
            "label": "listingOwnerShare",
            "offset": 0,
            "slot": "1",
            "type": "t_uint16"
          },
          {
            "astId": 12479,
            "contract": "contracts/protocol/InitialRealEstateOffering.sol:InitialRealEstateOffering",
            "label": "end",
            "offset": 2,
            "slot": "1",
            "type": "t_uint64"
          },
          {
            "astId": 12481,
            "contract": "contracts/protocol/InitialRealEstateOffering.sol:InitialRealEstateOffering",
            "label": "softCap",
            "offset": 0,
            "slot": "2",
            "type": "t_uint256"
          },
          {
            "astId": 12483,
            "contract": "contracts/protocol/InitialRealEstateOffering.sol:InitialRealEstateOffering",
            "label": "hardCap",
            "offset": 0,
            "slot": "3",
            "type": "t_uint256"
          },
          {
            "astId": 12485,
            "contract": "contracts/protocol/InitialRealEstateOffering.sol:InitialRealEstateOffering",
            "label": "unitPrice",
            "offset": 0,
            "slot": "4",
            "type": "t_uint256"
          },
          {
            "astId": 12487,
            "contract": "contracts/protocol/InitialRealEstateOffering.sol:InitialRealEstateOffering",
            "label": "totalFunding",
            "offset": 0,
            "slot": "5",
            "type": "t_uint256"
          }
        ],
        "numberOfBytes": "192"
      },
      "t_struct(WhitelistedCurrency)12494_storage": {
        "encoding": "inplace",
        "label": "struct InitialRealEstateOffering.WhitelistedCurrency",
        "members": [
          {
            "astId": 12490,
            "contract": "contracts/protocol/InitialRealEstateOffering.sol:InitialRealEstateOffering",
            "label": "whitelisted",
            "offset": 0,
            "slot": "0",
            "type": "t_bool"
          },
          {
            "astId": 12493,
            "contract": "contracts/protocol/InitialRealEstateOffering.sol:InitialRealEstateOffering",
            "label": "relativePath",
            "offset": 0,
            "slot": "1",
            "type": "t_array(t_address)dyn_storage"
          }
        ],
        "numberOfBytes": "64"
      },
      "t_uint16": {
        "encoding": "inplace",
        "label": "uint16",
        "numberOfBytes": "2"
      },
      "t_uint256": {
        "encoding": "inplace",
        "label": "uint256",
        "numberOfBytes": "32"
      },
      "t_uint64": {
        "encoding": "inplace",
        "label": "uint64",
        "numberOfBytes": "8"
      },
      "t_uint8": {
        "encoding": "inplace",
        "label": "uint8",
        "numberOfBytes": "1"
      }
    }
  }
}