{
  "address": "0x49f4E46aFCF0b041a9540BA148d0FD3Ce5c07089",
  "abi": [
    {
      "anonymous": false,
      "inputs": [
        {
          "indexed": false,
          "internalType": "address",
          "name": "previousAdmin",
          "type": "address"
        },
        {
          "indexed": false,
          "internalType": "address",
          "name": "newAdmin",
          "type": "address"
        }
      ],
      "name": "AdminChanged",
      "type": "event"
    },
    {
      "anonymous": false,
      "inputs": [
        {
          "indexed": true,
          "internalType": "address",
          "name": "beacon",
          "type": "address"
        }
      ],
      "name": "BeaconUpgraded",
      "type": "event"
    },
    {
      "anonymous": false,
      "inputs": [
        {
          "indexed": true,
          "internalType": "uint256",
          "name": "_iroId",
          "type": "uint256"
        },
        {
          "indexed": true,
          "internalType": "address",
          "name": "_by",
          "type": "address"
        },
        {
          "indexed": true,
          "internalType": "address",
          "name": "_to",
          "type": "address"
        },
        {
          "indexed": false,
          "internalType": "uint256",
          "name": "_commitAmount",
          "type": "uint256"
        }
      ],
      "name": "CashBack",
      "type": "event"
    },
    {
      "anonymous": false,
      "inputs": [
        {
          "indexed": true,
          "internalType": "uint256",
          "name": "_iroId",
          "type": "uint256"
        },
        {
          "indexed": true,
          "internalType": "address",
          "name": "_user",
          "type": "address"
        },
        {
          "indexed": true,
          "internalType": "address",
          "name": "_currency",
          "type": "address"
        },
        {
          "indexed": false,
          "internalType": "uint256",
          "name": "_amountInBase",
          "type": "uint256"
        },
        {
          "indexed": false,
          "internalType": "uint256",
          "name": "_purchasedTokens",
          "type": "uint256"
        }
      ],
      "name": "Commit",
      "type": "event"
    },
    {
      "anonymous": false,
      "inputs": [
        {
          "indexed": true,
          "internalType": "uint256",
          "name": "_id",
          "type": "uint256"
        },
        {
          "indexed": true,
          "internalType": "address",
          "name": "_listingOwner",
          "type": "address"
        },
        {
          "indexed": false,
          "internalType": "uint256",
          "name": "_unitPrice",
          "type": "uint256"
        },
        {
          "indexed": false,
          "internalType": "uint16",
          "name": "_listingOwnerShare",
          "type": "uint16"
        },
        {
          "indexed": false,
          "internalType": "uint16",
          "name": "_treasuryFee",
          "type": "uint16"
        },
        {
          "indexed": false,
          "internalType": "uint64",
          "name": "_start",
          "type": "uint64"
        },
        {
          "indexed": false,
          "internalType": "uint64",
          "name": "_end",
          "type": "uint64"
        }
      ],
      "name": "CreateIRO",
      "type": "event"
    },
    {
      "anonymous": false,
      "inputs": [
        {
          "indexed": true,
          "internalType": "uint256",
          "name": "_iroId",
          "type": "uint256"
        },
        {
          "indexed": true,
          "internalType": "address",
          "name": "_by",
          "type": "address"
        },
        {
          "indexed": true,
          "internalType": "bool",
          "name": "_realEstateFundsSet",
          "type": "bool"
        },
        {
          "indexed": false,
          "internalType": "uint256",
          "name": "_listingOwnerAmount",
          "type": "uint256"
        },
        {
          "indexed": false,
          "internalType": "uint256",
          "name": "_treasuryAmount",
          "type": "uint256"
        },
        {
          "indexed": false,
          "internalType": "uint256",
          "name": "_realEstateFundsAmount",
          "type": "uint256"
        }
      ],
      "name": "FundsWithdrawn",
      "type": "event"
    },
    {
      "anonymous": false,
      "inputs": [
        {
          "indexed": false,
          "internalType": "uint8",
          "name": "version",
          "type": "uint8"
        }
      ],
      "name": "Initialized",
      "type": "event"
    },
    {
      "anonymous": false,
      "inputs": [
        {
          "indexed": true,
          "internalType": "uint256",
          "name": "_iroId",
          "type": "uint256"
        },
        {
          "indexed": true,
          "internalType": "address",
          "name": "_by",
          "type": "address"
        },
        {
          "indexed": true,
          "internalType": "address",
          "name": "_to",
          "type": "address"
        },
        {
          "indexed": false,
          "internalType": "uint256",
          "name": "_amount",
          "type": "uint256"
        }
      ],
      "name": "OwnerTokensClaimed",
      "type": "event"
    },
    {
      "anonymous": false,
      "inputs": [
        {
          "indexed": true,
          "internalType": "address",
          "name": "previousOwner",
          "type": "address"
        },
        {
          "indexed": true,
          "internalType": "address",
          "name": "newOwner",
          "type": "address"
        }
      ],
      "name": "OwnershipTransferred",
      "type": "event"
    },
    {
      "anonymous": false,
      "inputs": [
        {
          "indexed": true,
          "internalType": "address",
          "name": "_by",
          "type": "address"
        },
        {
          "indexed": true,
          "internalType": "address",
          "name": "_currency",
          "type": "address"
        }
      ],
      "name": "PathUpdated",
      "type": "event"
    },
    {
      "anonymous": false,
      "inputs": [
        {
          "indexed": true,
          "internalType": "uint256",
          "name": "_iroId",
          "type": "uint256"
        },
        {
          "indexed": true,
          "internalType": "uint256",
          "name": "_realEstateId",
          "type": "uint256"
        }
      ],
      "name": "RealEstateCreated",
      "type": "event"
    },
    {
      "anonymous": false,
      "inputs": [
        {
          "indexed": true,
          "internalType": "address",
          "name": "_by",
          "type": "address"
        },
        {
          "indexed": true,
          "internalType": "address",
          "name": "_baseCurrency",
          "type": "address"
        }
      ],
      "name": "SetBaseCurrency",
      "type": "event"
    },
    {
      "anonymous": false,
      "inputs": [
        {
          "indexed": true,
          "internalType": "address",
          "name": "_by",
          "type": "address"
        },
        {
          "indexed": true,
          "internalType": "address",
          "name": "_realEstateReserves",
          "type": "address"
        }
      ],
      "name": "SetRealEstateReserves",
      "type": "event"
    },
    {
      "anonymous": false,
      "inputs": [
        {
          "indexed": true,
          "internalType": "address",
          "name": "_by",
          "type": "address"
        },
        {
          "indexed": true,
          "internalType": "address",
          "name": "_treasury",
          "type": "address"
        }
      ],
      "name": "SetTreasury",
      "type": "event"
    },
    {
      "anonymous": false,
      "inputs": [
        {
          "indexed": true,
          "internalType": "uint256",
          "name": "_iroId",
          "type": "uint256"
        },
        {
          "indexed": true,
          "internalType": "address",
          "name": "_by",
          "type": "address"
        },
        {
          "indexed": true,
          "internalType": "address",
          "name": "_to",
          "type": "address"
        },
        {
          "indexed": false,
          "internalType": "uint256",
          "name": "_amount",
          "type": "uint256"
        }
      ],
      "name": "TokensClaimed",
      "type": "event"
    },
    {
      "anonymous": false,
      "inputs": [
        {
          "indexed": true,
          "internalType": "address",
          "name": "implementation",
          "type": "address"
        }
      ],
      "name": "Upgraded",
      "type": "event"
    },
    {
      "anonymous": false,
      "inputs": [
        {
          "indexed": true,
          "internalType": "address",
          "name": "_by",
          "type": "address"
        },
        {
          "indexed": true,
          "internalType": "address",
          "name": "_currency",
          "type": "address"
        },
        {
          "indexed": true,
          "internalType": "bool",
          "name": "_whitelist",
          "type": "bool"
        }
      ],
      "name": "WhitelistCurrency",
      "type": "event"
    },
    {
      "inputs": [
        {
          "internalType": "uint256",
          "name": "_iroId",
          "type": "uint256"
        },
        {
          "internalType": "address",
          "name": "_to",
          "type": "address"
        }
      ],
      "name": "claim",
      "outputs": [],
      "stateMutability": "nonpayable",
      "type": "function"
    },
    {
      "inputs": [
        {
          "internalType": "uint256",
          "name": "_iroId",
          "type": "uint256"
        },
        {
          "internalType": "address",
          "name": "_currency",
          "type": "address"
        },
        {
          "internalType": "uint256",
          "name": "_priceWithSlippage",
          "type": "uint256"
        },
        {
          "internalType": "uint256",
          "name": "_amountToPurchase",
          "type": "uint256"
        }
      ],
      "name": "commit",
      "outputs": [],
      "stateMutability": "payable",
      "type": "function"
    },
    {
      "inputs": [
        {
          "internalType": "uint256",
          "name": "",
          "type": "uint256"
        },
        {
          "internalType": "address",
          "name": "",
          "type": "address"
        }
      ],
      "name": "commits",
      "outputs": [
        {
          "internalType": "uint256",
          "name": "",
          "type": "uint256"
        }
      ],
      "stateMutability": "view",
      "type": "function"
    },
    {
      "inputs": [
        {
          "internalType": "address",
          "name": "_listingOwner",
          "type": "address"
        },
        {
          "internalType": "uint16",
          "name": "_listingOwnerFee",
          "type": "uint16"
        },
        {
          "internalType": "uint16",
          "name": "_listingOwnerShare",
          "type": "uint16"
        },
        {
          "internalType": "uint16",
          "name": "_treasuryFee",
          "type": "uint16"
        },
        {
          "internalType": "uint64",
          "name": "_duration",
          "type": "uint64"
        },
        {
          "internalType": "uint256",
          "name": "_softCap",
          "type": "uint256"
        },
        {
          "internalType": "uint256",
          "name": "_hardCap",
          "type": "uint256"
        },
        {
          "internalType": "uint256",
          "name": "_unitPrice",
          "type": "uint256"
        },
        {
          "internalType": "uint64",
          "name": "_startOffset",
          "type": "uint64"
        }
      ],
      "name": "createIRO",
      "outputs": [],
      "stateMutability": "nonpayable",
      "type": "function"
    },
    {
      "inputs": [],
      "name": "denominator",
      "outputs": [
        {
          "internalType": "uint16",
          "name": "",
          "type": "uint16"
        }
      ],
      "stateMutability": "pure",
      "type": "function"
    },
    {
      "inputs": [
        {
          "internalType": "uint256",
          "name": "_iroId",
          "type": "uint256"
        },
        {
          "internalType": "address",
          "name": "_currency",
          "type": "address"
        },
        {
          "internalType": "uint256",
          "name": "_amountToPurchase",
          "type": "uint256"
        }
      ],
      "name": "expectedPrice",
      "outputs": [
        {
          "internalType": "uint256",
          "name": "",
          "type": "uint256"
        }
      ],
      "stateMutability": "view",
      "type": "function"
    },
    {
      "inputs": [],
      "name": "finance",
      "outputs": [
        {
          "internalType": "contract IUniswapV2Router01",
          "name": "swapRouter",
          "type": "address"
        },
        {
          "internalType": "contract IPriceOracle",
          "name": "priceOracle",
          "type": "address"
        },
        {
          "internalType": "address",
          "name": "baseCurrency",
          "type": "address"
        }
      ],
      "stateMutability": "view",
      "type": "function"
    },
    {
      "inputs": [
        {
          "internalType": "uint256",
          "name": "_iroId",
          "type": "uint256"
        }
      ],
      "name": "getIRO",
      "outputs": [
        {
          "components": [
            {
              "internalType": "address",
              "name": "listingOwner",
              "type": "address"
            },
            {
              "internalType": "uint64",
              "name": "start",
              "type": "uint64"
            },
            {
              "internalType": "uint16",
              "name": "treasuryFee",
              "type": "uint16"
            },
            {
              "internalType": "uint16",
              "name": "listingOwnerFee",
              "type": "uint16"
            },
            {
              "internalType": "uint16",
              "name": "listingOwnerShare",
              "type": "uint16"
            },
            {
              "internalType": "uint64",
              "name": "end",
              "type": "uint64"
            },
            {
              "internalType": "uint256",
              "name": "softCap",
              "type": "uint256"
            },
            {
              "internalType": "uint256",
              "name": "hardCap",
              "type": "uint256"
            },
            {
              "internalType": "uint256",
              "name": "unitPrice",
              "type": "uint256"
            },
            {
              "internalType": "uint256",
              "name": "totalFunding",
              "type": "uint256"
            },
            {
              "internalType": "address",
              "name": "baseCurrency",
              "type": "address"
            }
          ],
          "internalType": "struct InitialRealEstateOffering.IRO",
          "name": "",
          "type": "tuple"
        }
      ],
      "stateMutability": "view",
      "type": "function"
    },
    {
      "inputs": [
        {
          "internalType": "uint256",
          "name": "_iroId",
          "type": "uint256"
        }
      ],
      "name": "getStatus",
      "outputs": [
        {
          "internalType": "enum InitialRealEstateOffering.Status",
          "name": "",
          "type": "uint8"
        }
      ],
      "stateMutability": "view",
      "type": "function"
    },
    {
      "inputs": [
        {
          "internalType": "address",
          "name": "_owner",
          "type": "address"
        },
        {
          "internalType": "address",
          "name": "_realEstateNft",
          "type": "address"
        },
        {
          "internalType": "address",
          "name": "_treasury",
          "type": "address"
        },
        {
          "internalType": "address",
          "name": "_realEstateReserves",
          "type": "address"
        },
        {
          "internalType": "address",
          "name": "_baseCurrency",
          "type": "address"
        },
        {
          "internalType": "address",
          "name": "_priceFeedRegistry",
          "type": "address"
        },
        {
          "internalType": "address",
          "name": "_swapRouter",
          "type": "address"
        }
      ],
      "name": "initialize",
      "outputs": [],
      "stateMutability": "nonpayable",
      "type": "function"
    },
    {
      "inputs": [],
      "name": "iroLength",
      "outputs": [
        {
          "internalType": "uint256",
          "name": "",
          "type": "uint256"
        }
      ],
      "stateMutability": "view",
      "type": "function"
    },
    {
      "inputs": [
        {
          "internalType": "uint256",
          "name": "_iroId",
          "type": "uint256"
        },
        {
          "internalType": "address",
          "name": "_to",
          "type": "address"
        }
      ],
      "name": "listingOwnerClaim",
      "outputs": [],
      "stateMutability": "nonpayable",
      "type": "function"
    },
    {
      "inputs": [],
      "name": "now64",
      "outputs": [
        {
          "internalType": "uint64",
          "name": "",
          "type": "uint64"
        }
      ],
      "stateMutability": "view",
      "type": "function"
    },
    {
      "inputs": [],
      "name": "owner",
      "outputs": [
        {
          "internalType": "address",
          "name": "",
          "type": "address"
        }
      ],
      "stateMutability": "view",
      "type": "function"
    },
    {
      "inputs": [
        {
          "internalType": "uint256",
          "name": "_iroId",
          "type": "uint256"
        },
        {
          "internalType": "address",
          "name": "_currency",
          "type": "address"
        },
        {
          "internalType": "uint256",
          "name": "_amountToPurchase",
          "type": "uint256"
        },
        {
          "internalType": "uint16",
          "name": "_slippage",
          "type": "uint16"
        }
      ],
      "name": "priceWithSlippage",
      "outputs": [
        {
          "internalType": "uint256",
          "name": "",
          "type": "uint256"
        }
      ],
      "stateMutability": "view",
      "type": "function"
    },
    {
      "inputs": [],
      "name": "proxiableUUID",
      "outputs": [
        {
          "internalType": "bytes32",
          "name": "",
          "type": "bytes32"
        }
      ],
      "stateMutability": "view",
      "type": "function"
    },
    {
      "inputs": [
        {
          "internalType": "uint256",
          "name": "",
          "type": "uint256"
        }
      ],
      "name": "realEstateId",
      "outputs": [
        {
          "internalType": "uint256",
          "name": "",
          "type": "uint256"
        }
      ],
      "stateMutability": "view",
      "type": "function"
    },
    {
      "inputs": [],
      "name": "realEstateNft",
      "outputs": [
        {
          "internalType": "contract IRealEstateERC1155",
          "name": "",
          "type": "address"
        }
      ],
      "stateMutability": "view",
      "type": "function"
    },
    {
      "inputs": [],
      "name": "realEstateReserves",
      "outputs": [
        {
          "internalType": "contract IRealEstateReserves",
          "name": "",
          "type": "address"
        }
      ],
      "stateMutability": "view",
      "type": "function"
    },
    {
      "inputs": [
        {
          "internalType": "uint256",
          "name": "_iroId",
          "type": "uint256"
        }
      ],
      "name": "remainingTokens",
      "outputs": [
        {
          "internalType": "uint256",
          "name": "",
          "type": "uint256"
        }
      ],
      "stateMutability": "view",
      "type": "function"
    },
    {
      "inputs": [],
      "name": "renounceOwnership",
      "outputs": [],
      "stateMutability": "nonpayable",
      "type": "function"
    },
    {
      "inputs": [
        {
          "internalType": "address",
          "name": "_baseCurrency",
          "type": "address"
        }
      ],
      "name": "setBaseCurrency",
      "outputs": [],
      "stateMutability": "nonpayable",
      "type": "function"
    },
    {
      "inputs": [
        {
          "internalType": "address",
          "name": "_realEstateReserves",
          "type": "address"
        }
      ],
      "name": "setRealEstateReserves",
      "outputs": [],
      "stateMutability": "nonpayable",
      "type": "function"
    },
    {
      "inputs": [
        {
          "internalType": "address",
          "name": "_currency",
          "type": "address"
        },
        {
          "internalType": "address[]",
          "name": "_relativePath",
          "type": "address[]"
        }
      ],
      "name": "setRelativePath",
      "outputs": [],
      "stateMutability": "nonpayable",
      "type": "function"
    },
    {
      "inputs": [
        {
          "internalType": "address",
          "name": "_treasury",
          "type": "address"
        }
      ],
      "name": "setTreasury",
      "outputs": [],
      "stateMutability": "nonpayable",
      "type": "function"
    },
    {
      "inputs": [
        {
          "internalType": "uint256",
          "name": "_iroId",
          "type": "uint256"
        }
      ],
      "name": "totalSupply",
      "outputs": [
        {
          "internalType": "uint256",
          "name": "",
          "type": "uint256"
        }
      ],
      "stateMutability": "view",
      "type": "function"
    },
    {
      "inputs": [
        {
          "internalType": "uint256",
          "name": "_iroId",
          "type": "uint256"
        }
      ],
      "name": "totalSupplyInterval",
      "outputs": [
        {
          "internalType": "uint256",
          "name": "minTotalSupply",
          "type": "uint256"
        },
        {
          "internalType": "uint256",
          "name": "maxTotalSupply",
          "type": "uint256"
        }
      ],
      "stateMutability": "view",
      "type": "function"
    },
    {
      "inputs": [
        {
          "internalType": "address",
          "name": "newOwner",
          "type": "address"
        }
      ],
      "name": "transferOwnership",
      "outputs": [],
      "stateMutability": "nonpayable",
      "type": "function"
    },
    {
      "inputs": [],
      "name": "treasury",
      "outputs": [
        {
          "internalType": "address",
          "name": "",
          "type": "address"
        }
      ],
      "stateMutability": "view",
      "type": "function"
    },
    {
      "inputs": [
        {
          "internalType": "address",
          "name": "newImplementation",
          "type": "address"
        }
      ],
      "name": "upgradeTo",
      "outputs": [],
      "stateMutability": "nonpayable",
      "type": "function"
    },
    {
      "inputs": [
        {
          "internalType": "address",
          "name": "newImplementation",
          "type": "address"
        },
        {
          "internalType": "bytes",
          "name": "data",
          "type": "bytes"
        }
      ],
      "name": "upgradeToAndCall",
      "outputs": [],
      "stateMutability": "payable",
      "type": "function"
    },
    {
      "inputs": [
        {
          "internalType": "address",
          "name": "_currency",
          "type": "address"
        },
        {
          "internalType": "bool",
          "name": "_whitelist",
          "type": "bool"
        }
      ],
      "name": "whitelistCurrency",
      "outputs": [],
      "stateMutability": "nonpayable",
      "type": "function"
    },
    {
      "inputs": [
        {
          "internalType": "address",
          "name": "",
          "type": "address"
        }
      ],
      "name": "whitelistedCurrency",
      "outputs": [
        {
          "internalType": "bool",
          "name": "whitelisted",
          "type": "bool"
        }
      ],
      "stateMutability": "view",
      "type": "function"
    },
    {
      "inputs": [
        {
          "internalType": "uint256",
          "name": "_iroId",
          "type": "uint256"
        }
      ],
      "name": "withdraw",
      "outputs": [],
      "stateMutability": "nonpayable",
      "type": "function"
    },
    {
      "stateMutability": "payable",
      "type": "receive"
    }
  ],
  "transactionHash": "0xc4827682f971af6749f24d673e6ea5968313bba44e2ed2a79c166f035d68914b",
  "args": [],
  "numDeployments": 1,
  "solcInputHash": "23374243777ffffa26a8e369b46b76f4",
  "bytecode": "0x60a06040523060805234801561001457600080fd5b506080516140b961004c60003960008181610df101528181610e3101528181610ed001528181610f100152610fa301526140b96000f3fe6080604052600436106101fd5760003560e01c80638a8ad36b1161010d578063b478f416116100a0578063e915c5591161006f578063e915c55914610650578063ef217dbd14610670578063f0f4426014610685578063f1d909a1146106a5578063f2fde38b146106c557600080fd5b8063b478f416146105cc578063bd85b039146105ec578063ddd5e1b21461060c578063de9ee90b1461062c57600080fd5b806396ce0795116100dc57806396ce07951461054f578063976d16291461056c5780639a19b73b1461058c578063b0ecf87c146105b957600080fd5b80638a8ad36b146104d15780638c3bfb1c146104f15780638da5cb5b1461051157806395ba7c5a1461052f57600080fd5b80635c622a0e1161019057806369277bf71161015f57806369277bf7146104045780636ffc5f6f14610424578063715018a6146104445780637e32c20314610459578063885d68a81461049957600080fd5b80635c622a0e1461033d578063606b77db1461036a57806361d027b31461039757806364ef7f22146103cf57600080fd5b806335876476116101cc57806335876476146102d55780633659cfe6146102f55780634f1ef2861461031557806352d1902d1461032857600080fd5b8063171ee95a1461020957806323b3359f1461023c5780632e1a7d4d1461025e578063313b7b191461027e57600080fd5b3661020457005b600080fd5b34801561021557600080fd5b506102296102243660046135dc565b6106e5565b6040519081526020015b60405180910390f35b34801561024857600080fd5b5061025c61025736600461360a565b61071f565b005b34801561026a57600080fd5b5061025c6102793660046135dc565b610970565b34801561028a57600080fd5b5060cc5460cd5460ce546102ab926001600160a01b03908116928116911683565b604080516001600160a01b0394851681529284166020840152921691810191909152606001610233565b3480156102e157600080fd5b5061025c6102f036600461363a565b610af1565b34801561030157600080fd5b5061025c6103103660046136d0565b610de7565b61025c610323366004613733565b610ec6565b34801561033457600080fd5b50610229610f96565b34801561034957600080fd5b5061035d6103583660046135dc565b611049565b60405161023391906137f0565b34801561037657600080fd5b506102296103853660046135dc565b60d26020526000908152604090205481565b3480156103a357600080fd5b5060c9546103b7906001600160a01b031681565b6040516001600160a01b039091168152602001610233565b3480156103db57600080fd5b506103ef6103ea3660046135dc565b611106565b60408051928352602083019190915201610233565b34801561041057600080fd5b5061022961041f366004613818565b611150565b34801561043057600080fd5b5061022961043f366004613862565b6112a0565b34801561045057600080fd5b5061025c6113f5565b34801561046557600080fd5b506104896104743660046136d0565b60d36020526000908152604090205460ff1681565b6040519015158152602001610233565b3480156104a557600080fd5b506102296104b436600461360a565b60d160209081526000928352604080842090915290825290205481565b3480156104dd57600080fd5b5061025c6104ec3660046138cd565b611409565b3480156104fd57600080fd5b5061025c61050c36600461398e565b6114c4565b34801561051d57600080fd5b506033546001600160a01b03166103b7565b34801561053b57600080fd5b5061025c61054a3660046139d3565b611570565b34801561055b57600080fd5b506040516127108152602001610233565b34801561057857600080fd5b5060cb546103b7906001600160a01b031681565b34801561059857600080fd5b506105ac6105a73660046135dc565b611932565b6040516102339190613a68565b61025c6105c7366004613b37565b611a93565b3480156105d857600080fd5b5061025c6105e73660046136d0565b611ddf565b3480156105f857600080fd5b506102296106073660046135dc565b611e8f565b34801561061857600080fd5b5061025c61062736600461360a565b611eb6565b34801561063857600080fd5b506040516001600160401b0342168152602001610233565b34801561065c57600080fd5b5060ca546103b7906001600160a01b031681565b34801561067c57600080fd5b506102296120f4565b34801561069157600080fd5b5061025c6106a03660046136d0565b612104565b3480156106b157600080fd5b5061025c6106c03660046136d0565b61219b565b3480156106d157600080fd5b5061025c6106e03660046136d0565b61223c565b6000806106f183611932565b90508061010001518161012001518260e0015161070e9190613b8a565b6107189190613bb3565b9392505050565b600061072a83611932565b80519091506001600160a01b031633146107765760405162461bcd60e51b815260206004820152600860248201526708585b1b1bddd95960c21b60448201526064015b60405180910390fd5b61078160d5846122b2565b156107c05760405162461bcd60e51b815260206004820152600f60248201526e105b1c9958591e4818db185a5b5959608a1b604482015260640161076d565b60026107cb826122d7565b60038111156107dc576107dc6137da565b1461081e5760405162461bcd60e51b8152602060048201526012602482015271125493c81b9bdd081cdd58d8d95cdcd99d5b60721b604482015260640161076d565b6000816080015161ffff16116108695760405162461bcd60e51b815260206004820152601060248201526f4e6f7468696e6720746f20636c61696d60801b604482015260640161076d565b60006108848261012001518361010001518460800151612388565b60ca549091506001600160a01b031663836a10406108a1866123ca565b6040516001600160e01b031960e084901b16815260048101919091526001600160a01b038616602482015260448101849052606401600060405180830381600087803b1580156108f057600080fd5b505af1158015610904573d6000803e3d6000fd5b5050505061091c8460d56124c790919063ffffffff16565b826001600160a01b0316336001600160a01b0316857f5e789de02041c87403c6f48bfd49a8cb3e5a5e8a53bcdef4f2fb597992326b4f8460405161096291815260200190565b60405180910390a450505050565b600061097b82611932565b90506002610988826122d7565b6003811115610999576109996137da565b146109db5760405162461bcd60e51b8152602060048201526012602482015271125493c81b9bdd081cdd58d8d95cdcd99d5b60721b604482015260640161076d565b6109e660d4836122b2565b15610a275760405162461bcd60e51b815260206004820152601160248201527020b63932b0b23c903bb4ba34323930bbb760791b604482015260640161076d565b805160c95460cb54600092839283928392610a779290916001600160a01b039182169116610a548a6123ca565b8961012001518a6060015161ffff168b6040015161ffff168c61014001516124f0565b60088a901c600090815260d4602052604090208054600160ff8d161b17905592965090945092509050604080518581526020810185905290810183905281151590339088907ff51dce7865db25a2ec6b47f91f3e97b1626e1e085200f50031aaceb3eda8df379060600160405180910390a4505050505050565b600054610100900460ff1615808015610b115750600054600160ff909116105b80610b2b5750303b158015610b2b575060005460ff166001145b610b8e5760405162461bcd60e51b815260206004820152602e60248201527f496e697469616c697a61626c653a20636f6e747261637420697320616c72656160448201526d191e481a5b9a5d1a585b1a5e995960921b606482015260840161076d565b6000805460ff191660011790558015610bb1576000805461ff0019166101001790555b6001600160a01b038716610bf95760405162461bcd60e51b815260206004820152600f60248201526e0857dc99585b115cdd185d1953999d608a1b604482015260640161076d565b6001600160a01b038616610c3c5760405162461bcd60e51b815260206004820152600a602482015269215f747265617375727960b01b604482015260640161076d565b6001600160a01b038416610c835760405162461bcd60e51b815260206004820152600e60248201526d215f6261736543757272656e637960901b604482015260640161076d565b6001600160a01b038316610ccf5760405162461bcd60e51b8152602060048201526013602482015272215f707269636546656564526567697374727960681b604482015260640161076d565b6001600160a01b038216610d145760405162461bcd60e51b815260206004820152600c60248201526b10afb9bbb0b82937baba32b960a11b604482015260640161076d565b60ca80546001600160a01b03199081166001600160a01b038a81169190911790925560c98054821689841617905560cb8054821688841617905560cc8054821685841617905560cd8054821686841617905560ce80549091169186169182179055600090815260d360205260409020805460ff19166001179055610d978861261d565b8015610ddd576000805461ff0019169055604051600181527f7f26b83ff96e1f2b6a682f133852f6798a09c465da95921460cefb38474024989060200160405180910390a15b5050505050505050565b6001600160a01b037f0000000000000000000000000000000000000000000000000000000000000000163003610e2f5760405162461bcd60e51b815260040161076d90613bc7565b7f00000000000000000000000000000000000000000000000000000000000000006001600160a01b0316610e7860008051602061403d833981519152546001600160a01b031690565b6001600160a01b031614610e9e5760405162461bcd60e51b815260040161076d90613c13565b610ea78161266f565b60408051600080825260208201909252610ec391839190612677565b50565b6001600160a01b037f0000000000000000000000000000000000000000000000000000000000000000163003610f0e5760405162461bcd60e51b815260040161076d90613bc7565b7f00000000000000000000000000000000000000000000000000000000000000006001600160a01b0316610f5760008051602061403d833981519152546001600160a01b031690565b6001600160a01b031614610f7d5760405162461bcd60e51b815260040161076d90613c13565b610f868261266f565b610f9282826001612677565b5050565b6000306001600160a01b037f000000000000000000000000000000000000000000000000000000000000000016146110365760405162461bcd60e51b815260206004820152603860248201527f555550535570677261646561626c653a206d757374206e6f742062652063616c60448201527f6c6564207468726f7567682064656c656761746563616c6c0000000000000000606482015260840161076d565b5060008051602061403d83398151915290565b600081815260d06020908152604080832081516101608101835281546001600160a01b0380821683526001600160401b03600160a01b830481169684019690965261ffff600160e01b8304811695840195909552600160f01b90910484166060830152600183015493841660808301526201000090930490931660a0840152600281015460c0840152600381015460e0840152600481015461010084015260058101546101208401526006015416610140820152610718816122d7565b600080600061111484611932565b905061112e8160c0015182610100015183608001516127e7565b92506111488160e0015182610100015183608001516127e7565b915050915091565b6001600160a01b038216600090815260d36020908152604080832081518083018352815460ff16151581526001820180548451818702810187019095528085528695929485840193909291908301828280156111d557602002820191906000526020600020905b81546001600160a01b031681526001909101906020018083116111b7575b5050505050815250509050806000015161122d5760405162461bcd60e51b815260206004820152601960248201527843757272656e6379206973206e6f7420617661696c61626c6560381b604482015260640161076d565b600061123886611932565b9050611296816101000151868685602001515160026112579190613c5f565b6101408601516040805160608101825260cc546001600160a01b03908116825260cd548116602083015260ce5416918101919091529493929190612808565b9695505050505050565b6001600160a01b038316600090815260d36020908152604080832081518083018352815460ff161515815260018201805484518187028101870190955280855286959294858401939092919083018282801561132557602002820191906000526020600020905b81546001600160a01b03168152600190910190602001808311611307575b5050505050815250509050806000015161137d5760405162461bcd60e51b815260206004820152601960248201527843757272656e6379206973206e6f7420617661696c61626c6560381b604482015260640161076d565b600061138887611932565b90506113e881610100015187878786602001515160026113a89190613c5f565b6101408701516040805160608101825260cc546001600160a01b03908116825260cd548116602083015260ce541691810191909152959493929190612889565b925050505b949350505050565b6113fd6128f0565b611407600061261d565b565b6114116128f0565b6001600160a01b03821661145a5760405162461bcd60e51b815260206004820152601060248201526f21696e76616c6964206164647265737360801b604482015260640161076d565b6001600160a01b038216600090815260d360209081526040909120825161148992600190920191840190613562565b506040516001600160a01b0383169033907f541e8ddf10373c23738bb2294d080cbb3fd1e8a673a6cf2cabac62a4b4c663b390600090a35050565b6114cc6128f0565b60ce546001600160a01b03908116908316036115195760405162461bcd60e51b815260206004820152600c60248201526b6261736543757272656e637960a01b604482015260640161076d565b6001600160a01b038216600081815260d36020526040808220805460ff1916851515908117909155905190929133917fff9717957a4925fa759608c104b35e85f78592a929d5f5e9056bf381af31ef229190a45050565b6115786128f0565b61271061ffff881611156115c45760405162461bcd60e51b8152602060048201526013602482015272125b9d985b1a590818985cda5cc81c1bda5b9d606a1b604482015260640161076d565b6127106115d18988613c72565b61ffff1611156116235760405162461bcd60e51b815260206004820152601d60248201527f466565732073686f756c64206265206c657373207468616e2031303025000000604482015260640161076d565b8161162e8585613b8a565b6116389190613c94565b156116935760405162461bcd60e51b815260206004820152602560248201527f436170732073686f756c64206265206d756c7469706c6573206f6620756e6974604482015264507269636560d81b606482015260840161076d565b600061169d6120f4565b905060006116ab8342613ca8565b905060006116b98883613ca8565b90506040518061016001604052808d6001600160a01b03168152602001836001600160401b031681526020018a61ffff1681526020018c61ffff1681526020018b61ffff168152602001826001600160401b031681526020018881526020018781526020018681526020016000815260200160cc60020160009054906101000a90046001600160a01b03166001600160a01b031681525060d0600085815260200190815260200160002060008201518160000160006101000a8154816001600160a01b0302191690836001600160a01b0316021790555060208201518160000160146101000a8154816001600160401b0302191690836001600160401b03160217905550604082015181600001601c6101000a81548161ffff021916908361ffff160217905550606082015181600001601e6101000a81548161ffff021916908361ffff16021790555060808201518160010160006101000a81548161ffff021916908361ffff16021790555060a08201518160010160026101000a8154816001600160401b0302191690836001600160401b0316021790555060c0820151816002015560e08201518160030155610100820151816004015561012082015181600501556101408201518160060160006101000a8154816001600160a01b0302191690836001600160a01b031602179055509050506118bc60cf80546001019055565b6040805186815261ffff8c811660208301528b16818301526001600160401b0384811660608301528316608082015290516001600160a01b038e169185917f47623e9a1ac1276299a411e313416730652c442497bd1f561dba6cbc62857f7c9181900360a00190a3505050505050505050505050565b6040805161016081018252600080825260208201819052918101829052606081018290526080810182905260a0810182905260c0810182905260e08101829052610100810182905261012081018290526101408101919091526119936120f4565b82106119d85760405162461bcd60e51b81526020600482015260146024820152735f69726f4964206f75742d6f662d626f756e647360601b604482015260640161076d565b50600090815260d0602090815260409182902082516101608101845281546001600160a01b0380821683526001600160401b03600160a01b830481169584019590955261ffff600160e01b8304811696840196909652600160f01b90910485166060830152600183015494851660808301526201000090940490921660a0830152600281015460c0830152600381015460e0830152600481015461010083015260058101546101208301526006015490911661014082015290565b60008111611af95760405162461bcd60e51b815260206004820152602d60248201527f5f616d6f756e74546f50757263686173652073686f756c64206265206772656160448201526c746572207468616e207a65726f60981b606482015260840161076d565b6001600160a01b038316600090815260d36020908152604080832081518083018352815460ff16151581526001820180548451818702810187019095528085529194929385840193909290830182828015611b7d57602002820191906000526020600020905b81546001600160a01b03168152600190910190602001808311611b5f575b50505091909252505060ce54919250506001600160a01b0385811691161480611ba4575080515b611be75760405162461bcd60e51b815260206004820152601460248201527310dd5c9c995b98de481b9bdd08185b1b1bddd95960621b604482015260640161076d565b6000611bf286611932565b90506001611bff826122d7565b6003811115611c1057611c106137da565b14611c515760405162461bcd60e51b815260206004820152601160248201527049524f206973206e6f742061637469766560781b604482015260640161076d565b60e0810151610100820151611c669085613cc8565b826101200151611c769190613c5f565b1115611cb65760405162461bcd60e51b815260206004820152600f60248201526e12185c9918d85c081c995858da1959608a1b604482015260640161076d565b6001600160a01b03851615801590611cce5750600034115b15611cdd57611cdd333461294a565b6101008101516020808401516101408401516040805160608101825260cc546001600160a01b03908116825260cd5481169582019590955260ce5490941690840152600093611d35939290918a918a918a91906129e5565b600088815260d160209081526040808320338452909152812080549293508392909190611d63908490613c5f565b9091555050600087815260d0602052604081206005018054839290611d89908490613c5f565b909155505060408051828152602081018690526001600160a01b0388169133918a917f5a85eb554fd8d84f35068dd70b72c3eade7b5cd89deb5cd10d936626411beaa4910160405180910390a450505050505050565b611de76128f0565b6001600160a01b038116611e2e5760405162461bcd60e51b815260206004820152600e60248201526d215f6261736543757272656e637960901b604482015260640161076d565b60ce80546001600160a01b0319166001600160a01b038316908117909155600081815260d36020526040808220805460ff191660011790555133917f6dde2141be69fabcd84e3864d206ba0f3f2d507125fb2703899c87de4c585d5f91a350565b600080611e9b83611932565b905061071881610120015182610100015183608001516127e7565b6000611ec183611932565b90506000611ece826122d7565b90506001816003811115611ee457611ee46137da565b11611f245760405162461bcd60e51b815260206004820152601060248201526f125493c81b9bdd08199a5b9a5cda195960821b604482015260640161076d565b600084815260d16020908152604080832033845290915290205480611f7d5760405162461bcd60e51b815260206004820152600f60248201526e139bdd1a1a5b99c81d1bc81b5a5b9d608a1b604482015260640161076d565b6002826003811115611f9157611f916137da565b0361207857600083610100015182611fa99190613bb3565b60ca549091506001600160a01b031663836a1040611fc6886123ca565b6040516001600160e01b031960e084901b168152600481019190915233602482015260448101849052606401600060405180830381600087803b15801561200c57600080fd5b505af1158015612020573d6000803e3d6000fd5b50505050846001600160a01b0316336001600160a01b0316877f9c4945d842cc8c6704877a0defcd9ab09f6d77b24a369a95c2610506c6c38ee78460405161206a91815260200190565b60405180910390a4506120ed565b60ce5461209190859083906001600160a01b0316612ade565b600085815260d1602090815260408083203380855290835281842093909355518381526001600160a01b038716929188917e13b41c02877cabf07b7d6154ea39ec4503af8922f651f7a81f4afacd0c664f910160405180910390a45b5050505050565b60006120ff60cf5490565b905090565b61210c6128f0565b6001600160a01b03811661214f5760405162461bcd60e51b815260206004820152600a602482015269215f747265617375727960b01b604482015260640161076d565b60c980546001600160a01b0319166001600160a01b03831690811790915560405133907f190c262dc6f09322c68a13bf67c9659e58367755ba6190fa7ce5ca8aa45a877d90600090a350565b6121a36128f0565b6001600160a01b0381166121f05760405162461bcd60e51b8152602060048201526014602482015273215f7265616c457374617465526573657276657360601b604482015260640161076d565b60cb80546001600160a01b0319166001600160a01b03831690811790915560405133907fe2346da89cd742996eca02002552dd4534ad4ad92c3a82dd6a86fd515ee1414c90600090a350565b6122446128f0565b6001600160a01b0381166122a95760405162461bcd60e51b815260206004820152602660248201527f4f776e61626c653a206e6577206f776e657220697320746865207a65726f206160448201526564647265737360d01b606482015260840161076d565b610ec38161261d565b600881901c600090815260208390526040902054600160ff83161b1615155b92915050565b600081602001516001600160401b03166122ee4290565b6001600160401b03161161230457506000919050565b60a08201516001600160401b0316426001600160401b03161015612342578160e001518261012001510361233a57506002919050565b506001919050565b60a08201516001600160401b0316426001600160401b031610612380578160c00151826101200151101561237857506003919050565b506002919050565b506003919050565b6000806123958486613bb3565b90506123a383612710613cdf565b61ffff168361ffff16826123b79190613cc8565b6123c19190613bb3565b95945050505050565b60006123d760d6836122b2565b6124b15760ca60009054906101000a90046001600160a01b03166001600160a01b0316631579c1336040518163ffffffff1660e01b8152600401602060405180830381865afa15801561242e573d6000803e3d6000fd5b505050506040513d601f19601f820116820180604052508101906124529190613cfa565b600083815260d260209081526040808320849055600886901c835260d69091528082208054600160ff88161b17905551919250829184917fe845f90872d41131b00e56189f857584a09b017ea97c14fe1c84b118d62d8e5191a3919050565b50600081815260d260205260409020545b919050565b600881901c600090815260209290925260409091208054600160ff9093169290921b9091179055565b6000808080861561251f576127106125088989613cc8565b6125129190613bb3565b935061251f8c8587612ade565b61271061252c8988613cc8565b6125369190613bb3565b92506125428385613c5f565b61254c9089613b8a565b91506001600160a01b038a16156125fa575060018215612571576125718b8487612ade565b81156125f55761258b6001600160a01b0386168b84612af2565b604051638dbdbe6d60e01b8152600481018a9052602481018390526001600160a01b0386811660448301528b1690638dbdbe6d90606401600060405180830381600087803b1580156125dc57600080fd5b505af11580156125f0573d6000803e3d6000fd5b505050505b61260e565b61260e8b612608868b613b8a565b87612ade565b98509850985098945050505050565b603380546001600160a01b038381166001600160a01b0319831681179093556040519116919082907f8be0079c531659141344cd1fd0a4f28419497f9722a3daafe3b4186f6b6457e090600090a35050565b610ec36128f0565b7f4910fdfa16fed3260ed0e7147f7cc6da11a60208b5b9406d12a635614ffd91435460ff16156126af576126aa83612c3a565b505050565b826001600160a01b03166352d1902d6040518163ffffffff1660e01b8152600401602060405180830381865afa925050508015612709575060408051601f3d908101601f1916820190925261270691810190613cfa565b60015b61276c5760405162461bcd60e51b815260206004820152602e60248201527f45524331393637557067726164653a206e657720696d706c656d656e7461746960448201526d6f6e206973206e6f74205555505360901b606482015260840161076d565b60008051602061403d83398151915281146127db5760405162461bcd60e51b815260206004820152602960248201527f45524331393637557067726164653a20756e737570706f727465642070726f786044820152681a58589b195555525160ba1b606482015260840161076d565b506126aa838383612cd6565b60006127f4848484612388565b6127fe8486613bb3565b6113ed9190613c5f565b6000806128158786613cc8565b9050826001600160a01b0316866001600160a01b031603612837579050611296565b612710601e612847600187613b8a565b6128519190613cc8565b61285d90612710613c5f565b6128698a848a88612d01565b6128739190613cc8565b61287d9190613bb3565b98975050505050505050565b60008061289a898989898888612808565b9050826001600160a01b0316876001600160a01b0316036128bc5790506128e5565b6127106128c98682613c72565b6128d79061ffff1683613cc8565b6128e19190613bb3565b9150505b979650505050505050565b6033546001600160a01b031633146114075760405162461bcd60e51b815260206004820181905260248201527f4f776e61626c653a2063616c6c6572206973206e6f7420746865206f776e6572604482015260640161076d565b6000826001600160a01b03168260405160006040518083038185875af1925050503d8060008114612997576040519150601f19603f3d011682016040523d82523d6000602084013e61299c565b606091505b50509050806126aa5760405162461bcd60e51b81526020600482015260156024820152744661696c65642073656e64696e672065746865727360581b604482015260640161076d565b60006129f18785613cc8565b9050816001600160a01b0316866001600160a01b031603612a675784811115612a4d5760405162461bcd60e51b815260206004820152600e60248201526d125b9d985b1a5908185b5bdd5b9d60921b604482015260640161076d565b612a626001600160a01b038716333084612dab565b6128e5565b6001600160a01b03861615612a86578751612a62908784868986612de3565b84341015612acf5760405162461bcd60e51b8152602060048201526016602482015275139bdd08195b9bdd59da08195d1a195c9cc81cd95b9d60521b604482015260640161076d565b87516128e59083858885612eec565b6126aa6001600160a01b0382168484613034565b801580612b6c5750604051636eb1769f60e11b81523060048201526001600160a01b03838116602483015284169063dd62ed3e90604401602060405180830381865afa158015612b46573d6000803e3d6000fd5b505050506040513d601f19601f82011682018060405250810190612b6a9190613cfa565b155b612bd75760405162461bcd60e51b815260206004820152603660248201527f5361666545524332303a20617070726f76652066726f6d206e6f6e2d7a65726f60448201527520746f206e6f6e2d7a65726f20616c6c6f77616e636560501b606482015260840161076d565b6040516001600160a01b0383166024820152604481018290526126aa90849063095ea7b360e01b906064015b60408051601f198184030181529190526020810180516001600160e01b03166001600160e01b031990931692909217909152613064565b6001600160a01b0381163b612ca75760405162461bcd60e51b815260206004820152602d60248201527f455243313936373a206e657720696d706c656d656e746174696f6e206973206e60448201526c1bdd08184818dbdb9d1c9858dd609a1b606482015260840161076d565b60008051602061403d83398151915280546001600160a01b0319166001600160a01b0392909216919091179055565b612cdf83613136565b600082511180612cec5750805b156126aa57612cfb8383613176565b50505050565b6020840151604051635620c32d60e11b81526001600160a01b0384811660048301528381166024830152600092839291169063ac41865a90604401602060405180830381865afa158015612d59573d6000803e3d6000fd5b505050506040513d601f19601f82011682018060405250810190612d7d9190613cfa565b905080612d8985613261565b612d979060ff16600a613df7565b612da19087613cc8565b6112969190613bb3565b6040516001600160a01b0380851660248301528316604482015260648101829052612cfb9085906323b872dd60e01b90608401612c03565b612df86001600160a01b038616333085612dab565b612e0c6001600160a01b0386168784612af2565b6000612e198685876132db565b90506000876001600160a01b0316638803dbee84868530426040518663ffffffff1660e01b8152600401612e51959493929190613e47565b6000604051808303816000875af1158015612e70573d6000803e3d6000fd5b505050506040513d6000823e601f3d908101601f19168201604052612e989190810190613e83565b90508381600081518110612eae57612eae613f08565b60200260200101511015610ddd57610ddd3382600081518110612ed357612ed3613f08565b602002602001015186612ee69190613b8a565b89612ade565b6000612f5a866001600160a01b031663ad5c46486040518163ffffffff1660e01b8152600401602060405180830381865afa158015612f2f573d6000803e3d6000fd5b505050506040513d601f19601f82011682018060405250810190612f539190613f1e565b85876132db565b90506000866001600160a01b031663fb3bdb4185858530426040518663ffffffff1660e01b8152600401612f919493929190613f3b565b60006040518083038185885af1158015612faf573d6000803e3d6000fd5b50505050506040513d6000823e601f3d908101601f19168201604052612fd89190810190613e83565b90503481600081518110612fee57612fee613f08565b6020026020010151101561302b5761302b338260008151811061301357613013613f08565b6020026020010151346130269190613b8a565b61294a565b50505050505050565b6040516001600160a01b0383166024820152604481018290526126aa90849063a9059cbb60e01b90606401612c03565b60006130b9826040518060400160405280602081526020017f5361666545524332303a206c6f772d6c6576656c2063616c6c206661696c6564815250856001600160a01b03166133c79092919063ffffffff16565b8051909150156126aa57808060200190518101906130d79190613f70565b6126aa5760405162461bcd60e51b815260206004820152602a60248201527f5361666545524332303a204552433230206f7065726174696f6e20646964206e6044820152691bdd081cdd58d8d9595960b21b606482015260840161076d565b61313f81612c3a565b6040516001600160a01b038216907fbc7cd75a20ee27fd9adebab32041f755214dbc6bffa90cc0225b39da2e5c2d3b90600090a250565b60606001600160a01b0383163b6131de5760405162461bcd60e51b815260206004820152602660248201527f416464726573733a2064656c65676174652063616c6c20746f206e6f6e2d636f6044820152651b9d1c9858dd60d21b606482015260840161076d565b600080846001600160a01b0316846040516131f99190613fb1565b600060405180830381855af49150503d8060008114613234576040519150601f19603f3d011682016040523d82523d6000602084013e613239565b606091505b50915091506123c1828260405180606001604052806027815260200161405d602791396133d6565b60006001600160a01b03821661327957506012919050565b816001600160a01b031663313ce5676040518163ffffffff1660e01b8152600401602060405180830381865afa1580156132b7573d6000803e3d6000fd5b505050506040513d601f19601f820116820180604052508101906122d19190613fcd565b606083816000815181106132f1576132f1613f08565b60200260200101906001600160a01b031690816001600160a01b03168152505060005b835181101561337f5783818151811061332f5761332f613f08565b6020026020010151828260016133459190613c5f565b8151811061335557613355613f08565b6001600160a01b03909216602092830291909101909101528061337781613ff0565b915050613314565b508181600183516133909190613b8a565b815181106133a0576133a0613f08565b60200260200101906001600160a01b031690816001600160a01b0316815250509392505050565b60606113ed84846000856133ef565b606083156133e5575081610718565b61071883836134bf565b6060824710156134505760405162461bcd60e51b815260206004820152602660248201527f416464726573733a20696e73756666696369656e742062616c616e636520666f6044820152651c8818d85b1b60d21b606482015260840161076d565b600080866001600160a01b0316858760405161346c9190613fb1565b60006040518083038185875af1925050503d80600081146134a9576040519150601f19603f3d011682016040523d82523d6000602084013e6134ae565b606091505b50915091506113e8878383876134e9565b8151156134cf5781518083602001fd5b8060405162461bcd60e51b815260040161076d9190614009565b60608315613558578251600003613551576001600160a01b0385163b6135515760405162461bcd60e51b815260206004820152601d60248201527f416464726573733a2063616c6c20746f206e6f6e2d636f6e7472616374000000604482015260640161076d565b50816113ed565b6113ed83836134bf565b8280548282559060005260206000209081019282156135b7579160200282015b828111156135b757825182546001600160a01b0319166001600160a01b03909116178255602090920191600190910190613582565b506135c39291506135c7565b5090565b5b808211156135c357600081556001016135c8565b6000602082840312156135ee57600080fd5b5035919050565b6001600160a01b0381168114610ec357600080fd5b6000806040838503121561361d57600080fd5b82359150602083013561362f816135f5565b809150509250929050565b600080600080600080600060e0888a03121561365557600080fd5b8735613660816135f5565b96506020880135613670816135f5565b95506040880135613680816135f5565b94506060880135613690816135f5565b935060808801356136a0816135f5565b925060a08801356136b0816135f5565b915060c08801356136c0816135f5565b8091505092959891949750929550565b6000602082840312156136e257600080fd5b8135610718816135f5565b634e487b7160e01b600052604160045260246000fd5b604051601f8201601f191681016001600160401b038111828210171561372b5761372b6136ed565b604052919050565b6000806040838503121561374657600080fd5b8235613751816135f5565b91506020838101356001600160401b038082111561376e57600080fd5b818601915086601f83011261378257600080fd5b813581811115613794576137946136ed565b6137a6601f8201601f19168501613703565b915080825287848285010111156137bc57600080fd5b80848401858401376000848284010152508093505050509250929050565b634e487b7160e01b600052602160045260246000fd5b602081016004831061381257634e487b7160e01b600052602160045260246000fd5b91905290565b60008060006060848603121561382d57600080fd5b83359250602084013561383f816135f5565b929592945050506040919091013590565b803561ffff811681146124c257600080fd5b6000806000806080858703121561387857600080fd5b84359350602085013561388a816135f5565b92506040850135915061389f60608601613850565b905092959194509250565b60006001600160401b038211156138c3576138c36136ed565b5060051b60200190565b600080604083850312156138e057600080fd5b82356138eb816135f5565b91506020838101356001600160401b0381111561390757600080fd5b8401601f8101861361391857600080fd5b803561392b613926826138aa565b613703565b81815260059190911b8201830190838101908883111561394a57600080fd5b928401925b82841015613971578335613962816135f5565b8252928401929084019061394f565b80955050505050509250929050565b8015158114610ec357600080fd5b600080604083850312156139a157600080fd5b82356139ac816135f5565b9150602083013561362f81613980565b80356001600160401b03811681146124c257600080fd5b60008060008060008060008060006101208a8c0312156139f257600080fd5b89356139fd816135f5565b9850613a0b60208b01613850565b9750613a1960408b01613850565b9650613a2760608b01613850565b9550613a3560808b016139bc565b945060a08a0135935060c08a0135925060e08a01359150613a596101008b016139bc565b90509295985092959850929598565b81516001600160a01b0316815261016081016020830151613a9460208401826001600160401b03169052565b506040830151613aaa604084018261ffff169052565b506060830151613ac0606084018261ffff169052565b506080830151613ad6608084018261ffff169052565b5060a0830151613af160a08401826001600160401b03169052565b5060c0838101519083015260e0808401519083015261010080840151908301526101208084015190830152610140928301516001600160a01b0316929091019190915290565b60008060008060808587031215613b4d57600080fd5b843593506020850135613b5f816135f5565b93969395505050506040820135916060013590565b634e487b7160e01b600052601160045260246000fd5b818103818111156122d1576122d1613b74565b634e487b7160e01b600052601260045260246000fd5b600082613bc257613bc2613b9d565b500490565b6020808252602c908201527f46756e6374696f6e206d7573742062652063616c6c6564207468726f7567682060408201526b19195b1959d85d1958d85b1b60a21b606082015260800190565b6020808252602c908201527f46756e6374696f6e206d7573742062652063616c6c6564207468726f7567682060408201526b6163746976652070726f787960a01b606082015260800190565b808201808211156122d1576122d1613b74565b61ffff818116838216019080821115613c8d57613c8d613b74565b5092915050565b600082613ca357613ca3613b9d565b500690565b6001600160401b03818116838216019080821115613c8d57613c8d613b74565b80820281158282048414176122d1576122d1613b74565b61ffff828116828216039080821115613c8d57613c8d613b74565b600060208284031215613d0c57600080fd5b5051919050565b600181815b80851115613d4e578160001904821115613d3457613d34613b74565b80851615613d4157918102915b93841c9390800290613d18565b509250929050565b600082613d65575060016122d1565b81613d72575060006122d1565b8160018114613d885760028114613d9257613dae565b60019150506122d1565b60ff841115613da357613da3613b74565b50506001821b6122d1565b5060208310610133831016604e8410600b8410161715613dd1575081810a6122d1565b613ddb8383613d13565b8060001904821115613def57613def613b74565b029392505050565b60006107188383613d56565b600081518084526020808501945080840160005b83811015613e3c5781516001600160a01b031687529582019590820190600101613e17565b509495945050505050565b85815284602082015260a060408201526000613e6660a0830186613e03565b6001600160a01b0394909416606083015250608001529392505050565b60006020808385031215613e9657600080fd5b82516001600160401b03811115613eac57600080fd5b8301601f81018513613ebd57600080fd5b8051613ecb613926826138aa565b81815260059190911b82018301908381019087831115613eea57600080fd5b928401925b828410156128e557835182529284019290840190613eef565b634e487b7160e01b600052603260045260246000fd5b600060208284031215613f3057600080fd5b8151610718816135f5565b848152608060208201526000613f546080830186613e03565b6001600160a01b03949094166040830152506060015292915050565b600060208284031215613f8257600080fd5b815161071881613980565b60005b83811015613fa8578181015183820152602001613f90565b50506000910152565b60008251613fc3818460208701613f8d565b9190910192915050565b600060208284031215613fdf57600080fd5b815160ff8116811461071857600080fd5b60006001820161400257614002613b74565b5060010190565b6020815260008251806020840152614028816040850160208701613f8d565b601f01601f1916919091016040019291505056fe360894a13ba1a3210667c828492db98dca3e2076cc3735a920a3ca505d382bbc416464726573733a206c6f772d6c6576656c2064656c65676174652063616c6c206661696c6564a26469706673582212205f185aa04f25f9537e5d2cb5ac030daa5576dfc3edc172e855fda698e0fb4c8164736f6c63430008110033",
  "devdoc": {
    "author": "Horizon DAO (Yuri Fernandes)",
    "events": {
      "CashBack(uint256,address,address,uint256)": {
        "details": "Emitted when an investors withdraw it's funds after an IRO fails"
      },
      "Commit(uint256,address,address,uint256,uint256)": {
        "details": "Emitted when a new Commit is made to an IRO"
      },
      "CreateIRO(uint256,address,uint256,uint16,uint16,uint64,uint64)": {
        "details": "Emitted when a new IRO is created"
      },
      "FundsWithdrawn(uint256,address,bool,uint256,uint256,uint256)": {
        "details": "Emitted when funds from an IRO are withdrawn"
      },
      "OwnerTokensClaimed(uint256,address,address,uint256)": {
        "details": "Emitted when the listing owner claims it's shares of the tokens"
      },
      "PathUpdated(address,address)": {
        "details": "Emitted when the currency relative path is updated"
      },
      "RealEstateCreated(uint256,uint256)": {
        "details": "Emitted when a new real estate token ID is created"
      },
      "SetBaseCurrency(address,address)": {
        "details": "Emitted when a new base currency is set"
      },
      "SetRealEstateReserves(address,address)": {
        "details": "Emitted when the RealEstateReserves contract is set"
      },
      "SetTreasury(address,address)": {
        "details": "Emitted when the Treasury contract is set"
      },
      "TokensClaimed(uint256,address,address,uint256)": {
        "details": "Emitted when tokens are claimed by investors"
      },
      "WhitelistCurrency(address,address,bool)": {
        "details": "Emitted when `whitelistCurrency` is executed"
      }
    },
    "kind": "dev",
    "methods": {
      "claim(uint256,address)": {
        "params": {
          "_iroId": "ID of the IRO",
          "_to": "Address to send the claimed tokens"
        }
      },
      "commit(uint256,address,uint256,uint256)": {
        "params": {
          "_amountToPurchase": "Amount of IRO tokens to purchase",
          "_currency": "Currency address",
          "_iroId": "ID of the IRO",
          "_priceWithSlippage": "Expected price with slippage"
        }
      },
      "createIRO(address,uint16,uint16,uint16,uint64,uint256,uint256,uint256,uint64)": {
        "details": "Create new IRO",
        "params": {
          "_duration": "Duration of the IRO in seconds",
          "_hardCap": "Maximum fundraising in base price token",
          "_listingOwner": "Listing owner address",
          "_listingOwnerFee": "Listing owner fee in basis points",
          "_listingOwnerShare": "Listing owner share of IRO tokens in basis points",
          "_softCap": "Minimum fundraising in base price token",
          "_startOffset": "Time before IRO begins",
          "_treasuryFee": "Treasury fee percentage in basis points",
          "_unitPrice": "Price per unit of IRO token in base price token"
        }
      },
      "expectedPrice(uint256,address,uint256)": {
        "params": {
          "_amountToPurchase": "Amount of IRO tokens to purchase",
          "_currency": "Currency address",
          "_iroId": "ID of the IRO"
        }
      },
      "getIRO(uint256)": {
        "params": {
          "_iroId": "ID of the IRO"
        }
      },
      "getStatus(uint256)": {
        "params": {
          "_iroId": "ID of the IRO"
        }
      },
      "initialize(address,address,address,address,address,address,address)": {
        "details": "Initialize IRO contract",
        "params": {
          "_baseCurrency": "Base token used to precify the IRO tokens",
          "_priceFeedRegistry": "Chainlink Price Feed Registry address",
          "_realEstateNft": "RealEstateNFT contract address",
          "_realEstateReserves": "RealEstateReserves contract address",
          "_swapRouter": "Uniswap or Sushiswap swap router",
          "_treasury": "Treasury contract address"
        }
      },
      "listingOwnerClaim(uint256,address)": {
        "params": {
          "_iroId": "ID of the IRO",
          "_to": "Address to send the tokens"
        }
      },
      "owner()": {
        "details": "Returns the address of the current owner."
      },
      "priceWithSlippage(uint256,address,uint256,uint16)": {
        "params": {
          "_amountToPurchase": "Amount of IRO tokens to purchase",
          "_currency": "Currency address",
          "_iroId": "ID of the IRO",
          "_slippage": "Swap slippage in basis points"
        }
      },
      "proxiableUUID()": {
        "details": "Implementation of the ERC1822 {proxiableUUID} function. This returns the storage slot used by the implementation. It is used to validate the implementation's compatibility when performing an upgrade. IMPORTANT: A proxy pointing at a proxiable contract should not be considered proxiable itself, because this risks bricking a proxy that upgrades to it, by delegating to itself until out of gas. Thus it is critical that this function revert if invoked through a proxy. This is guaranteed by the `notDelegated` modifier."
      },
      "remainingTokens(uint256)": {
        "params": {
          "_iroId": "ID of the IRO"
        }
      },
      "renounceOwnership()": {
        "details": "Leaves the contract without owner. It will not be possible to call `onlyOwner` functions anymore. Can only be called by the current owner. NOTE: Renouncing ownership will leave the contract without an owner, thereby removing any functionality that is only available to the owner."
      },
      "setBaseCurrency(address)": {
        "details": "Set a new base price token",
        "params": {
          "_baseCurrency": "Base price token address (ERC20)"
        }
      },
      "setRealEstateReserves(address)": {
        "details": "Set new real estate reserves",
        "params": {
          "_realEstateReserves": "RealEstateReseres address"
        }
      },
      "setRelativePath(address,address[])": {
        "details": "Update relative swap router path of a currency",
        "params": {
          "_currency": "Currency ERC20 address",
          "_relativePath": "Swap relative path"
        }
      },
      "setTreasury(address)": {
        "details": "Set new treasury",
        "params": {
          "_treasury": "Treasury address"
        }
      },
      "totalSupply(uint256)": {
        "params": {
          "_iroId": "ID of the IRO"
        }
      },
      "totalSupplyInterval(uint256)": {
        "params": {
          "_iroId": "ID of the IRO"
        }
      },
      "transferOwnership(address)": {
        "details": "Transfers ownership of the contract to a new account (`newOwner`). Can only be called by the current owner."
      },
      "upgradeTo(address)": {
        "details": "Upgrade the implementation of the proxy to `newImplementation`. Calls {_authorizeUpgrade}. Emits an {Upgraded} event."
      },
      "upgradeToAndCall(address,bytes)": {
        "details": "Upgrade the implementation of the proxy to `newImplementation`, and subsequently execute the function call encoded in `data`. Calls {_authorizeUpgrade}. Emits an {Upgraded} event."
      },
      "whitelistCurrency(address,bool)": {
        "details": "Whitelist currencies",
        "params": {
          "_currency": "Currency ERC20 address",
          "_whitelist": "Whether to whitelist"
        }
      },
      "withdraw(uint256)": {
        "params": {
          "_iroId": "ID of the IRO"
        }
      }
    },
    "stateVariables": {
      "_fundsWithdrawn": {
        "details": "Points out whether funds have been withdrawn from IRO"
      },
      "_iros": {
        "details": "mapping (iroId => iro)"
      },
      "_listingOwnerClaimed": {
        "details": "Points out whether the listingOwner has claimed it's share"
      },
      "_nextAvailableId": {
        "details": "Next available IRO ID"
      },
      "_realEstateIdSet": {
        "details": "Whether an ID has already been set in the RealEstateNFT contract for the IRO"
      },
      "commits": {
        "details": "mapping (iroId => user => commit)"
      },
      "realEstateId": {
        "details": "mapping (iroId => realEstateId)"
      },
      "whitelistedCurrency": {
        "details": "mapping (currencyAddress => WhitelistedCurrency)"
      }
    },
    "title": "Initial Real Estate Offering (IRO)",
    "version": 1
  },
  "userdoc": {
    "kind": "user",
    "methods": {
      "claim(uint256,address)": {
        "notice": "Claim purchased tokens when IRO successful or     get back commit amount in base currency if IRO failed"
      },
      "commit(uint256,address,uint256,uint256)": {
        "notice": "Commit to an IRO"
      },
      "denominator()": {
        "notice": "Denominator used for basis points divisions"
      },
      "expectedPrice(uint256,address,uint256)": {
        "notice": "Get the expected price of an IRO purchase (without slippage)Takes into account swap fees"
      },
      "finance()": {
        "notice": "Structure composed by the addresses     of contracts responsible for making financial operations"
      },
      "getIRO(uint256)": {
        "notice": "Get IRO"
      },
      "getStatus(uint256)": {
        "notice": "Get IRO status"
      },
      "iroLength()": {
        "notice": "Get total amount of IROs"
      },
      "listingOwnerClaim(uint256,address)": {
        "notice": "Claim listing owner tokens"
      },
      "now64()": {
        "notice": "Get current time (uint64)"
      },
      "priceWithSlippage(uint256,address,uint256,uint16)": {
        "notice": "Get the price with slippageTakes into account swap fees"
      },
      "realEstateNft()": {
        "notice": "RealEstateNFT contract address"
      },
      "realEstateReserves()": {
        "notice": "RealEstateReserves contract address"
      },
      "remainingTokens(uint256)": {
        "notice": "Get the amount of remaining IRO tokens"
      },
      "totalSupply(uint256)": {
        "notice": "Get the current total supply"
      },
      "totalSupplyInterval(uint256)": {
        "notice": "Get minimum and maximum supply"
      },
      "treasury()": {
        "notice": "Treasury contract address"
      },
      "withdraw(uint256)": {
        "notice": "Withdraw and distribute funds from successful IROs"
      }
    },
    "notice": "Used to run IROs, mint tokens to RealEstateNFT     and distribute funds",
    "version": 1
  },
  "storageLayout": {
    "storage": [
      {
        "astId": 1083,
        "contract": "contracts/protocol/InitialRealEstateOffering.sol:InitialRealEstateOffering",
        "label": "_initialized",
        "offset": 0,
        "slot": "0",
        "type": "t_uint8"
      },
      {
        "astId": 1086,
        "contract": "contracts/protocol/InitialRealEstateOffering.sol:InitialRealEstateOffering",
        "label": "_initializing",
        "offset": 1,
        "slot": "0",
        "type": "t_bool"
      },
      {
        "astId": 4033,
        "contract": "contracts/protocol/InitialRealEstateOffering.sol:InitialRealEstateOffering",
        "label": "__gap",
        "offset": 0,
        "slot": "1",
        "type": "t_array(t_uint256)50_storage"
      },
      {
        "astId": 541,
        "contract": "contracts/protocol/InitialRealEstateOffering.sol:InitialRealEstateOffering",
        "label": "_owner",
        "offset": 0,
        "slot": "51",
        "type": "t_address"
      },
      {
        "astId": 661,
        "contract": "contracts/protocol/InitialRealEstateOffering.sol:InitialRealEstateOffering",
        "label": "__gap",
        "offset": 0,
        "slot": "52",
        "type": "t_array(t_uint256)49_storage"
      },
      {
        "astId": 1065,
        "contract": "contracts/protocol/InitialRealEstateOffering.sol:InitialRealEstateOffering",
        "label": "__gap",
        "offset": 0,
        "slot": "101",
        "type": "t_array(t_uint256)50_storage"
      },
      {
        "astId": 1380,
        "contract": "contracts/protocol/InitialRealEstateOffering.sol:InitialRealEstateOffering",
        "label": "__gap",
        "offset": 0,
        "slot": "151",
        "type": "t_array(t_uint256)50_storage"
      },
      {
        "astId": 12722,
        "contract": "contracts/protocol/InitialRealEstateOffering.sol:InitialRealEstateOffering",
        "label": "treasury",
        "offset": 0,
        "slot": "201",
        "type": "t_address"
      },
      {
        "astId": 12726,
        "contract": "contracts/protocol/InitialRealEstateOffering.sol:InitialRealEstateOffering",
        "label": "realEstateNft",
        "offset": 0,
        "slot": "202",
        "type": "t_contract(IRealEstateERC1155)11244"
      },
      {
        "astId": 12730,
        "contract": "contracts/protocol/InitialRealEstateOffering.sol:InitialRealEstateOffering",
        "label": "realEstateReserves",
        "offset": 0,
        "slot": "203",
        "type": "t_contract(IRealEstateReserves)11256"
      },
      {
        "astId": 12734,
        "contract": "contracts/protocol/InitialRealEstateOffering.sol:InitialRealEstateOffering",
        "label": "finance",
        "offset": 0,
        "slot": "204",
        "type": "t_struct(Finance)11310_storage"
      },
      {
        "astId": 12738,
        "contract": "contracts/protocol/InitialRealEstateOffering.sol:InitialRealEstateOffering",
        "label": "_nextAvailableId",
        "offset": 0,
        "slot": "207",
        "type": "t_struct(Counter)4040_storage"
      },
      {
        "astId": 12744,
        "contract": "contracts/protocol/InitialRealEstateOffering.sol:InitialRealEstateOffering",
        "label": "_iros",
        "offset": 0,
        "slot": "208",
        "type": "t_mapping(t_uint256,t_struct(IRO)12713_storage)"
      },
      {
        "astId": 12751,
        "contract": "contracts/protocol/InitialRealEstateOffering.sol:InitialRealEstateOffering",
        "label": "commits",
        "offset": 0,
        "slot": "209",
        "type": "t_mapping(t_uint256,t_mapping(t_address,t_uint256))"
      },
      {
        "astId": 12756,
        "contract": "contracts/protocol/InitialRealEstateOffering.sol:InitialRealEstateOffering",
        "label": "realEstateId",
        "offset": 0,
        "slot": "210",
        "type": "t_mapping(t_uint256,t_uint256)"
      },
      {
        "astId": 12762,
        "contract": "contracts/protocol/InitialRealEstateOffering.sol:InitialRealEstateOffering",
        "label": "whitelistedCurrency",
        "offset": 0,
        "slot": "211",
        "type": "t_mapping(t_address,t_struct(WhitelistedCurrency)12719_storage)"
      },
      {
        "astId": 12766,
        "contract": "contracts/protocol/InitialRealEstateOffering.sol:InitialRealEstateOffering",
        "label": "_fundsWithdrawn",
        "offset": 0,
        "slot": "212",
        "type": "t_struct(BitMap)5272_storage"
      },
      {
        "astId": 12770,
        "contract": "contracts/protocol/InitialRealEstateOffering.sol:InitialRealEstateOffering",
        "label": "_listingOwnerClaimed",
        "offset": 0,
        "slot": "213",
        "type": "t_struct(BitMap)5272_storage"
      },
      {
        "astId": 12774,
        "contract": "contracts/protocol/InitialRealEstateOffering.sol:InitialRealEstateOffering",
        "label": "_realEstateIdSet",
        "offset": 0,
        "slot": "214",
        "type": "t_struct(BitMap)5272_storage"
      }
    ],
    "types": {
      "t_address": {
        "encoding": "inplace",
        "label": "address",
        "numberOfBytes": "20"
      },
      "t_array(t_address)dyn_storage": {
        "base": "t_address",
        "encoding": "dynamic_array",
        "label": "address[]",
        "numberOfBytes": "32"
      },
      "t_array(t_uint256)49_storage": {
        "base": "t_uint256",
        "encoding": "inplace",
        "label": "uint256[49]",
        "numberOfBytes": "1568"
      },
      "t_array(t_uint256)50_storage": {
        "base": "t_uint256",
        "encoding": "inplace",
        "label": "uint256[50]",
        "numberOfBytes": "1600"
      },
      "t_bool": {
        "encoding": "inplace",
        "label": "bool",
        "numberOfBytes": "1"
      },
      "t_contract(IPriceOracle)11200": {
        "encoding": "inplace",
        "label": "contract IPriceOracle",
        "numberOfBytes": "20"
      },
      "t_contract(IRealEstateERC1155)11244": {
        "encoding": "inplace",
        "label": "contract IRealEstateERC1155",
        "numberOfBytes": "20"
      },
      "t_contract(IRealEstateReserves)11256": {
        "encoding": "inplace",
        "label": "contract IRealEstateReserves",
        "numberOfBytes": "20"
      },
      "t_contract(IUniswapV2Router01)11114": {
        "encoding": "inplace",
        "label": "contract IUniswapV2Router01",
        "numberOfBytes": "20"
      },
      "t_mapping(t_address,t_struct(WhitelistedCurrency)12719_storage)": {
        "encoding": "mapping",
        "key": "t_address",
        "label": "mapping(address => struct InitialRealEstateOffering.WhitelistedCurrency)",
        "numberOfBytes": "32",
        "value": "t_struct(WhitelistedCurrency)12719_storage"
      },
      "t_mapping(t_address,t_uint256)": {
        "encoding": "mapping",
        "key": "t_address",
        "label": "mapping(address => uint256)",
        "numberOfBytes": "32",
        "value": "t_uint256"
      },
      "t_mapping(t_uint256,t_mapping(t_address,t_uint256))": {
        "encoding": "mapping",
        "key": "t_uint256",
        "label": "mapping(uint256 => mapping(address => uint256))",
        "numberOfBytes": "32",
        "value": "t_mapping(t_address,t_uint256)"
      },
      "t_mapping(t_uint256,t_struct(IRO)12713_storage)": {
        "encoding": "mapping",
        "key": "t_uint256",
        "label": "mapping(uint256 => struct InitialRealEstateOffering.IRO)",
        "numberOfBytes": "32",
        "value": "t_struct(IRO)12713_storage"
      },
      "t_mapping(t_uint256,t_uint256)": {
        "encoding": "mapping",
        "key": "t_uint256",
        "label": "mapping(uint256 => uint256)",
        "numberOfBytes": "32",
        "value": "t_uint256"
      },
      "t_struct(BitMap)5272_storage": {
        "encoding": "inplace",
        "label": "struct BitMapsUpgradeable.BitMap",
        "members": [
          {
            "astId": 5271,
            "contract": "contracts/protocol/InitialRealEstateOffering.sol:InitialRealEstateOffering",
            "label": "_data",
            "offset": 0,
            "slot": "0",
            "type": "t_mapping(t_uint256,t_uint256)"
          }
        ],
        "numberOfBytes": "32"
      },
      "t_struct(Counter)4040_storage": {
        "encoding": "inplace",
        "label": "struct CountersUpgradeable.Counter",
        "members": [
          {
            "astId": 4039,
            "contract": "contracts/protocol/InitialRealEstateOffering.sol:InitialRealEstateOffering",
            "label": "_value",
            "offset": 0,
            "slot": "0",
            "type": "t_uint256"
          }
        ],
        "numberOfBytes": "32"
      },
      "t_struct(Finance)11310_storage": {
        "encoding": "inplace",
        "label": "struct IROFinance.Finance",
        "members": [
          {
            "astId": 11304,
            "contract": "contracts/protocol/InitialRealEstateOffering.sol:InitialRealEstateOffering",
            "label": "swapRouter",
            "offset": 0,
            "slot": "0",
            "type": "t_contract(IUniswapV2Router01)11114"
          },
          {
            "astId": 11307,
            "contract": "contracts/protocol/InitialRealEstateOffering.sol:InitialRealEstateOffering",
            "label": "priceOracle",
            "offset": 0,
            "slot": "1",
            "type": "t_contract(IPriceOracle)11200"
          },
          {
            "astId": 11309,
            "contract": "contracts/protocol/InitialRealEstateOffering.sol:InitialRealEstateOffering",
            "label": "baseCurrency",
            "offset": 0,
            "slot": "2",
            "type": "t_address"
          }
        ],
        "numberOfBytes": "96"
      },
      "t_struct(IRO)12713_storage": {
        "encoding": "inplace",
        "label": "struct InitialRealEstateOffering.IRO",
        "members": [
          {
            "astId": 12692,
            "contract": "contracts/protocol/InitialRealEstateOffering.sol:InitialRealEstateOffering",
            "label": "listingOwner",
            "offset": 0,
            "slot": "0",
            "type": "t_address"
          },
          {
            "astId": 12694,
            "contract": "contracts/protocol/InitialRealEstateOffering.sol:InitialRealEstateOffering",
            "label": "start",
            "offset": 20,
            "slot": "0",
            "type": "t_uint64"
          },
          {
            "astId": 12696,
            "contract": "contracts/protocol/InitialRealEstateOffering.sol:InitialRealEstateOffering",
            "label": "treasuryFee",
            "offset": 28,
            "slot": "0",
            "type": "t_uint16"
          },
          {
            "astId": 12698,
            "contract": "contracts/protocol/InitialRealEstateOffering.sol:InitialRealEstateOffering",
            "label": "listingOwnerFee",
            "offset": 30,
            "slot": "0",
            "type": "t_uint16"
          },
          {
            "astId": 12700,
            "contract": "contracts/protocol/InitialRealEstateOffering.sol:InitialRealEstateOffering",
            "label": "listingOwnerShare",
            "offset": 0,
            "slot": "1",
            "type": "t_uint16"
          },
          {
            "astId": 12702,
            "contract": "contracts/protocol/InitialRealEstateOffering.sol:InitialRealEstateOffering",
            "label": "end",
            "offset": 2,
            "slot": "1",
            "type": "t_uint64"
          },
          {
            "astId": 12704,
            "contract": "contracts/protocol/InitialRealEstateOffering.sol:InitialRealEstateOffering",
            "label": "softCap",
            "offset": 0,
            "slot": "2",
            "type": "t_uint256"
          },
          {
            "astId": 12706,
            "contract": "contracts/protocol/InitialRealEstateOffering.sol:InitialRealEstateOffering",
            "label": "hardCap",
            "offset": 0,
            "slot": "3",
            "type": "t_uint256"
          },
          {
            "astId": 12708,
            "contract": "contracts/protocol/InitialRealEstateOffering.sol:InitialRealEstateOffering",
            "label": "unitPrice",
            "offset": 0,
            "slot": "4",
            "type": "t_uint256"
          },
          {
            "astId": 12710,
            "contract": "contracts/protocol/InitialRealEstateOffering.sol:InitialRealEstateOffering",
            "label": "totalFunding",
            "offset": 0,
            "slot": "5",
            "type": "t_uint256"
          },
          {
            "astId": 12712,
            "contract": "contracts/protocol/InitialRealEstateOffering.sol:InitialRealEstateOffering",
            "label": "baseCurrency",
            "offset": 0,
            "slot": "6",
            "type": "t_address"
          }
        ],
        "numberOfBytes": "224"
      },
      "t_struct(WhitelistedCurrency)12719_storage": {
        "encoding": "inplace",
        "label": "struct InitialRealEstateOffering.WhitelistedCurrency",
        "members": [
          {
            "astId": 12715,
            "contract": "contracts/protocol/InitialRealEstateOffering.sol:InitialRealEstateOffering",
            "label": "whitelisted",
            "offset": 0,
            "slot": "0",
            "type": "t_bool"
          },
          {
            "astId": 12718,
            "contract": "contracts/protocol/InitialRealEstateOffering.sol:InitialRealEstateOffering",
            "label": "relativePath",
            "offset": 0,
            "slot": "1",
            "type": "t_array(t_address)dyn_storage"
          }
        ],
        "numberOfBytes": "64"
      },
      "t_uint16": {
        "encoding": "inplace",
        "label": "uint16",
        "numberOfBytes": "2"
      },
      "t_uint256": {
        "encoding": "inplace",
        "label": "uint256",
        "numberOfBytes": "32"
      },
      "t_uint64": {
        "encoding": "inplace",
        "label": "uint64",
        "numberOfBytes": "8"
      },
      "t_uint8": {
        "encoding": "inplace",
        "label": "uint8",
        "numberOfBytes": "1"
      }
    }
  }
}