{
  "address": "0xA26DB382365cE1AeFa13728f5cFA049F96a01f2E",
  "abi": [
    {
      "anonymous": false,
      "inputs": [
        {
          "indexed": false,
          "internalType": "address",
          "name": "previousAdmin",
          "type": "address"
        },
        {
          "indexed": false,
          "internalType": "address",
          "name": "newAdmin",
          "type": "address"
        }
      ],
      "name": "AdminChanged",
      "type": "event"
    },
    {
      "anonymous": false,
      "inputs": [
        {
          "indexed": true,
          "internalType": "address",
          "name": "beacon",
          "type": "address"
        }
      ],
      "name": "BeaconUpgraded",
      "type": "event"
    },
    {
      "anonymous": false,
      "inputs": [
        {
          "indexed": true,
          "internalType": "uint256",
          "name": "_iroId",
          "type": "uint256"
        },
        {
          "indexed": true,
          "internalType": "address",
          "name": "_by",
          "type": "address"
        },
        {
          "indexed": true,
          "internalType": "address",
          "name": "_to",
          "type": "address"
        },
        {
          "indexed": false,
          "internalType": "uint256",
          "name": "_commitAmount",
          "type": "uint256"
        }
      ],
      "name": "CashBack",
      "type": "event"
    },
    {
      "anonymous": false,
      "inputs": [
        {
          "indexed": true,
          "internalType": "uint256",
          "name": "_iroId",
          "type": "uint256"
        },
        {
          "indexed": true,
          "internalType": "address",
          "name": "_user",
          "type": "address"
        },
        {
          "indexed": true,
          "internalType": "address",
          "name": "_currency",
          "type": "address"
        },
        {
          "indexed": false,
          "internalType": "uint256",
          "name": "_value",
          "type": "uint256"
        },
        {
          "indexed": false,
          "internalType": "uint256",
          "name": "_purchasedAmount",
          "type": "uint256"
        }
      ],
      "name": "Commit",
      "type": "event"
    },
    {
      "anonymous": false,
      "inputs": [
        {
          "indexed": true,
          "internalType": "uint256",
          "name": "_iroId",
          "type": "uint256"
        },
        {
          "indexed": true,
          "internalType": "address",
          "name": "_listingOwner",
          "type": "address"
        },
        {
          "indexed": true,
          "internalType": "address",
          "name": "_currency",
          "type": "address"
        },
        {
          "indexed": false,
          "internalType": "uint64",
          "name": "_start",
          "type": "uint64"
        },
        {
          "indexed": false,
          "internalType": "uint64",
          "name": "_end",
          "type": "uint64"
        },
        {
          "indexed": false,
          "internalType": "uint256",
          "name": "_unitPrice",
          "type": "uint256"
        },
        {
          "indexed": false,
          "internalType": "uint256",
          "name": "_targetFunding",
          "type": "uint256"
        }
      ],
      "name": "CreateIRO",
      "type": "event"
    },
    {
      "anonymous": false,
      "inputs": [
        {
          "indexed": true,
          "internalType": "uint256",
          "name": "_iroId",
          "type": "uint256"
        },
        {
          "indexed": true,
          "internalType": "address",
          "name": "_by",
          "type": "address"
        },
        {
          "indexed": false,
          "internalType": "uint256",
          "name": "_listingOwnerAmount",
          "type": "uint256"
        },
        {
          "indexed": false,
          "internalType": "uint256",
          "name": "_treasuryFee",
          "type": "uint256"
        },
        {
          "indexed": false,
          "internalType": "uint256",
          "name": "_operationFee",
          "type": "uint256"
        }
      ],
      "name": "FundsWithdrawn",
      "type": "event"
    },
    {
      "anonymous": false,
      "inputs": [
        {
          "indexed": false,
          "internalType": "uint8",
          "name": "version",
          "type": "uint8"
        }
      ],
      "name": "Initialized",
      "type": "event"
    },
    {
      "anonymous": false,
      "inputs": [
        {
          "indexed": true,
          "internalType": "address",
          "name": "previousOwner",
          "type": "address"
        },
        {
          "indexed": true,
          "internalType": "address",
          "name": "newOwner",
          "type": "address"
        }
      ],
      "name": "OwnershipTransferred",
      "type": "event"
    },
    {
      "anonymous": false,
      "inputs": [
        {
          "indexed": true,
          "internalType": "uint256",
          "name": "_iroId",
          "type": "uint256"
        },
        {
          "indexed": true,
          "internalType": "uint256",
          "name": "_realEstateId",
          "type": "uint256"
        }
      ],
      "name": "RealEstateCreated",
      "type": "event"
    },
    {
      "anonymous": false,
      "inputs": [
        {
          "indexed": true,
          "internalType": "address",
          "name": "_by",
          "type": "address"
        },
        {
          "indexed": true,
          "internalType": "address",
          "name": "_currency",
          "type": "address"
        }
      ],
      "name": "SetBaseCurrency",
      "type": "event"
    },
    {
      "anonymous": false,
      "inputs": [
        {
          "indexed": true,
          "internalType": "address",
          "name": "_by",
          "type": "address"
        },
        {
          "indexed": true,
          "internalType": "address",
          "name": "_treasury",
          "type": "address"
        }
      ],
      "name": "SetTreasury",
      "type": "event"
    },
    {
      "anonymous": false,
      "inputs": [
        {
          "indexed": true,
          "internalType": "uint256",
          "name": "_iroId",
          "type": "uint256"
        },
        {
          "indexed": true,
          "internalType": "address",
          "name": "_by",
          "type": "address"
        },
        {
          "indexed": true,
          "internalType": "address",
          "name": "_to",
          "type": "address"
        },
        {
          "indexed": false,
          "internalType": "uint256",
          "name": "_amount",
          "type": "uint256"
        }
      ],
      "name": "TokensClaimed",
      "type": "event"
    },
    {
      "anonymous": false,
      "inputs": [
        {
          "indexed": true,
          "internalType": "address",
          "name": "implementation",
          "type": "address"
        }
      ],
      "name": "Upgraded",
      "type": "event"
    },
    {
      "inputs": [],
      "name": "DENOMINATOR",
      "outputs": [
        {
          "internalType": "uint16",
          "name": "",
          "type": "uint16"
        }
      ],
      "stateMutability": "view",
      "type": "function"
    },
    {
      "inputs": [
        {
          "internalType": "uint256",
          "name": "_iroId",
          "type": "uint256"
        },
        {
          "internalType": "address",
          "name": "_to",
          "type": "address"
        }
      ],
      "name": "claim",
      "outputs": [],
      "stateMutability": "nonpayable",
      "type": "function"
    },
    {
      "inputs": [
        {
          "internalType": "uint256",
          "name": "_iroId",
          "type": "uint256"
        },
        {
          "internalType": "uint256",
          "name": "_amountToPurchase",
          "type": "uint256"
        }
      ],
      "name": "commit",
      "outputs": [],
      "stateMutability": "nonpayable",
      "type": "function"
    },
    {
      "inputs": [
        {
          "internalType": "uint256",
          "name": "",
          "type": "uint256"
        },
        {
          "internalType": "address",
          "name": "",
          "type": "address"
        }
      ],
      "name": "commits",
      "outputs": [
        {
          "internalType": "uint256",
          "name": "",
          "type": "uint256"
        }
      ],
      "stateMutability": "view",
      "type": "function"
    },
    {
      "inputs": [
        {
          "internalType": "address",
          "name": "_listingOwner",
          "type": "address"
        },
        {
          "internalType": "uint256",
          "name": "_treasuryFee",
          "type": "uint256"
        },
        {
          "internalType": "uint256",
          "name": "_operationFee",
          "type": "uint256"
        },
        {
          "internalType": "uint64",
          "name": "_duration",
          "type": "uint64"
        },
        {
          "internalType": "uint256",
          "name": "_assetPrice",
          "type": "uint256"
        },
        {
          "internalType": "uint256",
          "name": "_unitPrice",
          "type": "uint256"
        },
        {
          "internalType": "uint64",
          "name": "_startOffset",
          "type": "uint64"
        }
      ],
      "name": "createIRO",
      "outputs": [],
      "stateMutability": "nonpayable",
      "type": "function"
    },
    {
      "inputs": [],
      "name": "currency",
      "outputs": [
        {
          "internalType": "address",
          "name": "",
          "type": "address"
        }
      ],
      "stateMutability": "view",
      "type": "function"
    },
    {
      "inputs": [
        {
          "internalType": "uint256",
          "name": "_iroId",
          "type": "uint256"
        }
      ],
      "name": "currentTotalSupply",
      "outputs": [
        {
          "internalType": "uint256",
          "name": "",
          "type": "uint256"
        }
      ],
      "stateMutability": "view",
      "type": "function"
    },
    {
      "inputs": [
        {
          "internalType": "uint256",
          "name": "_iroId",
          "type": "uint256"
        }
      ],
      "name": "expectedTotalSupply",
      "outputs": [
        {
          "internalType": "uint256",
          "name": "expectedTotalSupply_",
          "type": "uint256"
        }
      ],
      "stateMutability": "view",
      "type": "function"
    },
    {
      "inputs": [
        {
          "internalType": "uint256",
          "name": "_iroId",
          "type": "uint256"
        }
      ],
      "name": "getIRO",
      "outputs": [
        {
          "components": [
            {
              "internalType": "address",
              "name": "listingOwner",
              "type": "address"
            },
            {
              "internalType": "uint64",
              "name": "start",
              "type": "uint64"
            },
            {
              "internalType": "uint64",
              "name": "end",
              "type": "uint64"
            },
            {
              "internalType": "address",
              "name": "currency",
              "type": "address"
            },
            {
              "internalType": "uint256",
              "name": "treasuryFee",
              "type": "uint256"
            },
            {
              "internalType": "uint256",
              "name": "operationFee",
              "type": "uint256"
            },
            {
              "internalType": "uint256",
              "name": "targetFunding",
              "type": "uint256"
            },
            {
              "internalType": "uint256",
              "name": "unitPrice",
              "type": "uint256"
            },
            {
              "internalType": "uint256",
              "name": "totalFunding",
              "type": "uint256"
            }
          ],
          "internalType": "struct InitialRealEstateOffering.IRO",
          "name": "",
          "type": "tuple"
        }
      ],
      "stateMutability": "view",
      "type": "function"
    },
    {
      "inputs": [
        {
          "internalType": "uint256",
          "name": "_iroId",
          "type": "uint256"
        }
      ],
      "name": "getStatus",
      "outputs": [
        {
          "internalType": "enum InitialRealEstateOffering.Status",
          "name": "",
          "type": "uint8"
        }
      ],
      "stateMutability": "view",
      "type": "function"
    },
    {
      "inputs": [
        {
          "internalType": "address",
          "name": "_owner",
          "type": "address"
        },
        {
          "internalType": "address",
          "name": "_realEstateNft",
          "type": "address"
        },
        {
          "internalType": "address",
          "name": "_treasury",
          "type": "address"
        },
        {
          "internalType": "address",
          "name": "_currency",
          "type": "address"
        }
      ],
      "name": "initialize",
      "outputs": [],
      "stateMutability": "nonpayable",
      "type": "function"
    },
    {
      "inputs": [],
      "name": "iroLength",
      "outputs": [
        {
          "internalType": "uint256",
          "name": "",
          "type": "uint256"
        }
      ],
      "stateMutability": "view",
      "type": "function"
    },
    {
      "inputs": [],
      "name": "now64",
      "outputs": [
        {
          "internalType": "uint64",
          "name": "",
          "type": "uint64"
        }
      ],
      "stateMutability": "view",
      "type": "function"
    },
    {
      "inputs": [],
      "name": "owner",
      "outputs": [
        {
          "internalType": "address",
          "name": "",
          "type": "address"
        }
      ],
      "stateMutability": "view",
      "type": "function"
    },
    {
      "inputs": [
        {
          "internalType": "uint256",
          "name": "_iroId",
          "type": "uint256"
        },
        {
          "internalType": "uint256",
          "name": "_amountToPurchase",
          "type": "uint256"
        }
      ],
      "name": "price",
      "outputs": [
        {
          "internalType": "uint256",
          "name": "",
          "type": "uint256"
        }
      ],
      "stateMutability": "view",
      "type": "function"
    },
    {
      "inputs": [],
      "name": "proxiableUUID",
      "outputs": [
        {
          "internalType": "bytes32",
          "name": "",
          "type": "bytes32"
        }
      ],
      "stateMutability": "view",
      "type": "function"
    },
    {
      "inputs": [
        {
          "internalType": "uint256",
          "name": "",
          "type": "uint256"
        }
      ],
      "name": "realEstateId",
      "outputs": [
        {
          "internalType": "uint256",
          "name": "",
          "type": "uint256"
        }
      ],
      "stateMutability": "view",
      "type": "function"
    },
    {
      "inputs": [],
      "name": "realEstateNft",
      "outputs": [
        {
          "internalType": "contract IRealEstateERC1155",
          "name": "",
          "type": "address"
        }
      ],
      "stateMutability": "view",
      "type": "function"
    },
    {
      "inputs": [
        {
          "internalType": "uint256",
          "name": "_iroId",
          "type": "uint256"
        }
      ],
      "name": "remainingTokens",
      "outputs": [
        {
          "internalType": "uint256",
          "name": "",
          "type": "uint256"
        }
      ],
      "stateMutability": "view",
      "type": "function"
    },
    {
      "inputs": [],
      "name": "renounceOwnership",
      "outputs": [],
      "stateMutability": "nonpayable",
      "type": "function"
    },
    {
      "inputs": [
        {
          "internalType": "address",
          "name": "_currency",
          "type": "address"
        }
      ],
      "name": "setCurrency",
      "outputs": [],
      "stateMutability": "nonpayable",
      "type": "function"
    },
    {
      "inputs": [
        {
          "internalType": "address",
          "name": "_treasury",
          "type": "address"
        }
      ],
      "name": "setTreasury",
      "outputs": [],
      "stateMutability": "nonpayable",
      "type": "function"
    },
    {
      "inputs": [
        {
          "internalType": "uint256",
          "name": "_iroId",
          "type": "uint256"
        }
      ],
      "name": "targetCapInfo",
      "outputs": [
        {
          "internalType": "uint256",
          "name": "assetPrice",
          "type": "uint256"
        },
        {
          "internalType": "uint256",
          "name": "treasuryFee",
          "type": "uint256"
        },
        {
          "internalType": "uint256",
          "name": "operationFee",
          "type": "uint256"
        },
        {
          "internalType": "uint16",
          "name": "treasuryFeeBps",
          "type": "uint16"
        },
        {
          "internalType": "uint16",
          "name": "operationFeeBps",
          "type": "uint16"
        }
      ],
      "stateMutability": "view",
      "type": "function"
    },
    {
      "inputs": [
        {
          "internalType": "address",
          "name": "newOwner",
          "type": "address"
        }
      ],
      "name": "transferOwnership",
      "outputs": [],
      "stateMutability": "nonpayable",
      "type": "function"
    },
    {
      "inputs": [],
      "name": "treasury",
      "outputs": [
        {
          "internalType": "address",
          "name": "",
          "type": "address"
        }
      ],
      "stateMutability": "view",
      "type": "function"
    },
    {
      "inputs": [
        {
          "internalType": "address",
          "name": "newImplementation",
          "type": "address"
        }
      ],
      "name": "upgradeTo",
      "outputs": [],
      "stateMutability": "nonpayable",
      "type": "function"
    },
    {
      "inputs": [
        {
          "internalType": "address",
          "name": "newImplementation",
          "type": "address"
        },
        {
          "internalType": "bytes",
          "name": "data",
          "type": "bytes"
        }
      ],
      "name": "upgradeToAndCall",
      "outputs": [],
      "stateMutability": "payable",
      "type": "function"
    },
    {
      "inputs": [
        {
          "internalType": "uint256",
          "name": "_iroId",
          "type": "uint256"
        },
        {
          "internalType": "address",
          "name": "_user",
          "type": "address"
        }
      ],
      "name": "userAmountAndShare",
      "outputs": [
        {
          "internalType": "uint256",
          "name": "amount",
          "type": "uint256"
        },
        {
          "internalType": "uint16",
          "name": "share",
          "type": "uint16"
        }
      ],
      "stateMutability": "view",
      "type": "function"
    },
    {
      "inputs": [
        {
          "internalType": "uint256",
          "name": "_iroId",
          "type": "uint256"
        }
      ],
      "name": "withdraw",
      "outputs": [],
      "stateMutability": "nonpayable",
      "type": "function"
    },
    {
      "stateMutability": "payable",
      "type": "receive"
    }
  ],
  "transactionHash": "0x554369efe6442101070f72cfc9c7dbf23e35b64c799f0d7e9905011a09ae9b5b",
  "args": [],
  "numDeployments": 1,
  "solcInputHash": "97d4adaeb3d7f2a220adeba92fbea518",
  "bytecode": "0x60a06040523060805234801561001457600080fd5b5060805161278761004c60003960008181610847015281816108870152818161094e0152818161098e0152610a2101526127876000f3fe6080604052600436106101c65760003560e01c806372a1e7f6116100f7578063ddd5e1b211610095578063ef217dbd11610064578063ef217dbd1461058d578063f0f44260146105a2578063f2fde38b146105c2578063f8c8765e146105e257600080fd5b8063ddd5e1b214610509578063de9ee90b14610529578063e5a6b10f1461054d578063e915c5591461056d57600080fd5b8063918f8674116100d1578063918f86741461042c5780639a19b73b14610455578063ad91203b14610482578063b276fd4f146104ba57600080fd5b806372a1e7f6146103b6578063885d68a8146103d65780638da5cb5b1461040e57600080fd5b806352d1902d11610164578063606b77db1161013e578063606b77db1461031c57806361d027b314610349578063628f231d14610381578063715018a6146103a157600080fd5b806352d1902d146102ba5780635bf56bc4146102cf5780635c622a0e146102ef57600080fd5b80632f84c391116101a05780632f84c391146102475780633659cfe614610267578063487a2395146102875780634f1ef286146102a757600080fd5b8063171ee95a146101d25780632c82bede146102055780632e1a7d4d1461022557600080fd5b366101cd57005b600080fd5b3480156101de57600080fd5b506101f26101ed36600461220f565b610602565b6040519081526020015b60405180910390f35b34801561021157600080fd5b506101f261022036600461220f565b61063b565b34801561023157600080fd5b5061024561024036600461220f565b61065b565b005b34801561025357600080fd5b5061024561026236600461223f565b6107a6565b34801561027357600080fd5b5061024561028236600461223f565b61083d565b34801561029357600080fd5b506101f26102a236600461225a565b61091c565b6102456102b5366004612292565b610944565b3480156102c657600080fd5b506101f2610a14565b3480156102db57600080fd5b506102456102ea36600461225a565b610ac7565b3480156102fb57600080fd5b5061030f61030a36600461220f565b610cc4565b6040516101fc9190612369565b34801561032857600080fd5b506101f261033736600461220f565b60cf6020526000908152604090205481565b34801561035557600080fd5b5060ca54610369906001600160a01b031681565b6040516001600160a01b0390911681526020016101fc565b34801561038d57600080fd5b5061024561039c3660046123a8565b610d61565b3480156103ad57600080fd5b5061024561101e565b3480156103c257600080fd5b506101f26103d136600461220f565b611032565b3480156103e257600080fd5b506101f26103f1366004612412565b60ce60209081526000928352604080842090915290825290205481565b34801561041a57600080fd5b506033546001600160a01b0316610369565b34801561043857600080fd5b5061044261271081565b60405161ffff90911681526020016101fc565b34801561046157600080fd5b5061047561047036600461220f565b611053565b6040516101fc919061243e565b34801561048e57600080fd5b506104a261049d366004612412565b6111ab565b6040805192835261ffff9091166020830152016101fc565b3480156104c657600080fd5b506104da6104d536600461220f565b611225565b6040805195865260208601949094529284019190915261ffff908116606084015216608082015260a0016101fc565b34801561051557600080fd5b50610245610524366004612412565b61131b565b34801561053557600080fd5b506040516001600160401b03421681526020016101fc565b34801561055957600080fd5b5060c954610369906001600160a01b031681565b34801561057957600080fd5b5060cb54610369906001600160a01b031681565b34801561059957600080fd5b506101f261155f565b3480156105ae57600080fd5b506102456105bd36600461223f565b61156f565b3480156105ce57600080fd5b506102456105dd36600461223f565b611606565b3480156105ee57600080fd5b506102456105fd3660046124d4565b61167c565b60008061060e83611053565b90508060e001518161010001518260c0015161062a919061253e565b6106349190612551565b9392505050565b60008061064783611053565b90506106348160c001518260e0015161189c565b600061066682611053565b90506002610673826118a8565b600381111561068457610684612353565b146106cb5760405162461bcd60e51b8152602060048201526012602482015271125493c81b9bdd081cdd58d8d95cdcd99d5b60721b60448201526064015b60405180910390fd5b600882901c600090815260d06020526040902054600160ff84161b16156107285760405162461bcd60e51b815260206004820152601160248201527020b63932b0b23c903bb4ba34323930bbb760791b60448201526064016106c2565b600061073382611935565b600884901c600090815260d0602052604090208054600160ff87161b1790559050608082015160a0830151604080518481526020810193909352820152339084907f3d6a11453aa9d57866fab68b0aef74499ad1075b4f99ccbfbd7796cb3352991f9060600160405180910390a3505050565b6107ae6119a6565b6001600160a01b0381166107f15760405162461bcd60e51b815260206004820152600a602482015269215f63757272656e637960b01b60448201526064016106c2565b60c980546001600160a01b0319166001600160a01b03831690811790915560405133907f6dde2141be69fabcd84e3864d206ba0f3f2d507125fb2703899c87de4c585d5f90600090a350565b6001600160a01b037f00000000000000000000000000000000000000000000000000000000000000001630036108855760405162461bcd60e51b81526004016106c290612573565b7f00000000000000000000000000000000000000000000000000000000000000006001600160a01b03166108ce60008051602061270b833981519152546001600160a01b031690565b6001600160a01b0316146108f45760405162461bcd60e51b81526004016106c2906125bf565b6108fd81611a00565b6040805160008082526020820190925261091991839190611a08565b50565b60008061092884611053565b90508060e001518361093a919061260b565b9150505b92915050565b6001600160a01b037f000000000000000000000000000000000000000000000000000000000000000016300361098c5760405162461bcd60e51b81526004016106c290612573565b7f00000000000000000000000000000000000000000000000000000000000000006001600160a01b03166109d560008051602061270b833981519152546001600160a01b031690565b6001600160a01b0316146109fb5760405162461bcd60e51b81526004016106c2906125bf565b610a0482611a00565b610a1082826001611a08565b5050565b6000306001600160a01b037f00000000000000000000000000000000000000000000000000000000000000001614610ab45760405162461bcd60e51b815260206004820152603860248201527f555550535570677261646561626c653a206d757374206e6f742062652063616c60448201527f6c6564207468726f7567682064656c656761746563616c6c000000000000000060648201526084016106c2565b5060008051602061270b83398151915290565b60008111610b2d5760405162461bcd60e51b815260206004820152602d60248201527f5f616d6f756e74546f50757263686173652073686f756c64206265206772656160448201526c746572207468616e207a65726f60981b60648201526084016106c2565b6000610b3883611053565b90506001610b45826118a8565b6003811115610b5657610b56612353565b14610b975760405162461bcd60e51b815260206004820152601160248201527049524f206973206e6f742061637469766560781b60448201526064016106c2565b60c081015160e0820151610bab908461260b565b826101000151610bbb9190612622565b1115610c025760405162461bcd60e51b815260206004820152601660248201527515185c99d95d08199d5b991a5b99c81c995858da195960521b60448201526064016106c2565b6000610c178260e00151848460600151611b78565b600085815260ce60209081526040808320338452909152812080549293508392909190610c45908490612622565b9091555050600084815260cd602052604081206006018054839290610c6b908490612622565b9091555050606082015160408051838152602081018690526001600160a01b0390921691339187917f5a85eb554fd8d84f35068dd70b72c3eade7b5cd89deb5cd10d936626411beaa4910160405180910390a450505050565b600081815260cd6020908152604080832081516101208101835281546001600160a01b038082168352600160a01b9091046001600160401b0390811695830195909552600183015494851693820193909352600160401b909304909116606083015260028101546080830152600381015460a0830152600481015460c0830152600581015460e083015260060154610100820152610634816118a8565b610d696119a6565b600086610d768786612622565b610d809190612622565b90508083610d8e8183612551565b610d98919061260b565b14610dfe5760405162461bcd60e51b815260206004820152603060248201527f5461726765742066756e64696e672073686f756c64206265206469766973696260448201526f6c6520627920756e697420707269636560801b60648201526084016106c2565b6000610e0861155f565b90506000610e168442612635565b90506000610e248883612635565b90506040518061012001604052808c6001600160a01b03168152602001836001600160401b03168152602001826001600160401b0316815260200160c960009054906101000a90046001600160a01b03166001600160a01b031681526020018b81526020018a8152602001858152602001878152602001600081525060cd600085815260200190815260200160002060008201518160000160006101000a8154816001600160a01b0302191690836001600160a01b0316021790555060208201518160000160146101000a8154816001600160401b0302191690836001600160401b0316021790555060408201518160010160006101000a8154816001600160401b0302191690836001600160401b0316021790555060608201518160010160086101000a8154816001600160a01b0302191690836001600160a01b031602179055506080820151816002015560a0820151816003015560c0820151816004015560e082015181600501556101008201518160060155905050610fab60cc80546001019055565b60c954604080516001600160401b03808616825284166020820152908101889052606081018690526001600160a01b03918216918d169085907fd0622d7bdced1f77b9f903421ce8ffc86f86176fec95befdad41d820ac23f3719060800160405180910390a45050505050505050505050565b6110266119a6565b6110306000611b9b565b565b60008061103e83611053565b90506106348161010001518260e0015161189c565b6110c660405180610120016040528060006001600160a01b0316815260200160006001600160401b0316815260200160006001600160401b0316815260200160006001600160a01b0316815260200160008152602001600081526020016000815260200160008152602001600081525090565b6110ce61155f565b82106111135760405162461bcd60e51b81526020600482015260146024820152735f69726f4964206f75742d6f662d626f756e647360601b60448201526064016106c2565b50600090815260cd602090815260409182902082516101208101845281546001600160a01b0380821683526001600160401b03600160a01b909204821694830194909452600183015490811694820194909452600160401b909304909116606083015260028101546080830152600381015460a0830152600481015460c0830152600581015460e08301526006015461010082015290565b60008060006111b985611053565b600086815260ce602090815260408083206001600160a01b038916845290915290205460e0820151919250906111ef9082612551565b93506112048261010001518360e0015161189c565b6112106127108661260b565b61121a9190612551565b925050509250929050565b600081815260cd6020908152604080832081516101208101835281546001600160a01b0380821683526001600160401b03600160a01b909204821695830195909552600183015490811693820193909352600160401b9092049092166060820152600282015460808201819052600383015460a08301819052600484015460c0840152600584015460e08401526006909301546101008301529190839081906112ce8486612622565b8160c001516112dd919061253e565b9550856112ec6127108761260b565b6112f69190612551565b9250856113056127108661260b565b61130f9190612551565b91505091939590929450565b600061132683611053565b90506000611333826118a8565b9050600181600381111561134957611349612353565b116113895760405162461bcd60e51b815260206004820152601060248201526f125493c81b9bdd08199a5b9a5cda195960821b60448201526064016106c2565b600084815260ce60209081526040808320338452909152902054806113e25760405162461bcd60e51b815260206004820152600f60248201526e139bdd1a1a5b99c81d1bc81b5a5b9d608a1b60448201526064016106c2565b60028260038111156113f6576113f6612353565b036114e55760008360e001518261140d9190612551565b60cb549091506001600160a01b031663836a104061142a88611bed565b6040516001600160e01b031960e084901b16815260048101919091526001600160a01b038816602482015260448101849052606401600060405180830381600087803b15801561147957600080fd5b505af115801561148d573d6000803e3d6000fd5b50505050846001600160a01b0316336001600160a01b0316877f9c4945d842cc8c6704877a0defcd9ab09f6d77b24a369a95c2610506c6c38ee7846040516114d791815260200190565b60405180910390a450611558565b60c9546114fc906001600160a01b03168583611cf9565b600085815260ce602090815260408083203380855290835281842093909355518381526001600160a01b038716929188917e13b41c02877cabf07b7d6154ea39ec4503af8922f651f7a81f4afacd0c664f910160405180910390a45b5050505050565b600061156a60cc5490565b905090565b6115776119a6565b6001600160a01b0381166115ba5760405162461bcd60e51b815260206004820152600a602482015269215f747265617375727960b01b60448201526064016106c2565b60ca80546001600160a01b0319166001600160a01b03831690811790915560405133907f190c262dc6f09322c68a13bf67c9659e58367755ba6190fa7ce5ca8aa45a877d90600090a350565b61160e6119a6565b6001600160a01b0381166116735760405162461bcd60e51b815260206004820152602660248201527f4f776e61626c653a206e6577206f776e657220697320746865207a65726f206160448201526564647265737360d01b60648201526084016106c2565b61091981611b9b565b600054610100900460ff161580801561169c5750600054600160ff909116105b806116b65750303b1580156116b6575060005460ff166001145b6117195760405162461bcd60e51b815260206004820152602e60248201527f496e697469616c697a61626c653a20636f6e747261637420697320616c72656160448201526d191e481a5b9a5d1a585b1a5e995960921b60648201526084016106c2565b6000805460ff19166001179055801561173c576000805461ff0019166101001790555b6001600160a01b0384166117845760405162461bcd60e51b815260206004820152600f60248201526e0857dc99585b115cdd185d1953999d608a1b60448201526064016106c2565b6001600160a01b0383166117c75760405162461bcd60e51b815260206004820152600a602482015269215f747265617375727960b01b60448201526064016106c2565b6001600160a01b03821661180a5760405162461bcd60e51b815260206004820152600a602482015269215f63757272656e637960b01b60448201526064016106c2565b60cb80546001600160a01b038087166001600160a01b03199283161790925560ca805486841690831617905560c980549285169290911691909117905561185085611b9b565b8015611558576000805461ff0019169055604051600181527f7f26b83ff96e1f2b6a682f133852f6798a09c465da95921460cefb38474024989060200160405180910390a15050505050565b60006106348284612551565b600081602001516001600160401b03166118bf4290565b6001600160401b031610156118d657506000919050565b60408201516001600160401b0316426001600160401b03161015611914578160c001518261010001510361190c57506002919050565b506001919050565b8160c00151826101000151101561192d57506003919050565b506002919050565b6000808260a00151836080015161194c9190612622565b60ca54606085015191925061196e916001600160a01b03908116911683611cf9565b808360c0015161197e919061253e565b60ca5460608501519193506119a0916001600160a01b03908116911684611cf9565b50919050565b6033546001600160a01b031633146110305760405162461bcd60e51b815260206004820181905260248201527f4f776e61626c653a2063616c6c6572206973206e6f7420746865206f776e657260448201526064016106c2565b6109196119a6565b7f4910fdfa16fed3260ed0e7147f7cc6da11a60208b5b9406d12a635614ffd91435460ff1615611a4057611a3b83611d5c565b505050565b826001600160a01b03166352d1902d6040518163ffffffff1660e01b8152600401602060405180830381865afa925050508015611a9a575060408051601f3d908101601f19168201909252611a979181019061265c565b60015b611afd5760405162461bcd60e51b815260206004820152602e60248201527f45524331393637557067726164653a206e657720696d706c656d656e7461746960448201526d6f6e206973206e6f74205555505360901b60648201526084016106c2565b60008051602061270b8339815191528114611b6c5760405162461bcd60e51b815260206004820152602960248201527f45524331393637557067726164653a20756e737570706f727465642070726f786044820152681a58589b195555525160ba1b60648201526084016106c2565b50611a3b838383611df8565b6000611b84848461260b565b90506106346001600160a01b038316333084611e23565b603380546001600160a01b038381166001600160a01b0319831681179093556040519116919082907f8be0079c531659141344cd1fd0a4f28419497f9722a3daafe3b4186f6b6457e090600090a35050565b600881901c600090815260d16020526040812054600160ff84161b16611ce35760cb60009054906101000a90046001600160a01b03166001600160a01b0316631579c1336040518163ffffffff1660e01b8152600401602060405180830381865afa158015611c60573d6000803e3d6000fd5b505050506040513d601f19601f82011682018060405250810190611c84919061265c565b600083815260cf60209081526040808320849055600886901c835260d19091528082208054600160ff88161b17905551919250829184917fe845f90872d41131b00e56189f857584a09b017ea97c14fe1c84b118d62d8e5191a3919050565b50600081815260cf60205260409020545b919050565b6040516001600160a01b038316602482015260448101829052611a3b90849063a9059cbb60e01b906064015b60408051601f198184030181529190526020810180516001600160e01b03166001600160e01b031990931692909217909152611e5b565b6001600160a01b0381163b611dc95760405162461bcd60e51b815260206004820152602d60248201527f455243313936373a206e657720696d706c656d656e746174696f6e206973206e60448201526c1bdd08184818dbdb9d1c9858dd609a1b60648201526084016106c2565b60008051602061270b83398151915280546001600160a01b0319166001600160a01b0392909216919091179055565b611e0183611f2d565b600082511180611e0e5750805b15611a3b57611e1d8383611f6d565b50505050565b6040516001600160a01b0380851660248301528316604482015260648101829052611e1d9085906323b872dd60e01b90608401611d25565b6000611eb0826040518060400160405280602081526020017f5361666545524332303a206c6f772d6c6576656c2063616c6c206661696c6564815250856001600160a01b03166120619092919063ffffffff16565b805190915015611a3b5780806020019051810190611ece9190612675565b611a3b5760405162461bcd60e51b815260206004820152602a60248201527f5361666545524332303a204552433230206f7065726174696f6e20646964206e6044820152691bdd081cdd58d8d9595960b21b60648201526084016106c2565b611f3681611d5c565b6040516001600160a01b038216907fbc7cd75a20ee27fd9adebab32041f755214dbc6bffa90cc0225b39da2e5c2d3b90600090a250565b60606001600160a01b0383163b611fd55760405162461bcd60e51b815260206004820152602660248201527f416464726573733a2064656c65676174652063616c6c20746f206e6f6e2d636f6044820152651b9d1c9858dd60d21b60648201526084016106c2565b600080846001600160a01b031684604051611ff091906126bb565b600060405180830381855af49150503d806000811461202b576040519150601f19603f3d011682016040523d82523d6000602084013e612030565b606091505b5091509150612058828260405180606001604052806027815260200161272b60279139612078565b95945050505050565b60606120708484600085612091565b949350505050565b60608315612087575081610634565b610634838361216c565b6060824710156120f25760405162461bcd60e51b815260206004820152602660248201527f416464726573733a20696e73756666696369656e742062616c616e636520666f6044820152651c8818d85b1b60d21b60648201526084016106c2565b600080866001600160a01b0316858760405161210e91906126bb565b60006040518083038185875af1925050503d806000811461214b576040519150601f19603f3d011682016040523d82523d6000602084013e612150565b606091505b509150915061216187838387612196565b979650505050505050565b81511561217c5781518083602001fd5b8060405162461bcd60e51b81526004016106c291906126d7565b606083156122055782516000036121fe576001600160a01b0385163b6121fe5760405162461bcd60e51b815260206004820152601d60248201527f416464726573733a2063616c6c20746f206e6f6e2d636f6e747261637400000060448201526064016106c2565b5081612070565b612070838361216c565b60006020828403121561222157600080fd5b5035919050565b80356001600160a01b0381168114611cf457600080fd5b60006020828403121561225157600080fd5b61063482612228565b6000806040838503121561226d57600080fd5b50508035926020909101359150565b634e487b7160e01b600052604160045260246000fd5b600080604083850312156122a557600080fd5b6122ae83612228565b915060208301356001600160401b03808211156122ca57600080fd5b818501915085601f8301126122de57600080fd5b8135818111156122f0576122f061227c565b604051601f8201601f19908116603f011681019083821181831017156123185761231861227c565b8160405282815288602084870101111561233157600080fd5b8260208601602083013760006020848301015280955050505050509250929050565b634e487b7160e01b600052602160045260246000fd5b602081016004831061238b57634e487b7160e01b600052602160045260246000fd5b91905290565b80356001600160401b0381168114611cf457600080fd5b600080600080600080600060e0888a0312156123c357600080fd5b6123cc88612228565b965060208801359550604088013594506123e860608901612391565b93506080880135925060a0880135915061240460c08901612391565b905092959891949750929550565b6000806040838503121561242557600080fd5b8235915061243560208401612228565b90509250929050565b81516001600160a01b031681526020808301516001600160401b03169082015260408083015161012083019161247e908401826001600160401b03169052565b50606083015161249960608401826001600160a01b03169052565b506080830151608083015260a083015160a083015260c083015160c083015260e083015160e083015261010080840151818401525092915050565b600080600080608085870312156124ea57600080fd5b6124f385612228565b935061250160208601612228565b925061250f60408601612228565b915061251d60608601612228565b905092959194509250565b634e487b7160e01b600052601160045260246000fd5b8181038181111561093e5761093e612528565b60008261256e57634e487b7160e01b600052601260045260246000fd5b500490565b6020808252602c908201527f46756e6374696f6e206d7573742062652063616c6c6564207468726f7567682060408201526b19195b1959d85d1958d85b1b60a21b606082015260800190565b6020808252602c908201527f46756e6374696f6e206d7573742062652063616c6c6564207468726f7567682060408201526b6163746976652070726f787960a01b606082015260800190565b808202811582820484141761093e5761093e612528565b8082018082111561093e5761093e612528565b6001600160401b0381811683821601908082111561265557612655612528565b5092915050565b60006020828403121561266e57600080fd5b5051919050565b60006020828403121561268757600080fd5b8151801515811461063457600080fd5b60005b838110156126b257818101518382015260200161269a565b50506000910152565b600082516126cd818460208701612697565b9190910192915050565b60208152600082518060208401526126f6816040850160208701612697565b601f01601f1916919091016040019291505056fe360894a13ba1a3210667c828492db98dca3e2076cc3735a920a3ca505d382bbc416464726573733a206c6f772d6c6576656c2064656c65676174652063616c6c206661696c6564a2646970667358221220c739be050a66560cc9755241b88b955b21acfa89c53e6c50599194a02f657ccc64736f6c63430008110033",
  "devdoc": {
    "author": "Horizon DAO (Yuri Fernandes)",
    "events": {
      "CashBack(uint256,address,address,uint256)": {
        "details": "Emitted when an investors withdraw it's funds after an IRO fails"
      },
      "Commit(uint256,address,address,uint256,uint256)": {
        "details": "Emitted when a new Commit is made to an IRO"
      },
      "CreateIRO(uint256,address,address,uint64,uint64,uint256,uint256)": {
        "details": "Emitted when a new IRO is created"
      },
      "FundsWithdrawn(uint256,address,uint256,uint256,uint256)": {
        "details": "Emitted when funds from an IRO are withdrawn"
      },
      "RealEstateCreated(uint256,uint256)": {
        "details": "Emitted when a new real estate token ID is created"
      },
      "SetBaseCurrency(address,address)": {
        "details": "Emitted when a new currency is set"
      },
      "SetTreasury(address,address)": {
        "details": "Emitted when the Treasury contract is set"
      },
      "TokensClaimed(uint256,address,address,uint256)": {
        "details": "Emitted when tokens are claimed by investors"
      }
    },
    "kind": "dev",
    "methods": {
      "claim(uint256,address)": {
        "params": {
          "_iroId": "ID of the IRO",
          "_to": "Address to send the claimed tokens"
        }
      },
      "commit(uint256,uint256)": {
        "params": {
          "_amountToPurchase": "Amount of IRO tokens to purchase",
          "_iroId": "ID of the IRO"
        }
      },
      "createIRO(address,uint256,uint256,uint64,uint256,uint256,uint64)": {
        "details": "Create new IRO",
        "params": {
          "_assetPrice": "Price of the asset",
          "_duration": "Duration of the IRO in seconds",
          "_listingOwner": "Listing owner address",
          "_operationFee": "Operation fee in the IRO currency",
          "_startOffset": "Time before IRO begins",
          "_treasuryFee": "Treasury fee in absolute value",
          "_unitPrice": "Price per unit of IRO token in the IRO currency"
        }
      },
      "currentTotalSupply(uint256)": {
        "params": {
          "_iroId": "ID of the IRO"
        }
      },
      "expectedTotalSupply(uint256)": {
        "params": {
          "_iroId": "ID of the IRO"
        }
      },
      "getIRO(uint256)": {
        "params": {
          "_iroId": "ID of the IRO"
        }
      },
      "getStatus(uint256)": {
        "params": {
          "_iroId": "ID of the IRO"
        }
      },
      "initialize(address,address,address,address)": {
        "details": "Initialize IRO contract",
        "params": {
          "_currency": "Currency used to precify the IRO tokens",
          "_realEstateNft": "RealEstateNFT contract address",
          "_treasury": "Treasury contract address"
        }
      },
      "owner()": {
        "details": "Returns the address of the current owner."
      },
      "price(uint256,uint256)": {
        "params": {
          "_amountToPurchase": "Amount of IRO tokens to purchase",
          "_iroId": "ID of the IRO"
        }
      },
      "proxiableUUID()": {
        "details": "Implementation of the ERC1822 {proxiableUUID} function. This returns the storage slot used by the implementation. It is used to validate the implementation's compatibility when performing an upgrade. IMPORTANT: A proxy pointing at a proxiable contract should not be considered proxiable itself, because this risks bricking a proxy that upgrades to it, by delegating to itself until out of gas. Thus it is critical that this function revert if invoked through a proxy. This is guaranteed by the `notDelegated` modifier."
      },
      "remainingTokens(uint256)": {
        "params": {
          "_iroId": "ID of the IRO"
        }
      },
      "renounceOwnership()": {
        "details": "Leaves the contract without owner. It will not be possible to call `onlyOwner` functions anymore. Can only be called by the current owner. NOTE: Renouncing ownership will leave the contract without an owner, thereby removing any functionality that is only available to the owner."
      },
      "setCurrency(address)": {
        "details": "Set a new base price token",
        "params": {
          "_currency": "currency address (ERC20)"
        }
      },
      "setTreasury(address)": {
        "details": "Set new treasury",
        "params": {
          "_treasury": "Treasury address"
        }
      },
      "targetCapInfo(uint256)": {
        "params": {
          "_iroId": "ID of the IRO"
        }
      },
      "transferOwnership(address)": {
        "details": "Transfers ownership of the contract to a new account (`newOwner`). Can only be called by the current owner."
      },
      "upgradeTo(address)": {
        "details": "Upgrade the implementation of the proxy to `newImplementation`. Calls {_authorizeUpgrade}. Emits an {Upgraded} event."
      },
      "upgradeToAndCall(address,bytes)": {
        "details": "Upgrade the implementation of the proxy to `newImplementation`, and subsequently execute the function call encoded in `data`. Calls {_authorizeUpgrade}. Emits an {Upgraded} event."
      },
      "userAmountAndShare(uint256,address)": {
        "params": {
          "_iroId": "ID of the IRO",
          "_user": "User address"
        },
        "returns": {
          "amount": "Purchased amount",
          "share": "IRO share"
        }
      },
      "withdraw(uint256)": {
        "params": {
          "_iroId": "ID of the IRO"
        }
      }
    },
    "stateVariables": {
      "DENOMINATOR": {
        "details": "Denominator used to calculate fees/shares"
      },
      "__gap": {
        "details": "This empty reserved space is put in place to allow future versions to add new variables without shifting down storage in the inheritance chain. See https://docs.openzeppelin.com/contracts/4.x/upgradeable#storage_gaps"
      },
      "_fundsWithdrawn": {
        "details": "Points out whether funds have been withdrawn from IRO"
      },
      "_iros": {
        "details": "mapping (iroId => iro)"
      },
      "_nextAvailableId": {
        "details": "Next available IRO ID"
      },
      "_realEstateIdSet": {
        "details": "Whether an ID has already been set in the RealEstateNFT contract for the IRO"
      },
      "commits": {
        "details": "mapping (iroId => user => commit)"
      },
      "realEstateId": {
        "details": "mapping (iroId => realEstateId)"
      }
    },
    "title": "Initial Real Estate Offering (IRO)",
    "version": 1
  },
  "userdoc": {
    "kind": "user",
    "methods": {
      "claim(uint256,address)": {
        "notice": "Claim purchased tokens when IRO successful or     get back commit amount in base currency if IRO failed"
      },
      "commit(uint256,uint256)": {
        "notice": "Commit to an IRO"
      },
      "currency()": {
        "notice": "Currency address"
      },
      "currentTotalSupply(uint256)": {
        "notice": "Get the current total supply"
      },
      "expectedTotalSupply(uint256)": {
        "notice": "Get the total supply of an IRO, if successful"
      },
      "getIRO(uint256)": {
        "notice": "Get IRO"
      },
      "getStatus(uint256)": {
        "notice": "Get IRO status"
      },
      "iroLength()": {
        "notice": "Get total amount of IROs"
      },
      "now64()": {
        "notice": "Get current time (uint64)"
      },
      "price(uint256,uint256)": {
        "notice": "Get the total price of a purchase"
      },
      "realEstateNft()": {
        "notice": "RealEstateNFT contract address"
      },
      "remainingTokens(uint256)": {
        "notice": "Get the amount of remaining IRO tokens"
      },
      "targetCapInfo(uint256)": {
        "notice": "Get the targetCap composition"
      },
      "treasury()": {
        "notice": "Treasury contract address"
      },
      "userAmountAndShare(uint256,address)": {
        "notice": "Get an user purchased amount and shares of an IRO"
      },
      "withdraw(uint256)": {
        "notice": "Withdraw and distribute funds from successful IROs"
      }
    },
    "notice": "Used to run IROs, mint tokens to RealEstateNFT     and distribute funds",
    "version": 1
  },
  "storageLayout": {
    "storage": [
      {
        "astId": 598,
        "contract": "contracts/protocol/InitialRealEstateOffering.sol:InitialRealEstateOffering",
        "label": "_initialized",
        "offset": 0,
        "slot": "0",
        "type": "t_uint8"
      },
      {
        "astId": 601,
        "contract": "contracts/protocol/InitialRealEstateOffering.sol:InitialRealEstateOffering",
        "label": "_initializing",
        "offset": 1,
        "slot": "0",
        "type": "t_bool"
      },
      {
        "astId": 3548,
        "contract": "contracts/protocol/InitialRealEstateOffering.sol:InitialRealEstateOffering",
        "label": "__gap",
        "offset": 0,
        "slot": "1",
        "type": "t_array(t_uint256)50_storage"
      },
      {
        "astId": 56,
        "contract": "contracts/protocol/InitialRealEstateOffering.sol:InitialRealEstateOffering",
        "label": "_owner",
        "offset": 0,
        "slot": "51",
        "type": "t_address"
      },
      {
        "astId": 176,
        "contract": "contracts/protocol/InitialRealEstateOffering.sol:InitialRealEstateOffering",
        "label": "__gap",
        "offset": 0,
        "slot": "52",
        "type": "t_array(t_uint256)49_storage"
      },
      {
        "astId": 580,
        "contract": "contracts/protocol/InitialRealEstateOffering.sol:InitialRealEstateOffering",
        "label": "__gap",
        "offset": 0,
        "slot": "101",
        "type": "t_array(t_uint256)50_storage"
      },
      {
        "astId": 895,
        "contract": "contracts/protocol/InitialRealEstateOffering.sol:InitialRealEstateOffering",
        "label": "__gap",
        "offset": 0,
        "slot": "151",
        "type": "t_array(t_uint256)50_storage"
      },
      {
        "astId": 10664,
        "contract": "contracts/protocol/InitialRealEstateOffering.sol:InitialRealEstateOffering",
        "label": "currency",
        "offset": 0,
        "slot": "201",
        "type": "t_address"
      },
      {
        "astId": 10667,
        "contract": "contracts/protocol/InitialRealEstateOffering.sol:InitialRealEstateOffering",
        "label": "treasury",
        "offset": 0,
        "slot": "202",
        "type": "t_address"
      },
      {
        "astId": 10671,
        "contract": "contracts/protocol/InitialRealEstateOffering.sol:InitialRealEstateOffering",
        "label": "realEstateNft",
        "offset": 0,
        "slot": "203",
        "type": "t_contract(IRealEstateERC1155)9949"
      },
      {
        "astId": 10675,
        "contract": "contracts/protocol/InitialRealEstateOffering.sol:InitialRealEstateOffering",
        "label": "_nextAvailableId",
        "offset": 0,
        "slot": "204",
        "type": "t_struct(Counter)3555_storage"
      },
      {
        "astId": 10681,
        "contract": "contracts/protocol/InitialRealEstateOffering.sol:InitialRealEstateOffering",
        "label": "_iros",
        "offset": 0,
        "slot": "205",
        "type": "t_mapping(t_uint256,t_struct(IRO)10661_storage)"
      },
      {
        "astId": 10688,
        "contract": "contracts/protocol/InitialRealEstateOffering.sol:InitialRealEstateOffering",
        "label": "commits",
        "offset": 0,
        "slot": "206",
        "type": "t_mapping(t_uint256,t_mapping(t_address,t_uint256))"
      },
      {
        "astId": 10693,
        "contract": "contracts/protocol/InitialRealEstateOffering.sol:InitialRealEstateOffering",
        "label": "realEstateId",
        "offset": 0,
        "slot": "207",
        "type": "t_mapping(t_uint256,t_uint256)"
      },
      {
        "astId": 10697,
        "contract": "contracts/protocol/InitialRealEstateOffering.sol:InitialRealEstateOffering",
        "label": "_fundsWithdrawn",
        "offset": 0,
        "slot": "208",
        "type": "t_struct(BitMap)4787_storage"
      },
      {
        "astId": 10701,
        "contract": "contracts/protocol/InitialRealEstateOffering.sol:InitialRealEstateOffering",
        "label": "_realEstateIdSet",
        "offset": 0,
        "slot": "209",
        "type": "t_struct(BitMap)4787_storage"
      },
      {
        "astId": 11732,
        "contract": "contracts/protocol/InitialRealEstateOffering.sol:InitialRealEstateOffering",
        "label": "__gap",
        "offset": 0,
        "slot": "210",
        "type": "t_array(t_uint256)41_storage"
      }
    ],
    "types": {
      "t_address": {
        "encoding": "inplace",
        "label": "address",
        "numberOfBytes": "20"
      },
      "t_array(t_uint256)41_storage": {
        "base": "t_uint256",
        "encoding": "inplace",
        "label": "uint256[41]",
        "numberOfBytes": "1312"
      },
      "t_array(t_uint256)49_storage": {
        "base": "t_uint256",
        "encoding": "inplace",
        "label": "uint256[49]",
        "numberOfBytes": "1568"
      },
      "t_array(t_uint256)50_storage": {
        "base": "t_uint256",
        "encoding": "inplace",
        "label": "uint256[50]",
        "numberOfBytes": "1600"
      },
      "t_bool": {
        "encoding": "inplace",
        "label": "bool",
        "numberOfBytes": "1"
      },
      "t_contract(IRealEstateERC1155)9949": {
        "encoding": "inplace",
        "label": "contract IRealEstateERC1155",
        "numberOfBytes": "20"
      },
      "t_mapping(t_address,t_uint256)": {
        "encoding": "mapping",
        "key": "t_address",
        "label": "mapping(address => uint256)",
        "numberOfBytes": "32",
        "value": "t_uint256"
      },
      "t_mapping(t_uint256,t_mapping(t_address,t_uint256))": {
        "encoding": "mapping",
        "key": "t_uint256",
        "label": "mapping(uint256 => mapping(address => uint256))",
        "numberOfBytes": "32",
        "value": "t_mapping(t_address,t_uint256)"
      },
      "t_mapping(t_uint256,t_struct(IRO)10661_storage)": {
        "encoding": "mapping",
        "key": "t_uint256",
        "label": "mapping(uint256 => struct InitialRealEstateOffering.IRO)",
        "numberOfBytes": "32",
        "value": "t_struct(IRO)10661_storage"
      },
      "t_mapping(t_uint256,t_uint256)": {
        "encoding": "mapping",
        "key": "t_uint256",
        "label": "mapping(uint256 => uint256)",
        "numberOfBytes": "32",
        "value": "t_uint256"
      },
      "t_struct(BitMap)4787_storage": {
        "encoding": "inplace",
        "label": "struct BitMapsUpgradeable.BitMap",
        "members": [
          {
            "astId": 4786,
            "contract": "contracts/protocol/InitialRealEstateOffering.sol:InitialRealEstateOffering",
            "label": "_data",
            "offset": 0,
            "slot": "0",
            "type": "t_mapping(t_uint256,t_uint256)"
          }
        ],
        "numberOfBytes": "32"
      },
      "t_struct(Counter)3555_storage": {
        "encoding": "inplace",
        "label": "struct CountersUpgradeable.Counter",
        "members": [
          {
            "astId": 3554,
            "contract": "contracts/protocol/InitialRealEstateOffering.sol:InitialRealEstateOffering",
            "label": "_value",
            "offset": 0,
            "slot": "0",
            "type": "t_uint256"
          }
        ],
        "numberOfBytes": "32"
      },
      "t_struct(IRO)10661_storage": {
        "encoding": "inplace",
        "label": "struct InitialRealEstateOffering.IRO",
        "members": [
          {
            "astId": 10644,
            "contract": "contracts/protocol/InitialRealEstateOffering.sol:InitialRealEstateOffering",
            "label": "listingOwner",
            "offset": 0,
            "slot": "0",
            "type": "t_address"
          },
          {
            "astId": 10646,
            "contract": "contracts/protocol/InitialRealEstateOffering.sol:InitialRealEstateOffering",
            "label": "start",
            "offset": 20,
            "slot": "0",
            "type": "t_uint64"
          },
          {
            "astId": 10648,
            "contract": "contracts/protocol/InitialRealEstateOffering.sol:InitialRealEstateOffering",
            "label": "end",
            "offset": 0,
            "slot": "1",
            "type": "t_uint64"
          },
          {
            "astId": 10650,
            "contract": "contracts/protocol/InitialRealEstateOffering.sol:InitialRealEstateOffering",
            "label": "currency",
            "offset": 8,
            "slot": "1",
            "type": "t_address"
          },
          {
            "astId": 10652,
            "contract": "contracts/protocol/InitialRealEstateOffering.sol:InitialRealEstateOffering",
            "label": "treasuryFee",
            "offset": 0,
            "slot": "2",
            "type": "t_uint256"
          },
          {
            "astId": 10654,
            "contract": "contracts/protocol/InitialRealEstateOffering.sol:InitialRealEstateOffering",
            "label": "operationFee",
            "offset": 0,
            "slot": "3",
            "type": "t_uint256"
          },
          {
            "astId": 10656,
            "contract": "contracts/protocol/InitialRealEstateOffering.sol:InitialRealEstateOffering",
            "label": "targetFunding",
            "offset": 0,
            "slot": "4",
            "type": "t_uint256"
          },
          {
            "astId": 10658,
            "contract": "contracts/protocol/InitialRealEstateOffering.sol:InitialRealEstateOffering",
            "label": "unitPrice",
            "offset": 0,
            "slot": "5",
            "type": "t_uint256"
          },
          {
            "astId": 10660,
            "contract": "contracts/protocol/InitialRealEstateOffering.sol:InitialRealEstateOffering",
            "label": "totalFunding",
            "offset": 0,
            "slot": "6",
            "type": "t_uint256"
          }
        ],
        "numberOfBytes": "224"
      },
      "t_uint256": {
        "encoding": "inplace",
        "label": "uint256",
        "numberOfBytes": "32"
      },
      "t_uint64": {
        "encoding": "inplace",
        "label": "uint64",
        "numberOfBytes": "8"
      },
      "t_uint8": {
        "encoding": "inplace",
        "label": "uint8",
        "numberOfBytes": "1"
      }
    }
  }
}