{
  "address": "0x452eD094B62336fcf8110e0E0EB1Ea69ab5E6c77",
  "abi": [
    {
      "anonymous": false,
      "inputs": [
        {
          "indexed": false,
          "internalType": "address",
          "name": "previousAdmin",
          "type": "address"
        },
        {
          "indexed": false,
          "internalType": "address",
          "name": "newAdmin",
          "type": "address"
        }
      ],
      "name": "AdminChanged",
      "type": "event"
    },
    {
      "anonymous": false,
      "inputs": [
        {
          "indexed": true,
          "internalType": "address",
          "name": "beacon",
          "type": "address"
        }
      ],
      "name": "BeaconUpgraded",
      "type": "event"
    },
    {
      "anonymous": false,
      "inputs": [
        {
          "indexed": true,
          "internalType": "uint256",
          "name": "_iroId",
          "type": "uint256"
        },
        {
          "indexed": true,
          "internalType": "address",
          "name": "_by",
          "type": "address"
        },
        {
          "indexed": true,
          "internalType": "address",
          "name": "_to",
          "type": "address"
        },
        {
          "indexed": false,
          "internalType": "uint256",
          "name": "_commitAmount",
          "type": "uint256"
        }
      ],
      "name": "CashBack",
      "type": "event"
    },
    {
      "anonymous": false,
      "inputs": [
        {
          "indexed": true,
          "internalType": "uint256",
          "name": "_iroId",
          "type": "uint256"
        },
        {
          "indexed": true,
          "internalType": "address",
          "name": "_user",
          "type": "address"
        },
        {
          "indexed": true,
          "internalType": "address",
          "name": "_currency",
          "type": "address"
        },
        {
          "indexed": false,
          "internalType": "uint256",
          "name": "_value",
          "type": "uint256"
        },
        {
          "indexed": false,
          "internalType": "uint256",
          "name": "_purchasedAmount",
          "type": "uint256"
        }
      ],
      "name": "Commit",
      "type": "event"
    },
    {
      "anonymous": false,
      "inputs": [
        {
          "indexed": true,
          "internalType": "uint256",
          "name": "_iroId",
          "type": "uint256"
        },
        {
          "indexed": true,
          "internalType": "address",
          "name": "_listingOwner",
          "type": "address"
        },
        {
          "indexed": true,
          "internalType": "address",
          "name": "_currency",
          "type": "address"
        },
        {
          "indexed": false,
          "internalType": "uint256",
          "name": "_unitPrice",
          "type": "uint256"
        },
        {
          "indexed": false,
          "internalType": "uint16",
          "name": "_listingOwnerShare",
          "type": "uint16"
        },
        {
          "indexed": false,
          "internalType": "uint16",
          "name": "_treasuryFee",
          "type": "uint16"
        },
        {
          "indexed": false,
          "internalType": "uint16",
          "name": "_reservesFee",
          "type": "uint16"
        },
        {
          "indexed": false,
          "internalType": "uint64",
          "name": "_start",
          "type": "uint64"
        },
        {
          "indexed": false,
          "internalType": "uint64",
          "name": "_end",
          "type": "uint64"
        }
      ],
      "name": "CreateIRO",
      "type": "event"
    },
    {
      "anonymous": false,
      "inputs": [
        {
          "indexed": true,
          "internalType": "uint256",
          "name": "_iroId",
          "type": "uint256"
        },
        {
          "indexed": true,
          "internalType": "address",
          "name": "_by",
          "type": "address"
        },
        {
          "indexed": true,
          "internalType": "bool",
          "name": "_realEstateFundsSet",
          "type": "bool"
        },
        {
          "indexed": false,
          "internalType": "uint256",
          "name": "_listingOwnerAmount",
          "type": "uint256"
        },
        {
          "indexed": false,
          "internalType": "uint256",
          "name": "_treasuryAmount",
          "type": "uint256"
        },
        {
          "indexed": false,
          "internalType": "uint256",
          "name": "_realEstateReservesAmount",
          "type": "uint256"
        }
      ],
      "name": "FundsWithdrawn",
      "type": "event"
    },
    {
      "anonymous": false,
      "inputs": [
        {
          "indexed": false,
          "internalType": "uint8",
          "name": "version",
          "type": "uint8"
        }
      ],
      "name": "Initialized",
      "type": "event"
    },
    {
      "anonymous": false,
      "inputs": [
        {
          "indexed": true,
          "internalType": "uint256",
          "name": "_iroId",
          "type": "uint256"
        },
        {
          "indexed": true,
          "internalType": "address",
          "name": "_by",
          "type": "address"
        },
        {
          "indexed": true,
          "internalType": "address",
          "name": "_to",
          "type": "address"
        },
        {
          "indexed": false,
          "internalType": "uint256",
          "name": "_amount",
          "type": "uint256"
        }
      ],
      "name": "OwnerTokensClaimed",
      "type": "event"
    },
    {
      "anonymous": false,
      "inputs": [
        {
          "indexed": true,
          "internalType": "address",
          "name": "previousOwner",
          "type": "address"
        },
        {
          "indexed": true,
          "internalType": "address",
          "name": "newOwner",
          "type": "address"
        }
      ],
      "name": "OwnershipTransferred",
      "type": "event"
    },
    {
      "anonymous": false,
      "inputs": [
        {
          "indexed": true,
          "internalType": "uint256",
          "name": "_iroId",
          "type": "uint256"
        },
        {
          "indexed": true,
          "internalType": "uint256",
          "name": "_realEstateId",
          "type": "uint256"
        }
      ],
      "name": "RealEstateCreated",
      "type": "event"
    },
    {
      "anonymous": false,
      "inputs": [
        {
          "indexed": true,
          "internalType": "address",
          "name": "_by",
          "type": "address"
        },
        {
          "indexed": true,
          "internalType": "address",
          "name": "_currency",
          "type": "address"
        }
      ],
      "name": "SetBaseCurrency",
      "type": "event"
    },
    {
      "anonymous": false,
      "inputs": [
        {
          "indexed": true,
          "internalType": "address",
          "name": "_by",
          "type": "address"
        },
        {
          "indexed": true,
          "internalType": "address",
          "name": "_realEstateReserves",
          "type": "address"
        }
      ],
      "name": "SetRealEstateReserves",
      "type": "event"
    },
    {
      "anonymous": false,
      "inputs": [
        {
          "indexed": true,
          "internalType": "address",
          "name": "_by",
          "type": "address"
        },
        {
          "indexed": true,
          "internalType": "address",
          "name": "_treasury",
          "type": "address"
        }
      ],
      "name": "SetTreasury",
      "type": "event"
    },
    {
      "anonymous": false,
      "inputs": [
        {
          "indexed": true,
          "internalType": "uint256",
          "name": "_iroId",
          "type": "uint256"
        },
        {
          "indexed": true,
          "internalType": "address",
          "name": "_by",
          "type": "address"
        },
        {
          "indexed": true,
          "internalType": "address",
          "name": "_to",
          "type": "address"
        },
        {
          "indexed": false,
          "internalType": "uint256",
          "name": "_amount",
          "type": "uint256"
        }
      ],
      "name": "TokensClaimed",
      "type": "event"
    },
    {
      "anonymous": false,
      "inputs": [
        {
          "indexed": true,
          "internalType": "address",
          "name": "implementation",
          "type": "address"
        }
      ],
      "name": "Upgraded",
      "type": "event"
    },
    {
      "inputs": [],
      "name": "DENOMINATOR",
      "outputs": [
        {
          "internalType": "uint16",
          "name": "",
          "type": "uint16"
        }
      ],
      "stateMutability": "view",
      "type": "function"
    },
    {
      "inputs": [
        {
          "internalType": "uint256",
          "name": "_iroId",
          "type": "uint256"
        },
        {
          "internalType": "address",
          "name": "_to",
          "type": "address"
        }
      ],
      "name": "claim",
      "outputs": [],
      "stateMutability": "nonpayable",
      "type": "function"
    },
    {
      "inputs": [
        {
          "internalType": "uint256",
          "name": "_iroId",
          "type": "uint256"
        },
        {
          "internalType": "uint256",
          "name": "_amountToPurchase",
          "type": "uint256"
        }
      ],
      "name": "commit",
      "outputs": [],
      "stateMutability": "nonpayable",
      "type": "function"
    },
    {
      "inputs": [
        {
          "internalType": "uint256",
          "name": "",
          "type": "uint256"
        },
        {
          "internalType": "address",
          "name": "",
          "type": "address"
        }
      ],
      "name": "commits",
      "outputs": [
        {
          "internalType": "uint256",
          "name": "",
          "type": "uint256"
        }
      ],
      "stateMutability": "view",
      "type": "function"
    },
    {
      "inputs": [
        {
          "internalType": "address",
          "name": "_listingOwner",
          "type": "address"
        },
        {
          "internalType": "uint16",
          "name": "_listingOwnerShare",
          "type": "uint16"
        },
        {
          "internalType": "uint16",
          "name": "_treasuryFee",
          "type": "uint16"
        },
        {
          "internalType": "uint16",
          "name": "_reservesFee",
          "type": "uint16"
        },
        {
          "internalType": "uint64",
          "name": "_duration",
          "type": "uint64"
        },
        {
          "internalType": "uint256",
          "name": "_softCap",
          "type": "uint256"
        },
        {
          "internalType": "uint256",
          "name": "_hardCap",
          "type": "uint256"
        },
        {
          "internalType": "uint256",
          "name": "_unitPrice",
          "type": "uint256"
        },
        {
          "internalType": "uint64",
          "name": "_startOffset",
          "type": "uint64"
        }
      ],
      "name": "createIRO",
      "outputs": [],
      "stateMutability": "nonpayable",
      "type": "function"
    },
    {
      "inputs": [],
      "name": "currency",
      "outputs": [
        {
          "internalType": "address",
          "name": "",
          "type": "address"
        }
      ],
      "stateMutability": "view",
      "type": "function"
    },
    {
      "inputs": [
        {
          "internalType": "uint256",
          "name": "_iroId",
          "type": "uint256"
        }
      ],
      "name": "getIRO",
      "outputs": [
        {
          "components": [
            {
              "internalType": "address",
              "name": "listingOwner",
              "type": "address"
            },
            {
              "internalType": "uint64",
              "name": "start",
              "type": "uint64"
            },
            {
              "internalType": "uint16",
              "name": "treasuryFee",
              "type": "uint16"
            },
            {
              "internalType": "uint16",
              "name": "reservesFee",
              "type": "uint16"
            },
            {
              "internalType": "uint16",
              "name": "listingOwnerShare",
              "type": "uint16"
            },
            {
              "internalType": "uint64",
              "name": "end",
              "type": "uint64"
            },
            {
              "internalType": "address",
              "name": "currency",
              "type": "address"
            },
            {
              "internalType": "uint256",
              "name": "softCap",
              "type": "uint256"
            },
            {
              "internalType": "uint256",
              "name": "hardCap",
              "type": "uint256"
            },
            {
              "internalType": "uint256",
              "name": "unitPrice",
              "type": "uint256"
            },
            {
              "internalType": "uint256",
              "name": "totalFunding",
              "type": "uint256"
            }
          ],
          "internalType": "struct InitialRealEstateOffering.IRO",
          "name": "",
          "type": "tuple"
        }
      ],
      "stateMutability": "view",
      "type": "function"
    },
    {
      "inputs": [
        {
          "internalType": "uint256",
          "name": "_iroId",
          "type": "uint256"
        }
      ],
      "name": "getStatus",
      "outputs": [
        {
          "internalType": "enum InitialRealEstateOffering.Status",
          "name": "",
          "type": "uint8"
        }
      ],
      "stateMutability": "view",
      "type": "function"
    },
    {
      "inputs": [
        {
          "internalType": "address",
          "name": "_owner",
          "type": "address"
        },
        {
          "internalType": "address",
          "name": "_realEstateNft",
          "type": "address"
        },
        {
          "internalType": "address",
          "name": "_treasury",
          "type": "address"
        },
        {
          "internalType": "address",
          "name": "_realEstateReserves",
          "type": "address"
        },
        {
          "internalType": "address",
          "name": "_currency",
          "type": "address"
        }
      ],
      "name": "initialize",
      "outputs": [],
      "stateMutability": "nonpayable",
      "type": "function"
    },
    {
      "inputs": [],
      "name": "iroLength",
      "outputs": [
        {
          "internalType": "uint256",
          "name": "",
          "type": "uint256"
        }
      ],
      "stateMutability": "view",
      "type": "function"
    },
    {
      "inputs": [
        {
          "internalType": "uint256",
          "name": "_iroId",
          "type": "uint256"
        }
      ],
      "name": "listingOwnerAmount",
      "outputs": [
        {
          "internalType": "uint256",
          "name": "amount",
          "type": "uint256"
        }
      ],
      "stateMutability": "view",
      "type": "function"
    },
    {
      "inputs": [
        {
          "internalType": "uint256",
          "name": "_iroId",
          "type": "uint256"
        },
        {
          "internalType": "address",
          "name": "_to",
          "type": "address"
        }
      ],
      "name": "listingOwnerClaim",
      "outputs": [],
      "stateMutability": "nonpayable",
      "type": "function"
    },
    {
      "inputs": [],
      "name": "now64",
      "outputs": [
        {
          "internalType": "uint64",
          "name": "",
          "type": "uint64"
        }
      ],
      "stateMutability": "view",
      "type": "function"
    },
    {
      "inputs": [],
      "name": "owner",
      "outputs": [
        {
          "internalType": "address",
          "name": "",
          "type": "address"
        }
      ],
      "stateMutability": "view",
      "type": "function"
    },
    {
      "inputs": [
        {
          "internalType": "uint256",
          "name": "_iroId",
          "type": "uint256"
        },
        {
          "internalType": "uint256",
          "name": "_amountToPurchase",
          "type": "uint256"
        }
      ],
      "name": "price",
      "outputs": [
        {
          "internalType": "uint256",
          "name": "",
          "type": "uint256"
        }
      ],
      "stateMutability": "view",
      "type": "function"
    },
    {
      "inputs": [],
      "name": "proxiableUUID",
      "outputs": [
        {
          "internalType": "bytes32",
          "name": "",
          "type": "bytes32"
        }
      ],
      "stateMutability": "view",
      "type": "function"
    },
    {
      "inputs": [
        {
          "internalType": "uint256",
          "name": "",
          "type": "uint256"
        }
      ],
      "name": "realEstateId",
      "outputs": [
        {
          "internalType": "uint256",
          "name": "",
          "type": "uint256"
        }
      ],
      "stateMutability": "view",
      "type": "function"
    },
    {
      "inputs": [],
      "name": "realEstateNft",
      "outputs": [
        {
          "internalType": "contract IRealEstateERC1155",
          "name": "",
          "type": "address"
        }
      ],
      "stateMutability": "view",
      "type": "function"
    },
    {
      "inputs": [],
      "name": "realEstateReserves",
      "outputs": [
        {
          "internalType": "contract IRealEstateReserves",
          "name": "",
          "type": "address"
        }
      ],
      "stateMutability": "view",
      "type": "function"
    },
    {
      "inputs": [
        {
          "internalType": "uint256",
          "name": "_iroId",
          "type": "uint256"
        }
      ],
      "name": "remainingTokens",
      "outputs": [
        {
          "internalType": "uint256",
          "name": "",
          "type": "uint256"
        }
      ],
      "stateMutability": "view",
      "type": "function"
    },
    {
      "inputs": [],
      "name": "renounceOwnership",
      "outputs": [],
      "stateMutability": "nonpayable",
      "type": "function"
    },
    {
      "inputs": [
        {
          "internalType": "address",
          "name": "_currency",
          "type": "address"
        }
      ],
      "name": "setCurrency",
      "outputs": [],
      "stateMutability": "nonpayable",
      "type": "function"
    },
    {
      "inputs": [
        {
          "internalType": "address",
          "name": "_realEstateReserves",
          "type": "address"
        }
      ],
      "name": "setRealEstateReserves",
      "outputs": [],
      "stateMutability": "nonpayable",
      "type": "function"
    },
    {
      "inputs": [
        {
          "internalType": "address",
          "name": "_treasury",
          "type": "address"
        }
      ],
      "name": "setTreasury",
      "outputs": [],
      "stateMutability": "nonpayable",
      "type": "function"
    },
    {
      "inputs": [
        {
          "internalType": "uint256",
          "name": "_iroId",
          "type": "uint256"
        }
      ],
      "name": "totalSupply",
      "outputs": [
        {
          "internalType": "uint256",
          "name": "",
          "type": "uint256"
        }
      ],
      "stateMutability": "view",
      "type": "function"
    },
    {
      "inputs": [
        {
          "internalType": "uint256",
          "name": "_iroId",
          "type": "uint256"
        }
      ],
      "name": "totalSupplyInterval",
      "outputs": [
        {
          "internalType": "uint256",
          "name": "minTotalSupply",
          "type": "uint256"
        },
        {
          "internalType": "uint256",
          "name": "maxTotalSupply",
          "type": "uint256"
        }
      ],
      "stateMutability": "view",
      "type": "function"
    },
    {
      "inputs": [
        {
          "internalType": "address",
          "name": "newOwner",
          "type": "address"
        }
      ],
      "name": "transferOwnership",
      "outputs": [],
      "stateMutability": "nonpayable",
      "type": "function"
    },
    {
      "inputs": [],
      "name": "treasury",
      "outputs": [
        {
          "internalType": "address",
          "name": "",
          "type": "address"
        }
      ],
      "stateMutability": "view",
      "type": "function"
    },
    {
      "inputs": [
        {
          "internalType": "address",
          "name": "newImplementation",
          "type": "address"
        }
      ],
      "name": "upgradeTo",
      "outputs": [],
      "stateMutability": "nonpayable",
      "type": "function"
    },
    {
      "inputs": [
        {
          "internalType": "address",
          "name": "newImplementation",
          "type": "address"
        },
        {
          "internalType": "bytes",
          "name": "data",
          "type": "bytes"
        }
      ],
      "name": "upgradeToAndCall",
      "outputs": [],
      "stateMutability": "payable",
      "type": "function"
    },
    {
      "inputs": [
        {
          "internalType": "uint256",
          "name": "_iroId",
          "type": "uint256"
        },
        {
          "internalType": "address",
          "name": "_user",
          "type": "address"
        }
      ],
      "name": "userAmountAndShare",
      "outputs": [
        {
          "internalType": "uint256",
          "name": "amount",
          "type": "uint256"
        },
        {
          "internalType": "uint16",
          "name": "share",
          "type": "uint16"
        }
      ],
      "stateMutability": "view",
      "type": "function"
    },
    {
      "inputs": [
        {
          "internalType": "uint256",
          "name": "_iroId",
          "type": "uint256"
        }
      ],
      "name": "withdraw",
      "outputs": [],
      "stateMutability": "nonpayable",
      "type": "function"
    },
    {
      "stateMutability": "payable",
      "type": "receive"
    }
  ],
  "transactionHash": "0x311b64953818a1f21263e201741e494d5c2131ca6bd2afa95eb0fe34ea18657b",
  "args": [],
  "numDeployments": 1,
  "solcInputHash": "730e05e628463525a609053c7f4c87fc",
  "bytecode": "0x60a06040523060805234801561001457600080fd5b50608051612fee61004c60003960008181610d5f01528181610d9f01528181610e6701528181610ea70152610f3a0152612fee6000f3fe6080604052600436106101e75760003560e01c80638da5cb5b11610102578063ddd5e1b211610095578063ef217dbd11610064578063ef217dbd146105f4578063f0f4426014610609578063f1d909a114610629578063f2fde38b1461064957600080fd5b8063ddd5e1b214610570578063de9ee90b14610590578063e5a6b10f146105b4578063e915c559146105d457600080fd5b80639a19b73b116100d15780639a19b73b146104cb578063a412487d146104f8578063ad91203b14610518578063bd85b0391461055057600080fd5b80638da5cb5b14610444578063918f86741461046257806395ba7c5a1461048b578063976d1629146104ab57600080fd5b806352d1902d1161017a57806361d027b31161014957806361d027b31461038a57806364ef7f22146103c2578063715018a6146103f7578063885d68a81461040c57600080fd5b806352d1902d146102fb5780635bf56bc4146103105780635c622a0e14610330578063606b77db1461035d57600080fd5b80632f84c391116101b65780632f84c391146102885780633659cfe6146102a8578063487a2395146102c85780634f1ef286146102e857600080fd5b80631459457a146101f3578063171ee95a1461021557806323b3359f146102485780632e1a7d4d1461026857600080fd5b366101ee57005b600080fd5b3480156101ff57600080fd5b5061021361020e3660046129ae565b610669565b005b34801561022157600080fd5b50610235610230366004612a13565b61089d565b6040519081526020015b60405180910390f35b34801561025457600080fd5b50610213610263366004612a2c565b6108d8565b34801561027457600080fd5b50610213610283366004612a13565b610b35565b34801561029457600080fd5b506102136102a3366004612a58565b610cbe565b3480156102b457600080fd5b506102136102c3366004612a58565b610d55565b3480156102d457600080fd5b506102356102e3366004612a73565b610e34565b6102136102f6366004612aab565b610e5d565b34801561030757600080fd5b50610235610f2d565b34801561031c57600080fd5b5061021361032b366004612a73565b610fe0565b34801561033c57600080fd5b5061035061034b366004612a13565b6111d0565b60405161023f9190612b82565b34801561036957600080fd5b50610235610378366004612a13565b60d06020526000908152604090205481565b34801561039657600080fd5b5060ca546103aa906001600160a01b031681565b6040516001600160a01b03909116815260200161023f565b3480156103ce57600080fd5b506103e26103dd366004612a13565b611293565b6040805192835260208301919091520161023f565b34801561040357600080fd5b506102136112de565b34801561041857600080fd5b50610235610427366004612a2c565b60cf60209081526000928352604080842090915290825290205481565b34801561045057600080fd5b506033546001600160a01b03166103aa565b34801561046e57600080fd5b5061047861271081565b60405161ffff909116815260200161023f565b34801561049757600080fd5b506102136104a6366004612bd3565b6112f2565b3480156104b757600080fd5b5060cc546103aa906001600160a01b031681565b3480156104d757600080fd5b506104eb6104e6366004612a13565b6116c0565b60405161023f9190612c66565b34801561050457600080fd5b50610235610513366004612a13565b611823565b34801561052457600080fd5b50610538610533366004612a2c565b6118f0565b6040805192835261ffff90911660208301520161023f565b34801561055c57600080fd5b5061023561056b366004612a13565b611971565b34801561057c57600080fd5b5061021361058b366004612a2c565b611998565b34801561059c57600080fd5b506040516001600160401b034216815260200161023f565b3480156105c057600080fd5b5060c9546103aa906001600160a01b031681565b3480156105e057600080fd5b5060cb546103aa906001600160a01b031681565b34801561060057600080fd5b50610235611bdd565b34801561061557600080fd5b50610213610624366004612a58565b611bed565b34801561063557600080fd5b50610213610644366004612a58565b611c84565b34801561065557600080fd5b50610213610664366004612a58565b611d25565b600054610100900460ff16158080156106895750600054600160ff909116105b806106a35750303b1580156106a3575060005460ff166001145b61070b5760405162461bcd60e51b815260206004820152602e60248201527f496e697469616c697a61626c653a20636f6e747261637420697320616c72656160448201526d191e481a5b9a5d1a585b1a5e995960921b60648201526084015b60405180910390fd5b6000805460ff19166001179055801561072e576000805461ff0019166101001790555b6001600160a01b0385166107765760405162461bcd60e51b815260206004820152600f60248201526e0857dc99585b115cdd185d1953999d608a1b6044820152606401610702565b6001600160a01b0384166107b95760405162461bcd60e51b815260206004820152600a602482015269215f747265617375727960b01b6044820152606401610702565b6001600160a01b0382166107fc5760405162461bcd60e51b815260206004820152600a602482015269215f63757272656e637960b01b6044820152606401610702565b60cb80546001600160a01b038088166001600160a01b03199283161790925560ca805487841690831617905560c9805485841690831617905560cc80549286169290911691909117905561084f86611d97565b8015610895576000805461ff0019169055604051600181527f7f26b83ff96e1f2b6a682f133852f6798a09c465da95921460cefb38474024989060200160405180910390a15b505050505050565b6000806108a9836116c0565b90508061012001518161014001518261010001516108c79190612d53565b6108d19190612d7c565b9392505050565b60006108e3836116c0565b80519091506001600160a01b0316331461092a5760405162461bcd60e51b815260206004820152600860248201526708585b1b1bddd95960c21b6044820152606401610702565b600883901c600090815260d26020526040902054600160ff85161b16156109855760405162461bcd60e51b815260206004820152600f60248201526e105b1c9958591e4818db185a5b5959608a1b6044820152606401610702565b600261099082611de9565b60038111156109a1576109a1612b6c565b146109e35760405162461bcd60e51b8152602060048201526012602482015271125493c81b9bdd081cdd58d8d95cdcd99d5b60721b6044820152606401610702565b6000816080015161ffff1611610a2e5760405162461bcd60e51b815260206004820152601060248201526f4e6f7468696e6720746f20636c61696d60801b6044820152606401610702565b6000610a498261014001518361012001518460800151611e9c565b60cb549091506001600160a01b031663836a1040610a6686611ede565b6040516001600160e01b031960e084901b16815260048101919091526001600160a01b038616602482015260448101849052606401600060405180830381600087803b158015610ab557600080fd5b505af1158015610ac9573d6000803e3d6000fd5b50505050610ae18460d2611fea90919063ffffffff16565b826001600160a01b0316336001600160a01b0316857f5e789de02041c87403c6f48bfd49a8cb3e5a5e8a53bcdef4f2fb597992326b4f84604051610b2791815260200190565b60405180910390a450505050565b6000610b40826116c0565b90506002610b4d82611de9565b6003811115610b5e57610b5e612b6c565b14610ba05760405162461bcd60e51b8152602060048201526012602482015271125493c81b9bdd081cdd58d8d95cdcd99d5b60721b6044820152606401610702565b600882901c600090815260d16020526040902054600160ff84161b1615610bfd5760405162461bcd60e51b815260206004820152601160248201527020b63932b0b23c903bb4ba34323930bbb760791b6044820152606401610702565b805160ca5460cc54600092839283928392610c449290916001600160a01b039182169116610c2a8a611ede565b8961014001518a604001518b606001518c60c00151612013565b60088a901c600090815260d1602052604090208054600160ff8d161b17905592965090945092509050604080518581526020810185905290810183905281151590339088907ff51dce7865db25a2ec6b47f91f3e97b1626e1e085200f50031aaceb3eda8df379060600160405180910390a4505050505050565b610cc661215f565b6001600160a01b038116610d095760405162461bcd60e51b815260206004820152600a602482015269215f63757272656e637960b01b6044820152606401610702565b60c980546001600160a01b0319166001600160a01b03831690811790915560405133907f6dde2141be69fabcd84e3864d206ba0f3f2d507125fb2703899c87de4c585d5f90600090a350565b6001600160a01b037f0000000000000000000000000000000000000000000000000000000000000000163003610d9d5760405162461bcd60e51b815260040161070290612d90565b7f00000000000000000000000000000000000000000000000000000000000000006001600160a01b0316610de6600080516020612f72833981519152546001600160a01b031690565b6001600160a01b031614610e0c5760405162461bcd60e51b815260040161070290612ddc565b610e15816121b9565b60408051600080825260208201909252610e31918391906121c1565b50565b600080610e40846116c0565b905080610120015183610e539190612e28565b9150505b92915050565b6001600160a01b037f0000000000000000000000000000000000000000000000000000000000000000163003610ea55760405162461bcd60e51b815260040161070290612d90565b7f00000000000000000000000000000000000000000000000000000000000000006001600160a01b0316610eee600080516020612f72833981519152546001600160a01b031690565b6001600160a01b031614610f145760405162461bcd60e51b815260040161070290612ddc565b610f1d826121b9565b610f29828260016121c1565b5050565b6000306001600160a01b037f00000000000000000000000000000000000000000000000000000000000000001614610fcd5760405162461bcd60e51b815260206004820152603860248201527f555550535570677261646561626c653a206d757374206e6f742062652063616c60448201527f6c6564207468726f7567682064656c656761746563616c6c00000000000000006064820152608401610702565b50600080516020612f7283398151915290565b600081116110465760405162461bcd60e51b815260206004820152602d60248201527f5f616d6f756e74546f50757263686173652073686f756c64206265206772656160448201526c746572207468616e207a65726f60981b6064820152608401610702565b6000611051836116c0565b9050600161105e82611de9565b600381111561106f5761106f612b6c565b146110b05760405162461bcd60e51b815260206004820152601160248201527049524f206973206e6f742061637469766560781b6044820152606401610702565b6101008101516101208201516110c69084612e28565b8261014001516110d69190612e3f565b11156111165760405162461bcd60e51b815260206004820152600f60248201526e12185c9918d85c081c995858da1959608a1b6044820152606401610702565b600061112c826101200151848460c00151612331565b600085815260cf6020908152604080832033845290915281208054929350839290919061115a908490612e3f565b9091555050600084815260ce602052604081206005018054839290611180908490612e3f565b909155505060c082015160408051838152602081018690526001600160a01b0390921691339187917f5a85eb554fd8d84f35068dd70b72c3eade7b5cd89deb5cd10d936626411beaa49101610b27565b600081815260ce6020908152604080832081516101608101835281546001600160a01b0380821683526001600160401b03600160a01b830481169684019690965261ffff600160e01b8304811695840195909552600160f01b909104841660608301526001830154938416608083015262010000840490941660a0820152600160501b90920490921660c0820152600282015460e0820152600382015461010082015260048201546101208201526005909101546101408201526108d181611de9565b60008060006112a1846116c0565b90506112bb8160e001518261012001518360800151612354565b92506112d68161010001518261012001518360800151612354565b915050915091565b6112e661215f565b6112f06000611d97565b565b6112fa61215f565b61271061ffff891611156113465760405162461bcd60e51b8152602060048201526013602482015272125b9d985b1a590818985cda5cc81c1bda5b9d606a1b6044820152606401610702565b6127106113538789612e52565b61ffff1611156113a55760405162461bcd60e51b815260206004820152601d60248201527f466565732073686f756c64206265206c657373207468616e20313030250000006044820152606401610702565b816113b08585612d53565b6113ba9190612e74565b156114155760405162461bcd60e51b815260206004820152602560248201527f436170732073686f756c64206265206d756c7469706c6573206f6620756e6974604482015264507269636560d81b6064820152608401610702565b600061141f611bdd565b9050600061142d8342612e88565b9050600061143b8883612e88565b90506040518061016001604052808d6001600160a01b03168152602001836001600160401b031681526020018b61ffff1681526020018a61ffff1681526020018c61ffff168152602001826001600160401b0316815260200160c960009054906101000a90046001600160a01b03166001600160a01b03168152602001888152602001878152602001868152602001600081525060ce600085815260200190815260200160002060008201518160000160006101000a8154816001600160a01b0302191690836001600160a01b0316021790555060208201518160000160146101000a8154816001600160401b0302191690836001600160401b03160217905550604082015181600001601c6101000a81548161ffff021916908361ffff160217905550606082015181600001601e6101000a81548161ffff021916908361ffff16021790555060808201518160010160006101000a81548161ffff021916908361ffff16021790555060a08201518160010160026101000a8154816001600160401b0302191690836001600160401b0316021790555060c082015181600101600a6101000a8154816001600160a01b0302191690836001600160a01b0316021790555060e0820151816002015561010082015181600301556101208201518160040155610140820151816005015590505061163b60cd80546001019055565b60c9546040805187815261ffff8e811660208301528d8116828401528c1660608201526001600160401b038581166080830152841660a082015290516001600160a01b03928316928f169186917fb30c2b686e273fc2c65419743a5304d1b0f43ad06ac715512b89c6f14f73702f9181900360c00190a4505050505050505050505050565b6040805161016081018252600080825260208201819052918101829052606081018290526080810182905260a0810182905260c0810182905260e0810182905261010081018290526101208101829052610140810191909152611721611bdd565b82106117665760405162461bcd60e51b81526020600482015260146024820152735f69726f4964206f75742d6f662d626f756e647360601b6044820152606401610702565b50600090815260ce602090815260409182902082516101608101845281546001600160a01b0380821683526001600160401b03600160a01b830481169584019590955261ffff600160e01b8304811696840196909652600160f01b909104851660608301526001830154948516608083015262010000850490931660a0820152600160501b90930490911660c0830152600281015460e0830152600381015461010083015260048101546101208301526005015461014082015290565b600081815260ce6020908152604080832081516101608101835281546001600160a01b0380821683526001600160401b03600160a01b830481169684019690965261ffff600160e01b8304811695840195909552600160f01b9091048416606083015260018301549384166080830181905262010000850490951660a0830152600160501b90930490921660c0830152600281015460e0830152600381015461010083015260048101546101208301819052600590910154610140830181905291926108d1929190611e9c565b60008060006118fe856116c0565b600086815260cf602090815260408083206001600160a01b0389168452909152902054610120820151919250906119359082612d7c565b93506119508261014001518361012001518460800151612354565b61195c61271086612e28565b6119669190612d7c565b925050509250929050565b60008061197d836116c0565b90506108d18161014001518261012001518360800151612354565b60006119a3836116c0565b905060006119b082611de9565b905060018160038111156119c6576119c6612b6c565b11611a065760405162461bcd60e51b815260206004820152601060248201526f125493c81b9bdd08199a5b9a5cda195960821b6044820152606401610702565b600084815260cf6020908152604080832033845290915290205480611a5f5760405162461bcd60e51b815260206004820152600f60248201526e139bdd1a1a5b99c81d1bc81b5a5b9d608a1b6044820152606401610702565b6002826003811115611a7357611a73612b6c565b03611b6357600083610120015182611a8b9190612d7c565b60cb549091506001600160a01b031663836a1040611aa888611ede565b6040516001600160e01b031960e084901b16815260048101919091526001600160a01b038816602482015260448101849052606401600060405180830381600087803b158015611af757600080fd5b505af1158015611b0b573d6000803e3d6000fd5b50505050846001600160a01b0316336001600160a01b0316877f9c4945d842cc8c6704877a0defcd9ab09f6d77b24a369a95c2610506c6c38ee784604051611b5591815260200190565b60405180910390a450611bd6565b60c954611b7a906001600160a01b0316858361237d565b600085815260cf602090815260408083203380855290835281842093909355518381526001600160a01b038716929188917e13b41c02877cabf07b7d6154ea39ec4503af8922f651f7a81f4afacd0c664f910160405180910390a45b5050505050565b6000611be860cd5490565b905090565b611bf561215f565b6001600160a01b038116611c385760405162461bcd60e51b815260206004820152600a602482015269215f747265617375727960b01b6044820152606401610702565b60ca80546001600160a01b0319166001600160a01b03831690811790915560405133907f190c262dc6f09322c68a13bf67c9659e58367755ba6190fa7ce5ca8aa45a877d90600090a350565b611c8c61215f565b6001600160a01b038116611cd95760405162461bcd60e51b8152602060048201526014602482015273215f7265616c457374617465526573657276657360601b6044820152606401610702565b60cc80546001600160a01b0319166001600160a01b03831690811790915560405133907fe2346da89cd742996eca02002552dd4534ad4ad92c3a82dd6a86fd515ee1414c90600090a350565b611d2d61215f565b6001600160a01b038116611d925760405162461bcd60e51b815260206004820152602660248201527f4f776e61626c653a206e6577206f776e657220697320746865207a65726f206160448201526564647265737360d01b6064820152608401610702565b610e31815b603380546001600160a01b038381166001600160a01b0319831681179093556040519116919082907f8be0079c531659141344cd1fd0a4f28419497f9722a3daafe3b4186f6b6457e090600090a35050565b600081602001516001600160401b0316611e004290565b6001600160401b03161015611e1757506000919050565b60a08201516001600160401b0316426001600160401b03161015611e565781610100015182610140015103611e4e57506002919050565b506001919050565b60a08201516001600160401b0316426001600160401b031610611e94578160e001518261014001511015611e8c57506003919050565b506002919050565b506003919050565b600080611ea98486612d7c565b9050611eb783612710612ea8565b61ffff168361ffff1682611ecb9190612e28565b611ed59190612d7c565b95945050505050565b600881901c600090815260d36020526040812054600160ff84161b16611fd45760cb60009054906101000a90046001600160a01b03166001600160a01b0316631579c1336040518163ffffffff1660e01b8152600401602060405180830381865afa158015611f51573d6000803e3d6000fd5b505050506040513d601f19601f82011682018060405250810190611f759190612ec3565b600083815260d060209081526040808320849055600886901c835260d39091528082208054600160ff88161b17905551919250829184917fe845f90872d41131b00e56189f857584a09b017ea97c14fe1c84b118d62d8e5191a3919050565b50600081815260d060205260409020545b919050565b600881901c600090815260209290925260409091208054600160ff9093169290921b9091179055565b60008080806127106120298961ffff8a16612e28565b6120339190612d7c565b92506127106120468961ffff8916612e28565b6120509190612d7c565b91506001600160a01b038a161561210757506001821561207e5761207e6001600160a01b0386168c8561237d565b8115612102576120986001600160a01b0386168b846123e0565b604051638dbdbe6d60e01b8152600481018a9052602481018390526001600160a01b0386811660448301528b1690638dbdbe6d90606401600060405180830381600087803b1580156120e957600080fd5b505af11580156120fd573d6000803e3d6000fd5b505050505b612126565b6121268b6121158486612e3f565b6001600160a01b038816919061237d565b6121308284612e3f565b61213a9089612d53565b93506121506001600160a01b0386168d8661237d565b98509850985098945050505050565b6033546001600160a01b031633146112f05760405162461bcd60e51b815260206004820181905260248201527f4f776e61626c653a2063616c6c6572206973206e6f7420746865206f776e65726044820152606401610702565b610e3161215f565b7f4910fdfa16fed3260ed0e7147f7cc6da11a60208b5b9406d12a635614ffd91435460ff16156121f9576121f4836124f5565b505050565b826001600160a01b03166352d1902d6040518163ffffffff1660e01b8152600401602060405180830381865afa925050508015612253575060408051601f3d908101601f1916820190925261225091810190612ec3565b60015b6122b65760405162461bcd60e51b815260206004820152602e60248201527f45524331393637557067726164653a206e657720696d706c656d656e7461746960448201526d6f6e206973206e6f74205555505360901b6064820152608401610702565b600080516020612f7283398151915281146123255760405162461bcd60e51b815260206004820152602960248201527f45524331393637557067726164653a20756e737570706f727465642070726f786044820152681a58589b195555525160ba1b6064820152608401610702565b506121f4838383612591565b600061233d8484612e28565b90506108d16001600160a01b0383163330846125bc565b6000612361848484611e9c565b61236b8486612d7c565b6123759190612e3f565b949350505050565b6040516001600160a01b0383166024820152604481018290526121f490849063a9059cbb60e01b906064015b60408051601f198184030181529190526020810180516001600160e01b03166001600160e01b0319909316929092179091526125f4565b80158061245a5750604051636eb1769f60e11b81523060048201526001600160a01b03838116602483015284169063dd62ed3e90604401602060405180830381865afa158015612434573d6000803e3d6000fd5b505050506040513d601f19601f820116820180604052508101906124589190612ec3565b155b6124c55760405162461bcd60e51b815260206004820152603660248201527f5361666545524332303a20617070726f76652066726f6d206e6f6e2d7a65726f60448201527520746f206e6f6e2d7a65726f20616c6c6f77616e636560501b6064820152608401610702565b6040516001600160a01b0383166024820152604481018290526121f490849063095ea7b360e01b906064016123a9565b6001600160a01b0381163b6125625760405162461bcd60e51b815260206004820152602d60248201527f455243313936373a206e657720696d706c656d656e746174696f6e206973206e60448201526c1bdd08184818dbdb9d1c9858dd609a1b6064820152608401610702565b600080516020612f7283398151915280546001600160a01b0319166001600160a01b0392909216919091179055565b61259a836126c6565b6000825111806125a75750805b156121f4576125b68383612706565b50505050565b6040516001600160a01b03808516602483015283166044820152606481018290526125b69085906323b872dd60e01b906084016123a9565b6000612649826040518060400160405280602081526020017f5361666545524332303a206c6f772d6c6576656c2063616c6c206661696c6564815250856001600160a01b03166127f19092919063ffffffff16565b8051909150156121f457808060200190518101906126679190612edc565b6121f45760405162461bcd60e51b815260206004820152602a60248201527f5361666545524332303a204552433230206f7065726174696f6e20646964206e6044820152691bdd081cdd58d8d9595960b21b6064820152608401610702565b6126cf816124f5565b6040516001600160a01b038216907fbc7cd75a20ee27fd9adebab32041f755214dbc6bffa90cc0225b39da2e5c2d3b90600090a250565b60606001600160a01b0383163b61276e5760405162461bcd60e51b815260206004820152602660248201527f416464726573733a2064656c65676174652063616c6c20746f206e6f6e2d636f6044820152651b9d1c9858dd60d21b6064820152608401610702565b600080846001600160a01b0316846040516127899190612f22565b600060405180830381855af49150503d80600081146127c4576040519150601f19603f3d011682016040523d82523d6000602084013e6127c9565b606091505b5091509150611ed58282604051806060016040528060278152602001612f9260279139612800565b60606123758484600085612819565b6060831561280f5750816108d1565b6108d183836128f4565b60608247101561287a5760405162461bcd60e51b815260206004820152602660248201527f416464726573733a20696e73756666696369656e742062616c616e636520666f6044820152651c8818d85b1b60d21b6064820152608401610702565b600080866001600160a01b031685876040516128969190612f22565b60006040518083038185875af1925050503d80600081146128d3576040519150601f19603f3d011682016040523d82523d6000602084013e6128d8565b606091505b50915091506128e98783838761291e565b979650505050505050565b8151156129045781518083602001fd5b8060405162461bcd60e51b81526004016107029190612f3e565b6060831561298d578251600003612986576001600160a01b0385163b6129865760405162461bcd60e51b815260206004820152601d60248201527f416464726573733a2063616c6c20746f206e6f6e2d636f6e74726163740000006044820152606401610702565b5081612375565b61237583836128f4565b80356001600160a01b0381168114611fe557600080fd5b600080600080600060a086880312156129c657600080fd5b6129cf86612997565b94506129dd60208701612997565b93506129eb60408701612997565b92506129f960608701612997565b9150612a0760808701612997565b90509295509295909350565b600060208284031215612a2557600080fd5b5035919050565b60008060408385031215612a3f57600080fd5b82359150612a4f60208401612997565b90509250929050565b600060208284031215612a6a57600080fd5b6108d182612997565b60008060408385031215612a8657600080fd5b50508035926020909101359150565b634e487b7160e01b600052604160045260246000fd5b60008060408385031215612abe57600080fd5b612ac783612997565b915060208301356001600160401b0380821115612ae357600080fd5b818501915085601f830112612af757600080fd5b813581811115612b0957612b09612a95565b604051601f8201601f19908116603f01168101908382118183101715612b3157612b31612a95565b81604052828152886020848701011115612b4a57600080fd5b8260208601602083013760006020848301015280955050505050509250929050565b634e487b7160e01b600052602160045260246000fd5b6020810160048310612ba457634e487b7160e01b600052602160045260246000fd5b91905290565b803561ffff81168114611fe557600080fd5b80356001600160401b0381168114611fe557600080fd5b60008060008060008060008060006101208a8c031215612bf257600080fd5b612bfb8a612997565b9850612c0960208b01612baa565b9750612c1760408b01612baa565b9650612c2560608b01612baa565b9550612c3360808b01612bbc565b945060a08a0135935060c08a0135925060e08a01359150612c576101008b01612bbc565b90509295985092959850929598565b81516001600160a01b0316815261016081016020830151612c9260208401826001600160401b03169052565b506040830151612ca8604084018261ffff169052565b506060830151612cbe606084018261ffff169052565b506080830151612cd4608084018261ffff169052565b5060a0830151612cef60a08401826001600160401b03169052565b5060c0830151612d0a60c08401826001600160a01b03169052565b5060e083810151908301526101008084015190830152610120808401519083015261014092830151929091019190915290565b634e487b7160e01b600052601160045260246000fd5b81810381811115610e5757610e57612d3d565b634e487b7160e01b600052601260045260246000fd5b600082612d8b57612d8b612d66565b500490565b6020808252602c908201527f46756e6374696f6e206d7573742062652063616c6c6564207468726f7567682060408201526b19195b1959d85d1958d85b1b60a21b606082015260800190565b6020808252602c908201527f46756e6374696f6e206d7573742062652063616c6c6564207468726f7567682060408201526b6163746976652070726f787960a01b606082015260800190565b8082028115828204841417610e5757610e57612d3d565b80820180821115610e5757610e57612d3d565b61ffff818116838216019080821115612e6d57612e6d612d3d565b5092915050565b600082612e8357612e83612d66565b500690565b6001600160401b03818116838216019080821115612e6d57612e6d612d3d565b61ffff828116828216039080821115612e6d57612e6d612d3d565b600060208284031215612ed557600080fd5b5051919050565b600060208284031215612eee57600080fd5b815180151581146108d157600080fd5b60005b83811015612f19578181015183820152602001612f01565b50506000910152565b60008251612f34818460208701612efe565b9190910192915050565b6020815260008251806020840152612f5d816040850160208701612efe565b601f01601f1916919091016040019291505056fe360894a13ba1a3210667c828492db98dca3e2076cc3735a920a3ca505d382bbc416464726573733a206c6f772d6c6576656c2064656c65676174652063616c6c206661696c6564a2646970667358221220f73d720fcd24f2bfeebbb1877ca5e452cf243fc3210ac6ea0a27246fce42aed364736f6c63430008110033",
  "devdoc": {
    "author": "Horizon DAO (Yuri Fernandes)",
    "events": {
      "CashBack(uint256,address,address,uint256)": {
        "details": "Emitted when an investors withdraw it's funds after an IRO fails"
      },
      "Commit(uint256,address,address,uint256,uint256)": {
        "details": "Emitted when a new Commit is made to an IRO"
      },
      "CreateIRO(uint256,address,address,uint256,uint16,uint16,uint16,uint64,uint64)": {
        "details": "Emitted when a new IRO is created"
      },
      "FundsWithdrawn(uint256,address,bool,uint256,uint256,uint256)": {
        "details": "Emitted when funds from an IRO are withdrawn"
      },
      "OwnerTokensClaimed(uint256,address,address,uint256)": {
        "details": "Emitted when the listing owner claims it's shares of the tokens"
      },
      "RealEstateCreated(uint256,uint256)": {
        "details": "Emitted when a new real estate token ID is created"
      },
      "SetBaseCurrency(address,address)": {
        "details": "Emitted when a new currency is set"
      },
      "SetRealEstateReserves(address,address)": {
        "details": "Emitted when the RealEstateReserves contract is set"
      },
      "SetTreasury(address,address)": {
        "details": "Emitted when the Treasury contract is set"
      },
      "TokensClaimed(uint256,address,address,uint256)": {
        "details": "Emitted when tokens are claimed by investors"
      }
    },
    "kind": "dev",
    "methods": {
      "claim(uint256,address)": {
        "params": {
          "_iroId": "ID of the IRO",
          "_to": "Address to send the claimed tokens"
        }
      },
      "commit(uint256,uint256)": {
        "params": {
          "_amountToPurchase": "Amount of IRO tokens to purchase",
          "_iroId": "ID of the IRO"
        }
      },
      "createIRO(address,uint16,uint16,uint16,uint64,uint256,uint256,uint256,uint64)": {
        "details": "Create new IRO",
        "params": {
          "_duration": "Duration of the IRO in seconds",
          "_hardCap": "Maximum fundraising in base price token",
          "_listingOwner": "Listing owner address",
          "_listingOwnerShare": "Listing owner share of IRO tokens in basis points",
          "_softCap": "Minimum fundraising in base price token",
          "_startOffset": "Time before IRO begins",
          "_treasuryFee": "Treasury fee percentage in basis points",
          "_unitPrice": "Price per unit of IRO token in base price token"
        }
      },
      "getIRO(uint256)": {
        "params": {
          "_iroId": "ID of the IRO"
        }
      },
      "getStatus(uint256)": {
        "params": {
          "_iroId": "ID of the IRO"
        }
      },
      "initialize(address,address,address,address,address)": {
        "details": "Initialize IRO contract",
        "params": {
          "_currency": "Currency used to precify the IRO tokens",
          "_realEstateNft": "RealEstateNFT contract address",
          "_realEstateReserves": "RealEstateReserves contract address",
          "_treasury": "Treasury contract address"
        }
      },
      "listingOwnerAmount(uint256)": {
        "params": {
          "_iroId": "ID of the IRO"
        }
      },
      "listingOwnerClaim(uint256,address)": {
        "params": {
          "_iroId": "ID of the IRO",
          "_to": "Address to send the tokens"
        }
      },
      "owner()": {
        "details": "Returns the address of the current owner."
      },
      "price(uint256,uint256)": {
        "params": {
          "_amountToPurchase": "Amount of IRO tokens to purchase",
          "_iroId": "ID of the IRO"
        }
      },
      "proxiableUUID()": {
        "details": "Implementation of the ERC1822 {proxiableUUID} function. This returns the storage slot used by the implementation. It is used to validate the implementation's compatibility when performing an upgrade. IMPORTANT: A proxy pointing at a proxiable contract should not be considered proxiable itself, because this risks bricking a proxy that upgrades to it, by delegating to itself until out of gas. Thus it is critical that this function revert if invoked through a proxy. This is guaranteed by the `notDelegated` modifier."
      },
      "remainingTokens(uint256)": {
        "params": {
          "_iroId": "ID of the IRO"
        }
      },
      "renounceOwnership()": {
        "details": "Leaves the contract without owner. It will not be possible to call `onlyOwner` functions anymore. Can only be called by the current owner. NOTE: Renouncing ownership will leave the contract without an owner, thereby removing any functionality that is only available to the owner."
      },
      "setCurrency(address)": {
        "details": "Set a new base price token",
        "params": {
          "_currency": "currency address (ERC20)"
        }
      },
      "setRealEstateReserves(address)": {
        "details": "Set new real estate reserves",
        "params": {
          "_realEstateReserves": "RealEstateReseres address"
        }
      },
      "setTreasury(address)": {
        "details": "Set new treasury",
        "params": {
          "_treasury": "Treasury address"
        }
      },
      "totalSupply(uint256)": {
        "params": {
          "_iroId": "ID of the IRO"
        }
      },
      "totalSupplyInterval(uint256)": {
        "params": {
          "_iroId": "ID of the IRO"
        }
      },
      "transferOwnership(address)": {
        "details": "Transfers ownership of the contract to a new account (`newOwner`). Can only be called by the current owner."
      },
      "upgradeTo(address)": {
        "details": "Upgrade the implementation of the proxy to `newImplementation`. Calls {_authorizeUpgrade}. Emits an {Upgraded} event."
      },
      "upgradeToAndCall(address,bytes)": {
        "details": "Upgrade the implementation of the proxy to `newImplementation`, and subsequently execute the function call encoded in `data`. Calls {_authorizeUpgrade}. Emits an {Upgraded} event."
      },
      "userAmountAndShare(uint256,address)": {
        "params": {
          "_iroId": "ID of the IRO",
          "_user": "User address"
        },
        "returns": {
          "amount": "Purchased amount",
          "share": "IRO share"
        }
      },
      "withdraw(uint256)": {
        "params": {
          "_iroId": "ID of the IRO"
        }
      }
    },
    "stateVariables": {
      "DENOMINATOR": {
        "details": "Denominator used to calculate fees/shares"
      },
      "_fundsWithdrawn": {
        "details": "Points out whether funds have been withdrawn from IRO"
      },
      "_iros": {
        "details": "mapping (iroId => iro)"
      },
      "_listingOwnerClaimed": {
        "details": "Points out whether the listingOwner has claimed it's share"
      },
      "_nextAvailableId": {
        "details": "Next available IRO ID"
      },
      "_realEstateIdSet": {
        "details": "Whether an ID has already been set in the RealEstateNFT contract for the IRO"
      },
      "commits": {
        "details": "mapping (iroId => user => commit)"
      },
      "realEstateId": {
        "details": "mapping (iroId => realEstateId)"
      }
    },
    "title": "Initial Real Estate Offering (IRO)",
    "version": 1
  },
  "userdoc": {
    "kind": "user",
    "methods": {
      "claim(uint256,address)": {
        "notice": "Claim purchased tokens when IRO successful or     get back commit amount in base currency if IRO failed"
      },
      "commit(uint256,uint256)": {
        "notice": "Commit to an IRO"
      },
      "currency()": {
        "notice": "Currency address"
      },
      "getIRO(uint256)": {
        "notice": "Get IRO"
      },
      "getStatus(uint256)": {
        "notice": "Get IRO status"
      },
      "iroLength()": {
        "notice": "Get total amount of IROs"
      },
      "listingOwnerAmount(uint256)": {
        "notice": "Get current listing owner reNFT amount"
      },
      "listingOwnerClaim(uint256,address)": {
        "notice": "Claim listing owner tokens"
      },
      "now64()": {
        "notice": "Get current time (uint64)"
      },
      "price(uint256,uint256)": {
        "notice": "Get the total price of a purchase"
      },
      "realEstateNft()": {
        "notice": "RealEstateNFT contract address"
      },
      "realEstateReserves()": {
        "notice": "RealEstateReserves contract address"
      },
      "remainingTokens(uint256)": {
        "notice": "Get the amount of remaining IRO tokens"
      },
      "totalSupply(uint256)": {
        "notice": "Get the current total supply"
      },
      "totalSupplyInterval(uint256)": {
        "notice": "Get minimum and maximum supply"
      },
      "treasury()": {
        "notice": "Treasury contract address"
      },
      "userAmountAndShare(uint256,address)": {
        "notice": "Get an user purchased amount and shares of an IRO"
      },
      "withdraw(uint256)": {
        "notice": "Withdraw and distribute funds from successful IROs"
      }
    },
    "notice": "Used to run IROs, mint tokens to RealEstateNFT     and distribute funds",
    "version": 1
  },
  "storageLayout": {
    "storage": [
      {
        "astId": 598,
        "contract": "contracts/protocol/InitialRealEstateOffering.sol:InitialRealEstateOffering",
        "label": "_initialized",
        "offset": 0,
        "slot": "0",
        "type": "t_uint8"
      },
      {
        "astId": 601,
        "contract": "contracts/protocol/InitialRealEstateOffering.sol:InitialRealEstateOffering",
        "label": "_initializing",
        "offset": 1,
        "slot": "0",
        "type": "t_bool"
      },
      {
        "astId": 3548,
        "contract": "contracts/protocol/InitialRealEstateOffering.sol:InitialRealEstateOffering",
        "label": "__gap",
        "offset": 0,
        "slot": "1",
        "type": "t_array(t_uint256)50_storage"
      },
      {
        "astId": 56,
        "contract": "contracts/protocol/InitialRealEstateOffering.sol:InitialRealEstateOffering",
        "label": "_owner",
        "offset": 0,
        "slot": "51",
        "type": "t_address"
      },
      {
        "astId": 176,
        "contract": "contracts/protocol/InitialRealEstateOffering.sol:InitialRealEstateOffering",
        "label": "__gap",
        "offset": 0,
        "slot": "52",
        "type": "t_array(t_uint256)49_storage"
      },
      {
        "astId": 580,
        "contract": "contracts/protocol/InitialRealEstateOffering.sol:InitialRealEstateOffering",
        "label": "__gap",
        "offset": 0,
        "slot": "101",
        "type": "t_array(t_uint256)50_storage"
      },
      {
        "astId": 895,
        "contract": "contracts/protocol/InitialRealEstateOffering.sol:InitialRealEstateOffering",
        "label": "__gap",
        "offset": 0,
        "slot": "151",
        "type": "t_array(t_uint256)50_storage"
      },
      {
        "astId": 10603,
        "contract": "contracts/protocol/InitialRealEstateOffering.sol:InitialRealEstateOffering",
        "label": "currency",
        "offset": 0,
        "slot": "201",
        "type": "t_address"
      },
      {
        "astId": 10606,
        "contract": "contracts/protocol/InitialRealEstateOffering.sol:InitialRealEstateOffering",
        "label": "treasury",
        "offset": 0,
        "slot": "202",
        "type": "t_address"
      },
      {
        "astId": 10610,
        "contract": "contracts/protocol/InitialRealEstateOffering.sol:InitialRealEstateOffering",
        "label": "realEstateNft",
        "offset": 0,
        "slot": "203",
        "type": "t_contract(IRealEstateERC1155)9949"
      },
      {
        "astId": 10614,
        "contract": "contracts/protocol/InitialRealEstateOffering.sol:InitialRealEstateOffering",
        "label": "realEstateReserves",
        "offset": 0,
        "slot": "204",
        "type": "t_contract(IRealEstateReserves)9961"
      },
      {
        "astId": 10618,
        "contract": "contracts/protocol/InitialRealEstateOffering.sol:InitialRealEstateOffering",
        "label": "_nextAvailableId",
        "offset": 0,
        "slot": "205",
        "type": "t_struct(Counter)3555_storage"
      },
      {
        "astId": 10624,
        "contract": "contracts/protocol/InitialRealEstateOffering.sol:InitialRealEstateOffering",
        "label": "_iros",
        "offset": 0,
        "slot": "206",
        "type": "t_mapping(t_uint256,t_struct(IRO)10600_storage)"
      },
      {
        "astId": 10631,
        "contract": "contracts/protocol/InitialRealEstateOffering.sol:InitialRealEstateOffering",
        "label": "commits",
        "offset": 0,
        "slot": "207",
        "type": "t_mapping(t_uint256,t_mapping(t_address,t_uint256))"
      },
      {
        "astId": 10636,
        "contract": "contracts/protocol/InitialRealEstateOffering.sol:InitialRealEstateOffering",
        "label": "realEstateId",
        "offset": 0,
        "slot": "208",
        "type": "t_mapping(t_uint256,t_uint256)"
      },
      {
        "astId": 10640,
        "contract": "contracts/protocol/InitialRealEstateOffering.sol:InitialRealEstateOffering",
        "label": "_fundsWithdrawn",
        "offset": 0,
        "slot": "209",
        "type": "t_struct(BitMap)4787_storage"
      },
      {
        "astId": 10644,
        "contract": "contracts/protocol/InitialRealEstateOffering.sol:InitialRealEstateOffering",
        "label": "_listingOwnerClaimed",
        "offset": 0,
        "slot": "210",
        "type": "t_struct(BitMap)4787_storage"
      },
      {
        "astId": 10648,
        "contract": "contracts/protocol/InitialRealEstateOffering.sol:InitialRealEstateOffering",
        "label": "_realEstateIdSet",
        "offset": 0,
        "slot": "211",
        "type": "t_struct(BitMap)4787_storage"
      }
    ],
    "types": {
      "t_address": {
        "encoding": "inplace",
        "label": "address",
        "numberOfBytes": "20"
      },
      "t_array(t_uint256)49_storage": {
        "base": "t_uint256",
        "encoding": "inplace",
        "label": "uint256[49]",
        "numberOfBytes": "1568"
      },
      "t_array(t_uint256)50_storage": {
        "base": "t_uint256",
        "encoding": "inplace",
        "label": "uint256[50]",
        "numberOfBytes": "1600"
      },
      "t_bool": {
        "encoding": "inplace",
        "label": "bool",
        "numberOfBytes": "1"
      },
      "t_contract(IRealEstateERC1155)9949": {
        "encoding": "inplace",
        "label": "contract IRealEstateERC1155",
        "numberOfBytes": "20"
      },
      "t_contract(IRealEstateReserves)9961": {
        "encoding": "inplace",
        "label": "contract IRealEstateReserves",
        "numberOfBytes": "20"
      },
      "t_mapping(t_address,t_uint256)": {
        "encoding": "mapping",
        "key": "t_address",
        "label": "mapping(address => uint256)",
        "numberOfBytes": "32",
        "value": "t_uint256"
      },
      "t_mapping(t_uint256,t_mapping(t_address,t_uint256))": {
        "encoding": "mapping",
        "key": "t_uint256",
        "label": "mapping(uint256 => mapping(address => uint256))",
        "numberOfBytes": "32",
        "value": "t_mapping(t_address,t_uint256)"
      },
      "t_mapping(t_uint256,t_struct(IRO)10600_storage)": {
        "encoding": "mapping",
        "key": "t_uint256",
        "label": "mapping(uint256 => struct InitialRealEstateOffering.IRO)",
        "numberOfBytes": "32",
        "value": "t_struct(IRO)10600_storage"
      },
      "t_mapping(t_uint256,t_uint256)": {
        "encoding": "mapping",
        "key": "t_uint256",
        "label": "mapping(uint256 => uint256)",
        "numberOfBytes": "32",
        "value": "t_uint256"
      },
      "t_struct(BitMap)4787_storage": {
        "encoding": "inplace",
        "label": "struct BitMapsUpgradeable.BitMap",
        "members": [
          {
            "astId": 4786,
            "contract": "contracts/protocol/InitialRealEstateOffering.sol:InitialRealEstateOffering",
            "label": "_data",
            "offset": 0,
            "slot": "0",
            "type": "t_mapping(t_uint256,t_uint256)"
          }
        ],
        "numberOfBytes": "32"
      },
      "t_struct(Counter)3555_storage": {
        "encoding": "inplace",
        "label": "struct CountersUpgradeable.Counter",
        "members": [
          {
            "astId": 3554,
            "contract": "contracts/protocol/InitialRealEstateOffering.sol:InitialRealEstateOffering",
            "label": "_value",
            "offset": 0,
            "slot": "0",
            "type": "t_uint256"
          }
        ],
        "numberOfBytes": "32"
      },
      "t_struct(IRO)10600_storage": {
        "encoding": "inplace",
        "label": "struct InitialRealEstateOffering.IRO",
        "members": [
          {
            "astId": 10579,
            "contract": "contracts/protocol/InitialRealEstateOffering.sol:InitialRealEstateOffering",
            "label": "listingOwner",
            "offset": 0,
            "slot": "0",
            "type": "t_address"
          },
          {
            "astId": 10581,
            "contract": "contracts/protocol/InitialRealEstateOffering.sol:InitialRealEstateOffering",
            "label": "start",
            "offset": 20,
            "slot": "0",
            "type": "t_uint64"
          },
          {
            "astId": 10583,
            "contract": "contracts/protocol/InitialRealEstateOffering.sol:InitialRealEstateOffering",
            "label": "treasuryFee",
            "offset": 28,
            "slot": "0",
            "type": "t_uint16"
          },
          {
            "astId": 10585,
            "contract": "contracts/protocol/InitialRealEstateOffering.sol:InitialRealEstateOffering",
            "label": "reservesFee",
            "offset": 30,
            "slot": "0",
            "type": "t_uint16"
          },
          {
            "astId": 10587,
            "contract": "contracts/protocol/InitialRealEstateOffering.sol:InitialRealEstateOffering",
            "label": "listingOwnerShare",
            "offset": 0,
            "slot": "1",
            "type": "t_uint16"
          },
          {
            "astId": 10589,
            "contract": "contracts/protocol/InitialRealEstateOffering.sol:InitialRealEstateOffering",
            "label": "end",
            "offset": 2,
            "slot": "1",
            "type": "t_uint64"
          },
          {
            "astId": 10591,
            "contract": "contracts/protocol/InitialRealEstateOffering.sol:InitialRealEstateOffering",
            "label": "currency",
            "offset": 10,
            "slot": "1",
            "type": "t_address"
          },
          {
            "astId": 10593,
            "contract": "contracts/protocol/InitialRealEstateOffering.sol:InitialRealEstateOffering",
            "label": "softCap",
            "offset": 0,
            "slot": "2",
            "type": "t_uint256"
          },
          {
            "astId": 10595,
            "contract": "contracts/protocol/InitialRealEstateOffering.sol:InitialRealEstateOffering",
            "label": "hardCap",
            "offset": 0,
            "slot": "3",
            "type": "t_uint256"
          },
          {
            "astId": 10597,
            "contract": "contracts/protocol/InitialRealEstateOffering.sol:InitialRealEstateOffering",
            "label": "unitPrice",
            "offset": 0,
            "slot": "4",
            "type": "t_uint256"
          },
          {
            "astId": 10599,
            "contract": "contracts/protocol/InitialRealEstateOffering.sol:InitialRealEstateOffering",
            "label": "totalFunding",
            "offset": 0,
            "slot": "5",
            "type": "t_uint256"
          }
        ],
        "numberOfBytes": "192"
      },
      "t_uint16": {
        "encoding": "inplace",
        "label": "uint16",
        "numberOfBytes": "2"
      },
      "t_uint256": {
        "encoding": "inplace",
        "label": "uint256",
        "numberOfBytes": "32"
      },
      "t_uint64": {
        "encoding": "inplace",
        "label": "uint64",
        "numberOfBytes": "8"
      },
      "t_uint8": {
        "encoding": "inplace",
        "label": "uint8",
        "numberOfBytes": "1"
      }
    }
  }
}