{
  "address": "0x291C03F37d5773aEcc64C346C9f46934e1b45485",
  "abi": [
    {
      "anonymous": false,
      "inputs": [
        {
          "indexed": false,
          "internalType": "address",
          "name": "previousAdmin",
          "type": "address"
        },
        {
          "indexed": false,
          "internalType": "address",
          "name": "newAdmin",
          "type": "address"
        }
      ],
      "name": "AdminChanged",
      "type": "event"
    },
    {
      "anonymous": false,
      "inputs": [
        {
          "indexed": true,
          "internalType": "address",
          "name": "beacon",
          "type": "address"
        }
      ],
      "name": "BeaconUpgraded",
      "type": "event"
    },
    {
      "anonymous": false,
      "inputs": [
        {
          "indexed": true,
          "internalType": "uint256",
          "name": "_iroId",
          "type": "uint256"
        },
        {
          "indexed": true,
          "internalType": "address",
          "name": "_by",
          "type": "address"
        },
        {
          "indexed": true,
          "internalType": "address",
          "name": "_to",
          "type": "address"
        },
        {
          "indexed": false,
          "internalType": "uint256",
          "name": "_commitAmount",
          "type": "uint256"
        }
      ],
      "name": "CashBack",
      "type": "event"
    },
    {
      "anonymous": false,
      "inputs": [
        {
          "indexed": true,
          "internalType": "uint256",
          "name": "_iroId",
          "type": "uint256"
        },
        {
          "indexed": true,
          "internalType": "address",
          "name": "_user",
          "type": "address"
        },
        {
          "indexed": true,
          "internalType": "address",
          "name": "_currency",
          "type": "address"
        },
        {
          "indexed": false,
          "internalType": "uint256",
          "name": "_amountInBase",
          "type": "uint256"
        },
        {
          "indexed": false,
          "internalType": "uint256",
          "name": "_purchasedTokens",
          "type": "uint256"
        }
      ],
      "name": "Commit",
      "type": "event"
    },
    {
      "anonymous": false,
      "inputs": [
        {
          "indexed": true,
          "internalType": "uint256",
          "name": "_id",
          "type": "uint256"
        },
        {
          "indexed": true,
          "internalType": "address",
          "name": "_listingOwner",
          "type": "address"
        },
        {
          "indexed": false,
          "internalType": "uint256",
          "name": "_unitPrice",
          "type": "uint256"
        },
        {
          "indexed": false,
          "internalType": "uint16",
          "name": "_listingOwnerShare",
          "type": "uint16"
        },
        {
          "indexed": false,
          "internalType": "uint16",
          "name": "_treasuryFee",
          "type": "uint16"
        },
        {
          "indexed": false,
          "internalType": "uint64",
          "name": "_start",
          "type": "uint64"
        },
        {
          "indexed": false,
          "internalType": "uint64",
          "name": "_end",
          "type": "uint64"
        }
      ],
      "name": "CreateIRO",
      "type": "event"
    },
    {
      "anonymous": false,
      "inputs": [
        {
          "indexed": true,
          "internalType": "uint256",
          "name": "_iroId",
          "type": "uint256"
        },
        {
          "indexed": true,
          "internalType": "address",
          "name": "_by",
          "type": "address"
        },
        {
          "indexed": true,
          "internalType": "bool",
          "name": "_realEstateFundsSet",
          "type": "bool"
        },
        {
          "indexed": false,
          "internalType": "uint256",
          "name": "_listingOwnerAmount",
          "type": "uint256"
        },
        {
          "indexed": false,
          "internalType": "uint256",
          "name": "_treasuryAmount",
          "type": "uint256"
        },
        {
          "indexed": false,
          "internalType": "uint256",
          "name": "_realEstateFundsAmount",
          "type": "uint256"
        }
      ],
      "name": "FundsWithdrawn",
      "type": "event"
    },
    {
      "anonymous": false,
      "inputs": [
        {
          "indexed": false,
          "internalType": "uint8",
          "name": "version",
          "type": "uint8"
        }
      ],
      "name": "Initialized",
      "type": "event"
    },
    {
      "anonymous": false,
      "inputs": [
        {
          "indexed": true,
          "internalType": "uint256",
          "name": "_iroId",
          "type": "uint256"
        },
        {
          "indexed": true,
          "internalType": "address",
          "name": "_by",
          "type": "address"
        },
        {
          "indexed": true,
          "internalType": "address",
          "name": "_to",
          "type": "address"
        },
        {
          "indexed": false,
          "internalType": "uint256",
          "name": "_amount",
          "type": "uint256"
        }
      ],
      "name": "OwnerTokensClaimed",
      "type": "event"
    },
    {
      "anonymous": false,
      "inputs": [
        {
          "indexed": true,
          "internalType": "address",
          "name": "previousOwner",
          "type": "address"
        },
        {
          "indexed": true,
          "internalType": "address",
          "name": "newOwner",
          "type": "address"
        }
      ],
      "name": "OwnershipTransferred",
      "type": "event"
    },
    {
      "anonymous": false,
      "inputs": [
        {
          "indexed": true,
          "internalType": "address",
          "name": "_by",
          "type": "address"
        },
        {
          "indexed": true,
          "internalType": "address",
          "name": "_currency",
          "type": "address"
        }
      ],
      "name": "PathUpdated",
      "type": "event"
    },
    {
      "anonymous": false,
      "inputs": [
        {
          "indexed": true,
          "internalType": "uint256",
          "name": "_iroId",
          "type": "uint256"
        },
        {
          "indexed": true,
          "internalType": "uint256",
          "name": "_realEstateId",
          "type": "uint256"
        }
      ],
      "name": "RealEstateCreated",
      "type": "event"
    },
    {
      "anonymous": false,
      "inputs": [
        {
          "indexed": true,
          "internalType": "address",
          "name": "_by",
          "type": "address"
        },
        {
          "indexed": true,
          "internalType": "address",
          "name": "_baseCurrency",
          "type": "address"
        }
      ],
      "name": "SetBaseCurrency",
      "type": "event"
    },
    {
      "anonymous": false,
      "inputs": [
        {
          "indexed": true,
          "internalType": "address",
          "name": "_by",
          "type": "address"
        },
        {
          "indexed": true,
          "internalType": "address",
          "name": "_realEstateReserves",
          "type": "address"
        }
      ],
      "name": "SetRealEstateReserves",
      "type": "event"
    },
    {
      "anonymous": false,
      "inputs": [
        {
          "indexed": true,
          "internalType": "address",
          "name": "_by",
          "type": "address"
        },
        {
          "indexed": true,
          "internalType": "address",
          "name": "_treasury",
          "type": "address"
        }
      ],
      "name": "SetTreasury",
      "type": "event"
    },
    {
      "anonymous": false,
      "inputs": [
        {
          "indexed": true,
          "internalType": "uint256",
          "name": "_iroId",
          "type": "uint256"
        },
        {
          "indexed": true,
          "internalType": "address",
          "name": "_by",
          "type": "address"
        },
        {
          "indexed": true,
          "internalType": "address",
          "name": "_to",
          "type": "address"
        },
        {
          "indexed": false,
          "internalType": "uint256",
          "name": "_amount",
          "type": "uint256"
        }
      ],
      "name": "TokensClaimed",
      "type": "event"
    },
    {
      "anonymous": false,
      "inputs": [
        {
          "indexed": true,
          "internalType": "address",
          "name": "implementation",
          "type": "address"
        }
      ],
      "name": "Upgraded",
      "type": "event"
    },
    {
      "anonymous": false,
      "inputs": [
        {
          "indexed": true,
          "internalType": "address",
          "name": "_by",
          "type": "address"
        },
        {
          "indexed": true,
          "internalType": "address",
          "name": "_currency",
          "type": "address"
        },
        {
          "indexed": true,
          "internalType": "bool",
          "name": "_whitelist",
          "type": "bool"
        }
      ],
      "name": "WhitelistCurrency",
      "type": "event"
    },
    {
      "inputs": [
        {
          "internalType": "uint256",
          "name": "_iroId",
          "type": "uint256"
        },
        {
          "internalType": "address",
          "name": "_to",
          "type": "address"
        }
      ],
      "name": "claim",
      "outputs": [],
      "stateMutability": "nonpayable",
      "type": "function"
    },
    {
      "inputs": [
        {
          "internalType": "uint256",
          "name": "_iroId",
          "type": "uint256"
        },
        {
          "internalType": "address",
          "name": "_currency",
          "type": "address"
        },
        {
          "internalType": "uint256",
          "name": "_priceWithSlippage",
          "type": "uint256"
        },
        {
          "internalType": "uint256",
          "name": "_amountToPurchase",
          "type": "uint256"
        }
      ],
      "name": "commit",
      "outputs": [],
      "stateMutability": "payable",
      "type": "function"
    },
    {
      "inputs": [
        {
          "internalType": "uint256",
          "name": "",
          "type": "uint256"
        },
        {
          "internalType": "address",
          "name": "",
          "type": "address"
        }
      ],
      "name": "commits",
      "outputs": [
        {
          "internalType": "uint256",
          "name": "",
          "type": "uint256"
        }
      ],
      "stateMutability": "view",
      "type": "function"
    },
    {
      "inputs": [
        {
          "internalType": "address",
          "name": "_listingOwner",
          "type": "address"
        },
        {
          "internalType": "uint16",
          "name": "_listingOwnerFee",
          "type": "uint16"
        },
        {
          "internalType": "uint16",
          "name": "_listingOwnerShare",
          "type": "uint16"
        },
        {
          "internalType": "uint16",
          "name": "_treasuryFee",
          "type": "uint16"
        },
        {
          "internalType": "uint64",
          "name": "_duration",
          "type": "uint64"
        },
        {
          "internalType": "uint256",
          "name": "_softCap",
          "type": "uint256"
        },
        {
          "internalType": "uint256",
          "name": "_hardCap",
          "type": "uint256"
        },
        {
          "internalType": "uint256",
          "name": "_unitPrice",
          "type": "uint256"
        },
        {
          "internalType": "uint64",
          "name": "_startOffset",
          "type": "uint64"
        }
      ],
      "name": "createIRO",
      "outputs": [],
      "stateMutability": "nonpayable",
      "type": "function"
    },
    {
      "inputs": [],
      "name": "denominator",
      "outputs": [
        {
          "internalType": "uint16",
          "name": "",
          "type": "uint16"
        }
      ],
      "stateMutability": "pure",
      "type": "function"
    },
    {
      "inputs": [
        {
          "internalType": "uint256",
          "name": "_iroId",
          "type": "uint256"
        },
        {
          "internalType": "address",
          "name": "_currency",
          "type": "address"
        },
        {
          "internalType": "uint256",
          "name": "_amountToPurchase",
          "type": "uint256"
        }
      ],
      "name": "expectedPrice",
      "outputs": [
        {
          "internalType": "uint256",
          "name": "",
          "type": "uint256"
        }
      ],
      "stateMutability": "view",
      "type": "function"
    },
    {
      "inputs": [],
      "name": "finance",
      "outputs": [
        {
          "internalType": "contract IUniswapV2Router01",
          "name": "swapRouter",
          "type": "address"
        },
        {
          "internalType": "contract IPriceOracle",
          "name": "priceOracle",
          "type": "address"
        },
        {
          "internalType": "address",
          "name": "baseCurrency",
          "type": "address"
        }
      ],
      "stateMutability": "view",
      "type": "function"
    },
    {
      "inputs": [
        {
          "internalType": "uint256",
          "name": "_iroId",
          "type": "uint256"
        }
      ],
      "name": "getIRO",
      "outputs": [
        {
          "components": [
            {
              "internalType": "address",
              "name": "listingOwner",
              "type": "address"
            },
            {
              "internalType": "uint64",
              "name": "start",
              "type": "uint64"
            },
            {
              "internalType": "uint16",
              "name": "treasuryFee",
              "type": "uint16"
            },
            {
              "internalType": "uint16",
              "name": "listingOwnerFee",
              "type": "uint16"
            },
            {
              "internalType": "uint16",
              "name": "listingOwnerShare",
              "type": "uint16"
            },
            {
              "internalType": "uint64",
              "name": "end",
              "type": "uint64"
            },
            {
              "internalType": "uint256",
              "name": "softCap",
              "type": "uint256"
            },
            {
              "internalType": "uint256",
              "name": "hardCap",
              "type": "uint256"
            },
            {
              "internalType": "uint256",
              "name": "unitPrice",
              "type": "uint256"
            },
            {
              "internalType": "uint256",
              "name": "totalFunding",
              "type": "uint256"
            },
            {
              "internalType": "address",
              "name": "baseCurrency",
              "type": "address"
            }
          ],
          "internalType": "struct InitialRealEstateOffering.IRO",
          "name": "",
          "type": "tuple"
        }
      ],
      "stateMutability": "view",
      "type": "function"
    },
    {
      "inputs": [
        {
          "internalType": "uint256",
          "name": "_iroId",
          "type": "uint256"
        }
      ],
      "name": "getStatus",
      "outputs": [
        {
          "internalType": "enum InitialRealEstateOffering.Status",
          "name": "",
          "type": "uint8"
        }
      ],
      "stateMutability": "view",
      "type": "function"
    },
    {
      "inputs": [
        {
          "internalType": "address",
          "name": "_owner",
          "type": "address"
        },
        {
          "internalType": "address",
          "name": "_realEstateNft",
          "type": "address"
        },
        {
          "internalType": "address",
          "name": "_treasury",
          "type": "address"
        },
        {
          "internalType": "address",
          "name": "_realEstateReserves",
          "type": "address"
        },
        {
          "internalType": "address",
          "name": "_baseCurrency",
          "type": "address"
        },
        {
          "internalType": "address",
          "name": "_priceFeedRegistry",
          "type": "address"
        },
        {
          "internalType": "address",
          "name": "_swapRouter",
          "type": "address"
        }
      ],
      "name": "initialize",
      "outputs": [],
      "stateMutability": "nonpayable",
      "type": "function"
    },
    {
      "inputs": [],
      "name": "iroLength",
      "outputs": [
        {
          "internalType": "uint256",
          "name": "",
          "type": "uint256"
        }
      ],
      "stateMutability": "view",
      "type": "function"
    },
    {
      "inputs": [
        {
          "internalType": "uint256",
          "name": "_iroId",
          "type": "uint256"
        },
        {
          "internalType": "address",
          "name": "_to",
          "type": "address"
        }
      ],
      "name": "listingOwnerClaim",
      "outputs": [],
      "stateMutability": "nonpayable",
      "type": "function"
    },
    {
      "inputs": [],
      "name": "now64",
      "outputs": [
        {
          "internalType": "uint64",
          "name": "",
          "type": "uint64"
        }
      ],
      "stateMutability": "view",
      "type": "function"
    },
    {
      "inputs": [],
      "name": "owner",
      "outputs": [
        {
          "internalType": "address",
          "name": "",
          "type": "address"
        }
      ],
      "stateMutability": "view",
      "type": "function"
    },
    {
      "inputs": [
        {
          "internalType": "uint256",
          "name": "_iroId",
          "type": "uint256"
        },
        {
          "internalType": "address",
          "name": "_currency",
          "type": "address"
        },
        {
          "internalType": "uint256",
          "name": "_amountToPurchase",
          "type": "uint256"
        },
        {
          "internalType": "uint16",
          "name": "_slippage",
          "type": "uint16"
        }
      ],
      "name": "priceWithSlippage",
      "outputs": [
        {
          "internalType": "uint256",
          "name": "",
          "type": "uint256"
        }
      ],
      "stateMutability": "view",
      "type": "function"
    },
    {
      "inputs": [],
      "name": "proxiableUUID",
      "outputs": [
        {
          "internalType": "bytes32",
          "name": "",
          "type": "bytes32"
        }
      ],
      "stateMutability": "view",
      "type": "function"
    },
    {
      "inputs": [
        {
          "internalType": "uint256",
          "name": "",
          "type": "uint256"
        }
      ],
      "name": "realEstateId",
      "outputs": [
        {
          "internalType": "uint256",
          "name": "",
          "type": "uint256"
        }
      ],
      "stateMutability": "view",
      "type": "function"
    },
    {
      "inputs": [],
      "name": "realEstateNft",
      "outputs": [
        {
          "internalType": "contract IRealEstateERC1155",
          "name": "",
          "type": "address"
        }
      ],
      "stateMutability": "view",
      "type": "function"
    },
    {
      "inputs": [],
      "name": "realEstateReserves",
      "outputs": [
        {
          "internalType": "contract IRealEstateReserves",
          "name": "",
          "type": "address"
        }
      ],
      "stateMutability": "view",
      "type": "function"
    },
    {
      "inputs": [
        {
          "internalType": "uint256",
          "name": "_iroId",
          "type": "uint256"
        }
      ],
      "name": "remainingTokens",
      "outputs": [
        {
          "internalType": "uint256",
          "name": "",
          "type": "uint256"
        }
      ],
      "stateMutability": "view",
      "type": "function"
    },
    {
      "inputs": [],
      "name": "renounceOwnership",
      "outputs": [],
      "stateMutability": "nonpayable",
      "type": "function"
    },
    {
      "inputs": [
        {
          "internalType": "address",
          "name": "_baseCurrency",
          "type": "address"
        }
      ],
      "name": "setBaseCurrency",
      "outputs": [],
      "stateMutability": "nonpayable",
      "type": "function"
    },
    {
      "inputs": [
        {
          "internalType": "address",
          "name": "_realEstateReserves",
          "type": "address"
        }
      ],
      "name": "setRealEstateReserves",
      "outputs": [],
      "stateMutability": "nonpayable",
      "type": "function"
    },
    {
      "inputs": [
        {
          "internalType": "address",
          "name": "_treasury",
          "type": "address"
        }
      ],
      "name": "setTreasury",
      "outputs": [],
      "stateMutability": "nonpayable",
      "type": "function"
    },
    {
      "inputs": [
        {
          "internalType": "address",
          "name": "_currency",
          "type": "address"
        },
        {
          "internalType": "address[]",
          "name": "_relativePath",
          "type": "address[]"
        }
      ],
      "name": "setrelativePath",
      "outputs": [],
      "stateMutability": "nonpayable",
      "type": "function"
    },
    {
      "inputs": [
        {
          "internalType": "address",
          "name": "newOwner",
          "type": "address"
        }
      ],
      "name": "transferOwnership",
      "outputs": [],
      "stateMutability": "nonpayable",
      "type": "function"
    },
    {
      "inputs": [],
      "name": "treasury",
      "outputs": [
        {
          "internalType": "address",
          "name": "",
          "type": "address"
        }
      ],
      "stateMutability": "view",
      "type": "function"
    },
    {
      "inputs": [
        {
          "internalType": "address",
          "name": "newImplementation",
          "type": "address"
        }
      ],
      "name": "upgradeTo",
      "outputs": [],
      "stateMutability": "nonpayable",
      "type": "function"
    },
    {
      "inputs": [
        {
          "internalType": "address",
          "name": "newImplementation",
          "type": "address"
        },
        {
          "internalType": "bytes",
          "name": "data",
          "type": "bytes"
        }
      ],
      "name": "upgradeToAndCall",
      "outputs": [],
      "stateMutability": "payable",
      "type": "function"
    },
    {
      "inputs": [
        {
          "internalType": "address",
          "name": "_currency",
          "type": "address"
        },
        {
          "internalType": "bool",
          "name": "_whitelist",
          "type": "bool"
        }
      ],
      "name": "whitelistCurrency",
      "outputs": [],
      "stateMutability": "nonpayable",
      "type": "function"
    },
    {
      "inputs": [
        {
          "internalType": "address",
          "name": "",
          "type": "address"
        }
      ],
      "name": "whitelistedCurrency",
      "outputs": [
        {
          "internalType": "bool",
          "name": "whitelisted",
          "type": "bool"
        }
      ],
      "stateMutability": "view",
      "type": "function"
    },
    {
      "inputs": [
        {
          "internalType": "uint256",
          "name": "_iroId",
          "type": "uint256"
        }
      ],
      "name": "withdraw",
      "outputs": [],
      "stateMutability": "nonpayable",
      "type": "function"
    },
    {
      "stateMutability": "payable",
      "type": "receive"
    }
  ],
  "transactionHash": "0x937c0ac7ac6a0b9a8f753559d5940c82bd2830eedfcf9b99f61cbfb75be0130a",
  "args": [],
  "numDeployments": 1,
  "solcInputHash": "725cbbf05b894e09501d03245e6f9fa6",
  "bytecode": "0x60a06040523060805234801561001457600080fd5b506080516140ab61004c60003960008181610d8601528181610dc601528181610e6501528181610ea50152610f3801526140ab6000f3fe6080604052600436106101e75760003560e01c8063885d68a811610102578063b478f41611610095578063ef217dbd11610064578063ef217dbd14610605578063f0f442601461061a578063f1d909a11461063a578063f2fde38b1461065a57600080fd5b8063b478f41614610581578063ddd5e1b2146105a1578063de9ee90b146105c1578063e915c559146105e557600080fd5b806396ce0795116100d157806396ce079514610504578063976d1629146105215780639a19b73b14610541578063b0ecf87c1461056e57600080fd5b8063885d68a81461046e5780638c3bfb1c146104a65780638da5cb5b146104c657806395ba7c5a146104e457600080fd5b80635c622a0e1161017a5780636b0c0b0a116101495780636b0c0b0a146103d95780636ffc5f6f146103f9578063715018a6146104195780637e32c2031461042e57600080fd5b80635c622a0e14610327578063606b77db1461035457806361d027b31461038157806369277bf7146103b957600080fd5b806335876476116101b657806335876476146102bf5780633659cfe6146102df5780634f1ef286146102ff57806352d1902d1461031257600080fd5b8063171ee95a146101f357806323b3359f146102265780632e1a7d4d14610248578063313b7b191461026857600080fd5b366101ee57005b600080fd5b3480156101ff57600080fd5b5061021361020e3660046135ce565b61067a565b6040519081526020015b60405180910390f35b34801561023257600080fd5b506102466102413660046135fc565b6106b4565b005b34801561025457600080fd5b506102466102633660046135ce565b610905565b34801561027457600080fd5b5060cc5460cd5460ce54610295926001600160a01b03908116928116911683565b604080516001600160a01b039485168152928416602084015292169181019190915260600161021d565b3480156102cb57600080fd5b506102466102da36600461362c565b610a86565b3480156102eb57600080fd5b506102466102fa3660046136c2565b610d7c565b61024661030d366004613725565b610e5b565b34801561031e57600080fd5b50610213610f2b565b34801561033357600080fd5b506103476103423660046135ce565b610fde565b60405161021d91906137e2565b34801561036057600080fd5b5061021361036f3660046135ce565b60d26020526000908152604090205481565b34801561038d57600080fd5b5060c9546103a1906001600160a01b031681565b6040516001600160a01b03909116815260200161021d565b3480156103c557600080fd5b506102136103d436600461380a565b61109b565b3480156103e557600080fd5b506102466103f4366004613865565b6111eb565b34801561040557600080fd5b5061021361041436600461392a565b6112a6565b34801561042557600080fd5b506102466113fb565b34801561043a57600080fd5b5061045e6104493660046136c2565b60d36020526000908152604090205460ff1681565b604051901515815260200161021d565b34801561047a57600080fd5b506102136104893660046135fc565b60d160209081526000928352604080842090915290825290205481565b3480156104b257600080fd5b506102466104c1366004613980565b61140f565b3480156104d257600080fd5b506033546001600160a01b03166103a1565b3480156104f057600080fd5b506102466104ff3660046139c5565b6114bb565b34801561051057600080fd5b50604051612710815260200161021d565b34801561052d57600080fd5b5060cb546103a1906001600160a01b031681565b34801561054d57600080fd5b5061056161055c3660046135ce565b611830565b60405161021d9190613a5a565b61024661057c366004613b29565b611991565b34801561058d57600080fd5b5061024661059c3660046136c2565b611cdd565b3480156105ad57600080fd5b506102466105bc3660046135fc565b611d8d565b3480156105cd57600080fd5b506040516001600160401b034216815260200161021d565b3480156105f157600080fd5b5060ca546103a1906001600160a01b031681565b34801561061157600080fd5b50610213611fcb565b34801561062657600080fd5b506102466106353660046136c2565b611fdb565b34801561064657600080fd5b506102466106553660046136c2565b612072565b34801561066657600080fd5b506102466106753660046136c2565b612113565b60008061068683611830565b90508061010001518161012001518260e001516106a39190613b7c565b6106ad9190613ba5565b9392505050565b60006106bf83611830565b80519091506001600160a01b0316331461070b5760405162461bcd60e51b815260206004820152600860248201526708585b1b1bddd95960c21b60448201526064015b60405180910390fd5b61071660d584612189565b156107555760405162461bcd60e51b815260206004820152600f60248201526e105b1c9958591e4818db185a5b5959608a1b6044820152606401610702565b6002610760826121ae565b6003811115610771576107716137cc565b146107b35760405162461bcd60e51b8152602060048201526012602482015271125493c81b9bdd081cdd58d8d95cdcd99d5b60721b6044820152606401610702565b6000816080015161ffff16116107fe5760405162461bcd60e51b815260206004820152601060248201526f4e6f7468696e6720746f20636c61696d60801b6044820152606401610702565b6000610819826101200151836101000151846080015161225f565b60ca549091506001600160a01b031663836a1040610836866122a1565b6040516001600160e01b031960e084901b16815260048101919091526001600160a01b038616602482015260448101849052606401600060405180830381600087803b15801561088557600080fd5b505af1158015610899573d6000803e3d6000fd5b505050506108b18460d561239e90919063ffffffff16565b826001600160a01b0316336001600160a01b0316857f5e789de02041c87403c6f48bfd49a8cb3e5a5e8a53bcdef4f2fb597992326b4f846040516108f791815260200190565b60405180910390a450505050565b600061091082611830565b9050600261091d826121ae565b600381111561092e5761092e6137cc565b146109705760405162461bcd60e51b8152602060048201526012602482015271125493c81b9bdd081cdd58d8d95cdcd99d5b60721b6044820152606401610702565b61097b60d483612189565b156109bc5760405162461bcd60e51b815260206004820152601160248201527020b63932b0b23c903bb4ba34323930bbb760791b6044820152606401610702565b805160c95460cb54600092839283928392610a0c9290916001600160a01b0391821691166109e98a6122a1565b8961012001518a6060015161ffff168b6040015161ffff168c61014001516123c7565b60088a901c600090815260d4602052604090208054600160ff8d161b17905592965090945092509050604080518581526020810185905290810183905281151590339088907ff51dce7865db25a2ec6b47f91f3e97b1626e1e085200f50031aaceb3eda8df379060600160405180910390a4505050505050565b600054610100900460ff1615808015610aa65750600054600160ff909116105b80610ac05750303b158015610ac0575060005460ff166001145b610b235760405162461bcd60e51b815260206004820152602e60248201527f496e697469616c697a61626c653a20636f6e747261637420697320616c72656160448201526d191e481a5b9a5d1a585b1a5e995960921b6064820152608401610702565b6000805460ff191660011790558015610b46576000805461ff0019166101001790555b6001600160a01b038716610b8e5760405162461bcd60e51b815260206004820152600f60248201526e0857dc99585b115cdd185d1953999d608a1b6044820152606401610702565b6001600160a01b038616610bd15760405162461bcd60e51b815260206004820152600a602482015269215f747265617375727960b01b6044820152606401610702565b6001600160a01b038416610c185760405162461bcd60e51b815260206004820152600e60248201526d215f6261736543757272656e637960901b6044820152606401610702565b6001600160a01b038316610c645760405162461bcd60e51b8152602060048201526013602482015272215f707269636546656564526567697374727960681b6044820152606401610702565b6001600160a01b038216610ca95760405162461bcd60e51b815260206004820152600c60248201526b10afb9bbb0b82937baba32b960a11b6044820152606401610702565b60ca80546001600160a01b03199081166001600160a01b038a81169190911790925560c98054821689841617905560cb8054821688841617905560cc8054821685841617905560cd8054821686841617905560ce80549091169186169182179055600090815260d360205260409020805460ff19166001179055610d2c886124f4565b8015610d72576000805461ff0019169055604051600181527f7f26b83ff96e1f2b6a682f133852f6798a09c465da95921460cefb38474024989060200160405180910390a15b5050505050505050565b6001600160a01b037f0000000000000000000000000000000000000000000000000000000000000000163003610dc45760405162461bcd60e51b815260040161070290613bb9565b7f00000000000000000000000000000000000000000000000000000000000000006001600160a01b0316610e0d60008051602061402f833981519152546001600160a01b031690565b6001600160a01b031614610e335760405162461bcd60e51b815260040161070290613c05565b610e3c81612546565b60408051600080825260208201909252610e589183919061254e565b50565b6001600160a01b037f0000000000000000000000000000000000000000000000000000000000000000163003610ea35760405162461bcd60e51b815260040161070290613bb9565b7f00000000000000000000000000000000000000000000000000000000000000006001600160a01b0316610eec60008051602061402f833981519152546001600160a01b031690565b6001600160a01b031614610f125760405162461bcd60e51b815260040161070290613c05565b610f1b82612546565b610f278282600161254e565b5050565b6000306001600160a01b037f00000000000000000000000000000000000000000000000000000000000000001614610fcb5760405162461bcd60e51b815260206004820152603860248201527f555550535570677261646561626c653a206d757374206e6f742062652063616c60448201527f6c6564207468726f7567682064656c656761746563616c6c00000000000000006064820152608401610702565b5060008051602061402f83398151915290565b600081815260d06020908152604080832081516101608101835281546001600160a01b0380821683526001600160401b03600160a01b830481169684019690965261ffff600160e01b8304811695840195909552600160f01b90910484166060830152600183015493841660808301526201000090930490931660a0840152600281015460c0840152600381015460e08401526004810154610100840152600581015461012084015260060154166101408201526106ad816121ae565b6001600160a01b038216600090815260d36020908152604080832081518083018352815460ff161515815260018201805484518187028101870190955280855286959294858401939092919083018282801561112057602002820191906000526020600020905b81546001600160a01b03168152600190910190602001808311611102575b505050505081525050905080600001516111785760405162461bcd60e51b815260206004820152601960248201527843757272656e6379206973206e6f7420617661696c61626c6560381b6044820152606401610702565b600061118386611830565b90506111e1816101000151868685602001515160026111a29190613c51565b6101408601516040805160608101825260cc546001600160a01b03908116825260cd548116602083015260ce54169181019190915294939291906126be565b9695505050505050565b6111f361273f565b6001600160a01b03821661123c5760405162461bcd60e51b815260206004820152601060248201526f21696e76616c6964206164647265737360801b6044820152606401610702565b6001600160a01b038216600090815260d360209081526040909120825161126b92600190920191840190613554565b506040516001600160a01b0383169033907f541e8ddf10373c23738bb2294d080cbb3fd1e8a673a6cf2cabac62a4b4c663b390600090a35050565b6001600160a01b038316600090815260d36020908152604080832081518083018352815460ff161515815260018201805484518187028101870190955280855286959294858401939092919083018282801561132b57602002820191906000526020600020905b81546001600160a01b0316815260019091019060200180831161130d575b505050505081525050905080600001516113835760405162461bcd60e51b815260206004820152601960248201527843757272656e6379206973206e6f7420617661696c61626c6560381b6044820152606401610702565b600061138e87611830565b90506113ee81610100015187878786602001515160026113ae9190613c51565b6101408701516040805160608101825260cc546001600160a01b03908116825260cd548116602083015260ce541691810191909152959493929190612799565b925050505b949350505050565b61140361273f565b61140d60006124f4565b565b61141761273f565b60ce546001600160a01b03908116908316036114645760405162461bcd60e51b815260206004820152600c60248201526b6261736543757272656e637960a01b6044820152606401610702565b6001600160a01b038216600081815260d36020526040808220805460ff1916851515908117909155905190929133917fff9717957a4925fa759608c104b35e85f78592a929d5f5e9056bf381af31ef229190a45050565b6114c361273f565b61271061ffff8816118015906114df575061271061ffff871611155b6115215760405162461bcd60e51b8152602060048201526013602482015272125b9d985b1a590818985cda5cc81c1bda5b9d606a1b6044820152606401610702565b8161152c8585613b7c565b6115369190613c64565b156115915760405162461bcd60e51b815260206004820152602560248201527f436170732073686f756c64206265206d756c7469706c6573206f6620756e6974604482015264507269636560d81b6064820152608401610702565b600061159b611fcb565b905060006115a98342613c78565b905060006115b78883613c78565b90506040518061016001604052808d6001600160a01b03168152602001836001600160401b031681526020018a61ffff1681526020018c61ffff1681526020018b61ffff168152602001826001600160401b031681526020018881526020018781526020018681526020016000815260200160cc60020160009054906101000a90046001600160a01b03166001600160a01b031681525060d0600085815260200190815260200160002060008201518160000160006101000a8154816001600160a01b0302191690836001600160a01b0316021790555060208201518160000160146101000a8154816001600160401b0302191690836001600160401b03160217905550604082015181600001601c6101000a81548161ffff021916908361ffff160217905550606082015181600001601e6101000a81548161ffff021916908361ffff16021790555060808201518160010160006101000a81548161ffff021916908361ffff16021790555060a08201518160010160026101000a8154816001600160401b0302191690836001600160401b0316021790555060c0820151816002015560e08201518160030155610100820151816004015561012082015181600501556101408201518160060160006101000a8154816001600160a01b0302191690836001600160a01b031602179055509050506117ba60cf80546001019055565b6040805186815261ffff8c811660208301528b16818301526001600160401b0384811660608301528316608082015290516001600160a01b038e169185917f47623e9a1ac1276299a411e313416730652c442497bd1f561dba6cbc62857f7c9181900360a00190a3505050505050505050505050565b6040805161016081018252600080825260208201819052918101829052606081018290526080810182905260a0810182905260c0810182905260e0810182905261010081018290526101208101829052610140810191909152611891611fcb565b82106118d65760405162461bcd60e51b81526020600482015260146024820152735f69726f4964206f75742d6f662d626f756e647360601b6044820152606401610702565b50600090815260d0602090815260409182902082516101608101845281546001600160a01b0380821683526001600160401b03600160a01b830481169584019590955261ffff600160e01b8304811696840196909652600160f01b90910485166060830152600183015494851660808301526201000090940490921660a0830152600281015460c0830152600381015460e0830152600481015461010083015260058101546101208301526006015490911661014082015290565b600081116119f75760405162461bcd60e51b815260206004820152602d60248201527f5f616d6f756e74546f50757263686173652073686f756c64206265206772656160448201526c746572207468616e207a65726f60981b6064820152608401610702565b6001600160a01b038316600090815260d36020908152604080832081518083018352815460ff16151581526001820180548451818702810187019095528085529194929385840193909290830182828015611a7b57602002820191906000526020600020905b81546001600160a01b03168152600190910190602001808311611a5d575b50505091909252505060ce54919250506001600160a01b0385811691161480611aa2575080515b611ae55760405162461bcd60e51b815260206004820152601460248201527310dd5c9c995b98de481b9bdd08185b1b1bddd95960621b6044820152606401610702565b6000611af086611830565b90506001611afd826121ae565b6003811115611b0e57611b0e6137cc565b14611b4f5760405162461bcd60e51b815260206004820152601160248201527049524f206973206e6f742061637469766560781b6044820152606401610702565b60e0810151610100820151611b649085613c9f565b826101200151611b749190613c51565b1115611bb45760405162461bcd60e51b815260206004820152600f60248201526e12185c9918d85c081c995858da1959608a1b6044820152606401610702565b6001600160a01b03851615801590611bcc5750600034115b15611bdb57611bdb3334612800565b6101008101516020808401516101408401516040805160608101825260cc546001600160a01b03908116825260cd5481169582019590955260ce5490941690840152600093611c33939290918a918a918a919061289b565b600088815260d160209081526040808320338452909152812080549293508392909190611c61908490613c51565b9091555050600087815260d0602052604081206005018054839290611c87908490613c51565b909155505060408051828152602081018690526001600160a01b0388169133918a917f5a85eb554fd8d84f35068dd70b72c3eade7b5cd89deb5cd10d936626411beaa4910160405180910390a450505050505050565b611ce561273f565b6001600160a01b038116611d2c5760405162461bcd60e51b815260206004820152600e60248201526d215f6261736543757272656e637960901b6044820152606401610702565b60ce80546001600160a01b0319166001600160a01b038316908117909155600081815260d36020526040808220805460ff191660011790555133917f6dde2141be69fabcd84e3864d206ba0f3f2d507125fb2703899c87de4c585d5f91a350565b6000611d9883611830565b90506000611da5826121ae565b90506001816003811115611dbb57611dbb6137cc565b11611dfb5760405162461bcd60e51b815260206004820152601060248201526f125493c81b9bdd08199a5b9a5cda195960821b6044820152606401610702565b600084815260d16020908152604080832033845290915290205480611e545760405162461bcd60e51b815260206004820152600f60248201526e139bdd1a1a5b99c81d1bc81b5a5b9d608a1b6044820152606401610702565b6002826003811115611e6857611e686137cc565b03611f4f57600083610100015182611e809190613ba5565b60ca549091506001600160a01b031663836a1040611e9d886122a1565b6040516001600160e01b031960e084901b168152600481019190915233602482015260448101849052606401600060405180830381600087803b158015611ee357600080fd5b505af1158015611ef7573d6000803e3d6000fd5b50505050846001600160a01b0316336001600160a01b0316877f9c4945d842cc8c6704877a0defcd9ab09f6d77b24a369a95c2610506c6c38ee784604051611f4191815260200190565b60405180910390a450611fc4565b60ce54611f6890859083906001600160a01b0316612e0d565b600085815260d1602090815260408083203380855290835281842093909355518381526001600160a01b038716929188917e13b41c02877cabf07b7d6154ea39ec4503af8922f651f7a81f4afacd0c664f910160405180910390a45b5050505050565b6000611fd660cf5490565b905090565b611fe361273f565b6001600160a01b0381166120265760405162461bcd60e51b815260206004820152600a602482015269215f747265617375727960b01b6044820152606401610702565b60c980546001600160a01b0319166001600160a01b03831690811790915560405133907f190c262dc6f09322c68a13bf67c9659e58367755ba6190fa7ce5ca8aa45a877d90600090a350565b61207a61273f565b6001600160a01b0381166120c75760405162461bcd60e51b8152602060048201526014602482015273215f7265616c457374617465526573657276657360601b6044820152606401610702565b60cb80546001600160a01b0319166001600160a01b03831690811790915560405133907fe2346da89cd742996eca02002552dd4534ad4ad92c3a82dd6a86fd515ee1414c90600090a350565b61211b61273f565b6001600160a01b0381166121805760405162461bcd60e51b815260206004820152602660248201527f4f776e61626c653a206e6577206f776e657220697320746865207a65726f206160448201526564647265737360d01b6064820152608401610702565b610e58816124f4565b600881901c600090815260208390526040902054600160ff83161b1615155b92915050565b600081602001516001600160401b03166121c54290565b6001600160401b0316116121db57506000919050565b60a08201516001600160401b0316426001600160401b03161015612219578160e001518261012001510361221157506002919050565b506001919050565b60a08201516001600160401b0316426001600160401b031610612257578160c00151826101200151101561224f57506003919050565b506002919050565b506003919050565b60008061226c8486613ba5565b905061227a83612710613cb6565b61ffff168361ffff168261228e9190613c9f565b6122989190613ba5565b95945050505050565b60006122ae60d683612189565b6123885760ca60009054906101000a90046001600160a01b03166001600160a01b0316631579c1336040518163ffffffff1660e01b8152600401602060405180830381865afa158015612305573d6000803e3d6000fd5b505050506040513d601f19601f820116820180604052508101906123299190613cd1565b600083815260d260209081526040808320849055600886901c835260d69091528082208054600160ff88161b17905551919250829184917fe845f90872d41131b00e56189f857584a09b017ea97c14fe1c84b118d62d8e5191a3919050565b50600081815260d260205260409020545b919050565b600881901c600090815260209290925260409091208054600160ff9093169290921b9091179055565b600080808086156123f6576127106123df8989613c9f565b6123e99190613ba5565b93506123f68c8587612e0d565b6127106124038988613c9f565b61240d9190613ba5565b92506124198385613c51565b6124239089613b7c565b91506001600160a01b038a16156124d1575060018215612448576124488b8487612e0d565b81156124cc576124626001600160a01b0386168b84612e21565b604051638dbdbe6d60e01b8152600481018a9052602481018390526001600160a01b0386811660448301528b1690638dbdbe6d90606401600060405180830381600087803b1580156124b357600080fd5b505af11580156124c7573d6000803e3d6000fd5b505050505b6124e5565b6124e58b6124df868b613b7c565b87612e0d565b98509850985098945050505050565b603380546001600160a01b038381166001600160a01b0319831681179093556040519116919082907f8be0079c531659141344cd1fd0a4f28419497f9722a3daafe3b4186f6b6457e090600090a35050565b610e5861273f565b7f4910fdfa16fed3260ed0e7147f7cc6da11a60208b5b9406d12a635614ffd91435460ff16156125865761258183612f69565b505050565b826001600160a01b03166352d1902d6040518163ffffffff1660e01b8152600401602060405180830381865afa9250505080156125e0575060408051601f3d908101601f191682019092526125dd91810190613cd1565b60015b6126435760405162461bcd60e51b815260206004820152602e60248201527f45524331393637557067726164653a206e657720696d706c656d656e7461746960448201526d6f6e206973206e6f74205555505360901b6064820152608401610702565b60008051602061402f83398151915281146126b25760405162461bcd60e51b815260206004820152602960248201527f45524331393637557067726164653a20756e737570706f727465642070726f786044820152681a58589b195555525160ba1b6064820152608401610702565b50612581838383613005565b6000806126cb8786613c9f565b9050826001600160a01b0316866001600160a01b0316036126ed5790506111e1565b612710601e6126fd600187613b7c565b6127079190613c9f565b61271390612710613c51565b61271f8a848a88613030565b6127299190613c9f565b6127339190613ba5565b98975050505050505050565b6033546001600160a01b0316331461140d5760405162461bcd60e51b815260206004820181905260248201527f4f776e61626c653a2063616c6c6572206973206e6f7420746865206f776e65726044820152606401610702565b6000806127aa8989898988886126be565b9050826001600160a01b0316876001600160a01b0316036127cc5790506127f5565b6127106127d98682613cea565b6127e79061ffff1683613c9f565b6127f19190613ba5565b9150505b979650505050505050565b6000826001600160a01b03168260405160006040518083038185875af1925050503d806000811461284d576040519150601f19603f3d011682016040523d82523d6000602084013e612852565b606091505b50509050806125815760405162461bcd60e51b81526020600482015260156024820152744661696c65642073656e64696e672065746865727360581b6044820152606401610702565b60006128a78785613c9f565b9050816001600160a01b0316866001600160a01b03160361291d57848111156129035760405162461bcd60e51b815260206004820152600e60248201526d125b9d985b1a5908185b5bdd5b9d60921b6044820152606401610702565b6129186001600160a01b0387163330846130da565b6127f5565b6001600160a01b03861615612b59576129416001600160a01b0387163330886130da565b8751612958906001600160a01b0388169087612e21565b6000835160026129689190613c51565b6001600160401b0381111561297f5761297f6136df565b6040519080825280602002602001820160405280156129a8578160200160208202803683370190505b50905086816000815181106129bf576129bf613d05565b60200260200101906001600160a01b031690816001600160a01b03168152505060005b8451811015612a4d578481815181106129fd576129fd613d05565b602002602001015182826001612a139190613c51565b81518110612a2357612a23613d05565b6001600160a01b039092166020928302919091019091015280612a4581613d1b565b9150506129e2565b50828160018351612a5e9190613b7c565b81518110612a6e57612a6e613d05565b6001600160a01b0392831660209182029290920101528951604051634401edf760e11b81526000929190911690638803dbee90612ab79086908b90879030904290600401613d78565b6000604051808303816000875af1158015612ad6573d6000803e3d6000fd5b505050506040513d6000823e601f3d908101601f19168201604052612afe9190810190613db4565b90508681600081518110612b1457612b14613d05565b60200260200101511015612b5257612b523382600081518110612b3957612b39613d05565b602002602001015189612b4c9190613b7c565b8a612e0d565b50506127f5565b84341015612ba25760405162461bcd60e51b8152602060048201526016602482015275139bdd08195b9bdd59da08195d1a195c9cc81cd95b9d60521b6044820152606401610702565b600083516002612bb29190613c51565b6001600160401b03811115612bc957612bc96136df565b604051908082528060200260200182016040528015612bf2578160200160208202803683370190505b50905088600001516001600160a01b031663ad5c46486040518163ffffffff1660e01b8152600401602060405180830381865afa158015612c37573d6000803e3d6000fd5b505050506040513d601f19601f82011682018060405250810190612c5b9190613e39565b81600081518110612c6e57612c6e613d05565b60200260200101906001600160a01b031690816001600160a01b03168152505060005b8451811015612cfc57848181518110612cac57612cac613d05565b602002602001015182826001612cc29190613c51565b81518110612cd257612cd2613d05565b6001600160a01b039092166020928302919091019091015280612cf481613d1b565b915050612c91565b50828160018351612d0d9190613b7c565b81518110612d1d57612d1d613d05565b6001600160a01b039283166020918202929092010152895160405163fb3bdb4160e01b8152600092919091169063fb3bdb41908990612d66908790879030904290600401613e56565b60006040518083038185885af1158015612d84573d6000803e3d6000fd5b50505050506040513d6000823e601f3d908101601f19168201604052612dad9190810190613db4565b90503481600081518110612dc357612dc3613d05565b60200260200101511015612e0057612e003382600081518110612de857612de8613d05565b602002602001015134612dfb9190613b7c565b612800565b5050979650505050505050565b6125816001600160a01b0382168484613112565b801580612e9b5750604051636eb1769f60e11b81523060048201526001600160a01b03838116602483015284169063dd62ed3e90604401602060405180830381865afa158015612e75573d6000803e3d6000fd5b505050506040513d601f19601f82011682018060405250810190612e999190613cd1565b155b612f065760405162461bcd60e51b815260206004820152603660248201527f5361666545524332303a20617070726f76652066726f6d206e6f6e2d7a65726f60448201527520746f206e6f6e2d7a65726f20616c6c6f77616e636560501b6064820152608401610702565b6040516001600160a01b03831660248201526044810182905261258190849063095ea7b360e01b906064015b60408051601f198184030181529190526020810180516001600160e01b03166001600160e01b031990931692909217909152613142565b6001600160a01b0381163b612fd65760405162461bcd60e51b815260206004820152602d60248201527f455243313936373a206e657720696d706c656d656e746174696f6e206973206e60448201526c1bdd08184818dbdb9d1c9858dd609a1b6064820152608401610702565b60008051602061402f83398151915280546001600160a01b0319166001600160a01b0392909216919091179055565b61300e83613214565b60008251118061301b5750805b156125815761302a8383613254565b50505050565b6020840151604051635620c32d60e11b81526001600160a01b0384811660048301528381166024830152600092839291169063ac41865a90604401602060405180830381865afa158015613088573d6000803e3d6000fd5b505050506040513d601f19601f820116820180604052508101906130ac9190613cd1565b9050806130b88561333f565b6130c69060ff16600a613f6f565b6130d09087613c9f565b6111e19190613ba5565b6040516001600160a01b038085166024830152831660448201526064810182905261302a9085906323b872dd60e01b90608401612f32565b6040516001600160a01b03831660248201526044810182905261258190849063a9059cbb60e01b90606401612f32565b6000613197826040518060400160405280602081526020017f5361666545524332303a206c6f772d6c6576656c2063616c6c206661696c6564815250856001600160a01b03166133b99092919063ffffffff16565b80519091501561258157808060200190518101906131b59190613f7b565b6125815760405162461bcd60e51b815260206004820152602a60248201527f5361666545524332303a204552433230206f7065726174696f6e20646964206e6044820152691bdd081cdd58d8d9595960b21b6064820152608401610702565b61321d81612f69565b6040516001600160a01b038216907fbc7cd75a20ee27fd9adebab32041f755214dbc6bffa90cc0225b39da2e5c2d3b90600090a250565b60606001600160a01b0383163b6132bc5760405162461bcd60e51b815260206004820152602660248201527f416464726573733a2064656c65676174652063616c6c20746f206e6f6e2d636f6044820152651b9d1c9858dd60d21b6064820152608401610702565b600080846001600160a01b0316846040516132d79190613fbc565b600060405180830381855af49150503d8060008114613312576040519150601f19603f3d011682016040523d82523d6000602084013e613317565b606091505b5091509150612298828260405180606001604052806027815260200161404f602791396133c8565b60006001600160a01b03821661335757506012919050565b816001600160a01b031663313ce5676040518163ffffffff1660e01b8152600401602060405180830381865afa158015613395573d6000803e3d6000fd5b505050506040513d601f19601f820116820180604052508101906121a89190613fd8565b60606113f384846000856133e1565b606083156133d75750816106ad565b6106ad83836134b1565b6060824710156134425760405162461bcd60e51b815260206004820152602660248201527f416464726573733a20696e73756666696369656e742062616c616e636520666f6044820152651c8818d85b1b60d21b6064820152608401610702565b600080866001600160a01b0316858760405161345e9190613fbc565b60006040518083038185875af1925050503d806000811461349b576040519150601f19603f3d011682016040523d82523d6000602084013e6134a0565b606091505b50915091506113ee878383876134db565b8151156134c15781518083602001fd5b8060405162461bcd60e51b81526004016107029190613ffb565b6060831561354a578251600003613543576001600160a01b0385163b6135435760405162461bcd60e51b815260206004820152601d60248201527f416464726573733a2063616c6c20746f206e6f6e2d636f6e74726163740000006044820152606401610702565b50816113f3565b6113f383836134b1565b8280548282559060005260206000209081019282156135a9579160200282015b828111156135a957825182546001600160a01b0319166001600160a01b03909116178255602090920191600190910190613574565b506135b59291506135b9565b5090565b5b808211156135b557600081556001016135ba565b6000602082840312156135e057600080fd5b5035919050565b6001600160a01b0381168114610e5857600080fd5b6000806040838503121561360f57600080fd5b823591506020830135613621816135e7565b809150509250929050565b600080600080600080600060e0888a03121561364757600080fd5b8735613652816135e7565b96506020880135613662816135e7565b95506040880135613672816135e7565b94506060880135613682816135e7565b93506080880135613692816135e7565b925060a08801356136a2816135e7565b915060c08801356136b2816135e7565b8091505092959891949750929550565b6000602082840312156136d457600080fd5b81356106ad816135e7565b634e487b7160e01b600052604160045260246000fd5b604051601f8201601f191681016001600160401b038111828210171561371d5761371d6136df565b604052919050565b6000806040838503121561373857600080fd5b8235613743816135e7565b91506020838101356001600160401b038082111561376057600080fd5b818601915086601f83011261377457600080fd5b813581811115613786576137866136df565b613798601f8201601f191685016136f5565b915080825287848285010111156137ae57600080fd5b80848401858401376000848284010152508093505050509250929050565b634e487b7160e01b600052602160045260246000fd5b602081016004831061380457634e487b7160e01b600052602160045260246000fd5b91905290565b60008060006060848603121561381f57600080fd5b833592506020840135613831816135e7565b929592945050506040919091013590565b60006001600160401b0382111561385b5761385b6136df565b5060051b60200190565b6000806040838503121561387857600080fd5b8235613883816135e7565b91506020838101356001600160401b0381111561389f57600080fd5b8401601f810186136138b057600080fd5b80356138c36138be82613842565b6136f5565b81815260059190911b820183019083810190888311156138e257600080fd5b928401925b828410156139095783356138fa816135e7565b825292840192908401906138e7565b80955050505050509250929050565b803561ffff8116811461239957600080fd5b6000806000806080858703121561394057600080fd5b843593506020850135613952816135e7565b92506040850135915061396760608601613918565b905092959194509250565b8015158114610e5857600080fd5b6000806040838503121561399357600080fd5b823561399e816135e7565b9150602083013561362181613972565b80356001600160401b038116811461239957600080fd5b60008060008060008060008060006101208a8c0312156139e457600080fd5b89356139ef816135e7565b98506139fd60208b01613918565b9750613a0b60408b01613918565b9650613a1960608b01613918565b9550613a2760808b016139ae565b945060a08a0135935060c08a0135925060e08a01359150613a4b6101008b016139ae565b90509295985092959850929598565b81516001600160a01b0316815261016081016020830151613a8660208401826001600160401b03169052565b506040830151613a9c604084018261ffff169052565b506060830151613ab2606084018261ffff169052565b506080830151613ac8608084018261ffff169052565b5060a0830151613ae360a08401826001600160401b03169052565b5060c0838101519083015260e0808401519083015261010080840151908301526101208084015190830152610140928301516001600160a01b0316929091019190915290565b60008060008060808587031215613b3f57600080fd5b843593506020850135613b51816135e7565b93969395505050506040820135916060013590565b634e487b7160e01b600052601160045260246000fd5b818103818111156121a8576121a8613b66565b634e487b7160e01b600052601260045260246000fd5b600082613bb457613bb4613b8f565b500490565b6020808252602c908201527f46756e6374696f6e206d7573742062652063616c6c6564207468726f7567682060408201526b19195b1959d85d1958d85b1b60a21b606082015260800190565b6020808252602c908201527f46756e6374696f6e206d7573742062652063616c6c6564207468726f7567682060408201526b6163746976652070726f787960a01b606082015260800190565b808201808211156121a8576121a8613b66565b600082613c7357613c73613b8f565b500690565b6001600160401b03818116838216019080821115613c9857613c98613b66565b5092915050565b80820281158282048414176121a8576121a8613b66565b61ffff828116828216039080821115613c9857613c98613b66565b600060208284031215613ce357600080fd5b5051919050565b61ffff818116838216019080821115613c9857613c98613b66565b634e487b7160e01b600052603260045260246000fd5b600060018201613d2d57613d2d613b66565b5060010190565b600081518084526020808501945080840160005b83811015613d6d5781516001600160a01b031687529582019590820190600101613d48565b509495945050505050565b85815284602082015260a060408201526000613d9760a0830186613d34565b6001600160a01b0394909416606083015250608001529392505050565b60006020808385031215613dc757600080fd5b82516001600160401b03811115613ddd57600080fd5b8301601f81018513613dee57600080fd5b8051613dfc6138be82613842565b81815260059190911b82018301908381019087831115613e1b57600080fd5b928401925b828410156127f557835182529284019290840190613e20565b600060208284031215613e4b57600080fd5b81516106ad816135e7565b848152608060208201526000613e6f6080830186613d34565b6001600160a01b03949094166040830152506060015292915050565b600181815b80851115613ec6578160001904821115613eac57613eac613b66565b80851615613eb957918102915b93841c9390800290613e90565b509250929050565b600082613edd575060016121a8565b81613eea575060006121a8565b8160018114613f005760028114613f0a57613f26565b60019150506121a8565b60ff841115613f1b57613f1b613b66565b50506001821b6121a8565b5060208310610133831016604e8410600b8410161715613f49575081810a6121a8565b613f538383613e8b565b8060001904821115613f6757613f67613b66565b029392505050565b60006106ad8383613ece565b600060208284031215613f8d57600080fd5b81516106ad81613972565b60005b83811015613fb3578181015183820152602001613f9b565b50506000910152565b60008251613fce818460208701613f98565b9190910192915050565b600060208284031215613fea57600080fd5b815160ff811681146106ad57600080fd5b602081526000825180602084015261401a816040850160208701613f98565b601f01601f1916919091016040019291505056fe360894a13ba1a3210667c828492db98dca3e2076cc3735a920a3ca505d382bbc416464726573733a206c6f772d6c6576656c2064656c65676174652063616c6c206661696c6564a2646970667358221220649d30879a44b2ec76ae0121a40b0d90a7371b55d3c0649344796d5f6e42cf4364736f6c63430008110033",
  "devdoc": {
    "author": "Horizon DAO (Yuri Fernandes)",
    "events": {
      "CashBack(uint256,address,address,uint256)": {
        "details": "Emitted when an investors withdraw it's funds after an IRO fails"
      },
      "Commit(uint256,address,address,uint256,uint256)": {
        "details": "Emitted when a new Commit is made to an IRO"
      },
      "CreateIRO(uint256,address,uint256,uint16,uint16,uint64,uint64)": {
        "details": "Emitted when a new IRO is created"
      },
      "FundsWithdrawn(uint256,address,bool,uint256,uint256,uint256)": {
        "details": "Emitted when funds from an IRO are withdrawn"
      },
      "OwnerTokensClaimed(uint256,address,address,uint256)": {
        "details": "Emitted when the listing owner claims it's shares of the tokens"
      },
      "PathUpdated(address,address)": {
        "details": "Emitted when the currency relative path is updated"
      },
      "RealEstateCreated(uint256,uint256)": {
        "details": "Emitted when a new real estate token ID is created"
      },
      "SetBaseCurrency(address,address)": {
        "details": "Emitted when a new base currency is set"
      },
      "SetRealEstateReserves(address,address)": {
        "details": "Emitted when the RealEstateReserves contract is set"
      },
      "SetTreasury(address,address)": {
        "details": "Emitted when the Treasury contract is set"
      },
      "TokensClaimed(uint256,address,address,uint256)": {
        "details": "Emitted when tokens are claimed by investors"
      },
      "WhitelistCurrency(address,address,bool)": {
        "details": "Emitted when `whitelistCurrency` is executed"
      }
    },
    "kind": "dev",
    "methods": {
      "claim(uint256,address)": {
        "params": {
          "_iroId": "ID of the IRO",
          "_to": "Address to send the claimed tokens"
        }
      },
      "commit(uint256,address,uint256,uint256)": {
        "params": {
          "_amountToPurchase": "Amount of IRO tokens to purchase",
          "_currency": "Currency address",
          "_iroId": "ID of the IRO",
          "_priceWithSlippage": "Expected price with slippage"
        }
      },
      "createIRO(address,uint16,uint16,uint16,uint64,uint256,uint256,uint256,uint64)": {
        "details": "Create new IRO",
        "params": {
          "_duration": "Duration of the IRO in seconds",
          "_hardCap": "Maximum fundraising in base price token",
          "_listingOwner": "Listing owner address",
          "_listingOwnerFee": "Listing owner fee in basis points",
          "_listingOwnerShare": "Listing owner share of IRO tokens in basis points",
          "_softCap": "Minimum fundraising in base price token",
          "_startOffset": "Time before IRO begins",
          "_treasuryFee": "Treasury fee percentage in basis points",
          "_unitPrice": "Price per unit of IRO token in base price token"
        }
      },
      "expectedPrice(uint256,address,uint256)": {
        "params": {
          "_amountToPurchase": "Amount of IRO tokens to purchase",
          "_currency": "Currency address",
          "_iroId": "ID of the IRO"
        }
      },
      "getIRO(uint256)": {
        "params": {
          "_iroId": "ID of the IRO"
        }
      },
      "getStatus(uint256)": {
        "params": {
          "_iroId": "ID of the IRO"
        }
      },
      "initialize(address,address,address,address,address,address,address)": {
        "details": "Initialize IRO contract",
        "params": {
          "_baseCurrency": "Base token used to precify the IRO tokens",
          "_priceFeedRegistry": "Chainlink Price Feed Registry address",
          "_realEstateNft": "RealEstateNFT contract address",
          "_realEstateReserves": "RealEstateReserves contract address",
          "_swapRouter": "Uniswap or Sushiswap swap router",
          "_treasury": "Treasury contract address"
        }
      },
      "listingOwnerClaim(uint256,address)": {
        "params": {
          "_iroId": "ID of the IRO",
          "_to": "Address to send the tokens"
        }
      },
      "owner()": {
        "details": "Returns the address of the current owner."
      },
      "priceWithSlippage(uint256,address,uint256,uint16)": {
        "params": {
          "_amountToPurchase": "Amount of IRO tokens to purchase",
          "_currency": "Currency address",
          "_iroId": "ID of the IRO",
          "_slippage": "Swap slippage in basis points"
        }
      },
      "proxiableUUID()": {
        "details": "Implementation of the ERC1822 {proxiableUUID} function. This returns the storage slot used by the implementation. It is used to validate the implementation's compatibility when performing an upgrade. IMPORTANT: A proxy pointing at a proxiable contract should not be considered proxiable itself, because this risks bricking a proxy that upgrades to it, by delegating to itself until out of gas. Thus it is critical that this function revert if invoked through a proxy. This is guaranteed by the `notDelegated` modifier."
      },
      "remainingTokens(uint256)": {
        "params": {
          "_iroId": "ID of the IRO"
        }
      },
      "renounceOwnership()": {
        "details": "Leaves the contract without owner. It will not be possible to call `onlyOwner` functions anymore. Can only be called by the current owner. NOTE: Renouncing ownership will leave the contract without an owner, thereby removing any functionality that is only available to the owner."
      },
      "setBaseCurrency(address)": {
        "details": "Set a new base price token",
        "params": {
          "_baseCurrency": "Base price token address (ERC20)"
        }
      },
      "setRealEstateReserves(address)": {
        "details": "Set new real estate reserves",
        "params": {
          "_realEstateReserves": "RealEstateReseres address"
        }
      },
      "setTreasury(address)": {
        "details": "Set new treasury",
        "params": {
          "_treasury": "Treasury address"
        }
      },
      "setrelativePath(address,address[])": {
        "details": "Update relative swap router path of a currency",
        "params": {
          "_currency": "Currency ERC20 address",
          "_relativePath": "Swap relative path"
        }
      },
      "transferOwnership(address)": {
        "details": "Transfers ownership of the contract to a new account (`newOwner`). Can only be called by the current owner."
      },
      "upgradeTo(address)": {
        "details": "Upgrade the implementation of the proxy to `newImplementation`. Calls {_authorizeUpgrade}. Emits an {Upgraded} event."
      },
      "upgradeToAndCall(address,bytes)": {
        "details": "Upgrade the implementation of the proxy to `newImplementation`, and subsequently execute the function call encoded in `data`. Calls {_authorizeUpgrade}. Emits an {Upgraded} event."
      },
      "whitelistCurrency(address,bool)": {
        "details": "Whitelist currencies",
        "params": {
          "_currency": "Currency ERC20 address",
          "_whitelist": "Whether to whitelist"
        }
      },
      "withdraw(uint256)": {
        "params": {
          "_iroId": "ID of the IRO"
        }
      }
    },
    "stateVariables": {
      "_fundsWithdrawn": {
        "details": "Points out whether funds have been withdrawn from IRO"
      },
      "_iros": {
        "details": "mapping (iroId => iro)"
      },
      "_listingOwnerClaimed": {
        "details": "Points out whether the listingOwner has claimed it's share"
      },
      "_nextAvailableId": {
        "details": "Next available IRO ID"
      },
      "_realEstateIdSet": {
        "details": "Whether an ID has already been set in the RealEstateNFT contract for the IRO"
      },
      "commits": {
        "details": "mapping (iroId => user => commit)"
      },
      "realEstateId": {
        "details": "mapping (iroId => realEstateId)"
      },
      "whitelistedCurrency": {
        "details": "mapping (currencyAddress => WhitelistedCurrency)"
      }
    },
    "title": "Initial Real Estate Offering (IRO)",
    "version": 1
  },
  "userdoc": {
    "kind": "user",
    "methods": {
      "claim(uint256,address)": {
        "notice": "Claim purchased tokens when IRO successful or     get back commit amount in base currency if IRO failed"
      },
      "commit(uint256,address,uint256,uint256)": {
        "notice": "Commit to an IRO"
      },
      "denominator()": {
        "notice": "Denominator used for basis points divisions"
      },
      "expectedPrice(uint256,address,uint256)": {
        "notice": "Get the expected price of an IRO purchase (without slippage)Takes into account swap fees"
      },
      "finance()": {
        "notice": "Structure composed by the addresses     of contracts responsible for making financial operations"
      },
      "getIRO(uint256)": {
        "notice": "Get IRO"
      },
      "getStatus(uint256)": {
        "notice": "Get IRO status"
      },
      "iroLength()": {
        "notice": "Get total amount of IROs"
      },
      "listingOwnerClaim(uint256,address)": {
        "notice": "Claim listing owner tokens"
      },
      "now64()": {
        "notice": "Get current time (uint64)"
      },
      "priceWithSlippage(uint256,address,uint256,uint16)": {
        "notice": "Get the price with slippageTakes into account swap fees"
      },
      "realEstateNft()": {
        "notice": "RealEstateNFT contract address"
      },
      "realEstateReserves()": {
        "notice": "RealEstateReserves contract address"
      },
      "remainingTokens(uint256)": {
        "notice": "Get the amount of remaining IRO tokens"
      },
      "treasury()": {
        "notice": "Treasury contract address"
      },
      "withdraw(uint256)": {
        "notice": "Withdraw and distribute funds from successful IROs"
      }
    },
    "notice": "Used to run IROs, mint tokens to RealEstateNFT     and distribute funds",
    "version": 1
  },
  "storageLayout": {
    "storage": [
      {
        "astId": 1061,
        "contract": "contracts/protocol/InitialRealEstateOffering.sol:InitialRealEstateOffering",
        "label": "_initialized",
        "offset": 0,
        "slot": "0",
        "type": "t_uint8"
      },
      {
        "astId": 1064,
        "contract": "contracts/protocol/InitialRealEstateOffering.sol:InitialRealEstateOffering",
        "label": "_initializing",
        "offset": 1,
        "slot": "0",
        "type": "t_bool"
      },
      {
        "astId": 2079,
        "contract": "contracts/protocol/InitialRealEstateOffering.sol:InitialRealEstateOffering",
        "label": "__gap",
        "offset": 0,
        "slot": "1",
        "type": "t_array(t_uint256)50_storage"
      },
      {
        "astId": 541,
        "contract": "contracts/protocol/InitialRealEstateOffering.sol:InitialRealEstateOffering",
        "label": "_owner",
        "offset": 0,
        "slot": "51",
        "type": "t_address"
      },
      {
        "astId": 661,
        "contract": "contracts/protocol/InitialRealEstateOffering.sol:InitialRealEstateOffering",
        "label": "__gap",
        "offset": 0,
        "slot": "52",
        "type": "t_array(t_uint256)49_storage"
      },
      {
        "astId": 1043,
        "contract": "contracts/protocol/InitialRealEstateOffering.sol:InitialRealEstateOffering",
        "label": "__gap",
        "offset": 0,
        "slot": "101",
        "type": "t_array(t_uint256)50_storage"
      },
      {
        "astId": 1358,
        "contract": "contracts/protocol/InitialRealEstateOffering.sol:InitialRealEstateOffering",
        "label": "__gap",
        "offset": 0,
        "slot": "151",
        "type": "t_array(t_uint256)50_storage"
      },
      {
        "astId": 3558,
        "contract": "contracts/protocol/InitialRealEstateOffering.sol:InitialRealEstateOffering",
        "label": "treasury",
        "offset": 0,
        "slot": "201",
        "type": "t_address"
      },
      {
        "astId": 3562,
        "contract": "contracts/protocol/InitialRealEstateOffering.sol:InitialRealEstateOffering",
        "label": "realEstateNft",
        "offset": 0,
        "slot": "202",
        "type": "t_contract(IRealEstateERC1155)2752"
      },
      {
        "astId": 3566,
        "contract": "contracts/protocol/InitialRealEstateOffering.sol:InitialRealEstateOffering",
        "label": "realEstateReserves",
        "offset": 0,
        "slot": "203",
        "type": "t_contract(IRealEstateReserves)2764"
      },
      {
        "astId": 3570,
        "contract": "contracts/protocol/InitialRealEstateOffering.sol:InitialRealEstateOffering",
        "label": "finance",
        "offset": 0,
        "slot": "204",
        "type": "t_struct(Finance)2806_storage"
      },
      {
        "astId": 3574,
        "contract": "contracts/protocol/InitialRealEstateOffering.sol:InitialRealEstateOffering",
        "label": "_nextAvailableId",
        "offset": 0,
        "slot": "207",
        "type": "t_struct(Counter)2086_storage"
      },
      {
        "astId": 3580,
        "contract": "contracts/protocol/InitialRealEstateOffering.sol:InitialRealEstateOffering",
        "label": "_iros",
        "offset": 0,
        "slot": "208",
        "type": "t_mapping(t_uint256,t_struct(IRO)3549_storage)"
      },
      {
        "astId": 3587,
        "contract": "contracts/protocol/InitialRealEstateOffering.sol:InitialRealEstateOffering",
        "label": "commits",
        "offset": 0,
        "slot": "209",
        "type": "t_mapping(t_uint256,t_mapping(t_address,t_uint256))"
      },
      {
        "astId": 3592,
        "contract": "contracts/protocol/InitialRealEstateOffering.sol:InitialRealEstateOffering",
        "label": "realEstateId",
        "offset": 0,
        "slot": "210",
        "type": "t_mapping(t_uint256,t_uint256)"
      },
      {
        "astId": 3598,
        "contract": "contracts/protocol/InitialRealEstateOffering.sol:InitialRealEstateOffering",
        "label": "whitelistedCurrency",
        "offset": 0,
        "slot": "211",
        "type": "t_mapping(t_address,t_struct(WhitelistedCurrency)3555_storage)"
      },
      {
        "astId": 3602,
        "contract": "contracts/protocol/InitialRealEstateOffering.sol:InitialRealEstateOffering",
        "label": "_fundsWithdrawn",
        "offset": 0,
        "slot": "212",
        "type": "t_struct(BitMap)2222_storage"
      },
      {
        "astId": 3606,
        "contract": "contracts/protocol/InitialRealEstateOffering.sol:InitialRealEstateOffering",
        "label": "_listingOwnerClaimed",
        "offset": 0,
        "slot": "213",
        "type": "t_struct(BitMap)2222_storage"
      },
      {
        "astId": 3610,
        "contract": "contracts/protocol/InitialRealEstateOffering.sol:InitialRealEstateOffering",
        "label": "_realEstateIdSet",
        "offset": 0,
        "slot": "214",
        "type": "t_struct(BitMap)2222_storage"
      }
    ],
    "types": {
      "t_address": {
        "encoding": "inplace",
        "label": "address",
        "numberOfBytes": "20"
      },
      "t_array(t_address)dyn_storage": {
        "base": "t_address",
        "encoding": "dynamic_array",
        "label": "address[]",
        "numberOfBytes": "32"
      },
      "t_array(t_uint256)49_storage": {
        "base": "t_uint256",
        "encoding": "inplace",
        "label": "uint256[49]",
        "numberOfBytes": "1568"
      },
      "t_array(t_uint256)50_storage": {
        "base": "t_uint256",
        "encoding": "inplace",
        "label": "uint256[50]",
        "numberOfBytes": "1600"
      },
      "t_bool": {
        "encoding": "inplace",
        "label": "bool",
        "numberOfBytes": "1"
      },
      "t_contract(IPriceOracle)2708": {
        "encoding": "inplace",
        "label": "contract IPriceOracle",
        "numberOfBytes": "20"
      },
      "t_contract(IRealEstateERC1155)2752": {
        "encoding": "inplace",
        "label": "contract IRealEstateERC1155",
        "numberOfBytes": "20"
      },
      "t_contract(IRealEstateReserves)2764": {
        "encoding": "inplace",
        "label": "contract IRealEstateReserves",
        "numberOfBytes": "20"
      },
      "t_contract(IUniswapV2Router01)2660": {
        "encoding": "inplace",
        "label": "contract IUniswapV2Router01",
        "numberOfBytes": "20"
      },
      "t_mapping(t_address,t_struct(WhitelistedCurrency)3555_storage)": {
        "encoding": "mapping",
        "key": "t_address",
        "label": "mapping(address => struct InitialRealEstateOffering.WhitelistedCurrency)",
        "numberOfBytes": "32",
        "value": "t_struct(WhitelistedCurrency)3555_storage"
      },
      "t_mapping(t_address,t_uint256)": {
        "encoding": "mapping",
        "key": "t_address",
        "label": "mapping(address => uint256)",
        "numberOfBytes": "32",
        "value": "t_uint256"
      },
      "t_mapping(t_uint256,t_mapping(t_address,t_uint256))": {
        "encoding": "mapping",
        "key": "t_uint256",
        "label": "mapping(uint256 => mapping(address => uint256))",
        "numberOfBytes": "32",
        "value": "t_mapping(t_address,t_uint256)"
      },
      "t_mapping(t_uint256,t_struct(IRO)3549_storage)": {
        "encoding": "mapping",
        "key": "t_uint256",
        "label": "mapping(uint256 => struct InitialRealEstateOffering.IRO)",
        "numberOfBytes": "32",
        "value": "t_struct(IRO)3549_storage"
      },
      "t_mapping(t_uint256,t_uint256)": {
        "encoding": "mapping",
        "key": "t_uint256",
        "label": "mapping(uint256 => uint256)",
        "numberOfBytes": "32",
        "value": "t_uint256"
      },
      "t_struct(BitMap)2222_storage": {
        "encoding": "inplace",
        "label": "struct BitMapsUpgradeable.BitMap",
        "members": [
          {
            "astId": 2221,
            "contract": "contracts/protocol/InitialRealEstateOffering.sol:InitialRealEstateOffering",
            "label": "_data",
            "offset": 0,
            "slot": "0",
            "type": "t_mapping(t_uint256,t_uint256)"
          }
        ],
        "numberOfBytes": "32"
      },
      "t_struct(Counter)2086_storage": {
        "encoding": "inplace",
        "label": "struct CountersUpgradeable.Counter",
        "members": [
          {
            "astId": 2085,
            "contract": "contracts/protocol/InitialRealEstateOffering.sol:InitialRealEstateOffering",
            "label": "_value",
            "offset": 0,
            "slot": "0",
            "type": "t_uint256"
          }
        ],
        "numberOfBytes": "32"
      },
      "t_struct(Finance)2806_storage": {
        "encoding": "inplace",
        "label": "struct IROFinance.Finance",
        "members": [
          {
            "astId": 2800,
            "contract": "contracts/protocol/InitialRealEstateOffering.sol:InitialRealEstateOffering",
            "label": "swapRouter",
            "offset": 0,
            "slot": "0",
            "type": "t_contract(IUniswapV2Router01)2660"
          },
          {
            "astId": 2803,
            "contract": "contracts/protocol/InitialRealEstateOffering.sol:InitialRealEstateOffering",
            "label": "priceOracle",
            "offset": 0,
            "slot": "1",
            "type": "t_contract(IPriceOracle)2708"
          },
          {
            "astId": 2805,
            "contract": "contracts/protocol/InitialRealEstateOffering.sol:InitialRealEstateOffering",
            "label": "baseCurrency",
            "offset": 0,
            "slot": "2",
            "type": "t_address"
          }
        ],
        "numberOfBytes": "96"
      },
      "t_struct(IRO)3549_storage": {
        "encoding": "inplace",
        "label": "struct InitialRealEstateOffering.IRO",
        "members": [
          {
            "astId": 3528,
            "contract": "contracts/protocol/InitialRealEstateOffering.sol:InitialRealEstateOffering",
            "label": "listingOwner",
            "offset": 0,
            "slot": "0",
            "type": "t_address"
          },
          {
            "astId": 3530,
            "contract": "contracts/protocol/InitialRealEstateOffering.sol:InitialRealEstateOffering",
            "label": "start",
            "offset": 20,
            "slot": "0",
            "type": "t_uint64"
          },
          {
            "astId": 3532,
            "contract": "contracts/protocol/InitialRealEstateOffering.sol:InitialRealEstateOffering",
            "label": "treasuryFee",
            "offset": 28,
            "slot": "0",
            "type": "t_uint16"
          },
          {
            "astId": 3534,
            "contract": "contracts/protocol/InitialRealEstateOffering.sol:InitialRealEstateOffering",
            "label": "listingOwnerFee",
            "offset": 30,
            "slot": "0",
            "type": "t_uint16"
          },
          {
            "astId": 3536,
            "contract": "contracts/protocol/InitialRealEstateOffering.sol:InitialRealEstateOffering",
            "label": "listingOwnerShare",
            "offset": 0,
            "slot": "1",
            "type": "t_uint16"
          },
          {
            "astId": 3538,
            "contract": "contracts/protocol/InitialRealEstateOffering.sol:InitialRealEstateOffering",
            "label": "end",
            "offset": 2,
            "slot": "1",
            "type": "t_uint64"
          },
          {
            "astId": 3540,
            "contract": "contracts/protocol/InitialRealEstateOffering.sol:InitialRealEstateOffering",
            "label": "softCap",
            "offset": 0,
            "slot": "2",
            "type": "t_uint256"
          },
          {
            "astId": 3542,
            "contract": "contracts/protocol/InitialRealEstateOffering.sol:InitialRealEstateOffering",
            "label": "hardCap",
            "offset": 0,
            "slot": "3",
            "type": "t_uint256"
          },
          {
            "astId": 3544,
            "contract": "contracts/protocol/InitialRealEstateOffering.sol:InitialRealEstateOffering",
            "label": "unitPrice",
            "offset": 0,
            "slot": "4",
            "type": "t_uint256"
          },
          {
            "astId": 3546,
            "contract": "contracts/protocol/InitialRealEstateOffering.sol:InitialRealEstateOffering",
            "label": "totalFunding",
            "offset": 0,
            "slot": "5",
            "type": "t_uint256"
          },
          {
            "astId": 3548,
            "contract": "contracts/protocol/InitialRealEstateOffering.sol:InitialRealEstateOffering",
            "label": "baseCurrency",
            "offset": 0,
            "slot": "6",
            "type": "t_address"
          }
        ],
        "numberOfBytes": "224"
      },
      "t_struct(WhitelistedCurrency)3555_storage": {
        "encoding": "inplace",
        "label": "struct InitialRealEstateOffering.WhitelistedCurrency",
        "members": [
          {
            "astId": 3551,
            "contract": "contracts/protocol/InitialRealEstateOffering.sol:InitialRealEstateOffering",
            "label": "whitelisted",
            "offset": 0,
            "slot": "0",
            "type": "t_bool"
          },
          {
            "astId": 3554,
            "contract": "contracts/protocol/InitialRealEstateOffering.sol:InitialRealEstateOffering",
            "label": "relativePath",
            "offset": 0,
            "slot": "1",
            "type": "t_array(t_address)dyn_storage"
          }
        ],
        "numberOfBytes": "64"
      },
      "t_uint16": {
        "encoding": "inplace",
        "label": "uint16",
        "numberOfBytes": "2"
      },
      "t_uint256": {
        "encoding": "inplace",
        "label": "uint256",
        "numberOfBytes": "32"
      },
      "t_uint64": {
        "encoding": "inplace",
        "label": "uint64",
        "numberOfBytes": "8"
      },
      "t_uint8": {
        "encoding": "inplace",
        "label": "uint8",
        "numberOfBytes": "1"
      }
    }
  }
}