{
  "address": "0x1613ea411C6eCDa328B594Bf4bE2C0d44EF90830",
  "abi": [
    {
      "inputs": [
        {
          "internalType": "string",
          "name": "_imageUri",
          "type": "string"
        },
        {
          "internalType": "address",
          "name": "_admin",
          "type": "address"
        },
        {
          "internalType": "address",
          "name": "_owner",
          "type": "address"
        },
        {
          "internalType": "uint256",
          "name": "_publicTokenUnitPrice",
          "type": "uint256"
        },
        {
          "internalType": "uint256",
          "name": "_whitelistTokenUnitPrice",
          "type": "uint256"
        },
        {
          "internalType": "uint256[3]",
          "name": "_chances",
          "type": "uint256[3]"
        }
      ],
      "stateMutability": "nonpayable",
      "type": "constructor"
    },
    {
      "anonymous": false,
      "inputs": [
        {
          "indexed": true,
          "internalType": "address",
          "name": "_by",
          "type": "address"
        },
        {
          "indexed": false,
          "internalType": "uint256",
          "name": "_amount",
          "type": "uint256"
        }
      ],
      "name": "AirdropClaim",
      "type": "event"
    },
    {
      "anonymous": false,
      "inputs": [
        {
          "indexed": true,
          "internalType": "address",
          "name": "_admin",
          "type": "address"
        },
        {
          "indexed": true,
          "internalType": "uint256",
          "name": "_airdropNonce",
          "type": "uint256"
        },
        {
          "indexed": false,
          "internalType": "bytes32",
          "name": "_root",
          "type": "bytes32"
        }
      ],
      "name": "AirdropMerkleRootSet",
      "type": "event"
    },
    {
      "anonymous": false,
      "inputs": [
        {
          "indexed": true,
          "internalType": "uint256",
          "name": "_id",
          "type": "uint256"
        },
        {
          "indexed": true,
          "internalType": "address",
          "name": "_owner",
          "type": "address"
        },
        {
          "indexed": true,
          "internalType": "address",
          "name": "_spender",
          "type": "address"
        },
        {
          "indexed": false,
          "internalType": "uint256",
          "name": "_amount",
          "type": "uint256"
        }
      ],
      "name": "Approval",
      "type": "event"
    },
    {
      "anonymous": false,
      "inputs": [
        {
          "indexed": true,
          "internalType": "address",
          "name": "account",
          "type": "address"
        },
        {
          "indexed": true,
          "internalType": "address",
          "name": "operator",
          "type": "address"
        },
        {
          "indexed": false,
          "internalType": "bool",
          "name": "approved",
          "type": "bool"
        }
      ],
      "name": "ApprovalForAll",
      "type": "event"
    },
    {
      "anonymous": false,
      "inputs": [
        {
          "indexed": true,
          "internalType": "address",
          "name": "_by",
          "type": "address"
        },
        {
          "indexed": false,
          "internalType": "string",
          "name": "_value",
          "type": "string"
        }
      ],
      "name": "ContractURIUpdated",
      "type": "event"
    },
    {
      "anonymous": false,
      "inputs": [
        {
          "indexed": true,
          "internalType": "address",
          "name": "_admin",
          "type": "address"
        }
      ],
      "name": "NewAdmin",
      "type": "event"
    },
    {
      "anonymous": false,
      "inputs": [
        {
          "indexed": true,
          "internalType": "address",
          "name": "_admin",
          "type": "address"
        },
        {
          "indexed": false,
          "internalType": "string",
          "name": "_uri",
          "type": "string"
        }
      ],
      "name": "NewImageUri",
      "type": "event"
    },
    {
      "anonymous": false,
      "inputs": [
        {
          "indexed": true,
          "internalType": "address",
          "name": "_by",
          "type": "address"
        },
        {
          "indexed": true,
          "internalType": "address",
          "name": "_oldVal",
          "type": "address"
        },
        {
          "indexed": true,
          "internalType": "address",
          "name": "_newVal",
          "type": "address"
        }
      ],
      "name": "OwnerUpdated",
      "type": "event"
    },
    {
      "anonymous": false,
      "inputs": [
        {
          "indexed": true,
          "internalType": "address",
          "name": "_by",
          "type": "address"
        },
        {
          "indexed": true,
          "internalType": "enum PioneerERC1155.Pioneer",
          "name": "_Pioneer",
          "type": "uint8"
        },
        {
          "indexed": false,
          "internalType": "uint256",
          "name": "_unitPrice",
          "type": "uint256"
        },
        {
          "indexed": false,
          "internalType": "uint256",
          "name": "_amount",
          "type": "uint256"
        }
      ],
      "name": "PioneerClaim",
      "type": "event"
    },
    {
      "anonymous": false,
      "inputs": [
        {
          "indexed": true,
          "internalType": "address",
          "name": "_by",
          "type": "address"
        }
      ],
      "name": "PrivateClaim",
      "type": "event"
    },
    {
      "anonymous": false,
      "inputs": [
        {
          "indexed": true,
          "internalType": "address",
          "name": "_admin",
          "type": "address"
        },
        {
          "indexed": false,
          "internalType": "bytes32",
          "name": "_root",
          "type": "bytes32"
        }
      ],
      "name": "PrivateMerkleRootSet",
      "type": "event"
    },
    {
      "anonymous": false,
      "inputs": [
        {
          "indexed": true,
          "internalType": "address",
          "name": "_by",
          "type": "address"
        },
        {
          "indexed": false,
          "internalType": "uint256",
          "name": "_amount",
          "type": "uint256"
        }
      ],
      "name": "PublicPurchase",
      "type": "event"
    },
    {
      "anonymous": false,
      "inputs": [
        {
          "indexed": true,
          "internalType": "address",
          "name": "_by",
          "type": "address"
        },
        {
          "indexed": true,
          "internalType": "address",
          "name": "_receiver",
          "type": "address"
        },
        {
          "indexed": false,
          "internalType": "uint16",
          "name": "_percentage",
          "type": "uint16"
        }
      ],
      "name": "RoyaltyInfoUpdated",
      "type": "event"
    },
    {
      "anonymous": false,
      "inputs": [
        {
          "indexed": true,
          "internalType": "address",
          "name": "_admin",
          "type": "address"
        },
        {
          "indexed": false,
          "internalType": "bytes32",
          "name": "_whitelistMerkleRoot",
          "type": "bytes32"
        },
        {
          "indexed": false,
          "internalType": "uint256",
          "name": "_publicSaleStartTime",
          "type": "uint256"
        }
      ],
      "name": "SaleInitialized",
      "type": "event"
    },
    {
      "anonymous": false,
      "inputs": [
        {
          "indexed": true,
          "internalType": "address",
          "name": "operator",
          "type": "address"
        },
        {
          "indexed": true,
          "internalType": "address",
          "name": "from",
          "type": "address"
        },
        {
          "indexed": true,
          "internalType": "address",
          "name": "to",
          "type": "address"
        },
        {
          "indexed": false,
          "internalType": "uint256[]",
          "name": "ids",
          "type": "uint256[]"
        },
        {
          "indexed": false,
          "internalType": "uint256[]",
          "name": "values",
          "type": "uint256[]"
        }
      ],
      "name": "TransferBatch",
      "type": "event"
    },
    {
      "anonymous": false,
      "inputs": [
        {
          "indexed": true,
          "internalType": "address",
          "name": "operator",
          "type": "address"
        },
        {
          "indexed": true,
          "internalType": "address",
          "name": "from",
          "type": "address"
        },
        {
          "indexed": true,
          "internalType": "address",
          "name": "to",
          "type": "address"
        },
        {
          "indexed": false,
          "internalType": "uint256",
          "name": "id",
          "type": "uint256"
        },
        {
          "indexed": false,
          "internalType": "uint256",
          "name": "value",
          "type": "uint256"
        }
      ],
      "name": "TransferSingle",
      "type": "event"
    },
    {
      "anonymous": false,
      "inputs": [
        {
          "indexed": false,
          "internalType": "string",
          "name": "value",
          "type": "string"
        },
        {
          "indexed": true,
          "internalType": "uint256",
          "name": "id",
          "type": "uint256"
        }
      ],
      "name": "URI",
      "type": "event"
    },
    {
      "anonymous": false,
      "inputs": [
        {
          "indexed": true,
          "internalType": "address",
          "name": "_by",
          "type": "address"
        },
        {
          "indexed": false,
          "internalType": "uint256",
          "name": "_amount",
          "type": "uint256"
        }
      ],
      "name": "WhitelistPurchase",
      "type": "event"
    },
    {
      "anonymous": false,
      "inputs": [
        {
          "indexed": true,
          "internalType": "address",
          "name": "_admin",
          "type": "address"
        },
        {
          "indexed": true,
          "internalType": "address",
          "name": "_to",
          "type": "address"
        },
        {
          "indexed": false,
          "internalType": "uint256",
          "name": "_amount",
          "type": "uint256"
        }
      ],
      "name": "Withdrawal",
      "type": "event"
    },
    {
      "inputs": [],
      "name": "AIRDROP_MAX_CLAIMS",
      "outputs": [
        {
          "internalType": "uint256",
          "name": "",
          "type": "uint256"
        }
      ],
      "stateMutability": "view",
      "type": "function"
    },
    {
      "inputs": [],
      "name": "MAX_CHANCE",
      "outputs": [
        {
          "internalType": "uint256",
          "name": "",
          "type": "uint256"
        }
      ],
      "stateMutability": "view",
      "type": "function"
    },
    {
      "inputs": [],
      "name": "PRIVATE_CLAIM_GOLD",
      "outputs": [
        {
          "internalType": "uint256",
          "name": "",
          "type": "uint256"
        }
      ],
      "stateMutability": "view",
      "type": "function"
    },
    {
      "inputs": [],
      "name": "PRIVATE_MAX_CLAIMS",
      "outputs": [
        {
          "internalType": "uint256",
          "name": "",
          "type": "uint256"
        }
      ],
      "stateMutability": "view",
      "type": "function"
    },
    {
      "inputs": [],
      "name": "PURCHASABLE_SUPPLY",
      "outputs": [
        {
          "internalType": "uint256",
          "name": "",
          "type": "uint256"
        }
      ],
      "stateMutability": "view",
      "type": "function"
    },
    {
      "inputs": [],
      "name": "WHITELIST_MAX_PURCHASES",
      "outputs": [
        {
          "internalType": "uint256",
          "name": "",
          "type": "uint256"
        }
      ],
      "stateMutability": "view",
      "type": "function"
    },
    {
      "inputs": [],
      "name": "WHITELIST_PURCHASE_PER_ADDRESS",
      "outputs": [
        {
          "internalType": "uint256",
          "name": "",
          "type": "uint256"
        }
      ],
      "stateMutability": "view",
      "type": "function"
    },
    {
      "inputs": [],
      "name": "admin",
      "outputs": [
        {
          "internalType": "address",
          "name": "",
          "type": "address"
        }
      ],
      "stateMutability": "view",
      "type": "function"
    },
    {
      "inputs": [],
      "name": "airdropClaimed",
      "outputs": [
        {
          "internalType": "uint256",
          "name": "",
          "type": "uint256"
        }
      ],
      "stateMutability": "view",
      "type": "function"
    },
    {
      "inputs": [],
      "name": "airdropMerkleRoot",
      "outputs": [
        {
          "internalType": "bytes32",
          "name": "",
          "type": "bytes32"
        }
      ],
      "stateMutability": "view",
      "type": "function"
    },
    {
      "inputs": [],
      "name": "airdropNonce",
      "outputs": [
        {
          "internalType": "uint256",
          "name": "",
          "type": "uint256"
        }
      ],
      "stateMutability": "view",
      "type": "function"
    },
    {
      "inputs": [
        {
          "internalType": "uint256",
          "name": "_id",
          "type": "uint256"
        },
        {
          "internalType": "address",
          "name": "_spender",
          "type": "address"
        },
        {
          "internalType": "uint256",
          "name": "_amount",
          "type": "uint256"
        }
      ],
      "name": "approve",
      "outputs": [
        {
          "internalType": "bool",
          "name": "",
          "type": "bool"
        }
      ],
      "stateMutability": "nonpayable",
      "type": "function"
    },
    {
      "inputs": [
        {
          "internalType": "address",
          "name": "account",
          "type": "address"
        },
        {
          "internalType": "uint256",
          "name": "id",
          "type": "uint256"
        }
      ],
      "name": "balanceOf",
      "outputs": [
        {
          "internalType": "uint256",
          "name": "",
          "type": "uint256"
        }
      ],
      "stateMutability": "view",
      "type": "function"
    },
    {
      "inputs": [
        {
          "internalType": "address[]",
          "name": "accounts",
          "type": "address[]"
        },
        {
          "internalType": "uint256[]",
          "name": "ids",
          "type": "uint256[]"
        }
      ],
      "name": "balanceOfBatch",
      "outputs": [
        {
          "internalType": "uint256[]",
          "name": "",
          "type": "uint256[]"
        }
      ],
      "stateMutability": "view",
      "type": "function"
    },
    {
      "inputs": [
        {
          "internalType": "uint256",
          "name": "_amount",
          "type": "uint256"
        },
        {
          "internalType": "bytes32[]",
          "name": "_proof",
          "type": "bytes32[]"
        }
      ],
      "name": "claimAirdrop",
      "outputs": [],
      "stateMutability": "nonpayable",
      "type": "function"
    },
    {
      "inputs": [
        {
          "internalType": "uint256",
          "name": "_id",
          "type": "uint256"
        }
      ],
      "name": "collectionDescription",
      "outputs": [
        {
          "internalType": "string",
          "name": "",
          "type": "string"
        }
      ],
      "stateMutability": "pure",
      "type": "function"
    },
    {
      "inputs": [
        {
          "internalType": "uint256",
          "name": "_id",
          "type": "uint256"
        }
      ],
      "name": "collectionMetadata",
      "outputs": [
        {
          "internalType": "string",
          "name": "",
          "type": "string"
        }
      ],
      "stateMutability": "view",
      "type": "function"
    },
    {
      "inputs": [
        {
          "internalType": "uint256",
          "name": "_id",
          "type": "uint256"
        }
      ],
      "name": "collectionName",
      "outputs": [
        {
          "internalType": "string",
          "name": "",
          "type": "string"
        }
      ],
      "stateMutability": "pure",
      "type": "function"
    },
    {
      "inputs": [],
      "name": "contractURI",
      "outputs": [
        {
          "internalType": "string",
          "name": "",
          "type": "string"
        }
      ],
      "stateMutability": "view",
      "type": "function"
    },
    {
      "inputs": [
        {
          "internalType": "uint256",
          "name": "id",
          "type": "uint256"
        }
      ],
      "name": "exists",
      "outputs": [
        {
          "internalType": "bool",
          "name": "",
          "type": "bool"
        }
      ],
      "stateMutability": "view",
      "type": "function"
    },
    {
      "inputs": [
        {
          "internalType": "uint256",
          "name": "_id",
          "type": "uint256"
        }
      ],
      "name": "imageURI",
      "outputs": [
        {
          "internalType": "string",
          "name": "",
          "type": "string"
        }
      ],
      "stateMutability": "view",
      "type": "function"
    },
    {
      "inputs": [
        {
          "internalType": "bytes32",
          "name": "_whitelistMerkleRoot",
          "type": "bytes32"
        },
        {
          "internalType": "uint256",
          "name": "_publicSaleOffset",
          "type": "uint256"
        }
      ],
      "name": "initializeSale",
      "outputs": [],
      "stateMutability": "nonpayable",
      "type": "function"
    },
    {
      "inputs": [
        {
          "internalType": "address",
          "name": "account",
          "type": "address"
        },
        {
          "internalType": "address",
          "name": "operator",
          "type": "address"
        }
      ],
      "name": "isApprovedForAll",
      "outputs": [
        {
          "internalType": "bool",
          "name": "",
          "type": "bool"
        }
      ],
      "stateMutability": "view",
      "type": "function"
    },
    {
      "inputs": [
        {
          "internalType": "address",
          "name": "_addr",
          "type": "address"
        }
      ],
      "name": "isOwner",
      "outputs": [
        {
          "internalType": "bool",
          "name": "",
          "type": "bool"
        }
      ],
      "stateMutability": "view",
      "type": "function"
    },
    {
      "inputs": [],
      "name": "owner",
      "outputs": [
        {
          "internalType": "address",
          "name": "",
          "type": "address"
        }
      ],
      "stateMutability": "view",
      "type": "function"
    },
    {
      "inputs": [
        {
          "internalType": "bytes32[]",
          "name": "_proof",
          "type": "bytes32[]"
        }
      ],
      "name": "privateClaim",
      "outputs": [],
      "stateMutability": "nonpayable",
      "type": "function"
    },
    {
      "inputs": [],
      "name": "privateMerkleRoot",
      "outputs": [
        {
          "internalType": "bytes32",
          "name": "",
          "type": "bytes32"
        }
      ],
      "stateMutability": "view",
      "type": "function"
    },
    {
      "inputs": [
        {
          "internalType": "uint256",
          "name": "_amount",
          "type": "uint256"
        }
      ],
      "name": "publicPurchase",
      "outputs": [],
      "stateMutability": "payable",
      "type": "function"
    },
    {
      "inputs": [],
      "name": "publicSaleStartTime",
      "outputs": [
        {
          "internalType": "uint256",
          "name": "",
          "type": "uint256"
        }
      ],
      "stateMutability": "view",
      "type": "function"
    },
    {
      "inputs": [],
      "name": "publicSaleStarted",
      "outputs": [
        {
          "internalType": "bool",
          "name": "",
          "type": "bool"
        }
      ],
      "stateMutability": "view",
      "type": "function"
    },
    {
      "inputs": [],
      "name": "publicTokenUnitPrice",
      "outputs": [
        {
          "internalType": "uint256",
          "name": "",
          "type": "uint256"
        }
      ],
      "stateMutability": "view",
      "type": "function"
    },
    {
      "inputs": [],
      "name": "purchasedAmount",
      "outputs": [
        {
          "internalType": "uint256",
          "name": "",
          "type": "uint256"
        }
      ],
      "stateMutability": "view",
      "type": "function"
    },
    {
      "inputs": [
        {
          "internalType": "uint256",
          "name": "",
          "type": "uint256"
        },
        {
          "internalType": "uint256",
          "name": "_salePrice",
          "type": "uint256"
        }
      ],
      "name": "royaltyInfo",
      "outputs": [
        {
          "internalType": "address",
          "name": "receiver",
          "type": "address"
        },
        {
          "internalType": "uint256",
          "name": "royaltyAmount",
          "type": "uint256"
        }
      ],
      "stateMutability": "view",
      "type": "function"
    },
    {
      "inputs": [],
      "name": "royaltyPercentage",
      "outputs": [
        {
          "internalType": "uint16",
          "name": "",
          "type": "uint16"
        }
      ],
      "stateMutability": "view",
      "type": "function"
    },
    {
      "inputs": [],
      "name": "royaltyReceiver",
      "outputs": [
        {
          "internalType": "address",
          "name": "",
          "type": "address"
        }
      ],
      "stateMutability": "view",
      "type": "function"
    },
    {
      "inputs": [
        {
          "internalType": "address",
          "name": "_from",
          "type": "address"
        },
        {
          "internalType": "address",
          "name": "_to",
          "type": "address"
        },
        {
          "internalType": "uint256[]",
          "name": "_ids",
          "type": "uint256[]"
        },
        {
          "internalType": "uint256[]",
          "name": "_amounts",
          "type": "uint256[]"
        },
        {
          "internalType": "bytes",
          "name": "_data",
          "type": "bytes"
        }
      ],
      "name": "safeBatchTransferFrom",
      "outputs": [],
      "stateMutability": "nonpayable",
      "type": "function"
    },
    {
      "inputs": [
        {
          "internalType": "address",
          "name": "_from",
          "type": "address"
        },
        {
          "internalType": "address",
          "name": "_to",
          "type": "address"
        },
        {
          "internalType": "uint256",
          "name": "_id",
          "type": "uint256"
        },
        {
          "internalType": "uint256",
          "name": "_amount",
          "type": "uint256"
        },
        {
          "internalType": "bytes",
          "name": "_data",
          "type": "bytes"
        }
      ],
      "name": "safeTransferFrom",
      "outputs": [],
      "stateMutability": "nonpayable",
      "type": "function"
    },
    {
      "inputs": [],
      "name": "saleInitialized",
      "outputs": [
        {
          "internalType": "bool",
          "name": "",
          "type": "bool"
        }
      ],
      "stateMutability": "view",
      "type": "function"
    },
    {
      "inputs": [
        {
          "internalType": "address",
          "name": "_admin",
          "type": "address"
        }
      ],
      "name": "setAdmin",
      "outputs": [],
      "stateMutability": "nonpayable",
      "type": "function"
    },
    {
      "inputs": [
        {
          "internalType": "bytes32",
          "name": "_root",
          "type": "bytes32"
        }
      ],
      "name": "setAirdropRoot",
      "outputs": [],
      "stateMutability": "nonpayable",
      "type": "function"
    },
    {
      "inputs": [
        {
          "internalType": "address",
          "name": "operator",
          "type": "address"
        },
        {
          "internalType": "bool",
          "name": "approved",
          "type": "bool"
        }
      ],
      "name": "setApprovalForAll",
      "outputs": [],
      "stateMutability": "nonpayable",
      "type": "function"
    },
    {
      "inputs": [
        {
          "internalType": "string",
          "name": "_contractURI",
          "type": "string"
        }
      ],
      "name": "setContractURI",
      "outputs": [],
      "stateMutability": "nonpayable",
      "type": "function"
    },
    {
      "inputs": [
        {
          "internalType": "string",
          "name": "_uri",
          "type": "string"
        }
      ],
      "name": "setImageBaseURI",
      "outputs": [],
      "stateMutability": "nonpayable",
      "type": "function"
    },
    {
      "inputs": [
        {
          "internalType": "bytes32",
          "name": "_root",
          "type": "bytes32"
        }
      ],
      "name": "setPrivateRoot",
      "outputs": [],
      "stateMutability": "nonpayable",
      "type": "function"
    },
    {
      "inputs": [
        {
          "internalType": "address",
          "name": "_royaltyReceiver",
          "type": "address"
        },
        {
          "internalType": "uint16",
          "name": "_royaltyPercentage",
          "type": "uint16"
        }
      ],
      "name": "setRoyaltyInfo",
      "outputs": [],
      "stateMutability": "nonpayable",
      "type": "function"
    },
    {
      "inputs": [
        {
          "internalType": "bytes4",
          "name": "interfaceId",
          "type": "bytes4"
        }
      ],
      "name": "supportsInterface",
      "outputs": [
        {
          "internalType": "bool",
          "name": "",
          "type": "bool"
        }
      ],
      "stateMutability": "view",
      "type": "function"
    },
    {
      "inputs": [
        {
          "internalType": "enum PioneerERC1155.Pioneer",
          "name": "",
          "type": "uint8"
        }
      ],
      "name": "thresholds",
      "outputs": [
        {
          "internalType": "uint256",
          "name": "",
          "type": "uint256"
        }
      ],
      "stateMutability": "view",
      "type": "function"
    },
    {
      "inputs": [
        {
          "internalType": "uint256",
          "name": "id",
          "type": "uint256"
        }
      ],
      "name": "totalSupply",
      "outputs": [
        {
          "internalType": "uint256",
          "name": "",
          "type": "uint256"
        }
      ],
      "stateMutability": "view",
      "type": "function"
    },
    {
      "inputs": [
        {
          "internalType": "address",
          "name": "_owner",
          "type": "address"
        }
      ],
      "name": "transferOwnership",
      "outputs": [],
      "stateMutability": "nonpayable",
      "type": "function"
    },
    {
      "inputs": [
        {
          "internalType": "uint256",
          "name": "_id",
          "type": "uint256"
        }
      ],
      "name": "uri",
      "outputs": [
        {
          "internalType": "string",
          "name": "",
          "type": "string"
        }
      ],
      "stateMutability": "view",
      "type": "function"
    },
    {
      "inputs": [
        {
          "internalType": "address",
          "name": "",
          "type": "address"
        }
      ],
      "name": "userAirdropNonce",
      "outputs": [
        {
          "internalType": "uint256",
          "name": "",
          "type": "uint256"
        }
      ],
      "stateMutability": "view",
      "type": "function"
    },
    {
      "inputs": [
        {
          "internalType": "address",
          "name": "",
          "type": "address"
        }
      ],
      "name": "userPrivateClaimed",
      "outputs": [
        {
          "internalType": "bool",
          "name": "",
          "type": "bool"
        }
      ],
      "stateMutability": "view",
      "type": "function"
    },
    {
      "inputs": [
        {
          "internalType": "address",
          "name": "",
          "type": "address"
        }
      ],
      "name": "userWhitelistPurchasedAmount",
      "outputs": [
        {
          "internalType": "uint256",
          "name": "",
          "type": "uint256"
        }
      ],
      "stateMutability": "view",
      "type": "function"
    },
    {
      "inputs": [],
      "name": "whitelistMerkleRoot",
      "outputs": [
        {
          "internalType": "bytes32",
          "name": "",
          "type": "bytes32"
        }
      ],
      "stateMutability": "view",
      "type": "function"
    },
    {
      "inputs": [
        {
          "internalType": "uint256",
          "name": "_amount",
          "type": "uint256"
        },
        {
          "internalType": "bytes32[]",
          "name": "_proof",
          "type": "bytes32[]"
        }
      ],
      "name": "whitelistPurchase",
      "outputs": [],
      "stateMutability": "payable",
      "type": "function"
    },
    {
      "inputs": [],
      "name": "whitelistTokenUnitPrice",
      "outputs": [
        {
          "internalType": "uint256",
          "name": "",
          "type": "uint256"
        }
      ],
      "stateMutability": "view",
      "type": "function"
    },
    {
      "inputs": [
        {
          "internalType": "address",
          "name": "_to",
          "type": "address"
        }
      ],
      "name": "withdraw",
      "outputs": [],
      "stateMutability": "nonpayable",
      "type": "function"
    }
  ],
  "transactionHash": "0x160bf6be9eca143900a4c296985e4580b2e4e95f644182b1a5de303aa19b33b3",
  "args": [
    "",
    "0x63926E60619172FE58870BCeb057b3B437Fa62FC",
    "0x39a242169BA3B28623E6d235A4Bdd46287d4bae3",
    "150000000000000000",
    "100000000000000000",
    [
      948,
      47,
      5
    ]
  ],
  "numDeployments": 1,
  "solcInputHash": "4894ce81007847530057819b8e7dbc8d",
  "bytecode": "0x60c06040523480156200001157600080fd5b50604051620045e2380380620045e2833981016040819052620000349162000552565b85858582620000438162000440565b50600580546001600160a01b038084166001600160a01b0319928316179092556006805492851692909116821790556040517f71614071b88dee5e0b2ae578a9dd7b2ebbe9ae832ba419dc0242cd065a290b6c90600090a25050506001600160a01b038516620000fa5760405162461bcd60e51b815260206004820181905260248201527f41646d696e2073686f756c64206e6f74206265205a45524f204144445245535360448201526064015b60405180910390fd5b8282106200014b5760405162461bcd60e51b815260206004820152601360248201527f4e6f20646973636f756e74206170706c696564000000000000000000000000006044820152606401620000f1565b60005b60038160ff1610156200035e5760ff811615620002c357818160ff16600381106200017d576200017d6200063d565b6020020151826200019060018462000669565b60ff1660038110620001a657620001a66200063d565b60200201511015620001fb5760405162461bcd60e51b815260206004820152601560248201527f496e76616c6964205f6368616e636520617272617900000000000000000000006044820152606401620000f1565b600a60006200020c60018462000669565b60ff1660028111156200022357620002236200068b565b60028111156200023757620002376200068b565b60028111156200024b576200024b6200068b565b815260200190815260200160002054600a60008360ff1660028111156200027657620002766200068b565b60028111156200028a576200028a6200068b565b60028111156200029e576200029e6200068b565b81526020019081526020016000206000828254620002bd9190620006a1565b90915550505b818160ff1660038110620002db57620002db6200063d565b6020020151600a60008360ff166002811115620002fc57620002fc6200068b565b60028111156200031057620003106200068b565b60028111156200032457620003246200068b565b81526020019081526020016000206000828254620003439190620006a1565b909155508190506200035581620006b7565b9150506200014e565b506002600052600a6020527fbff4442b8ed600beeb8e26b1279a0f0d14c6edfaec26d968ee13c86f7d4c2ba8546103e814620003e75760405162461bcd60e51b815260206004820152602160248201527f5f6368616e6365732073756d2073686f756c64206265204d41585f4348414e436044820152604560f81b6064820152608401620000f1565b60a08390526080829052336001600160a01b03167fff9f5326d1d2833dce5b39220446d89e1d49234ceacf56ad194c69a5cb423d2a876040516200042c9190620006d9565b60405180910390a250505050505062000869565b60026200044e82826200079d565b5050565b634e487b7160e01b600052604160045260246000fd5b604051601f8201601f191681016001600160401b038111828210171562000493576200049362000452565b604052919050565b60005b83811015620004b85781810151838201526020016200049e565b50506000910152565b80516001600160a01b0381168114620004d957600080fd5b919050565b600082601f830112620004f057600080fd5b604051606081016001600160401b038111828210171562000515576200051562000452565b6040528060608401858111156200052b57600080fd5b845b81811015620005475780518352602092830192016200052d565b509195945050505050565b60008060008060008061010087890312156200056d57600080fd5b86516001600160401b03808211156200058557600080fd5b818901915089601f8301126200059a57600080fd5b815181811115620005af57620005af62000452565b620005c4601f8201601f191660200162000468565b91508082528a6020828501011115620005dc57600080fd5b620005ef8160208401602086016200049b565b50965062000602905060208801620004c1565b94506200061260408801620004c1565b93506060870151925060808701519150620006318860a08901620004de565b90509295509295509295565b634e487b7160e01b600052603260045260246000fd5b634e487b7160e01b600052601160045260246000fd5b60ff828116828216039081111562000685576200068562000653565b92915050565b634e487b7160e01b600052602160045260246000fd5b8082018082111562000685576200068562000653565b600060ff821660ff8103620006d057620006d062000653565b60010192915050565b6020815260008251806020840152620006fa8160408501602087016200049b565b601f01601f19169190910160400192915050565b600181811c908216806200072357607f821691505b6020821081036200074457634e487b7160e01b600052602260045260246000fd5b50919050565b601f8211156200079857600081815260208120601f850160051c81016020861015620007735750805b601f850160051c820191505b8181101562000794578281556001016200077f565b5050505b505050565b81516001600160401b03811115620007b957620007b962000452565b620007d181620007ca84546200070e565b846200074a565b602080601f831160018114620008095760008415620007f05750858301515b600019600386901b1c1916600185901b17855562000794565b600085815260208120601f198616915b828110156200083a5788860151825594840194600190910190840162000819565b5085821015620008595787850151600019600388901b60f8161c191681555b5050505050600190811b01905550565b60805160a051613d456200089d600039600081816109f90152610d420152600081816104b301526118230152613d456000f3fe6080604052600436106103755760003560e01c80637e776a3f116101d1578063a22cb46511610102578063bd85b039116100a0578063f242432a1161006f578063f242432a14610a79578063f2fde38b14610a99578063f5c0a5ff14610ab9578063f851a44014610ad957600080fd5b8063bd85b039146109ba578063c7f01e4c146109e7578063e8a3d48514610a1b578063e985e9c514610a3057600080fd5b8063aa98e0c6116100dc578063aa98e0c614610937578063afd2b87c1461094d578063afe1a4551461096d578063b548f2ae1461098d57600080fd5b8063a22cb465146108ec578063a2e914771461090c578063a5ce30d21461092157600080fd5b8063920ac79d1161016f5780639d9e7a99116101495780639d9e7a99146108805780639e12e3aa146108a05780639eea92cd146108b65780639fbc8713146108cc57600080fd5b8063920ac79d14610829578063938e3d7b14610849578063973335c01461086957600080fd5b80638a71bb2d116101ab5780638a71bb2d1461077c5780638cb0a511146107b15780638da5cb5b146107d15780638f742d161461080957600080fd5b80637e776a3f14610737578063848966901461074c578063886371171461048b57600080fd5b80632f54bf6e116102ab5780635a50d2f411610249578063704b6c0211610223578063704b6c02146106cf57806372504a24146106ef578063731e5b131461070f578063743b6d881461072257600080fd5b80635a50d2f41461066c5780636bb7b1d9146106995780636cfa24cc146106af57600080fd5b80634e1273f4116102855780634e1273f4146105db5780634f558e791461060857806351cff8d9146106375780635856aafb1461065757600080fd5b80632f54bf6e1461055f5780633fc60d511461058e5780634ba1427e146105ae57600080fd5b80631b004d14116103185780632a55205a116102f25780632a55205a146104d55780632bbde22e146105145780632c1d89e21461052a5780632eb2c2d61461053f57600080fd5b80631b004d141461047557806320e66bd31461048b578063231e5934146104a157600080fd5b80630afbd602116103545780630afbd6021461040a5780630bcae1ac1461041f5780630e89341c1461043f5780631acbc8231461045f57600080fd5b8062fdd58e1461037a57806301ffc9a7146103ad57806303504235146103dd575b600080fd5b34801561038657600080fd5b5061039a6103953660046130be565b610af9565b6040519081526020015b60405180910390f35b3480156103b957600080fd5b506103cd6103c8366004613101565b610b92565b60405190151581526020016103a4565b3480156103e957600080fd5b506103fd6103f836600461311e565b610bb7565b6040516103a49190613187565b61041d61041836600461311e565b610cb5565b005b34801561042b57600080fd5b5061041d61043a366004613270565b610db7565b34801561044b57600080fd5b506103fd61045a36600461311e565b610f47565b34801561046b57600080fd5b5061039a60095481565b34801561048157600080fd5b5061039a6128ce81565b34801561049757600080fd5b5061039a6103e881565b3480156104ad57600080fd5b5061039a7f000000000000000000000000000000000000000000000000000000000000000081565b3480156104e157600080fd5b506104f56104f03660046132b6565b610fc9565b604080516001600160a01b0390931683526020830191909152016103a4565b34801561052057600080fd5b5061039a600b5481565b34801561053657600080fd5b5061039a600181565b34801561054b57600080fd5b5061041d61055a366004613355565b61100a565b34801561056b57600080fd5b506103cd61057a3660046133fe565b6005546001600160a01b0391821691161490565b34801561059a57600080fd5b5061041d6105a9366004613419565b6111dc565b3480156105ba57600080fd5b5061039a6105c93660046133fe565b60106020526000908152604090205481565b3480156105e757600080fd5b506105fb6105f636600461344d565b6112eb565b6040516103a49190613548565b34801561061457600080fd5b506103cd61062336600461311e565b600090815260036020526040902054151590565b34801561064357600080fd5b5061041d6106523660046133fe565b611414565b34801561066357600080fd5b5061039a600481565b34801561067857600080fd5b5061039a61068736600461355b565b600a6020526000908152604090205481565b3480156106a557600080fd5b5061039a60135481565b3480156106bb57600080fd5b5061041d6106ca36600461357c565b6114d3565b3480156106db57600080fd5b5061041d6106ea3660046133fe565b61153f565b3480156106fb57600080fd5b5061041d61070a3660046135c4565b611602565b61041d61071d366004613270565b6116e7565b34801561072e57600080fd5b5061039a606481565b34801561074357600080fd5b5061039a600a81565b34801561075857600080fd5b506103cd6107673660046133fe565b600e6020526000908152604090205460ff1681565b34801561078857600080fd5b5060075461079e90600160a01b900461ffff1681565b60405161ffff90911681526020016103a4565b3480156107bd57600080fd5b506103cd6107cc366004613602565b6118bf565b3480156107dd57600080fd5b506005546107f1906001600160a01b031681565b6040516001600160a01b0390911681526020016103a4565b34801561081557600080fd5b506103fd61082436600461311e565b6118d9565b34801561083557600080fd5b506103fd61084436600461311e565b611985565b34801561085557600080fd5b5061041d61086436600461357c565b611a14565b34801561087557600080fd5b50600c5415156103cd565b34801561088c57600080fd5b5061041d61089b36600461311e565b611a84565b3480156108ac57600080fd5b5061039a60115481565b3480156108c257600080fd5b5061039a60125481565b3480156108d857600080fd5b506007546107f1906001600160a01b031681565b3480156108f857600080fd5b5061041d610907366004613637565b611b3d565b34801561091857600080fd5b506103cd611b4c565b34801561092d57600080fd5b5061039a600d5481565b34801561094357600080fd5b5061039a600c5481565b34801561095957600080fd5b5061041d61096836600461311e565b611b6c565b34801561097957600080fd5b5061041d6109883660046132b6565b611c17565b34801561099957600080fd5b5061039a6109a83660046133fe565b600f6020526000908152604090205481565b3480156109c657600080fd5b5061039a6109d536600461311e565b60009081526003602052604090205490565b3480156109f357600080fd5b5061039a7f000000000000000000000000000000000000000000000000000000000000000081565b348015610a2757600080fd5b506103fd611d22565b348015610a3c57600080fd5b506103cd610a4b366004613668565b6001600160a01b03918216600090815260016020908152604080832093909416825291909152205460ff1690565b348015610a8557600080fd5b5061041d610a9436600461369b565b611db0565b348015610aa557600080fd5b5061041d610ab43660046133fe565b611e8d565b348015610ac557600080fd5b506103fd610ad436600461311e565b611f05565b348015610ae557600080fd5b506006546107f1906001600160a01b031681565b60006001600160a01b038316610b695760405162461bcd60e51b815260206004820152602a60248201527f455243313135353a2061646472657373207a65726f206973206e6f742061207660448201526930b634b21037bbb732b960b11b60648201526084015b60405180910390fd5b506000818152602081815260408083206001600160a01b03861684529091529020545b92915050565b60006001600160e01b0319821663152a902d60e11b1480610b8c5750610b8c82611f34565b60606002821115610bfd5760405162461bcd60e51b815260206004820152601060248201526f125b9d985b1a59081d1bdad95b88125160821b6044820152606401610b60565b81610c3b57505060408051808201909152601c81527f42726f6e7a6520486f72697a6f6e2050696f6e65657220426164676500000000602082015290565b60018203610c7c57505060408051808201909152601c81527f53696c76657220486f72697a6f6e2050696f6e65657220426164676500000000602082015290565b505060408051808201909152601a81527f476f6c6420486f72697a6f6e2050696f6e656572204261646765000000000000602082015290565b610cbd611b4c565b610cf25760405162461bcd60e51b8152602060048201526006602482015265085cdd185c9d60d21b6044820152606401610b60565b6128ce81600954610d03919061372b565b1115610d3d5760405162461bcd60e51b815260206004820152600960248201526821707572636861736560b81b6044820152606401610b60565b610d677f000000000000000000000000000000000000000000000000000000000000000082611f84565b8060096000828254610d79919061372b565b909155505060405181815233907f4c855eb62854c88a144e7c546901bb49fdcd04bc7f223b2b818b85c8c72fae45906020015b60405180910390a250565b610e0a81600d54610dc53390565b85604051602001610def92919060609290921b6001600160601b0319168252601482015260340190565b6040516020818303038152906040528051906020012061224b565b610e445760405162461bcd60e51b815260206004820152600b60248201526a085b595c9adb19549bdbdd60aa1b6044820152606401610b60565b606482601254610e54919061372b565b10610e8c5760405162461bcd60e51b815260206004820152600860248201526702161697264726f760c41b6044820152606401610b60565b601154336000908152601060205260409020548111610eda5760405162461bcd60e51b815260206004820152600a60248201526921757365724e6f6e636560b01b6044820152606401610b60565b610ee5600084611f84565b8260126000828254610ef7919061372b565b90915550503360008181526010602090815260409182902084905590518581527f0109d8fbd8363b83a5fa0c0f8dfbed54c793803139c404e89bf3697f66bdc505910160405180910390a2505050565b60606002821115610f925760405162461bcd60e51b8152602060048201526015602482015274125b9d985b1a590818dbdb1b1958dd1a5bdb881251605a1b6044820152606401610b60565b610fa3610f9e83611f05565b612261565b604051602001610fb3919061373e565b6040516020818303038152906040529050919050565b60075460009081906001600160a01b0381169061271090610ff590600160a01b900461ffff1686613783565b610fff91906137b0565b915091509250929050565b6001600160a01b038516331480159061102a57506110288533610a4b565b155b156111c85760005b83518110156111c65782818151811061104d5761104d6137c4565b60200260200101516004600086848151811061106b5761106b6137c4565b602002602001015181526020019081526020016000206000886001600160a01b03166001600160a01b0316815260200190815260200160002060006110ad3390565b6001600160a01b03166001600160a01b0316815260200190815260200160002054101561110d5760405162461bcd60e51b815260206004820152600e60248201526d139bdd08185d5d1a1bdc9a5e995960921b6044820152606401610b60565b82818151811061111f5761111f6137c4565b60200260200101516004600086848151811061113d5761113d6137c4565b602002602001015181526020019081526020016000206000886001600160a01b03166001600160a01b03168152602001908152602001600020600061117f3390565b6001600160a01b03166001600160a01b0316815260200190815260200160002060008282546111ae91906137da565b909155508190506111be816137ed565b915050611032565b505b6111d585858585856123b3565b5050505050565b61120d81600b546111ea3390565b604051602001610def919060609190911b6001600160601b031916815260140190565b6112415760405162461bcd60e51b8152602060048201526005602482015264085c9bdbdd60da1b6044820152606401610b60565b336000908152600e602052604090205460ff161561128b5760405162461bcd60e51b815260206004820152600760248201526618db185a5b595960ca1b6044820152606401610b60565b6112a833600260016040518060200160405280600081525061259e565b336000818152600e6020526040808220805460ff19166001179055517f6f40e263ca0a431af23ed2666e85c59dfcfaf5c60fc1898f05ed85b596e380109190a250565b606081518351146113505760405162461bcd60e51b815260206004820152602960248201527f455243313135353a206163636f756e747320616e6420696473206c656e677468604482015268040dad2e6dac2e8c6d60bb1b6064820152608401610b60565b600083516001600160401b0381111561136b5761136b61319a565b604051908082528060200260200182016040528015611394578160200160208202803683370190505b50905060005b845181101561140c576113df8582815181106113b8576113b86137c4565b60200260200101518583815181106113d2576113d26137c4565b6020026020010151610af9565b8282815181106113f1576113f16137c4565b6020908102919091010152611405816137ed565b905061139a565b509392505050565b6006546001600160a01b0316331461143e5760405162461bcd60e51b8152600401610b6090613806565b47806114845760405162461bcd60e51b81526020600482015260156024820152744e6f2065746865727320746f20776974686472617760581b6044820152606401610b60565b61148e82826126b8565b6040518181526001600160a01b0383169033907f2717ead6b9200dd235aad468c9809ea400fe33ac69b5bfaa6d3e90fc922b6398906020015b60405180910390a35050565b6006546001600160a01b031633146114fd5760405162461bcd60e51b8152600401610b6090613806565b61150681612758565b336001600160a01b03167fff9f5326d1d2833dce5b39220446d89e1d49234ceacf56ad194c69a5cb423d2a82604051610dac9190613187565b6006546001600160a01b031633146115695760405162461bcd60e51b8152600401610b6090613806565b6006546001600160a01b038083169116036115b85760405162461bcd60e51b815260206004820152600f60248201526e30b236b4b7101e9e902fb0b236b4b760891b6044820152606401610b60565b600680546001600160a01b0319166001600160a01b0383169081179091556040517f71614071b88dee5e0b2ae578a9dd7b2ebbe9ae832ba419dc0242cd065a290b6c90600090a250565b6006546001600160a01b0316331461162c5760405162461bcd60e51b8152600401610b6090613806565b6001600160a01b038216151580611645575061ffff8116155b6116845760405162461bcd60e51b815260206004820152601060248201526f34b73b30b634b2103932b1b2b4bb32b960811b6044820152606401610b60565b600780546001600160a01b0384166001600160b01b03199091168117600160a01b61ffff8516908102919091179092556040519182529033907f9ca088b6b695032bcd5d1fa450e8fa2773391294f09e3710ace940c4ae8cffac906020016114c7565b600c546117255760405162461bcd60e51b815260206004820152600c60248201526b085a5b9a5d1a585b1a5e995960a21b6044820152606401610b60565b61173381600c546111ea3390565b6117675760405162461bcd60e51b8152602060048201526005602482015264085c9bdbdd60da1b6044820152606401610b60565b6128ce82600954611778919061372b565b11156117b25760405162461bcd60e51b815260206004820152600960248201526821707572636861736560b81b6044820152606401610b60565b336000908152600f6020526040902054600a906117d090849061372b565b111561181e5760405162461bcd60e51b815260206004820152601860248201527f4d6178696d756d20616d6f756e742070757263686173656400000000000000006044820152606401610b60565b6118487f000000000000000000000000000000000000000000000000000000000000000083611f84565b336000908152600f60205260408120805484929061186790849061372b565b925050819055508160096000828254611880919061372b565b909155505060405182815233907feadd2fd7955c3d024c3de75a04b4ce74ff865f0a4028906e3b07740fe72e1820906020015b60405180910390a25050565b6000336118ce85828686612764565b506001949350505050565b606060006118e7600061287f565b90507fc5d2460186f7233c927e7db2dcc703c0e500b653ca82273b7bfad8045d85a47081805190602001200361194a5760405162461bcd60e51b8152602060048201526008602482015267216261736555524960c01b6044820152606401610b60565b611954600061287f565b61195d84612913565b60405160200161196e929190613826565b604051602081830303815290604052915050919050565b606060028211156119cb5760405162461bcd60e51b815260206004820152601060248201526f125b9d985b1a59081d1bdad95b88125160821b6044820152606401610b60565b816119e457505060408051602081019091526000815290565b60018203611a0057505060408051602081019091526000815290565b505060408051602081019091526000815290565b6006546001600160a01b03163314611a3e5760405162461bcd60e51b8152600401610b6090613806565b6008611a4a82826138d5565b50336001600160a01b03167f1ca91f64ead03abb06ea28975dfbf18044ac06f9fa1cb62a54ccc905df1028ed82604051610dac9190613187565b6006546001600160a01b03163314611aae5760405162461bcd60e51b8152600401610b6090613806565b606460125410611aeb5760405162461bcd60e51b815260206004820152600860248201526702161697264726f760c41b6044820152606401610b60565b600d81905560118054600090611b00906137ed565b918290555060405182815233907f699553634e4b5cabde9cb937c90f3ec95a7fa09380d592304f684764d34a65979060200160405180910390a350565b611b48338383612a1b565b5050565b6000611b59600c54151590565b8015611b6757506013544210155b905090565b6006546001600160a01b03163314611b965760405162461bcd60e51b8152600401610b6090613806565b600b5415611be05760405162461bcd60e51b815260206004820152601760248201527613595c9adb19481c9bdbdd08185b1c9958591e481cd95d604a1b6044820152606401610b60565b600b81905560405181815233907fa5856f9666c7d78171b1fe5762ce0cb061b435c10fa6065e97d74b43b7a01f9a90602001610dac565b6006546001600160a01b03163314611c415760405162461bcd60e51b8152600401610b6090613806565b600c5415611c8b5760405162461bcd60e51b815260206004820152601760248201527613595c9adb19481c9bdbdd08185b1c9958591e481cd95d604a1b6044820152606401610b60565b81611cce5760405162461bcd60e51b8152602060048201526013602482015272125b9d985b1a590813595c9adb19481c9bdbdd606a1b6044820152606401610b60565b600c829055611cdd814261372b565b601355337fa5573f036edaa8d46e382a986a6297b242b4625f18ff4c2a5cff3edbe154da4f83611d0d844261372b565b604080519283526020830191909152016118b3565b60088054611d2f90613855565b80601f0160208091040260200160405190810160405280929190818152602001828054611d5b90613855565b8015611da85780601f10611d7d57610100808354040283529160200191611da8565b820191906000526020600020905b815481529060010190602001808311611d8b57829003601f168201915b505050505081565b6001600160a01b0385163314801590611dd05750611dce8533610a4b565b155b15611e805760008381526004602090815260408083206001600160a01b03891684528252808320338452909152902054821115611e405760405162461bcd60e51b815260206004820152600e60248201526d139bdd08185d5d1a1bdc9a5e995960921b6044820152606401610b60565b60008381526004602090815260408083206001600160a01b0389168452825280832033845290915281208054849290611e7a9084906137da565b90915550505b6111d58585858585612afb565b6006546001600160a01b03163314611eb75760405162461bcd60e51b8152600401610b6090613806565b600580546001600160a01b0319166001600160a01b038316908117909155604051819033907fb9312e2100469bd44e3f762c248f4dcc8d7788906fabf34f79db45920c37e26990600090a450565b6060611f1082610bb7565b611f1983611985565b611f22846118d9565b604051602001610fb393929190613994565b60006001600160e01b03198216636cdb3d1360e11b1480611f6557506001600160e01b031982166303a24d0760e21b145b80610b8c57506301ffc9a760e01b6001600160e01b0319831614610b8c565b6000611f908383613783565b905080341015611fd65760405162461bcd60e51b81526020600482015260116024820152704e6f7420656e6f7567682065746865727360781b6044820152606401610b60565b60003360095460405160609290921b6001600160601b03191660208301524260348301526054820185905260748201526094016040516020818303038152906040528051906020012060001c9050600061202e613084565b60005b8581101561212b576120456103e885613a32565b60008052600a6020527f13da86008ba1c6922daee3e07db95305ef49ebced9f5467a0b8613fcc6b343e354909350831015612094578160005b60200201805161208d906137ed565b90526120e1565b6001600052600a6020527fbbc70db1b6c7afd11e79c0fb0051300458f1a3acb8ee9789d9b6b26c61ad9bc7548310156120cf5781600161207e565b6040820180516120de906137ed565b90525b6120ed6103e8856137b0565b6040516020016120ff91815260200190565b60408051601f198184030181529190528051602090910120935080612123816137ed565b915050612031565b5060005b60038160ff16101561222357818160ff1660038110612150576121506137c4565b6020020151156122115761218e3360ff8316848160038110612174576121746137c4565b60200201516040518060200160405280600081525061259e565b8060ff1660028111156121a3576121a36136ff565b60028111156121b4576121b46136ff565b337f3c0e2116cd3fb23f6babbab701eda89ecd7bb53d641229517bf1b5bf5ff0e0a8898560ff8616600381106121ec576121ec6137c4565b6020020151604051612208929190918252602082015260400190565b60405180910390a35b8061221b81613a46565b91505061212f565b50600061223085346137da565b905080156122425761224233826126b8565b50505050505050565b6000826122588584612c33565b14949350505050565b6060815160000361228057505060408051602081019091526000815290565b6000604051806060016040528060408152602001613cd060409139905060006003845160026122af919061372b565b6122b991906137b0565b6122c4906004613783565b6001600160401b038111156122db576122db61319a565b6040519080825280601f01601f191660200182016040528015612305576020820181803683370190505b509050600182016020820185865187015b80821015612371576003820191508151603f8160121c168501518453600184019350603f81600c1c168501518453600184019350603f8160061c168501518453600184019350603f8116850151845350600183019250612316565b505060038651066001811461238d57600281146123a0576123a8565b603d6001830353603d60028303536123a8565b603d60018303535b509195945050505050565b81518351146124155760405162461bcd60e51b815260206004820152602860248201527f455243313135353a2069647320616e6420616d6f756e7473206c656e677468206044820152670dad2e6dac2e8c6d60c31b6064820152608401610b60565b6001600160a01b03841661243b5760405162461bcd60e51b8152600401610b6090613a65565b3361244a818787878787612c78565b60005b845181101561253057600085828151811061246a5761246a6137c4565b602002602001015190506000858381518110612488576124886137c4565b602090810291909101810151600084815280835260408082206001600160a01b038e1683529093529190912054909150818110156124d85760405162461bcd60e51b8152600401610b6090613aaa565b6000838152602081815260408083206001600160a01b038e8116855292528083208585039055908b1682528120805484929061251590849061372b565b9250508190555050505080612529906137ed565b905061244d565b50846001600160a01b0316866001600160a01b0316826001600160a01b03167f4a39dc06d4c0dbc64b70af90fd698a233a518aa5d07e595d983b8c0526c8f7fb8787604051612580929190613af4565b60405180910390a4612596818787878787612df1565b505050505050565b6001600160a01b0384166125fe5760405162461bcd60e51b815260206004820152602160248201527f455243313135353a206d696e7420746f20746865207a65726f206164647265736044820152607360f81b6064820152608401610b60565b33600061260a85612f4c565b9050600061261785612f4c565b905061262883600089858589612c78565b6000868152602081815260408083206001600160a01b038b1684529091528120805487929061265890849061372b565b909155505060408051878152602081018790526001600160a01b03808a1692600092918716917fc3d58168c5ae7397731d063d5bbf3d657854427343f4c083240f7aacaa2d0f62910160405180910390a461224283600089898989612f97565b6000826001600160a01b03168260405160006040518083038185875af1925050503d8060008114612705576040519150601f19603f3d011682016040523d82523d6000602084013e61270a565b606091505b50509050806127535760405162461bcd60e51b81526020600482015260156024820152744661696c65642073656e64696e672065746865727360581b6044820152606401610b60565b505050565b6002611b4882826138d5565b6001600160a01b0383166127ba5760405162461bcd60e51b815260206004820152601d60248201527f417070726f76652066726f6d20746865207a65726f20616464726573730000006044820152606401610b60565b6001600160a01b0382166128105760405162461bcd60e51b815260206004820152601b60248201527f417070726f766520746f20746865207a65726f206164647265737300000000006044820152606401610b60565b60008481526004602090815260408083206001600160a01b03878116808652918452828520908716808652908452938290208590559051848152909187917f69e4aaf23f9318cf40839ac20453d8fbedaac2955eb08a27ae5189cc71925716910160405180910390a450505050565b60606002805461288e90613855565b80601f01602080910402602001604051908101604052809291908181526020018280546128ba90613855565b80156129075780601f106128dc57610100808354040283529160200191612907565b820191906000526020600020905b8154815290600101906020018083116128ea57829003601f168201915b50505050509050919050565b60608160000361293a5750506040805180820190915260018152600360fc1b602082015290565b8160005b8115612964578061294e816137ed565b915061295d9050600a836137b0565b915061293e565b6000816001600160401b0381111561297e5761297e61319a565b6040519080825280601f01601f1916602001820160405280156129a8576020820181803683370190505b5090505b8415612a13576129bd6001836137da565b91506129ca600a86613a32565b6129d590603061372b565b60f81b8183815181106129ea576129ea6137c4565b60200101906001600160f81b031916908160001a905350612a0c600a866137b0565b94506129ac565b949350505050565b816001600160a01b0316836001600160a01b031603612a8e5760405162461bcd60e51b815260206004820152602960248201527f455243313135353a2073657474696e6720617070726f76616c20737461747573604482015268103337b91039b2b63360b91b6064820152608401610b60565b6001600160a01b03838116600081815260016020908152604080832094871680845294825291829020805460ff191686151590811790915591519182527f17307eab39ab6107e8899845ad3d59bd9653f200f220920489ca2b5937696c31910160405180910390a3505050565b6001600160a01b038416612b215760405162461bcd60e51b8152600401610b6090613a65565b336000612b2d85612f4c565b90506000612b3a85612f4c565b9050612b4a838989858589612c78565b6000868152602081815260408083206001600160a01b038c16845290915290205485811015612b8b5760405162461bcd60e51b8152600401610b6090613aaa565b6000878152602081815260408083206001600160a01b038d8116855292528083208985039055908a16825281208054889290612bc890849061372b565b909155505060408051888152602081018890526001600160a01b03808b16928c821692918816917fc3d58168c5ae7397731d063d5bbf3d657854427343f4c083240f7aacaa2d0f62910160405180910390a4612c28848a8a8a8a8a612f97565b505050505050505050565b600081815b845181101561140c57612c6482868381518110612c5757612c576137c4565b6020026020010151613052565b915080612c70816137ed565b915050612c38565b6001600160a01b038516612cff5760005b8351811015612cfd57828181518110612ca457612ca46137c4565b602002602001015160036000868481518110612cc257612cc26137c4565b602002602001015181526020019081526020016000206000828254612ce7919061372b565b90915550612cf69050816137ed565b9050612c89565b505b6001600160a01b0384166125965760005b8351811015612242576000848281518110612d2d57612d2d6137c4565b602002602001015190506000848381518110612d4b57612d4b6137c4565b6020026020010151905060006003600084815260200190815260200160002054905081811015612dce5760405162461bcd60e51b815260206004820152602860248201527f455243313135353a206275726e20616d6f756e74206578636565647320746f74604482015267616c537570706c7960c01b6064820152608401610b60565b60009283526003602052604090922091039055612dea816137ed565b9050612d10565b6001600160a01b0384163b156125965760405163bc197c8160e01b81526001600160a01b0385169063bc197c8190612e359089908990889088908890600401613b22565b6020604051808303816000875af1925050508015612e70575060408051601f3d908101601f19168201909252612e6d91810190613b80565b60015b612f1c57612e7c613b9d565b806308c379a003612eb55750612e90613bb9565b80612e9b5750612eb7565b8060405162461bcd60e51b8152600401610b609190613187565b505b60405162461bcd60e51b815260206004820152603460248201527f455243313135353a207472616e7366657220746f206e6f6e20455243313135356044820152732932b1b2b4bb32b91034b6b83632b6b2b73a32b960611b6064820152608401610b60565b6001600160e01b0319811663bc197c8160e01b146122425760405162461bcd60e51b8152600401610b6090613c42565b60408051600180825281830190925260609160009190602080830190803683370190505090508281600081518110612f8657612f866137c4565b602090810291909101015292915050565b6001600160a01b0384163b156125965760405163f23a6e6160e01b81526001600160a01b0385169063f23a6e6190612fdb9089908990889088908890600401613c8a565b6020604051808303816000875af1925050508015613016575060408051601f3d908101601f1916820190925261301391810190613b80565b60015b61302257612e7c613b9d565b6001600160e01b0319811663f23a6e6160e01b146122425760405162461bcd60e51b8152600401610b6090613c42565b600081831061306e57600082815260208490526040902061307d565b60008381526020839052604090205b9392505050565b60405180606001604052806003906020820280368337509192915050565b80356001600160a01b03811681146130b957600080fd5b919050565b600080604083850312156130d157600080fd5b6130da836130a2565b946020939093013593505050565b6001600160e01b0319811681146130fe57600080fd5b50565b60006020828403121561311357600080fd5b813561307d816130e8565b60006020828403121561313057600080fd5b5035919050565b60005b8381101561315257818101518382015260200161313a565b50506000910152565b60008151808452613173816020860160208601613137565b601f01601f19169290920160200192915050565b60208152600061307d602083018461315b565b634e487b7160e01b600052604160045260246000fd5b601f8201601f191681016001600160401b03811182821017156131d5576131d561319a565b6040525050565b60006001600160401b038211156131f5576131f561319a565b5060051b60200190565b600082601f83011261321057600080fd5b8135602061321d826131dc565b60405161322a82826131b0565b83815260059390931b850182019282810191508684111561324a57600080fd5b8286015b84811015613265578035835291830191830161324e565b509695505050505050565b6000806040838503121561328357600080fd5b8235915060208301356001600160401b038111156132a057600080fd5b6132ac858286016131ff565b9150509250929050565b600080604083850312156132c957600080fd5b50508035926020909101359150565b60006001600160401b038311156132f1576132f161319a565b604051613308601f8501601f1916602001826131b0565b80915083815284848401111561331d57600080fd5b83836020830137600060208583010152509392505050565b600082601f83011261334657600080fd5b61307d838335602085016132d8565b600080600080600060a0868803121561336d57600080fd5b613376866130a2565b9450613384602087016130a2565b935060408601356001600160401b03808211156133a057600080fd5b6133ac89838a016131ff565b945060608801359150808211156133c257600080fd5b6133ce89838a016131ff565b935060808801359150808211156133e457600080fd5b506133f188828901613335565b9150509295509295909350565b60006020828403121561341057600080fd5b61307d826130a2565b60006020828403121561342b57600080fd5b81356001600160401b0381111561344157600080fd5b612a13848285016131ff565b6000806040838503121561346057600080fd5b82356001600160401b038082111561347757600080fd5b818501915085601f83011261348b57600080fd5b81356020613498826131dc565b6040516134a582826131b0565b83815260059390931b85018201928281019150898411156134c557600080fd5b948201945b838610156134ea576134db866130a2565b825294820194908201906134ca565b9650508601359250508082111561350057600080fd5b506132ac858286016131ff565b600081518084526020808501945080840160005b8381101561353d57815187529582019590820190600101613521565b509495945050505050565b60208152600061307d602083018461350d565b60006020828403121561356d57600080fd5b81356003811061307d57600080fd5b60006020828403121561358e57600080fd5b81356001600160401b038111156135a457600080fd5b8201601f810184136135b557600080fd5b612a13848235602084016132d8565b600080604083850312156135d757600080fd5b6135e0836130a2565b9150602083013561ffff811681146135f757600080fd5b809150509250929050565b60008060006060848603121561361757600080fd5b83359250613627602085016130a2565b9150604084013590509250925092565b6000806040838503121561364a57600080fd5b613653836130a2565b9150602083013580151581146135f757600080fd5b6000806040838503121561367b57600080fd5b613684836130a2565b9150613692602084016130a2565b90509250929050565b600080600080600060a086880312156136b357600080fd5b6136bc866130a2565b94506136ca602087016130a2565b9350604086013592506060860135915060808601356001600160401b038111156136f357600080fd5b6133f188828901613335565b634e487b7160e01b600052602160045260246000fd5b634e487b7160e01b600052601160045260246000fd5b80820180821115610b8c57610b8c613715565b7f646174613a6170706c69636174696f6e2f6a736f6e3b6261736536342c00000081526000825161377681601d850160208701613137565b91909101601d0192915050565b8082028115828204841417610b8c57610b8c613715565b634e487b7160e01b600052601260045260246000fd5b6000826137bf576137bf61379a565b500490565b634e487b7160e01b600052603260045260246000fd5b81810381811115610b8c57610b8c613715565b6000600182016137ff576137ff613715565b5060010190565b60208082526006908201526510b0b236b4b760d11b604082015260600190565b60008351613838818460208801613137565b83519083019061384c818360208801613137565b01949350505050565b600181811c9082168061386957607f821691505b60208210810361388957634e487b7160e01b600052602260045260246000fd5b50919050565b601f82111561275357600081815260208120601f850160051c810160208610156138b65750805b601f850160051c820191505b81811015612596578281556001016138c2565b81516001600160401b038111156138ee576138ee61319a565b613902816138fc8454613855565b8461388f565b602080601f831160018114613937576000841561391f5750858301515b600019600386901b1c1916600185901b178555612596565b600085815260208120601f198616915b8281101561396657888601518255948401946001909101908401613947565b50858210156139845787850151600019600388901b60f8161c191681555b5050505050600190811b01905550565b683d913730b6b2911d1160b91b815283516000906139b9816009850160208901613137565b701116113232b9b1b934b83a34b7b7111d1160791b60099184019182015284516139ea81601a840160208901613137565b6a11161134b6b0b3b2911d1160a91b601a92909101918201528351613a16816025840160208801613137565b61227d60f01b6025929091019182015260270195945050505050565b600082613a4157613a4161379a565b500690565b600060ff821660ff8103613a5c57613a5c613715565b60010192915050565b60208082526025908201527f455243313135353a207472616e7366657220746f20746865207a65726f206164604082015264647265737360d81b606082015260800190565b6020808252602a908201527f455243313135353a20696e73756666696369656e742062616c616e636520666f60408201526939103a3930b739b332b960b11b606082015260800190565b604081526000613b07604083018561350d565b8281036020840152613b19818561350d565b95945050505050565b6001600160a01b0386811682528516602082015260a060408201819052600090613b4e9083018661350d565b8281036060840152613b60818661350d565b90508281036080840152613b74818561315b565b98975050505050505050565b600060208284031215613b9257600080fd5b815161307d816130e8565b600060033d1115613bb65760046000803e5060005160e01c5b90565b600060443d1015613bc75790565b6040516003193d81016004833e81513d6001600160401b038160248401118184111715613bf657505050505090565b8285019150815181811115613c0e5750505050505090565b843d8701016020828501011115613c285750505050505090565b613c37602082860101876131b0565b509095945050505050565b60208082526028908201527f455243313135353a204552433131353552656365697665722072656a656374656040820152676420746f6b656e7360c01b606082015260800190565b6001600160a01b03868116825285166020820152604081018490526060810183905260a060808201819052600090613cc49083018461315b565b97965050505050505056fe4142434445464748494a4b4c4d4e4f505152535455565758595a6162636465666768696a6b6c6d6e6f707172737475767778797a303132333435363738392b2fa2646970667358221220c8ac30fa2a3d738b7a80ea5ac52aaae66b03bb5c8ee1c7f1d7f50218c9522a7964736f6c63430008110033",
  "devdoc": {
    "author": "Yuri Fernandes (HorizonDAO)",
    "events": {
      "AirdropClaim(address,uint256)": {
        "details": "Emitted when"
      },
      "AirdropMerkleRootSet(address,uint256,bytes32)": {
        "details": "Emitted when the Airdrop Merkle Root is set"
      },
      "NewImageUri(address,string)": {
        "details": "Emitted when a new base image URI is set for the collections"
      },
      "PioneerClaim(address,uint8,uint256,uint256)": {
        "details": "Emitted when a PioneerNFT is purchased"
      },
      "PrivateClaim(address)": {
        "details": "Emitted when an amount of Pioneer NFTs are claimed"
      },
      "PrivateMerkleRootSet(address,bytes32)": {
        "details": "Emitted when Private Merkle Root is set"
      },
      "PublicPurchase(address,uint256)": {
        "details": "Emitted when tokens are purchased via publicPurchase function"
      },
      "SaleInitialized(address,bytes32,uint256)": {
        "details": "Emitted when Sale is initialized"
      },
      "WhitelistPurchase(address,uint256)": {
        "details": "Emitted when tokens are purchased via whitelistPurchase function"
      },
      "Withdrawal(address,address,uint256)": {
        "details": "Emitted when ethers are withdrawn from the contract"
      }
    },
    "kind": "dev",
    "methods": {
      "approve(uint256,address,uint256)": {
        "params": {
          "_amount": "Amount allowed",
          "_id": "Collection ID",
          "_spender": "Spender address"
        }
      },
      "balanceOf(address,uint256)": {
        "details": "See {IERC1155-balanceOf}. Requirements: - `account` cannot be the zero address."
      },
      "balanceOfBatch(address[],uint256[])": {
        "details": "See {IERC1155-balanceOfBatch}. Requirements: - `accounts` and `ids` must have the same length."
      },
      "claimAirdrop(uint256,bytes32[])": {
        "params": {
          "_amount": "Amount to claim",
          "_proof": "Airdrop Merkle Proof"
        }
      },
      "collectionDescription(uint256)": {
        "params": {
          "_id": "Collection ID"
        },
        "returns": {
          "_0": "Collection description"
        }
      },
      "collectionMetadata(uint256)": {
        "params": {
          "_id": "Collection ID"
        },
        "returns": {
          "_0": "Stringified metadata JSON"
        }
      },
      "collectionName(uint256)": {
        "params": {
          "_id": "Collection ID"
        },
        "returns": {
          "_0": "Collection name"
        }
      },
      "constructor": {
        "details": "constructor to initialize PioneerPromoERC1155 contract",
        "params": {
          "_admin": "Adminstrative address, can execute various configuration related functions",
          "_chances": "Array with the chances of getting a Pioneer for each collection",
          "_imageUri": "Base image URI",
          "_owner": "Should be an EOA, will have rights over OpenSea collection configuration",
          "_publicTokenUnitPrice": "Price per token for Public Sale",
          "_whitelistTokenUnitPrice": "Price per token for Whitelisted Sale"
        }
      },
      "exists(uint256)": {
        "details": "Indicates whether any token exist with a given id, or not."
      },
      "imageURI(uint256)": {
        "params": {
          "_id": "Collection ID"
        },
        "returns": {
          "_0": "Image URI"
        }
      },
      "initializeSale(bytes32,uint256)": {
        "details": "Initialize sale (first whitelisted address, then public sale begins)",
        "params": {
          "_publicSaleOffset": "Amount of time that will take for the Public sale to begin",
          "_whitelistMerkleRoot": "Whitelist Merkle Root"
        }
      },
      "isApprovedForAll(address,address)": {
        "details": "See {IERC1155-isApprovedForAll}."
      },
      "isOwner(address)": {
        "returns": {
          "_0": "true if the caller is the current owner."
        }
      },
      "privateClaim(bytes32[])": {
        "params": {
          "_proof": "Private Merkle Proof"
        }
      },
      "publicPurchase(uint256)": {
        "params": {
          "_amount": "Amount to purchase"
        }
      },
      "royaltyInfo(uint256,uint256)": {
        "params": {
          "_salePrice": "the price (in any unit, .e.g wei, ERC20 token, et.c.) of the token to be sold"
        },
        "returns": {
          "receiver": "the royalty receiver",
          "royaltyAmount": "royalty amount in the same unit as _salePrice"
        }
      },
      "safeBatchTransferFrom(address,address,uint256[],uint256[],bytes)": {
        "details": "xref:ROOT:erc1155.adoc#batch-operations[Batched] version of {safeTransferFrom}. Emits a {TransferBatch} event. Requirements: - `ids` and `amounts` must have the same length. - If `to` refers to a smart contract, it must implement {IERC1155Receiver-onERC1155BatchReceived} and return the acceptance magic value."
      },
      "safeTransferFrom(address,address,uint256,uint256,bytes)": {
        "details": "Transfers `amount` tokens of token type `id` from `from` to `to`. Emits a {TransferSingle} event. Requirements: - `to` cannot be the zero address. - If the caller is not `from`, it must have been approved to spend ``from``'s tokens via {setApprovalForAll}. - `from` must have a balance of tokens of type `id` of at least `amount`. - If `to` refers to a smart contract, it must implement {IERC1155Receiver-onERC1155Received} and return the acceptance magic value."
      },
      "setAdmin(address)": {
        "details": "Set new admin role",
        "params": {
          "_admin": "New admin address"
        }
      },
      "setAirdropRoot(bytes32)": {
        "details": "Set Airdrop merkle root (multiple times)",
        "params": {
          "_root": "Airdrop Merkle Root"
        }
      },
      "setApprovalForAll(address,bool)": {
        "details": "See {IERC1155-setApprovalForAll}."
      },
      "setContractURI(string)": {
        "details": "Restricted access function which updates the contract URI",
        "params": {
          "_contractURI": "new contract URI to set"
        }
      },
      "setImageBaseURI(string)": {
        "details": "Set new base image URI for collections",
        "params": {
          "_uri": "Base image URI"
        }
      },
      "setPrivateRoot(bytes32)": {
        "details": "Set Private claiming merkle root (only once)",
        "params": {
          "_root": "Private Merkle Root"
        }
      },
      "setRoyaltyInfo(address,uint16)": {
        "details": "Restricted access function which updates the royalty info",
        "params": {
          "_royaltyPercentage": "new royalty percentage to set",
          "_royaltyReceiver": "new royalty receiver to set"
        }
      },
      "supportsInterface(bytes4)": {
        "details": "Returns true if this contract implements the interface defined by `interfaceId`. See the corresponding https://eips.ethereum.org/EIPS/eip-165#how-interfaces-are-identified[EIP section] to learn more about how these ids are created. This function call must use less than 30 000 gas."
      },
      "totalSupply(uint256)": {
        "details": "Total amount of tokens in with a given id."
      },
      "transferOwnership(address)": {
        "details": "Restricted access function to set smart contract \"owner\"      Note: an \"owner\" set doesn't have any authority, and cannot even update \"owner\"",
        "params": {
          "_owner": "new \"owner\" of the smart contract"
        }
      },
      "uri(uint256)": {
        "params": {
          "_id": "Collection ID"
        },
        "returns": {
          "_0": "Base64 encoded metadata"
        }
      },
      "whitelistPurchase(uint256,bytes32[])": {
        "params": {
          "_amount": "Amount to purchase",
          "_proof": "Whitelist Merkle Proof"
        }
      },
      "withdraw(address)": {
        "details": "Withdraw all ethers from contract",
        "params": {
          "_to": "Address to send the funds"
        }
      }
    },
    "stateVariables": {
      "AIRDROP_MAX_CLAIMS": {
        "details": "Total claimable amount of tokens through airdrops"
      },
      "MAX_CHANCE": {
        "details": "Represents 100% chance, there will be 3 Pioneer collection     with decreasing chances to be minted during purchases     the total chances should sum to MAX_CHANCE"
      },
      "PRIVATE_CLAIM_GOLD": {
        "details": "How many Gold Pioneers a user can get from private claim"
      },
      "PRIVATE_MAX_CLAIMS": {
        "details": "Maximum amount of tokens users can get from private claim"
      },
      "PURCHASABLE_SUPPLY": {
        "details": "Total number of tokens that can be purchased"
      },
      "WHITELIST_MAX_PURCHASES": {
        "details": "How many tokens can be purchased during Whitelisted sale"
      },
      "WHITELIST_PURCHASE_PER_ADDRESS": {
        "details": "How many tokens whitelisted users can purchase"
      },
      "airdropClaimed": {
        "details": "Amount of Airdrop tokens claimed"
      },
      "airdropMerkleRoot": {
        "details": "Airdrop Merkle Root (can be set multiple times)"
      },
      "airdropNonce": {
        "details": "Nonce of the current airdrop Merkle Tree"
      },
      "privateMerkleRoot": {
        "details": "Private Merkle Root (can be set once)"
      },
      "publicSaleStartTime": {
        "details": "When the Public sale will begin (if zero, means sale has not been initialized)"
      },
      "publicTokenUnitPrice": {
        "details": "Unit price of tokens for Public sale"
      },
      "purchasedAmount": {
        "details": "Amount of NFTs that have been purchased so far"
      },
      "thresholds": {
        "details": "Calculated pseudo-random number should fall in range to acquire a certain Pioneer"
      },
      "userAirdropNonce": {
        "details": "Which Airdrop an user has participated"
      },
      "userPrivateClaimed": {
        "details": "How many tokens users have claimed during private sale"
      },
      "userWhitelistPurchasedAmount": {
        "details": "How many tokens the whitelisted users have claimed"
      },
      "whitelistMerkleRoot": {
        "details": "Whitelist Merkle Root (can be set once)"
      },
      "whitelistTokenUnitPrice": {
        "details": "Unit prie of tokens for Whitelisted sale"
      }
    },
    "title": "HorizonDAO Pioneer NFT",
    "version": 1
  },
  "userdoc": {
    "kind": "user",
    "methods": {
      "approve(uint256,address,uint256)": {
        "notice": "Approve a spender to transfer tokens"
      },
      "claimAirdrop(uint256,bytes32[])": {
        "notice": "Claim airdrop"
      },
      "collectionDescription(uint256)": {
        "notice": "Get collection description"
      },
      "collectionMetadata(uint256)": {
        "notice": "Returns the stringified metadata JSON for a given collection"
      },
      "collectionName(uint256)": {
        "notice": "Get collection name"
      },
      "contractURI()": {
        "notice": "Contract level metadata to define collection name, description, and royalty fees.         see https://docs.opensea.io/docs/contract-level-metadata"
      },
      "imageURI(uint256)": {
        "notice": "Get the image URI for a given collection"
      },
      "isOwner(address)": {
        "notice": "Checks if the address supplied is an \"owner\" of the smart contract      Note: an \"owner\" doesn't have any authority on the smart contract and is \"nominal\""
      },
      "privateClaim(bytes32[])": {
        "notice": "Claim private whitelisted tokens"
      },
      "publicPurchase(uint256)": {
        "notice": "Purchase Pioneer NFTs randomly from the 3 collections (Bronze, Silver and Gold)"
      },
      "publicSaleStarted()": {
        "notice": "Whether public sale started"
      },
      "royaltyInfo(uint256,uint256)": {
        "notice": "EIP-2981 function to calculate royalties for sales in secondary marketplaces.         see https://eips.ethereum.org/EIPS/eip-2981"
      },
      "royaltyPercentage()": {
        "notice": "Percentage of token sale price to be used for EIP-2981 royalties from secondary sales         see https://eips.ethereum.org/EIPS/eip-2981"
      },
      "royaltyReceiver()": {
        "notice": "Address to receive EIP-2981 royalties from secondary sales         see https://eips.ethereum.org/EIPS/eip-2981"
      },
      "saleInitialized()": {
        "notice": "Whether the sale has been initialized"
      },
      "uri(uint256)": {
        "notice": "Returns the Base64 encoded metadata for a given collection"
      },
      "whitelistPurchase(uint256,bytes32[])": {
        "notice": "Purchase whilelisted tokens (maximum amount: WHITELIST_PURCHASE_PER_ADDRESS)"
      }
    },
    "notice": "NFTs owned by HorizonDAO pioneer membersHolding these NFTs will accrue into various rewards     during HorizonDAO development, such as, for example Airdrops",
    "version": 1
  },
  "storageLayout": {
    "storage": [
      {
        "astId": 586,
        "contract": "contracts/token/PioneerERC1155.sol:PioneerERC1155",
        "label": "_balances",
        "offset": 0,
        "slot": "0",
        "type": "t_mapping(t_uint256,t_mapping(t_address,t_uint256))"
      },
      {
        "astId": 592,
        "contract": "contracts/token/PioneerERC1155.sol:PioneerERC1155",
        "label": "_operatorApprovals",
        "offset": 0,
        "slot": "1",
        "type": "t_mapping(t_address,t_mapping(t_address,t_bool))"
      },
      {
        "astId": 594,
        "contract": "contracts/token/PioneerERC1155.sol:PioneerERC1155",
        "label": "_uri",
        "offset": 0,
        "slot": "2",
        "type": "t_string_storage"
      },
      {
        "astId": 1956,
        "contract": "contracts/token/PioneerERC1155.sol:PioneerERC1155",
        "label": "_totalSupply",
        "offset": 0,
        "slot": "3",
        "type": "t_mapping(t_uint256,t_uint256)"
      },
      {
        "astId": 7246,
        "contract": "contracts/token/PioneerERC1155.sol:PioneerERC1155",
        "label": "_allowances",
        "offset": 0,
        "slot": "4",
        "type": "t_mapping(t_uint256,t_mapping(t_address,t_mapping(t_address,t_uint256)))"
      },
      {
        "astId": 6984,
        "contract": "contracts/token/PioneerERC1155.sol:PioneerERC1155",
        "label": "owner",
        "offset": 0,
        "slot": "5",
        "type": "t_address"
      },
      {
        "astId": 6987,
        "contract": "contracts/token/PioneerERC1155.sol:PioneerERC1155",
        "label": "admin",
        "offset": 0,
        "slot": "6",
        "type": "t_address"
      },
      {
        "astId": 6990,
        "contract": "contracts/token/PioneerERC1155.sol:PioneerERC1155",
        "label": "royaltyReceiver",
        "offset": 0,
        "slot": "7",
        "type": "t_address"
      },
      {
        "astId": 6993,
        "contract": "contracts/token/PioneerERC1155.sol:PioneerERC1155",
        "label": "royaltyPercentage",
        "offset": 20,
        "slot": "7",
        "type": "t_uint16"
      },
      {
        "astId": 6996,
        "contract": "contracts/token/PioneerERC1155.sol:PioneerERC1155",
        "label": "contractURI",
        "offset": 0,
        "slot": "8",
        "type": "t_string_storage"
      },
      {
        "astId": 5892,
        "contract": "contracts/token/PioneerERC1155.sol:PioneerERC1155",
        "label": "purchasedAmount",
        "offset": 0,
        "slot": "9",
        "type": "t_uint256"
      },
      {
        "astId": 5898,
        "contract": "contracts/token/PioneerERC1155.sol:PioneerERC1155",
        "label": "thresholds",
        "offset": 0,
        "slot": "10",
        "type": "t_mapping(t_enum(Pioneer)5855,t_uint256)"
      },
      {
        "astId": 5901,
        "contract": "contracts/token/PioneerERC1155.sol:PioneerERC1155",
        "label": "privateMerkleRoot",
        "offset": 0,
        "slot": "11",
        "type": "t_bytes32"
      },
      {
        "astId": 5904,
        "contract": "contracts/token/PioneerERC1155.sol:PioneerERC1155",
        "label": "whitelistMerkleRoot",
        "offset": 0,
        "slot": "12",
        "type": "t_bytes32"
      },
      {
        "astId": 5907,
        "contract": "contracts/token/PioneerERC1155.sol:PioneerERC1155",
        "label": "airdropMerkleRoot",
        "offset": 0,
        "slot": "13",
        "type": "t_bytes32"
      },
      {
        "astId": 5912,
        "contract": "contracts/token/PioneerERC1155.sol:PioneerERC1155",
        "label": "userPrivateClaimed",
        "offset": 0,
        "slot": "14",
        "type": "t_mapping(t_address,t_bool)"
      },
      {
        "astId": 5917,
        "contract": "contracts/token/PioneerERC1155.sol:PioneerERC1155",
        "label": "userWhitelistPurchasedAmount",
        "offset": 0,
        "slot": "15",
        "type": "t_mapping(t_address,t_uint256)"
      },
      {
        "astId": 5922,
        "contract": "contracts/token/PioneerERC1155.sol:PioneerERC1155",
        "label": "userAirdropNonce",
        "offset": 0,
        "slot": "16",
        "type": "t_mapping(t_address,t_uint256)"
      },
      {
        "astId": 5925,
        "contract": "contracts/token/PioneerERC1155.sol:PioneerERC1155",
        "label": "airdropNonce",
        "offset": 0,
        "slot": "17",
        "type": "t_uint256"
      },
      {
        "astId": 5928,
        "contract": "contracts/token/PioneerERC1155.sol:PioneerERC1155",
        "label": "airdropClaimed",
        "offset": 0,
        "slot": "18",
        "type": "t_uint256"
      },
      {
        "astId": 5931,
        "contract": "contracts/token/PioneerERC1155.sol:PioneerERC1155",
        "label": "publicSaleStartTime",
        "offset": 0,
        "slot": "19",
        "type": "t_uint256"
      }
    ],
    "types": {
      "t_address": {
        "encoding": "inplace",
        "label": "address",
        "numberOfBytes": "20"
      },
      "t_bool": {
        "encoding": "inplace",
        "label": "bool",
        "numberOfBytes": "1"
      },
      "t_bytes32": {
        "encoding": "inplace",
        "label": "bytes32",
        "numberOfBytes": "32"
      },
      "t_enum(Pioneer)5855": {
        "encoding": "inplace",
        "label": "enum PioneerERC1155.Pioneer",
        "numberOfBytes": "1"
      },
      "t_mapping(t_address,t_bool)": {
        "encoding": "mapping",
        "key": "t_address",
        "label": "mapping(address => bool)",
        "numberOfBytes": "32",
        "value": "t_bool"
      },
      "t_mapping(t_address,t_mapping(t_address,t_bool))": {
        "encoding": "mapping",
        "key": "t_address",
        "label": "mapping(address => mapping(address => bool))",
        "numberOfBytes": "32",
        "value": "t_mapping(t_address,t_bool)"
      },
      "t_mapping(t_address,t_mapping(t_address,t_uint256))": {
        "encoding": "mapping",
        "key": "t_address",
        "label": "mapping(address => mapping(address => uint256))",
        "numberOfBytes": "32",
        "value": "t_mapping(t_address,t_uint256)"
      },
      "t_mapping(t_address,t_uint256)": {
        "encoding": "mapping",
        "key": "t_address",
        "label": "mapping(address => uint256)",
        "numberOfBytes": "32",
        "value": "t_uint256"
      },
      "t_mapping(t_enum(Pioneer)5855,t_uint256)": {
        "encoding": "mapping",
        "key": "t_enum(Pioneer)5855",
        "label": "mapping(enum PioneerERC1155.Pioneer => uint256)",
        "numberOfBytes": "32",
        "value": "t_uint256"
      },
      "t_mapping(t_uint256,t_mapping(t_address,t_mapping(t_address,t_uint256)))": {
        "encoding": "mapping",
        "key": "t_uint256",
        "label": "mapping(uint256 => mapping(address => mapping(address => uint256)))",
        "numberOfBytes": "32",
        "value": "t_mapping(t_address,t_mapping(t_address,t_uint256))"
      },
      "t_mapping(t_uint256,t_mapping(t_address,t_uint256))": {
        "encoding": "mapping",
        "key": "t_uint256",
        "label": "mapping(uint256 => mapping(address => uint256))",
        "numberOfBytes": "32",
        "value": "t_mapping(t_address,t_uint256)"
      },
      "t_mapping(t_uint256,t_uint256)": {
        "encoding": "mapping",
        "key": "t_uint256",
        "label": "mapping(uint256 => uint256)",
        "numberOfBytes": "32",
        "value": "t_uint256"
      },
      "t_string_storage": {
        "encoding": "bytes",
        "label": "string",
        "numberOfBytes": "32"
      },
      "t_uint16": {
        "encoding": "inplace",
        "label": "uint16",
        "numberOfBytes": "2"
      },
      "t_uint256": {
        "encoding": "inplace",
        "label": "uint256",
        "numberOfBytes": "32"
      }
    }
  }
}