{
  "address": "0x5B45e47D417d6CdF672e04895c1903Eda0a24140",
  "abi": [
    {
      "inputs": [
        {
          "internalType": "address",
          "name": "_owner",
          "type": "address"
        }
      ],
      "stateMutability": "nonpayable",
      "type": "constructor"
    },
    {
      "anonymous": false,
      "inputs": [
        {
          "indexed": true,
          "internalType": "address",
          "name": "previousOwner",
          "type": "address"
        },
        {
          "indexed": true,
          "internalType": "address",
          "name": "newOwner",
          "type": "address"
        }
      ],
      "name": "OwnershipTransferred",
      "type": "event"
    },
    {
      "anonymous": false,
      "inputs": [
        {
          "indexed": true,
          "internalType": "address",
          "name": "_by",
          "type": "address"
        },
        {
          "indexed": true,
          "internalType": "address",
          "name": "_base",
          "type": "address"
        },
        {
          "indexed": true,
          "internalType": "address",
          "name": "_quote",
          "type": "address"
        },
        {
          "indexed": false,
          "internalType": "address",
          "name": "_aggregator",
          "type": "address"
        }
      ],
      "name": "SetAggregator",
      "type": "event"
    },
    {
      "inputs": [
        {
          "internalType": "address",
          "name": "_base",
          "type": "address"
        },
        {
          "internalType": "address",
          "name": "_quote",
          "type": "address"
        }
      ],
      "name": "getPrice",
      "outputs": [
        {
          "internalType": "uint256",
          "name": "basePrice",
          "type": "uint256"
        }
      ],
      "stateMutability": "view",
      "type": "function"
    },
    {
      "inputs": [],
      "name": "owner",
      "outputs": [
        {
          "internalType": "address",
          "name": "",
          "type": "address"
        }
      ],
      "stateMutability": "view",
      "type": "function"
    },
    {
      "inputs": [
        {
          "internalType": "address",
          "name": "",
          "type": "address"
        },
        {
          "internalType": "address",
          "name": "",
          "type": "address"
        }
      ],
      "name": "priceAggregator",
      "outputs": [
        {
          "internalType": "contract AggregatorV3Interface",
          "name": "",
          "type": "address"
        }
      ],
      "stateMutability": "view",
      "type": "function"
    },
    {
      "inputs": [],
      "name": "renounceOwnership",
      "outputs": [],
      "stateMutability": "nonpayable",
      "type": "function"
    },
    {
      "inputs": [
        {
          "internalType": "address",
          "name": "_base",
          "type": "address"
        },
        {
          "internalType": "address",
          "name": "_quote",
          "type": "address"
        },
        {
          "internalType": "address",
          "name": "_aggregator",
          "type": "address"
        }
      ],
      "name": "setAggregator",
      "outputs": [],
      "stateMutability": "nonpayable",
      "type": "function"
    },
    {
      "inputs": [
        {
          "internalType": "address",
          "name": "newOwner",
          "type": "address"
        }
      ],
      "name": "transferOwnership",
      "outputs": [],
      "stateMutability": "nonpayable",
      "type": "function"
    }
  ],
  "transactionHash": "0x1c741379d138ae00cd01c9b310d5c5fe727e27ed63c9056fe97c8cfec16be594",
  "args": [
    "0x39a242169BA3B28623E6d235A4Bdd46287d4bae3"
  ],
  "numDeployments": 1,
  "solcInputHash": "510557a8c9057eb34dfae8ead597a853",
  "bytecode": "0x608060405234801561001057600080fd5b5060405161098838038061098883398101604081905261002f91610097565b61003833610047565b61004181610047565b506100c7565b600080546001600160a01b038381166001600160a01b0319831681178455604051919092169283917f8be0079c531659141344cd1fd0a4f28419497f9722a3daafe3b4186f6b6457e09190a35050565b6000602082840312156100a957600080fd5b81516001600160a01b03811681146100c057600080fd5b9392505050565b6108b2806100d66000396000f3fe608060405234801561001057600080fd5b50600436106100625760003560e01c806370eee8a514610067578063715018a61461007c5780638da5cb5b14610084578063ac41865a146100ae578063bd29674e146100cf578063f2fde38b14610103575b600080fd5b61007a610075366004610603565b610116565b005b61007a610193565b6000546001600160a01b03165b6040516001600160a01b0390911681526020015b60405180910390f35b6100c16100bc366004610646565b6101a7565b6040519081526020016100a5565b6100916100dd366004610646565b60016020908152600092835260408084209091529082529020546001600160a01b031681565b61007a610111366004610679565b61023c565b61011e6102ba565b6001600160a01b0383811660008181526001602090815260408083208786168085529083529281902080546001600160a01b031916958716958617905551938452909233917f315e6c5ef44acf5e818ee8202758e475a83ec8f80928cc404931d21eff81a329910160405180910390a4505050565b61019b6102ba565b6101a56000610314565b565b60006101b38383610364565b905060006101c184846104f7565b905060006101ce84610583565b90508060ff168260ff161115610204576101e881836106aa565b6101f390600a6107a7565b6101fd90846107b6565b9250610234565b8060ff168260ff1610156102345761021c81836106aa565b61022790600a6107a7565b61023190846107d8565b92505b505092915050565b6102446102ba565b6001600160a01b0381166102ae5760405162461bcd60e51b815260206004820152602660248201527f4f776e61626c653a206e6577206f776e657220697320746865207a65726f206160448201526564647265737360d01b60648201526084015b60405180910390fd5b6102b781610314565b50565b6000546001600160a01b031633146101a55760405162461bcd60e51b815260206004820181905260248201527f4f776e61626c653a2063616c6c6572206973206e6f7420746865206f776e657260448201526064016102a5565b600080546001600160a01b038381166001600160a01b0319831681178455604051919092169283917f8be0079c531659141344cd1fd0a4f28419497f9722a3daafe3b4186f6b6457e09190a35050565b6001600160a01b0380831660009081526001602090815260408083208585168452909152812054909116806103db5760405162461bcd60e51b815260206004820152601e60248201527f50726963652041676772656761746f72206e6f7420617661696c61626c65000060448201526064016102a5565b600080600080846001600160a01b031663feaf968c6040518163ffffffff1660e01b815260040160a060405180830381865afa15801561041f573d6000803e3d6000fd5b505050506040513d601f19601f820116820180604052508101906104439190610809565b69ffffffffffffffffffff169450945050935069ffffffffffffffffffff1693508084146104a45760405162461bcd60e51b815260206004820152600e60248201526d24b73b30b634b21020b739bbb2b960911b60448201526064016102a5565b600082116104e95760405162461bcd60e51b8152602060048201526012602482015271526f756e64206e6f7420636f6d706c65746560701b60448201526064016102a5565b509093505050505b92915050565b6001600160a01b0380831660009081526001602090815260408083208585168452825280832054815163313ce56760e01b815291519394169263313ce567926004808401939192918290030181865afa158015610558573d6000803e3d6000fd5b505050506040513d601f19601f8201168201806040525081019061057c9190610859565b9392505050565b6000816001600160a01b031663313ce5676040518163ffffffff1660e01b8152600401602060405180830381865afa1580156105c3573d6000803e3d6000fd5b505050506040513d601f19601f820116820180604052508101906104f19190610859565b80356001600160a01b03811681146105fe57600080fd5b919050565b60008060006060848603121561061857600080fd5b610621846105e7565b925061062f602085016105e7565b915061063d604085016105e7565b90509250925092565b6000806040838503121561065957600080fd5b610662836105e7565b9150610670602084016105e7565b90509250929050565b60006020828403121561068b57600080fd5b61057c826105e7565b634e487b7160e01b600052601160045260246000fd5b60ff82811682821603908111156104f1576104f1610694565b600181815b808511156106fe5781600019048211156106e4576106e4610694565b808516156106f157918102915b93841c93908002906106c8565b509250929050565b600082610715575060016104f1565b81610722575060006104f1565b816001811461073857600281146107425761075e565b60019150506104f1565b60ff84111561075357610753610694565b50506001821b6104f1565b5060208310610133831016604e8410600b8410161715610781575081810a6104f1565b61078b83836106c3565b806000190482111561079f5761079f610694565b029392505050565b600061057c60ff841683610706565b6000826107d357634e487b7160e01b600052601260045260246000fd5b500490565b80820281158282048414176104f1576104f1610694565b805169ffffffffffffffffffff811681146105fe57600080fd5b600080600080600060a0868803121561082157600080fd5b61082a866107ef565b945060208601519350604086015192506060860151915061084d608087016107ef565b90509295509295909350565b60006020828403121561086b57600080fd5b815160ff8116811461057c57600080fdfea2646970667358221220bdecf903664fccab06a4559f08a51787329c896c5327d343731ac15cb9f9b4b264736f6c63430008110033",
  "devdoc": {
    "author": "Horizon DAO (Yuri Fernandes)",
    "details": "Aggregator registration conventions:\t\t- For stablecoins 1:1 with USD, register base/USD tokens as base/stablecoin priceAggregator\t\t- For ETH use zero address",
    "events": {
      "SetAggregator(address,address,address,address)": {
        "details": "Emitted when a new price aggregator is set"
      }
    },
    "kind": "dev",
    "methods": {
      "constructor": {
        "details": "Instantiate PriceOracle",
        "params": {
          "_owner": "Owner address"
        }
      },
      "getPrice(address,address)": {
        "params": {
          "_base": "Base currency address",
          "_quote": "Quote currency address"
        },
        "returns": {
          "basePrice": "Base price in quote"
        }
      },
      "owner()": {
        "details": "Returns the address of the current owner."
      },
      "renounceOwnership()": {
        "details": "Leaves the contract without owner. It will not be possible to call `onlyOwner` functions anymore. Can only be called by the current owner. NOTE: Renouncing ownership will leave the contract without an owner, thereby removing any functionality that is only available to the owner."
      },
      "setAggregator(address,address,address)": {
        "details": "Set a new chainlink price aggregator",
        "params": {
          "_base": "Base currency address",
          "_quote": "Quote currency address"
        }
      },
      "transferOwnership(address)": {
        "details": "Transfers ownership of the contract to a new account (`newOwner`). Can only be called by the current owner."
      }
    },
    "stateVariables": {
      "priceAggregator": {
        "details": "mapping (base => quote => priceAggregator)"
      }
    },
    "title": "Price Oracle",
    "version": 1
  },
  "userdoc": {
    "kind": "user",
    "methods": {
      "getPrice(address,address)": {
        "notice": "Get price of `_base` in `quote`"
      }
    },
    "notice": "Uses Chainlink Price Aggregators to retrieve base price in quote (base/quote)",
    "version": 1
  },
  "storageLayout": {
    "storage": [
      {
        "astId": 5410,
        "contract": "contracts/protocol/PriceOracle.sol:PriceOracle",
        "label": "_owner",
        "offset": 0,
        "slot": "0",
        "type": "t_address"
      },
      {
        "astId": 13859,
        "contract": "contracts/protocol/PriceOracle.sol:PriceOracle",
        "label": "priceAggregator",
        "offset": 0,
        "slot": "1",
        "type": "t_mapping(t_address,t_mapping(t_address,t_contract(AggregatorV3Interface)219))"
      }
    ],
    "types": {
      "t_address": {
        "encoding": "inplace",
        "label": "address",
        "numberOfBytes": "20"
      },
      "t_contract(AggregatorV3Interface)219": {
        "encoding": "inplace",
        "label": "contract AggregatorV3Interface",
        "numberOfBytes": "20"
      },
      "t_mapping(t_address,t_contract(AggregatorV3Interface)219)": {
        "encoding": "mapping",
        "key": "t_address",
        "label": "mapping(address => contract AggregatorV3Interface)",
        "numberOfBytes": "32",
        "value": "t_contract(AggregatorV3Interface)219"
      },
      "t_mapping(t_address,t_mapping(t_address,t_contract(AggregatorV3Interface)219))": {
        "encoding": "mapping",
        "key": "t_address",
        "label": "mapping(address => mapping(address => contract AggregatorV3Interface))",
        "numberOfBytes": "32",
        "value": "t_mapping(t_address,t_contract(AggregatorV3Interface)219)"
      }
    }
  }
}