{
  "address": "0x6A72A408a8D386ba7764c07788D637E78E145d57",
  "abi": [
    {
      "anonymous": false,
      "inputs": [
        {
          "indexed": false,
          "internalType": "address",
          "name": "previousAdmin",
          "type": "address"
        },
        {
          "indexed": false,
          "internalType": "address",
          "name": "newAdmin",
          "type": "address"
        }
      ],
      "name": "AdminChanged",
      "type": "event"
    },
    {
      "anonymous": false,
      "inputs": [
        {
          "indexed": true,
          "internalType": "uint256",
          "name": "_id",
          "type": "uint256"
        },
        {
          "indexed": true,
          "internalType": "address",
          "name": "_owner",
          "type": "address"
        },
        {
          "indexed": true,
          "internalType": "address",
          "name": "_spender",
          "type": "address"
        },
        {
          "indexed": false,
          "internalType": "uint256",
          "name": "_amount",
          "type": "uint256"
        }
      ],
      "name": "Approval",
      "type": "event"
    },
    {
      "anonymous": false,
      "inputs": [
        {
          "indexed": true,
          "internalType": "address",
          "name": "account",
          "type": "address"
        },
        {
          "indexed": true,
          "internalType": "address",
          "name": "operator",
          "type": "address"
        },
        {
          "indexed": false,
          "internalType": "bool",
          "name": "approved",
          "type": "bool"
        }
      ],
      "name": "ApprovalForAll",
      "type": "event"
    },
    {
      "anonymous": false,
      "inputs": [
        {
          "indexed": true,
          "internalType": "address",
          "name": "beacon",
          "type": "address"
        }
      ],
      "name": "BeaconUpgraded",
      "type": "event"
    },
    {
      "anonymous": false,
      "inputs": [
        {
          "indexed": true,
          "internalType": "uint256",
          "name": "_id",
          "type": "uint256"
        },
        {
          "indexed": true,
          "internalType": "address",
          "name": "_by",
          "type": "address"
        },
        {
          "indexed": true,
          "internalType": "address",
          "name": "_to",
          "type": "address"
        },
        {
          "indexed": false,
          "internalType": "uint256",
          "name": "_yieldClaimed",
          "type": "uint256"
        }
      ],
      "name": "ClaimYield",
      "type": "event"
    },
    {
      "anonymous": false,
      "inputs": [
        {
          "indexed": true,
          "internalType": "address",
          "name": "_by",
          "type": "address"
        },
        {
          "indexed": false,
          "internalType": "string",
          "name": "_value",
          "type": "string"
        }
      ],
      "name": "ContractURIUpdated",
      "type": "event"
    },
    {
      "anonymous": false,
      "inputs": [
        {
          "indexed": false,
          "internalType": "uint8",
          "name": "version",
          "type": "uint8"
        }
      ],
      "name": "Initialized",
      "type": "event"
    },
    {
      "anonymous": false,
      "inputs": [
        {
          "indexed": true,
          "internalType": "address",
          "name": "_admin",
          "type": "address"
        }
      ],
      "name": "NewAdmin",
      "type": "event"
    },
    {
      "anonymous": false,
      "inputs": [
        {
          "indexed": true,
          "internalType": "uint256",
          "name": "_id",
          "type": "uint256"
        },
        {
          "indexed": true,
          "internalType": "address",
          "name": "_depositor",
          "type": "address"
        },
        {
          "indexed": false,
          "internalType": "uint256",
          "name": "_amount",
          "type": "uint256"
        },
        {
          "indexed": false,
          "internalType": "uint128",
          "name": "_unlockStart",
          "type": "uint128"
        },
        {
          "indexed": false,
          "internalType": "uint128",
          "name": "_unlockEnd",
          "type": "uint128"
        }
      ],
      "name": "NewDeposit",
      "type": "event"
    },
    {
      "anonymous": false,
      "inputs": [
        {
          "indexed": true,
          "internalType": "address",
          "name": "_previousOwner",
          "type": "address"
        },
        {
          "indexed": true,
          "internalType": "address",
          "name": "_newOwner",
          "type": "address"
        }
      ],
      "name": "OwnershipTransferred",
      "type": "event"
    },
    {
      "anonymous": false,
      "inputs": [
        {
          "indexed": true,
          "internalType": "uint256",
          "name": "_id",
          "type": "uint256"
        },
        {
          "indexed": true,
          "internalType": "address",
          "name": "_originAccount",
          "type": "address"
        },
        {
          "indexed": true,
          "internalType": "address",
          "name": "_burner",
          "type": "address"
        },
        {
          "indexed": false,
          "internalType": "uint256",
          "name": "_amount",
          "type": "uint256"
        }
      ],
      "name": "RealEstateNFTBurned",
      "type": "event"
    },
    {
      "anonymous": false,
      "inputs": [
        {
          "indexed": true,
          "internalType": "uint256",
          "name": "_id",
          "type": "uint256"
        },
        {
          "indexed": true,
          "internalType": "address",
          "name": "_minter",
          "type": "address"
        },
        {
          "indexed": true,
          "internalType": "address",
          "name": "_to",
          "type": "address"
        },
        {
          "indexed": false,
          "internalType": "uint256",
          "name": "_amount",
          "type": "uint256"
        }
      ],
      "name": "RealEstateNFTMinted",
      "type": "event"
    },
    {
      "anonymous": false,
      "inputs": [
        {
          "indexed": true,
          "internalType": "address",
          "name": "_by",
          "type": "address"
        },
        {
          "indexed": true,
          "internalType": "address",
          "name": "_burner",
          "type": "address"
        }
      ],
      "name": "SetBurner",
      "type": "event"
    },
    {
      "anonymous": false,
      "inputs": [
        {
          "indexed": true,
          "internalType": "address",
          "name": "_by",
          "type": "address"
        },
        {
          "indexed": true,
          "internalType": "address",
          "name": "_receiver",
          "type": "address"
        },
        {
          "indexed": false,
          "internalType": "uint96",
          "name": "_feeNumerator",
          "type": "uint96"
        }
      ],
      "name": "SetDefaultRoyalties",
      "type": "event"
    },
    {
      "anonymous": false,
      "inputs": [
        {
          "indexed": true,
          "internalType": "address",
          "name": "_by",
          "type": "address"
        },
        {
          "indexed": true,
          "internalType": "address",
          "name": "_depositor",
          "type": "address"
        }
      ],
      "name": "SetDepositor",
      "type": "event"
    },
    {
      "anonymous": false,
      "inputs": [
        {
          "indexed": true,
          "internalType": "address",
          "name": "_by",
          "type": "address"
        },
        {
          "indexed": true,
          "internalType": "address",
          "name": "_minter",
          "type": "address"
        }
      ],
      "name": "SetMinter",
      "type": "event"
    },
    {
      "anonymous": false,
      "inputs": [
        {
          "indexed": true,
          "internalType": "address",
          "name": "_by",
          "type": "address"
        },
        {
          "indexed": true,
          "internalType": "uint256",
          "name": "_tokenId",
          "type": "uint256"
        },
        {
          "indexed": true,
          "internalType": "address",
          "name": "_receiver",
          "type": "address"
        },
        {
          "indexed": false,
          "internalType": "uint96",
          "name": "_feeNumerator",
          "type": "uint96"
        }
      ],
      "name": "SetTokenRoyalty",
      "type": "event"
    },
    {
      "anonymous": false,
      "inputs": [
        {
          "indexed": true,
          "internalType": "address",
          "name": "operator",
          "type": "address"
        },
        {
          "indexed": true,
          "internalType": "address",
          "name": "from",
          "type": "address"
        },
        {
          "indexed": true,
          "internalType": "address",
          "name": "to",
          "type": "address"
        },
        {
          "indexed": false,
          "internalType": "uint256[]",
          "name": "ids",
          "type": "uint256[]"
        },
        {
          "indexed": false,
          "internalType": "uint256[]",
          "name": "values",
          "type": "uint256[]"
        }
      ],
      "name": "TransferBatch",
      "type": "event"
    },
    {
      "anonymous": false,
      "inputs": [
        {
          "indexed": true,
          "internalType": "address",
          "name": "operator",
          "type": "address"
        },
        {
          "indexed": true,
          "internalType": "address",
          "name": "from",
          "type": "address"
        },
        {
          "indexed": true,
          "internalType": "address",
          "name": "to",
          "type": "address"
        },
        {
          "indexed": false,
          "internalType": "uint256",
          "name": "id",
          "type": "uint256"
        },
        {
          "indexed": false,
          "internalType": "uint256",
          "name": "value",
          "type": "uint256"
        }
      ],
      "name": "TransferSingle",
      "type": "event"
    },
    {
      "anonymous": false,
      "inputs": [
        {
          "indexed": false,
          "internalType": "string",
          "name": "value",
          "type": "string"
        },
        {
          "indexed": true,
          "internalType": "uint256",
          "name": "id",
          "type": "uint256"
        }
      ],
      "name": "URI",
      "type": "event"
    },
    {
      "anonymous": false,
      "inputs": [
        {
          "indexed": true,
          "internalType": "address",
          "name": "implementation",
          "type": "address"
        }
      ],
      "name": "Upgraded",
      "type": "event"
    },
    {
      "inputs": [],
      "name": "admin",
      "outputs": [
        {
          "internalType": "address",
          "name": "",
          "type": "address"
        }
      ],
      "stateMutability": "view",
      "type": "function"
    },
    {
      "inputs": [
        {
          "internalType": "uint256",
          "name": "_tokenId",
          "type": "uint256"
        },
        {
          "internalType": "address",
          "name": "_spender",
          "type": "address"
        },
        {
          "internalType": "uint256",
          "name": "_amount",
          "type": "uint256"
        }
      ],
      "name": "approve",
      "outputs": [
        {
          "internalType": "bool",
          "name": "",
          "type": "bool"
        }
      ],
      "stateMutability": "nonpayable",
      "type": "function"
    },
    {
      "inputs": [
        {
          "internalType": "address",
          "name": "account",
          "type": "address"
        },
        {
          "internalType": "uint256",
          "name": "id",
          "type": "uint256"
        }
      ],
      "name": "balanceOf",
      "outputs": [
        {
          "internalType": "uint256",
          "name": "",
          "type": "uint256"
        }
      ],
      "stateMutability": "view",
      "type": "function"
    },
    {
      "inputs": [
        {
          "internalType": "address[]",
          "name": "accounts",
          "type": "address[]"
        },
        {
          "internalType": "uint256[]",
          "name": "ids",
          "type": "uint256[]"
        }
      ],
      "name": "balanceOfBatch",
      "outputs": [
        {
          "internalType": "uint256[]",
          "name": "",
          "type": "uint256[]"
        }
      ],
      "stateMutability": "view",
      "type": "function"
    },
    {
      "inputs": [],
      "name": "baseURI",
      "outputs": [
        {
          "internalType": "string",
          "name": "",
          "type": "string"
        }
      ],
      "stateMutability": "view",
      "type": "function"
    },
    {
      "inputs": [
        {
          "internalType": "uint256",
          "name": "_id",
          "type": "uint256"
        },
        {
          "internalType": "address",
          "name": "_originAccount",
          "type": "address"
        },
        {
          "internalType": "uint256",
          "name": "_amount",
          "type": "uint256"
        }
      ],
      "name": "burn",
      "outputs": [],
      "stateMutability": "nonpayable",
      "type": "function"
    },
    {
      "inputs": [],
      "name": "burner",
      "outputs": [
        {
          "internalType": "address",
          "name": "",
          "type": "address"
        }
      ],
      "stateMutability": "view",
      "type": "function"
    },
    {
      "inputs": [
        {
          "internalType": "uint256",
          "name": "_id",
          "type": "uint256"
        },
        {
          "internalType": "address",
          "name": "_to",
          "type": "address"
        }
      ],
      "name": "claimYield",
      "outputs": [],
      "stateMutability": "nonpayable",
      "type": "function"
    },
    {
      "inputs": [],
      "name": "contractURI",
      "outputs": [
        {
          "internalType": "string",
          "name": "",
          "type": "string"
        }
      ],
      "stateMutability": "view",
      "type": "function"
    },
    {
      "inputs": [
        {
          "internalType": "uint256",
          "name": "_id",
          "type": "uint256"
        },
        {
          "internalType": "uint256",
          "name": "_amount",
          "type": "uint256"
        },
        {
          "internalType": "uint128",
          "name": "_duration",
          "type": "uint128"
        },
        {
          "internalType": "uint128",
          "name": "_startOffset",
          "type": "uint128"
        }
      ],
      "name": "deposit",
      "outputs": [],
      "stateMutability": "nonpayable",
      "type": "function"
    },
    {
      "inputs": [],
      "name": "depositor",
      "outputs": [
        {
          "internalType": "address",
          "name": "",
          "type": "address"
        }
      ],
      "stateMutability": "view",
      "type": "function"
    },
    {
      "inputs": [
        {
          "internalType": "uint256",
          "name": "id",
          "type": "uint256"
        }
      ],
      "name": "exists",
      "outputs": [
        {
          "internalType": "bool",
          "name": "",
          "type": "bool"
        }
      ],
      "stateMutability": "view",
      "type": "function"
    },
    {
      "inputs": [],
      "name": "feeDenominator",
      "outputs": [
        {
          "internalType": "uint256",
          "name": "",
          "type": "uint256"
        }
      ],
      "stateMutability": "pure",
      "type": "function"
    },
    {
      "inputs": [],
      "name": "implementation",
      "outputs": [
        {
          "internalType": "address",
          "name": "",
          "type": "address"
        }
      ],
      "stateMutability": "view",
      "type": "function"
    },
    {
      "inputs": [
        {
          "internalType": "string",
          "name": "_uri",
          "type": "string"
        },
        {
          "internalType": "address",
          "name": "_admin",
          "type": "address"
        },
        {
          "internalType": "address",
          "name": "_owner",
          "type": "address"
        },
        {
          "internalType": "address",
          "name": "_yieldCurrency",
          "type": "address"
        }
      ],
      "name": "initialize",
      "outputs": [],
      "stateMutability": "nonpayable",
      "type": "function"
    },
    {
      "inputs": [
        {
          "internalType": "address",
          "name": "account",
          "type": "address"
        },
        {
          "internalType": "address",
          "name": "operator",
          "type": "address"
        }
      ],
      "name": "isApprovedForAll",
      "outputs": [
        {
          "internalType": "bool",
          "name": "",
          "type": "bool"
        }
      ],
      "stateMutability": "view",
      "type": "function"
    },
    {
      "inputs": [
        {
          "internalType": "address",
          "name": "_addr",
          "type": "address"
        }
      ],
      "name": "isOwner",
      "outputs": [
        {
          "internalType": "bool",
          "name": "",
          "type": "bool"
        }
      ],
      "stateMutability": "view",
      "type": "function"
    },
    {
      "inputs": [
        {
          "internalType": "uint256",
          "name": "_id",
          "type": "uint256"
        },
        {
          "internalType": "address",
          "name": "_to",
          "type": "address"
        },
        {
          "internalType": "uint256",
          "name": "_amount",
          "type": "uint256"
        }
      ],
      "name": "mint",
      "outputs": [],
      "stateMutability": "nonpayable",
      "type": "function"
    },
    {
      "inputs": [],
      "name": "minter",
      "outputs": [
        {
          "internalType": "address",
          "name": "",
          "type": "address"
        }
      ],
      "stateMutability": "view",
      "type": "function"
    },
    {
      "inputs": [],
      "name": "name",
      "outputs": [
        {
          "internalType": "string",
          "name": "",
          "type": "string"
        }
      ],
      "stateMutability": "pure",
      "type": "function"
    },
    {
      "inputs": [],
      "name": "nextRealEstateId",
      "outputs": [
        {
          "internalType": "uint256",
          "name": "",
          "type": "uint256"
        }
      ],
      "stateMutability": "view",
      "type": "function"
    },
    {
      "inputs": [],
      "name": "now128",
      "outputs": [
        {
          "internalType": "uint128",
          "name": "",
          "type": "uint128"
        }
      ],
      "stateMutability": "view",
      "type": "function"
    },
    {
      "inputs": [],
      "name": "owner",
      "outputs": [
        {
          "internalType": "address",
          "name": "",
          "type": "address"
        }
      ],
      "stateMutability": "view",
      "type": "function"
    },
    {
      "inputs": [
        {
          "internalType": "uint256",
          "name": "_id",
          "type": "uint256"
        },
        {
          "internalType": "address",
          "name": "_account",
          "type": "address"
        }
      ],
      "name": "pendingYield",
      "outputs": [
        {
          "internalType": "uint256",
          "name": "",
          "type": "uint256"
        }
      ],
      "stateMutability": "view",
      "type": "function"
    },
    {
      "inputs": [],
      "name": "proxiableUUID",
      "outputs": [
        {
          "internalType": "bytes32",
          "name": "",
          "type": "bytes32"
        }
      ],
      "stateMutability": "view",
      "type": "function"
    },
    {
      "inputs": [
        {
          "internalType": "uint256",
          "name": "_tokenId",
          "type": "uint256"
        },
        {
          "internalType": "uint256",
          "name": "_salePrice",
          "type": "uint256"
        }
      ],
      "name": "royaltyInfo",
      "outputs": [
        {
          "internalType": "address",
          "name": "",
          "type": "address"
        },
        {
          "internalType": "uint256",
          "name": "",
          "type": "uint256"
        }
      ],
      "stateMutability": "view",
      "type": "function"
    },
    {
      "inputs": [
        {
          "internalType": "address",
          "name": "_from",
          "type": "address"
        },
        {
          "internalType": "address",
          "name": "_to",
          "type": "address"
        },
        {
          "internalType": "uint256[]",
          "name": "_ids",
          "type": "uint256[]"
        },
        {
          "internalType": "uint256[]",
          "name": "_amounts",
          "type": "uint256[]"
        },
        {
          "internalType": "bytes",
          "name": "_data",
          "type": "bytes"
        }
      ],
      "name": "safeBatchTransferFrom",
      "outputs": [],
      "stateMutability": "nonpayable",
      "type": "function"
    },
    {
      "inputs": [
        {
          "internalType": "address",
          "name": "_from",
          "type": "address"
        },
        {
          "internalType": "address",
          "name": "_to",
          "type": "address"
        },
        {
          "internalType": "uint256",
          "name": "_id",
          "type": "uint256"
        },
        {
          "internalType": "uint256",
          "name": "_amount",
          "type": "uint256"
        },
        {
          "internalType": "bytes",
          "name": "_data",
          "type": "bytes"
        }
      ],
      "name": "safeTransferFrom",
      "outputs": [],
      "stateMutability": "nonpayable",
      "type": "function"
    },
    {
      "inputs": [
        {
          "internalType": "address",
          "name": "_admin",
          "type": "address"
        }
      ],
      "name": "setAdmin",
      "outputs": [],
      "stateMutability": "nonpayable",
      "type": "function"
    },
    {
      "inputs": [
        {
          "internalType": "address",
          "name": "operator",
          "type": "address"
        },
        {
          "internalType": "bool",
          "name": "approved",
          "type": "bool"
        }
      ],
      "name": "setApprovalForAll",
      "outputs": [],
      "stateMutability": "nonpayable",
      "type": "function"
    },
    {
      "inputs": [
        {
          "internalType": "string",
          "name": "baseURI_",
          "type": "string"
        }
      ],
      "name": "setBaseURI",
      "outputs": [],
      "stateMutability": "nonpayable",
      "type": "function"
    },
    {
      "inputs": [
        {
          "internalType": "address",
          "name": "_burner",
          "type": "address"
        }
      ],
      "name": "setBurner",
      "outputs": [],
      "stateMutability": "nonpayable",
      "type": "function"
    },
    {
      "inputs": [
        {
          "internalType": "string",
          "name": "_contractURI",
          "type": "string"
        }
      ],
      "name": "setContractURI",
      "outputs": [],
      "stateMutability": "nonpayable",
      "type": "function"
    },
    {
      "inputs": [
        {
          "internalType": "address",
          "name": "_receiver",
          "type": "address"
        },
        {
          "internalType": "uint96",
          "name": "_feeNumerator",
          "type": "uint96"
        }
      ],
      "name": "setDefaultRoyalty",
      "outputs": [],
      "stateMutability": "nonpayable",
      "type": "function"
    },
    {
      "inputs": [
        {
          "internalType": "address",
          "name": "_depositor",
          "type": "address"
        }
      ],
      "name": "setDepositor",
      "outputs": [],
      "stateMutability": "nonpayable",
      "type": "function"
    },
    {
      "inputs": [
        {
          "internalType": "address",
          "name": "_minter",
          "type": "address"
        }
      ],
      "name": "setMinter",
      "outputs": [],
      "stateMutability": "nonpayable",
      "type": "function"
    },
    {
      "inputs": [
        {
          "internalType": "uint256",
          "name": "_tokenId",
          "type": "uint256"
        },
        {
          "internalType": "address",
          "name": "_receiver",
          "type": "address"
        },
        {
          "internalType": "uint96",
          "name": "_feeNumerator",
          "type": "uint96"
        }
      ],
      "name": "setTokenRoyalty",
      "outputs": [],
      "stateMutability": "nonpayable",
      "type": "function"
    },
    {
      "inputs": [
        {
          "internalType": "string",
          "name": "_tokenURI",
          "type": "string"
        }
      ],
      "name": "setURI",
      "outputs": [],
      "stateMutability": "nonpayable",
      "type": "function"
    },
    {
      "inputs": [
        {
          "internalType": "bytes4",
          "name": "interfaceId",
          "type": "bytes4"
        }
      ],
      "name": "supportsInterface",
      "outputs": [
        {
          "internalType": "bool",
          "name": "",
          "type": "bool"
        }
      ],
      "stateMutability": "view",
      "type": "function"
    },
    {
      "inputs": [],
      "name": "symbol",
      "outputs": [
        {
          "internalType": "string",
          "name": "",
          "type": "string"
        }
      ],
      "stateMutability": "pure",
      "type": "function"
    },
    {
      "inputs": [
        {
          "internalType": "uint256",
          "name": "id",
          "type": "uint256"
        }
      ],
      "name": "totalSupply",
      "outputs": [
        {
          "internalType": "uint256",
          "name": "",
          "type": "uint256"
        }
      ],
      "stateMutability": "view",
      "type": "function"
    },
    {
      "inputs": [
        {
          "internalType": "address",
          "name": "_owner",
          "type": "address"
        }
      ],
      "name": "transferOwnership",
      "outputs": [],
      "stateMutability": "nonpayable",
      "type": "function"
    },
    {
      "inputs": [
        {
          "internalType": "address",
          "name": "newImplementation",
          "type": "address"
        }
      ],
      "name": "upgradeTo",
      "outputs": [],
      "stateMutability": "nonpayable",
      "type": "function"
    },
    {
      "inputs": [
        {
          "internalType": "address",
          "name": "newImplementation",
          "type": "address"
        },
        {
          "internalType": "bytes",
          "name": "data",
          "type": "bytes"
        }
      ],
      "name": "upgradeToAndCall",
      "outputs": [],
      "stateMutability": "payable",
      "type": "function"
    },
    {
      "inputs": [
        {
          "internalType": "uint256",
          "name": "_tokenId",
          "type": "uint256"
        }
      ],
      "name": "uri",
      "outputs": [
        {
          "internalType": "string",
          "name": "",
          "type": "string"
        }
      ],
      "stateMutability": "view",
      "type": "function"
    },
    {
      "inputs": [
        {
          "internalType": "uint256",
          "name": "",
          "type": "uint256"
        },
        {
          "internalType": "address",
          "name": "",
          "type": "address"
        }
      ],
      "name": "yieldBalance",
      "outputs": [
        {
          "internalType": "uint256",
          "name": "",
          "type": "uint256"
        }
      ],
      "stateMutability": "view",
      "type": "function"
    },
    {
      "inputs": [],
      "name": "yieldCurrency",
      "outputs": [
        {
          "internalType": "address",
          "name": "",
          "type": "address"
        }
      ],
      "stateMutability": "view",
      "type": "function"
    },
    {
      "inputs": [
        {
          "internalType": "uint256",
          "name": "_id",
          "type": "uint256"
        }
      ],
      "name": "yieldPerToken",
      "outputs": [
        {
          "internalType": "uint256",
          "name": "",
          "type": "uint256"
        }
      ],
      "stateMutability": "view",
      "type": "function"
    },
    {
      "inputs": [
        {
          "internalType": "uint256",
          "name": "",
          "type": "uint256"
        },
        {
          "internalType": "address",
          "name": "",
          "type": "address"
        }
      ],
      "name": "yieldPerTokenClaimed",
      "outputs": [
        {
          "internalType": "uint256",
          "name": "",
          "type": "uint256"
        }
      ],
      "stateMutability": "view",
      "type": "function"
    }
  ],
  "transactionHash": "0xfd433aadc92ac57d298b06182b53b7de349d878f8194b89a633ee1e6f8fed65f",
  "args": [],
  "numDeployments": 1,
  "solcInputHash": "730e05e628463525a609053c7f4c87fc",
  "bytecode": "0x60a06040523060805234801561001457600080fd5b5060805161478f61004c60003960008181610ea301528181610ee3015281816111260152818161116601526111e2015261478f6000f3fe6080604052600436106102ad5760003560e01c80636c0360eb11610175578063b9036095116100dc578063f2c098b711610095578063f851a4401161006f578063f851a4401461092d578063fc2f3d821461094e578063fca3b5aa1461096e578063fe18c0ed1461098e57600080fd5b8063f2c098b7146108cd578063f2fde38b146108ed578063f34822b41461090d57600080fd5b8063b9036095146107c7578063bd85b03914610800578063c7c4ff461461082e578063e8a3d4851461084f578063e985e9c514610864578063f242432a146108ad57600080fd5b80638da5cb5b1161012e5780638da5cb5b146106f8578063938e3d7b1461071957806395d89b41146107395780639eea5f6614610767578063a22cb46514610787578063a996d6ce146107a757600080fd5b80636c0360eb1461063e578063704b6c02146106535780637b2c9279146106735780637dc835cf14610694578063836a1040146106b85780638cb0a511146106d857600080fd5b80632eb2c2d6116102195780634f558e79116101d25780634f558e791461056b57806352d1902d1461059b57806355f804b3146105b05780635944c753146105d05780635c60da1b146105f05780635df65cf81461060557600080fd5b80632eb2c2d61461049b5780632f54bf6e146104bb5780633659cfe6146104eb5780634cd14dc61461050b5780634e1273f41461052b5780634f1ef2861461055857600080fd5b8063075461721161026b57806307546172146103b85780630e89341c146103f15780631579c13314610411578063180b0d7e1461042657806327810b6e1461043b5780632a55205a1461045c57600080fd5b8062fdd58e146102b25780630107cb30146102e557806301ffc9a71461030557806302fe53051461033557806304634d8d1461035757806306fdde0314610377575b600080fd5b3480156102be57600080fd5b506102d26102cd366004613966565b6109ae565b6040519081526020015b60405180910390f35b3480156102f157600080fd5b506102d2610300366004613990565b610a49565b34801561031157600080fd5b506103256103203660046139bf565b610ad9565b60405190151581526020016102dc565b34801561034157600080fd5b50610355610350366004613a93565b610afe565b005b34801561036357600080fd5b50610355610372366004613adf565b610b35565b34801561038357600080fd5b5060408051808201909152600f81526e1499585b08115cdd185d1948139195608a1b60208201525b6040516102dc9190613b62565b3480156103c457600080fd5b506101c3546103d9906001600160a01b031681565b6040516001600160a01b0390911681526020016102dc565b3480156103fd57600080fd5b506103ab61040c366004613990565b610bb7565b34801561041d57600080fd5b506102d2610c08565b34801561043257600080fd5b506127106102d2565b34801561044757600080fd5b506101c4546103d9906001600160a01b031681565b34801561046857600080fd5b5061047c610477366004613b75565b610c19565b604080516001600160a01b0390931683526020830191909152016102dc565b3480156104a757600080fd5b506103556104b6366004613c2c565b610cc5565b3480156104c757600080fd5b506103256104d6366004613cd6565b610191546001600160a01b0391821691161490565b3480156104f757600080fd5b50610355610506366004613cd6565b610e99565b34801561051757600080fd5b50610355610526366004613cf1565b610f5e565b34801561053757600080fd5b5061054b610546366004613d14565b610ff2565b6040516102dc9190613e1a565b610355610566366004613e2d565b61111c565b34801561057757600080fd5b50610325610586366004613990565b600090815261012d6020526040902054151590565b3480156105a757600080fd5b506102d26111d5565b3480156105bc57600080fd5b506103556105cb366004613a93565b611289565b3480156105dc57600080fd5b506103556105eb366004613e71565b6112bd565b3480156105fc57600080fd5b506103d961133b565b34801561061157600080fd5b506102d2610620366004613cf1565b6101ca60209081526000928352604080842090915290825290205481565b34801561064a57600080fd5b506103ab611345565b34801561065f57600080fd5b5061035561066e366004613cd6565b6113d4565b34801561067f57600080fd5b506101c7546103d9906001600160a01b031681565b3480156106a057600080fd5b506040516001600160801b03421681526020016102dc565b3480156106c457600080fd5b506103556106d3366004613ead565b61149a565b3480156106e457600080fd5b506103256106f3366004613ead565b6115e3565b34801561070457600080fd5b50610191546103d9906001600160a01b031681565b34801561072557600080fd5b50610355610734366004613a93565b6115ff565b34801561074557600080fd5b506040805180820190915260058152641c9953919560da1b60208201526103ab565b34801561077357600080fd5b50610355610782366004613ead565b61167c565b34801561079357600080fd5b506103556107a2366004613ef0565b611726565b3480156107b357600080fd5b506103556107c2366004613cd6565b611731565b3480156107d357600080fd5b506102d26107e2366004613cf1565b6101c960209081526000928352604080842090915290825290205481565b34801561080c57600080fd5b506102d261081b366004613990565b600090815261012d602052604090205490565b34801561083a57600080fd5b506101c5546103d9906001600160a01b031681565b34801561085b57600080fd5b506103ab6117f5565b34801561087057600080fd5b5061032561087f366004613f27565b6001600160a01b03918216600090815260fc6020908152604080832093909416825291909152205460ff1690565b3480156108b957600080fd5b506103556108c8366004613f51565b611803565b3480156108d957600080fd5b506103556108e8366004613cd6565b6118e2565b3480156108f957600080fd5b50610355610908366004613cd6565b6119a9565b34801561091957600080fd5b50610355610928366004613fb6565b6119dd565b34801561093957600080fd5b50610160546103d9906001600160a01b031681565b34801561095a57600080fd5b506102d2610969366004613cf1565b611b10565b34801561097a57600080fd5b50610355610989366004613cd6565b611b8f565b34801561099a57600080fd5b506103556109a936600461403c565b611c53565b60006001600160a01b038316610a1e5760405162461bcd60e51b815260206004820152602a60248201527f455243313135353a2061646472657373207a65726f206973206e6f742061207660448201526930b634b21037bbb732b960b11b60648201526084015b60405180910390fd5b50600081815260fb602090815260408083206001600160a01b03861684529091529020545b92915050565b60008181526101c8602090815260408083208151608081018352815481526001820154818501526002909101546001600160801b0380821683850152600160801b90910416606082015284845261012d90925282205480600003610ab1575060009392505050565b80610abb83611e93565b610ac5919061408d565b8251610ad191906140af565b949350505050565b60006001600160e01b0319821663152a902d60e11b1480610a435750610a4382611f3f565b610160546001600160a01b03163314610b295760405162461bcd60e51b8152600401610a15906140c2565b610b3281611f7f565b50565b610160546001600160a01b03163314610b605760405162461bcd60e51b8152600401610a15906140c2565b610b6a8282611f8b565b604080516001600160601b038316815290516001600160a01b0384169133917f88a2d4bd6249f327d8b3cf28358e7d2bfe4a9701adcad78dfd54f27f2bb4d7099181900360200190a35050565b6060600061015f8054610bc9906140e2565b905011610bde57610bd982612045565b610a43565b61015f82604051602001610bf392919061411c565b60405160208183030381529060405292915050565b6000610c146101c65490565b905090565b600082815260ca602090815260408083208151808301909252546001600160a01b038116808352600160a01b9091046001600160601b0316928201929092528291610c8e57506040805180820190915260c9546001600160a01b0381168252600160a01b90046001600160601b031660208201525b602081015160009061271090610cad906001600160601b031687614197565b610cb7919061408d565b915196919550909350505050565b6001600160a01b0385163314801590610ce55750610ce3853361087f565b155b15610e855760005b8351811015610e8357828181518110610d0857610d086141ae565b60200260200101516101616000868481518110610d2757610d276141ae565b602002602001015181526020019081526020016000206000886001600160a01b03166001600160a01b031681526020019081526020016000206000610d693390565b6001600160a01b03166001600160a01b03168152602001908152602001600020541015610dc95760405162461bcd60e51b815260206004820152600e60248201526d139bdd08185d5d1a1bdc9a5e995960921b6044820152606401610a15565b828181518110610ddb57610ddb6141ae565b60200260200101516101616000868481518110610dfa57610dfa6141ae565b602002602001015181526020019081526020016000206000886001600160a01b03166001600160a01b031681526020019081526020016000206000610e3c3390565b6001600160a01b03166001600160a01b031681526020019081526020016000206000828254610e6b91906141c4565b90915550819050610e7b816141d7565b915050610ced565b505b610e9285858585856120d9565b5050505050565b6001600160a01b037f0000000000000000000000000000000000000000000000000000000000000000163003610ee15760405162461bcd60e51b8152600401610a15906141f0565b7f00000000000000000000000000000000000000000000000000000000000000006001600160a01b0316610f136122c7565b6001600160a01b031614610f395760405162461bcd60e51b8152600401610a159061423c565b610f42816122e3565b60408051600080825260208201909252610b329183919061230e565b610f68823361247e565b60008281526101ca60209081526040808320338452909152812080549190556101c754610f9f906001600160a01b0316838361253f565b6001600160a01b038216336001600160a01b0316847fb6648da82b7b8378efb45fed4cc019b914bfbd64ecd0d03d8e4667cd4dcf3e7284604051610fe591815260200190565b60405180910390a4505050565b606081518351146110575760405162461bcd60e51b815260206004820152602960248201527f455243313135353a206163636f756e747320616e6420696473206c656e677468604482015268040dad2e6dac2e8c6d60bb1b6064820152608401610a15565b6000835167ffffffffffffffff811115611073576110736139dc565b60405190808252806020026020018201604052801561109c578160200160208202803683370190505b50905060005b8451811015611114576110e78582815181106110c0576110c06141ae565b60200260200101518583815181106110da576110da6141ae565b60200260200101516109ae565b8282815181106110f9576110f96141ae565b602090810291909101015261110d816141d7565b90506110a2565b509392505050565b6001600160a01b037f00000000000000000000000000000000000000000000000000000000000000001630036111645760405162461bcd60e51b8152600401610a15906141f0565b7f00000000000000000000000000000000000000000000000000000000000000006001600160a01b03166111966122c7565b6001600160a01b0316146111bc5760405162461bcd60e51b8152600401610a159061423c565b6111c5826122e3565b6111d18282600161230e565b5050565b6000306001600160a01b037f000000000000000000000000000000000000000000000000000000000000000016146112755760405162461bcd60e51b815260206004820152603860248201527f555550535570677261646561626c653a206d757374206e6f742062652063616c60448201527f6c6564207468726f7567682064656c656761746563616c6c00000000000000006064820152608401610a15565b506000805160206147138339815191525b90565b610160546001600160a01b031633146112b45760405162461bcd60e51b8152600401610a15906140c2565b610b32816125a2565b610160546001600160a01b031633146112e85760405162461bcd60e51b8152600401610a15906140c2565b6112f38383836125af565b6040516001600160601b03821681526001600160a01b03831690849033907f367d8e97df7923e8e2a3c37798fce0d36df7027840432cbeb96cf571afa5028090602001610fe5565b6000610c146122c7565b61015f8054611353906140e2565b80601f016020809104026020016040519081016040528092919081815260200182805461137f906140e2565b80156113cc5780601f106113a1576101008083540402835291602001916113cc565b820191906000526020600020905b8154815290600101906020018083116113af57829003601f168201915b505050505081565b610160546001600160a01b031633146113ff5760405162461bcd60e51b8152600401610a15906140c2565b610160546001600160a01b0380831691160361144f5760405162461bcd60e51b815260206004820152600f60248201526e30b236b4b7101e9e902fb0b236b4b760891b6044820152606401610a15565b61016080546001600160a01b0319166001600160a01b0383169081179091556040517f71614071b88dee5e0b2ae578a9dd7b2ebbe9ae832ba419dc0242cd065a290b6c90600090a250565b6101c3546001600160a01b0316336001600160a01b0316146114e85760405162461bcd60e51b815260206004820152600760248201526610b6b4b73a32b960c91b6044820152606401610a15565b600083815261012d6020526040902054600003611579578215806115195750600061151761081b6001866141c4565b115b6115655760405162461bcd60e51b815260206004820152601860248201527f4944732073686f756c642062652073657175656e7469616c00000000000000006044820152606401610a15565b6115746101c680546001019055565b611582565b6115828361267a565b61159d828483604051806020016040528060008152506127ca565b6001600160a01b038216336001600160a01b0316847fd221ed6d0b64f2e9f972fbc48b2ce5210f880f75f0cd09111b73eca6937827eb84604051610fe591815260200190565b6000336115f2858286866128ef565b60019150505b9392505050565b610160546001600160a01b0316331461162a5760405162461bcd60e51b8152600401610a15906140c2565b61019261163782826142ce565b50336001600160a01b03167f1ca91f64ead03abb06ea28975dfbf18044ac06f9fa1cb62a54ccc905df1028ed826040516116719190613b62565b60405180910390a250565b6101c4546001600160a01b0316336001600160a01b0316146116ca5760405162461bcd60e51b815260206004820152600760248201526610b13ab93732b960c91b6044820152606401610a15565b6116d5838383612a0b565b6116e0338483612ad1565b336001600160a01b0316826001600160a01b0316847fdb4551d821f9bf9edb0048f9934670b828fb65984ea5c99872b225a933641bc084604051610fe591815260200190565b6111d1338383612c65565b610160546001600160a01b0316331461175c5760405162461bcd60e51b8152600401610a15906140c2565b6101c4546001600160a01b038083169116036117a85760405162461bcd60e51b815260206004820152600b60248201526a29b0b6b290313ab93732b960a91b6044820152606401610a15565b6101c480546001600160a01b0319166001600160a01b03831690811790915560405133907f0258795f167353770fc90e124d23e59bea1e1a7005a96e27c9bcadedf7775f7190600090a350565b6101928054611353906140e2565b6001600160a01b03851633148015906118235750611821853361087f565b155b156118d5576000838152610161602090815260408083206001600160a01b038916845282528083203384529091529020548211156118945760405162461bcd60e51b815260206004820152600e60248201526d139bdd08185d5d1a1bdc9a5e995960921b6044820152606401610a15565b6000838152610161602090815260408083206001600160a01b03891684528252808320338452909152812080548492906118cf9084906141c4565b90915550505b610e928585858585612d45565b610160546001600160a01b0316331461190d5760405162461bcd60e51b8152600401610a15906140c2565b6101c5546001600160a01b0380831691160361195c5760405162461bcd60e51b815260206004820152600e60248201526d29b0b6b2903232b837b9b4ba37b960911b6044820152606401610a15565b6101c580546001600160a01b0319166001600160a01b03831690811790915560405133907f59606f7c19dcf70cc6969f5671e89f2bd4a978609c2f5a522b79aaf715c32d8c90600090a350565b610160546001600160a01b031633146119d45760405162461bcd60e51b8152600401610a15906140c2565b610b3281612e81565b600054610100900460ff16158080156119fd5750600054600160ff909116105b80611a175750303b158015611a17575060005460ff166001145b611a7a5760405162461bcd60e51b815260206004820152602e60248201527f496e697469616c697a61626c653a20636f6e747261637420697320616c72656160448201526d191e481a5b9a5d1a585b1a5e995960921b6064820152608401610a15565b6000805460ff191660011790558015611a9d576000805461ff0019166101001790555b611aa8858585612ed4565b6101c780546001600160a01b0319166001600160a01b0384161790558015610e92576000805461ff0019169055604051600181527f7f26b83ff96e1f2b6a682f133852f6798a09c465da95921460cefb38474024989060200160405180910390a15050505050565b600080611b1c84610a49565b60008581526101c9602090815260408083206001600160a01b0388168452909152902054909150611b4d90826141c4565b611b5784866109ae565b611b619190614197565b60008581526101ca602090815260408083206001600160a01b0388168452909152902054610ad191906140af565b610160546001600160a01b03163314611bba5760405162461bcd60e51b8152600401610a15906140c2565b6101c3546001600160a01b03808316911603611c065760405162461bcd60e51b815260206004820152600b60248201526a29b0b6b29036b4b73a32b960a91b6044820152606401610a15565b6101c380546001600160a01b0319166001600160a01b03831690811790915560405133907fe490d3138e32f1f66ef3971a3c73c7f7704ba0c1d1000f1e2c3df6fc0376610b90600090a350565b6101c5546001600160a01b0316336001600160a01b031614611ca45760405162461bcd60e51b815260206004820152600a60248201526910b232b837b9b4ba37b960b11b6044820152606401610a15565b60008311611cdf5760405162461bcd60e51b81526020600482015260086024820152670859195c1bdcda5d60c21b6044820152606401610a15565b611cf8336101c7546001600160a01b0316903086612f16565b60008481526101c860209081526040808320815160808101835281548152600182015493810193909352600201546001600160801b0380821692840192909252600160801b900416606082015290611d4f82611e93565b90506000611d5d844261438e565b600088815261012d6020526040902054909150611d7a908361408d565b60008881526101c8602052604081208054909190611d999084906140af565b909155505060208301518690611db09084906141c4565b611dba91906140af565b60008881526101c860205260409020600181019190915560020180546001600160801b0319166001600160801b038316179055611df7858261438e565b60008881526101c86020526040902060020180546001600160801b03928316600160801b029216919091179055611e2b3390565b6001600160a01b0316877f92f5bc4d0fcc25855c1ca8de441fefdfaf48011e0b8142570f85c47b34cd52448884611e628a8261438e565b604080519384526001600160801b03928316602085015291169082015260600160405180910390a350505050505050565b600081604001516001600160801b0316611eaa4290565b6001600160801b031611611ec057506000919050565b60608201516001600160801b0316426001600160801b031610611ee557506020015190565b600082604001518360600151611efb91906143b5565b9050806001600160801b03168360400151611f134290565b611f1d91906143b5565b6001600160801b03168460200151611f359190614197565b6115f8919061408d565b60006001600160e01b03198216636cdb3d1360e11b1480611f7057506001600160e01b031982166303a24d0760e21b145b80610a435750610a4382612f4e565b60fd6111d182826142ce565b6127106001600160601b0382161115611fb65760405162461bcd60e51b8152600401610a15906143d5565b6001600160a01b03821661200c5760405162461bcd60e51b815260206004820152601960248201527f455243323938313a20696e76616c6964207265636569766572000000000000006044820152606401610a15565b604080518082019091526001600160a01b039092168083526001600160601b039091166020909201829052600160a01b9091021760c955565b606060fd8054612054906140e2565b80601f0160208091040260200160405190810160405280929190818152602001828054612080906140e2565b80156120cd5780601f106120a2576101008083540402835291602001916120cd565b820191906000526020600020905b8154815290600101906020018083116120b057829003601f168201915b50505050509050919050565b815183511461213b5760405162461bcd60e51b815260206004820152602860248201527f455243313135353a2069647320616e6420616d6f756e7473206c656e677468206044820152670dad2e6dac2e8c6d60c31b6064820152608401610a15565b6001600160a01b0384166121615760405162461bcd60e51b8152600401610a159061441f565b33612170818787878787612f83565b60005b8451811015612259576000858281518110612190576121906141ae565b6020026020010151905060008583815181106121ae576121ae6141ae565b602090810291909101810151600084815260fb835260408082206001600160a01b038e1683529093529190912054909150818110156121ff5760405162461bcd60e51b8152600401610a1590614464565b600083815260fb602090815260408083206001600160a01b038e8116855292528083208585039055908b1682528120805484929061223e9084906140af565b9250508190555050505080612252906141d7565b9050612173565b50846001600160a01b0316866001600160a01b0316826001600160a01b03167f4a39dc06d4c0dbc64b70af90fd698a233a518aa5d07e595d983b8c0526c8f7fb87876040516122a99291906144ae565b60405180910390a46122bf818787878787612ff5565b505050505050565b600080516020614713833981519152546001600160a01b031690565b610160546001600160a01b03163314610b325760405162461bcd60e51b8152600401610a15906140c2565b7f4910fdfa16fed3260ed0e7147f7cc6da11a60208b5b9406d12a635614ffd91435460ff16156123465761234183613150565b505050565b826001600160a01b03166352d1902d6040518163ffffffff1660e01b8152600401602060405180830381865afa9250505080156123a0575060408051601f3d908101601f1916820190925261239d918101906144d3565b60015b6124035760405162461bcd60e51b815260206004820152602e60248201527f45524331393637557067726164653a206e657720696d706c656d656e7461746960448201526d6f6e206973206e6f74205555505360901b6064820152608401610a15565b60008051602061471383398151915281146124725760405162461bcd60e51b815260206004820152602960248201527f45524331393637557067726164653a20756e737570706f727465642070726f786044820152681a58589b195555525160ba1b6064820152608401610a15565b506123418383836131ec565b6001600160a01b038116612490575050565b600061249b83610a49565b60008481526101c9602090815260408083206001600160a01b03871684529091529020549091506124cc90826141c4565b6124d683856109ae565b6124e09190614197565b60008481526101ca602090815260408083206001600160a01b0387168452909152812080549091906125139084906140af565b909155505060009283526101c9602090815260408085206001600160a01b039094168552929052912055565b6040516001600160a01b03831660248201526044810182905261234190849063a9059cbb60e01b906064015b60408051601f198184030181529190526020810180516001600160e01b03166001600160e01b031990931692909217909152613211565b61015f6111d182826142ce565b6127106001600160601b03821611156125da5760405162461bcd60e51b8152600401610a15906143d5565b6001600160a01b0382166126305760405162461bcd60e51b815260206004820152601b60248201527f455243323938313a20496e76616c696420706172616d657465727300000000006044820152606401610a15565b6040805180820182526001600160a01b0393841681526001600160601b039283166020808301918252600096875260ca90529190942093519051909116600160a01b029116179055565b60008181526101c8602090815260409182902082516080810184528154815260018201549281018390526002909101546001600160801b0380821694830194909452600160801b9004909216606083015215806126ed575060408101516001600160801b0316426001600160801b031611155b156126f6575050565b600082815261012d60205260408120549081900361271357505050565b600061271e83611e93565b9050806101c86000868152602001908152602001600020600101600082825461274791906141c4565b909155506127579050828261408d565b60008581526101c86020526040812080549091906127769084906140af565b909155505060608301516001600160801b0316426001600160801b0316116127c45760008481526101c86020526040902060020180546001600160801b031916426001600160801b03161790555b50505050565b6001600160a01b03841661282a5760405162461bcd60e51b815260206004820152602160248201527f455243313135353a206d696e7420746f20746865207a65726f206164647265736044820152607360f81b6064820152608401610a15565b336000612836856132e3565b90506000612843856132e3565b905061285483600089858589612f83565b600086815260fb602090815260408083206001600160a01b038b168452909152812080548792906128869084906140af565b909155505060408051878152602081018790526001600160a01b03808a1692600092918716917fc3d58168c5ae7397731d063d5bbf3d657854427343f4c083240f7aacaa2d0f62910160405180910390a46128e68360008989898961332e565b50505050505050565b6001600160a01b0383166129455760405162461bcd60e51b815260206004820152601d60248201527f417070726f76652066726f6d20746865207a65726f20616464726573730000006044820152606401610a15565b6001600160a01b03821661299b5760405162461bcd60e51b815260206004820152601b60248201527f417070726f766520746f20746865207a65726f206164647265737300000000006044820152606401610a15565b6000848152610161602090815260408083206001600160a01b03878116808652918452828520908716808652908452938290208590559051848152909187917f69e4aaf23f9318cf40839ac20453d8fbedaac2955eb08a27ae5189cc71925716910160405180910390a450505050565b612a148361267a565b6000612a1f84610a49565b60008581526101c9602090815260408083206001600160a01b0388168452909152902054909150612a5090826141c4565b82612a5b85876109ae565b612a6591906140af565b612a6f9190614197565b60008581526101ca602090815260408083206001600160a01b038816845290915281208054909190612aa29084906140af565b909155505060009384526101c9602090815260408086206001600160a01b039095168652939052919092205550565b6001600160a01b038316612b335760405162461bcd60e51b815260206004820152602360248201527f455243313135353a206275726e2066726f6d20746865207a65726f206164647260448201526265737360e81b6064820152608401610a15565b336000612b3f846132e3565b90506000612b4c846132e3565b9050612b6c83876000858560405180602001604052806000815250612f83565b600085815260fb602090815260408083206001600160a01b038a16845290915290205484811015612beb5760405162461bcd60e51b8152602060048201526024808201527f455243313135353a206275726e20616d6f756e7420657863656564732062616c604482015263616e636560e01b6064820152608401610a15565b600086815260fb602090815260408083206001600160a01b038b81168086529184528285208a8703905582518b81529384018a90529092908816917fc3d58168c5ae7397731d063d5bbf3d657854427343f4c083240f7aacaa2d0f62910160405180910390a46040805160208101909152600090526128e6565b816001600160a01b0316836001600160a01b031603612cd85760405162461bcd60e51b815260206004820152602960248201527f455243313135353a2073657474696e6720617070726f76616c20737461747573604482015268103337b91039b2b63360b91b6064820152608401610a15565b6001600160a01b03838116600081815260fc6020908152604080832094871680845294825291829020805460ff191686151590811790915591519182527f17307eab39ab6107e8899845ad3d59bd9653f200f220920489ca2b5937696c31910160405180910390a3505050565b6001600160a01b038416612d6b5760405162461bcd60e51b8152600401610a159061441f565b336000612d77856132e3565b90506000612d84856132e3565b9050612d94838989858589612f83565b600086815260fb602090815260408083206001600160a01b038c16845290915290205485811015612dd75760405162461bcd60e51b8152600401610a1590614464565b600087815260fb602090815260408083206001600160a01b038d8116855292528083208985039055908a16825281208054889290612e169084906140af565b909155505060408051888152602081018890526001600160a01b03808b16928c821692918816917fc3d58168c5ae7397731d063d5bbf3d657854427343f4c083240f7aacaa2d0f62910160405180910390a4612e76848a8a8a8a8a61332e565b505050505050505050565b61019180546001600160a01b038381166001600160a01b0319831681179093556040519116919082907f8be0079c531659141344cd1fd0a4f28419497f9722a3daafe3b4186f6b6457e090600090a35050565b600054610100900460ff16612efb5760405162461bcd60e51b8152600401610a15906144ec565b612f036133e9565b612f0d8383613412565b6123418161345b565b6040516001600160a01b03808516602483015283166044820152606481018290526127c49085906323b872dd60e01b9060840161256b565b60006001600160e01b0319821663152a902d60e11b1480610a4357506301ffc9a760e01b6001600160e01b0319831614610a43565b612f91868686868686613482565b60005b83518110156128e657612fc0848281518110612fb257612fb26141ae565b60200260200101518761247e565b612fe3848281518110612fd557612fd56141ae565b60200260200101518661247e565b80612fed816141d7565b915050612f94565b6001600160a01b0384163b156122bf5760405163bc197c8160e01b81526001600160a01b0385169063bc197c81906130399089908990889088908890600401614537565b6020604051808303816000875af1925050508015613074575060408051601f3d908101601f1916820190925261307191810190614595565b60015b613120576130806145b2565b806308c379a0036130b957506130946145cd565b8061309f57506130bb565b8060405162461bcd60e51b8152600401610a159190613b62565b505b60405162461bcd60e51b815260206004820152603460248201527f455243313135353a207472616e7366657220746f206e6f6e2d455243313135356044820152732932b1b2b4bb32b91034b6b83632b6b2b73a32b960611b6064820152608401610a15565b6001600160e01b0319811663bc197c8160e01b146128e65760405162461bcd60e51b8152600401610a1590614657565b6001600160a01b0381163b6131bd5760405162461bcd60e51b815260206004820152602d60248201527f455243313936373a206e657720696d706c656d656e746174696f6e206973206e60448201526c1bdd08184818dbdb9d1c9858dd609a1b6064820152608401610a15565b60008051602061471383398151915280546001600160a01b0319166001600160a01b0392909216919091179055565b6131f583613490565b6000825111806132025750805b15612341576127c483836134d0565b6000613266826040518060400160405280602081526020017f5361666545524332303a206c6f772d6c6576656c2063616c6c206661696c6564815250856001600160a01b03166135c49092919063ffffffff16565b8051909150156123415780806020019051810190613284919061469f565b6123415760405162461bcd60e51b815260206004820152602a60248201527f5361666545524332303a204552433230206f7065726174696f6e20646964206e6044820152691bdd081cdd58d8d9595960b21b6064820152608401610a15565b6040805160018082528183019092526060916000919060208083019080368337019050509050828160008151811061331d5761331d6141ae565b602090810291909101015292915050565b6001600160a01b0384163b156122bf5760405163f23a6e6160e01b81526001600160a01b0385169063f23a6e619061337290899089908890889088906004016146bc565b6020604051808303816000875af19250505080156133ad575060408051601f3d908101601f191682019092526133aa91810190614595565b60015b6133b9576130806145b2565b6001600160e01b0319811663f23a6e6160e01b146128e65760405162461bcd60e51b8152600401610a1590614657565b600054610100900460ff166134105760405162461bcd60e51b8152600401610a15906144ec565b565b600054610100900460ff166134395760405162461bcd60e51b8152600401610a15906144ec565b6134416133e9565b61344a826135d3565b6134526133e9565b6111d181613603565b600054610100900460ff166119d45760405162461bcd60e51b8152600401610a15906144ec565b6122bf86868686868661362a565b61349981613150565b6040516001600160a01b038216907fbc7cd75a20ee27fd9adebab32041f755214dbc6bffa90cc0225b39da2e5c2d3b90600090a250565b60606001600160a01b0383163b6135385760405162461bcd60e51b815260206004820152602660248201527f416464726573733a2064656c65676174652063616c6c20746f206e6f6e2d636f6044820152651b9d1c9858dd60d21b6064820152608401610a15565b600080846001600160a01b03168460405161355391906146f6565b600060405180830381855af49150503d806000811461358e576040519150601f19603f3d011682016040523d82523d6000602084013e613593565b606091505b50915091506135bb8282604051806060016040528060278152602001614733602791396137a6565b95945050505050565b6060610ad184846000856137bf565b600054610100900460ff166135fa5760405162461bcd60e51b8152600401610a15906144ec565b610b328161389a565b600054610100900460ff1661144f5760405162461bcd60e51b8152600401610a15906144ec565b6001600160a01b0385166136b25760005b83518110156136b057828181518110613656576136566141ae565b602002602001015161012d6000868481518110613675576136756141ae565b60200260200101518152602001908152602001600020600082825461369a91906140af565b909155506136a99050816141d7565b905061363b565b505b6001600160a01b0384166122bf5760005b83518110156128e65760008482815181106136e0576136e06141ae565b6020026020010151905060008483815181106136fe576136fe6141ae565b60200260200101519050600061012d6000848152602001908152602001600020549050818110156137825760405162461bcd60e51b815260206004820152602860248201527f455243313135353a206275726e20616d6f756e74206578636565647320746f74604482015267616c537570706c7960c01b6064820152608401610a15565b600092835261012d60205260409092209103905561379f816141d7565b90506136c3565b606083156137b55750816115f8565b6115f883836138c1565b6060824710156138205760405162461bcd60e51b815260206004820152602660248201527f416464726573733a20696e73756666696369656e742062616c616e636520666f6044820152651c8818d85b1b60d21b6064820152608401610a15565b600080866001600160a01b0316858760405161383c91906146f6565b60006040518083038185875af1925050503d8060008114613879576040519150601f19603f3d011682016040523d82523d6000602084013e61387e565b606091505b509150915061388f878383876138d1565b979650505050505050565b600054610100900460ff16610b295760405162461bcd60e51b8152600401610a15906144ec565b81511561309f5781518083602001fd5b60608315613940578251600003613939576001600160a01b0385163b6139395760405162461bcd60e51b815260206004820152601d60248201527f416464726573733a2063616c6c20746f206e6f6e2d636f6e74726163740000006044820152606401610a15565b5081610ad1565b610ad183836138c1565b80356001600160a01b038116811461396157600080fd5b919050565b6000806040838503121561397957600080fd5b6139828361394a565b946020939093013593505050565b6000602082840312156139a257600080fd5b5035919050565b6001600160e01b031981168114610b3257600080fd5b6000602082840312156139d157600080fd5b81356115f8816139a9565b634e487b7160e01b600052604160045260246000fd5b601f8201601f1916810167ffffffffffffffff81118282101715613a1857613a186139dc565b6040525050565b600082601f830112613a3057600080fd5b813567ffffffffffffffff811115613a4a57613a4a6139dc565b604051613a61601f8301601f1916602001826139f2565b818152846020838601011115613a7657600080fd5b816020850160208301376000918101602001919091529392505050565b600060208284031215613aa557600080fd5b813567ffffffffffffffff811115613abc57600080fd5b610ad184828501613a1f565b80356001600160601b038116811461396157600080fd5b60008060408385031215613af257600080fd5b613afb8361394a565b9150613b0960208401613ac8565b90509250929050565b60005b83811015613b2d578181015183820152602001613b15565b50506000910152565b60008151808452613b4e816020860160208601613b12565b601f01601f19169290920160200192915050565b6020815260006115f86020830184613b36565b60008060408385031215613b8857600080fd5b50508035926020909101359150565b600067ffffffffffffffff821115613bb157613bb16139dc565b5060051b60200190565b600082601f830112613bcc57600080fd5b81356020613bd982613b97565b604051613be682826139f2565b83815260059390931b8501820192828101915086841115613c0657600080fd5b8286015b84811015613c215780358352918301918301613c0a565b509695505050505050565b600080600080600060a08688031215613c4457600080fd5b613c4d8661394a565b9450613c5b6020870161394a565b9350604086013567ffffffffffffffff80821115613c7857600080fd5b613c8489838a01613bbb565b94506060880135915080821115613c9a57600080fd5b613ca689838a01613bbb565b93506080880135915080821115613cbc57600080fd5b50613cc988828901613a1f565b9150509295509295909350565b600060208284031215613ce857600080fd5b6115f88261394a565b60008060408385031215613d0457600080fd5b82359150613b096020840161394a565b60008060408385031215613d2757600080fd5b823567ffffffffffffffff80821115613d3f57600080fd5b818501915085601f830112613d5357600080fd5b81356020613d6082613b97565b604051613d6d82826139f2565b83815260059390931b8501820192828101915089841115613d8d57600080fd5b948201945b83861015613db257613da38661394a565b82529482019490820190613d92565b96505086013592505080821115613dc857600080fd5b50613dd585828601613bbb565b9150509250929050565b600081518084526020808501945080840160005b83811015613e0f57815187529582019590820190600101613df3565b509495945050505050565b6020815260006115f86020830184613ddf565b60008060408385031215613e4057600080fd5b613e498361394a565b9150602083013567ffffffffffffffff811115613e6557600080fd5b613dd585828601613a1f565b600080600060608486031215613e8657600080fd5b83359250613e966020850161394a565b9150613ea460408501613ac8565b90509250925092565b600080600060608486031215613ec257600080fd5b83359250613ed26020850161394a565b9150604084013590509250925092565b8015158114610b3257600080fd5b60008060408385031215613f0357600080fd5b613f0c8361394a565b91506020830135613f1c81613ee2565b809150509250929050565b60008060408385031215613f3a57600080fd5b613f438361394a565b9150613b096020840161394a565b600080600080600060a08688031215613f6957600080fd5b613f728661394a565b9450613f806020870161394a565b93506040860135925060608601359150608086013567ffffffffffffffff811115613faa57600080fd5b613cc988828901613a1f565b60008060008060808587031215613fcc57600080fd5b843567ffffffffffffffff811115613fe357600080fd5b613fef87828801613a1f565b945050613ffe6020860161394a565b925061400c6040860161394a565b915061401a6060860161394a565b905092959194509250565b80356001600160801b038116811461396157600080fd5b6000806000806080858703121561405257600080fd5b843593506020850135925061406960408601614025565b915061401a60608601614025565b634e487b7160e01b600052601160045260246000fd5b6000826140aa57634e487b7160e01b600052601260045260246000fd5b500490565b80820180821115610a4357610a43614077565b60208082526006908201526510b0b236b4b760d11b604082015260600190565b600181811c908216806140f657607f821691505b60208210810361411657634e487b7160e01b600052602260045260246000fd5b50919050565b600080845461412a816140e2565b60018281168015614142576001811461415757614186565b60ff1984168752821515830287019450614186565b8860005260208060002060005b8581101561417d5781548a820152908401908201614164565b50505082870194505b505050938152602001949350505050565b8082028115828204841417610a4357610a43614077565b634e487b7160e01b600052603260045260246000fd5b81810381811115610a4357610a43614077565b6000600182016141e9576141e9614077565b5060010190565b6020808252602c908201527f46756e6374696f6e206d7573742062652063616c6c6564207468726f7567682060408201526b19195b1959d85d1958d85b1b60a21b606082015260800190565b6020808252602c908201527f46756e6374696f6e206d7573742062652063616c6c6564207468726f7567682060408201526b6163746976652070726f787960a01b606082015260800190565b601f82111561234157600081815260208120601f850160051c810160208610156142af5750805b601f850160051c820191505b818110156122bf578281556001016142bb565b815167ffffffffffffffff8111156142e8576142e86139dc565b6142fc816142f684546140e2565b84614288565b602080601f83116001811461433157600084156143195750858301515b600019600386901b1c1916600185901b1785556122bf565b600085815260208120601f198616915b8281101561436057888601518255948401946001909101908401614341565b508582101561437e5787850151600019600388901b60f8161c191681555b5050505050600190811b01905550565b6001600160801b038181168382160190808211156143ae576143ae614077565b5092915050565b6001600160801b038281168282160390808211156143ae576143ae614077565b6020808252602a908201527f455243323938313a20726f79616c7479206665652077696c6c206578636565646040820152692073616c65507269636560b01b606082015260800190565b60208082526025908201527f455243313135353a207472616e7366657220746f20746865207a65726f206164604082015264647265737360d81b606082015260800190565b6020808252602a908201527f455243313135353a20696e73756666696369656e742062616c616e636520666f60408201526939103a3930b739b332b960b11b606082015260800190565b6040815260006144c16040830185613ddf565b82810360208401526135bb8185613ddf565b6000602082840312156144e557600080fd5b5051919050565b6020808252602b908201527f496e697469616c697a61626c653a20636f6e7472616374206973206e6f74206960408201526a6e697469616c697a696e6760a81b606082015260800190565b6001600160a01b0386811682528516602082015260a06040820181905260009061456390830186613ddf565b82810360608401526145758186613ddf565b905082810360808401526145898185613b36565b98975050505050505050565b6000602082840312156145a757600080fd5b81516115f8816139a9565b600060033d11156112865760046000803e5060005160e01c90565b600060443d10156145db5790565b6040516003193d81016004833e81513d67ffffffffffffffff816024840111818411171561460b57505050505090565b82850191508151818111156146235750505050505090565b843d870101602082850101111561463d5750505050505090565b61464c602082860101876139f2565b509095945050505050565b60208082526028908201527f455243313135353a204552433131353552656365697665722072656a656374656040820152676420746f6b656e7360c01b606082015260800190565b6000602082840312156146b157600080fd5b81516115f881613ee2565b6001600160a01b03868116825285166020820152604081018490526060810183905260a06080820181905260009061388f90830184613b36565b60008251614708818460208701613b12565b919091019291505056fe360894a13ba1a3210667c828492db98dca3e2076cc3735a920a3ca505d382bbc416464726573733a206c6f772d6c6576656c2064656c65676174652063616c6c206661696c6564a26469706673582212202cc914e8fe1c2386c8a4d331b308dcdbe1020f27367cf9c901bf5fbcbef5cdea64736f6c63430008110033",
  "devdoc": {
    "author": "Yuri Fernandes (HorizonDAO)",
    "events": {
      "ClaimYield(uint256,address,address,uint256)": {
        "details": "Emitted when yield is claimed"
      },
      "NewDeposit(uint256,address,uint256,uint128,uint128)": {
        "details": "Emitted when yield is deposited"
      },
      "RealEstateNFTBurned(uint256,address,address,uint256)": {
        "details": "Emitted when reNFTs are burned"
      },
      "RealEstateNFTMinted(uint256,address,address,uint256)": {
        "details": "Emitted when new reNFTs are minted"
      },
      "SetBurner(address,address)": {
        "details": "Emitted when a new burner is set"
      },
      "SetDepositor(address,address)": {
        "details": "Emitted when a new depositor is set"
      },
      "SetMinter(address,address)": {
        "details": "Emitted when a new minter is set"
      }
    },
    "kind": "dev",
    "methods": {
      "approve(uint256,address,uint256)": {
        "params": {
          "_amount": "Amount allowed",
          "_spender": "Spender address",
          "_tokenId": "Collection ID"
        }
      },
      "balanceOf(address,uint256)": {
        "details": "See {IERC1155-balanceOf}. Requirements: - `account` cannot be the zero address."
      },
      "balanceOfBatch(address[],uint256[])": {
        "details": "See {IERC1155-balanceOfBatch}. Requirements: - `accounts` and `ids` must have the same length."
      },
      "burn(uint256,address,uint256)": {
        "details": "Burns own tokens (will be used for buyouts)Requires Burner role",
        "params": {
          "_amount": "Amount of tokens to burn",
          "_id": "Token ID",
          "_originAccount": "Origin account of the tokens"
        }
      },
      "claimYield(uint256,address)": {
        "params": {
          "_id": "Token ID",
          "_to": "Yield receiver"
        }
      },
      "deposit(uint256,uint256,uint128,uint128)": {
        "details": "Deposit yield to a given token ID",
        "params": {
          "_amount": "Amount to deposit",
          "_duration": "Time to distribute the cumulative yield",
          "_id": "Token ID",
          "_startOffset": "Period of time before yield starts to cumulate"
        }
      },
      "exists(uint256)": {
        "details": "Indicates whether any token exist with a given id, or not."
      },
      "initialize(string,address,address,address)": {
        "details": "Initialize RealEstateNFT",
        "params": {
          "_admin": "Address with contract administration privileges",
          "_owner": "EOA to be used as OpenSea token admin",
          "_uri": "Standard (fallback) URI for the offchain NFT metadata"
        }
      },
      "isApprovedForAll(address,address)": {
        "details": "See {IERC1155-isApprovedForAll}."
      },
      "isOwner(address)": {
        "returns": {
          "_0": "true if the caller is the current owner."
        }
      },
      "mint(uint256,address,uint256)": {
        "details": "Mint new reNFT tokensRequires Minter role",
        "params": {
          "_amount": "Amount to mint",
          "_id": "Token ID",
          "_to": "Address to transfer minted tokens"
        }
      },
      "pendingYield(uint256,address)": {
        "params": {
          "_account": "Account to check for pending yield",
          "_id": "Token ID"
        }
      },
      "proxiableUUID()": {
        "details": "Implementation of the ERC1822 {proxiableUUID} function. This returns the storage slot used by the implementation. It is used to validate the implementation's compatibility when performing an upgrade. IMPORTANT: A proxy pointing at a proxiable contract should not be considered proxiable itself, because this risks bricking a proxy that upgrades to it, by delegating to itself until out of gas. Thus it is critical that this function revert if invoked through a proxy. This is guaranteed by the `notDelegated` modifier."
      },
      "royaltyInfo(uint256,uint256)": {
        "details": "Returns how much royalty is owed and to whom, based on a sale price that may be denominated in any unit of exchange. The royalty amount is denominated and should be paid in that same unit of exchange."
      },
      "safeBatchTransferFrom(address,address,uint256[],uint256[],bytes)": {
        "details": "xref:ROOT:erc1155.adoc#batch-operations[Batched] version of {safeTransferFrom}. Emits a {TransferBatch} event. Requirements: - `ids` and `amounts` must have the same length. - If `to` refers to a smart contract, it must implement {IERC1155Receiver-onERC1155BatchReceived} and return the acceptance magic value."
      },
      "safeTransferFrom(address,address,uint256,uint256,bytes)": {
        "details": "Transfers `amount` tokens of token type `id` from `from` to `to`. Emits a {TransferSingle} event. Requirements: - `to` cannot be the zero address. - If the caller is not `from`, it must have been approved to spend ``from``'s tokens via {setApprovalForAll}. - `from` must have a balance of tokens of type `id` of at least `amount`. - If `to` refers to a smart contract, it must implement {IERC1155Receiver-onERC1155Received} and return the acceptance magic value."
      },
      "setAdmin(address)": {
        "details": "Set new admin role",
        "params": {
          "_admin": "New admin address"
        }
      },
      "setApprovalForAll(address,bool)": {
        "details": "See {IERC1155-setApprovalForAll}."
      },
      "setBaseURI(string)": {
        "details": "Sets the {baseURI} for the contract tokens",
        "params": {
          "baseURI_": "Base URI string ended by SLASH"
        }
      },
      "setBurner(address)": {
        "details": "Set new burner role",
        "params": {
          "_burner": "New burner address"
        }
      },
      "setContractURI(string)": {
        "details": "Restricted access function which updates the contract URI",
        "params": {
          "_contractURI": "new contract URI to set"
        }
      },
      "setDefaultRoyalty(address,uint96)": {
        "details": "Set the default royalties info (for all token IDs)",
        "params": {
          "_feeNumerator": "Fee in basis points",
          "_receiver": "Address of the royalties receiver"
        }
      },
      "setMinter(address)": {
        "details": "Set new minter role",
        "params": {
          "_minter": "New minter address"
        }
      },
      "setTokenRoyalty(uint256,address,uint96)": {
        "details": "Set royalties info for a specific token ID",
        "params": {
          "_feeNumerator": "Fee in basis points",
          "_receiver": "Address of the royalties receiver",
          "_tokenId": "Token"
        }
      },
      "setURI(string)": {
        "details": "Sets default URI",
        "params": {
          "_tokenURI": "URI of the token (will be prepended by _baseURI when uri function is called)"
        }
      },
      "supportsInterface(bytes4)": {
        "details": "See {IERC165-supportsInterface}."
      },
      "totalSupply(uint256)": {
        "details": "Total amount of tokens in with a given id."
      },
      "transferOwnership(address)": {
        "details": "Restricted access function to set smart contract \"owner\"      Note: an \"owner\" set doesn't have any authority, and cannot even update \"owner\"",
        "params": {
          "_owner": "new \"owner\" of the smart contract"
        }
      },
      "upgradeTo(address)": {
        "details": "Upgrade the implementation of the proxy to `newImplementation`. Calls {_authorizeUpgrade}. Emits an {Upgraded} event."
      },
      "upgradeToAndCall(address,bytes)": {
        "details": "Upgrade the implementation of the proxy to `newImplementation`, and subsequently execute the function call encoded in `data`. Calls {_authorizeUpgrade}. Emits an {Upgraded} event."
      },
      "uri(uint256)": {
        "params": {
          "_tokenId": "to get the matadata URI"
        }
      },
      "yieldPerToken(uint256)": {
        "params": {
          "_id": "Token ID"
        }
      }
    },
    "stateVariables": {
      "__gap": {
        "details": "This empty reserved space is put in place to allow future versions to add new variables without shifting down storage in the inheritance chain. See https://docs.openzeppelin.com/contracts/4.x/upgradeable#storage_gaps"
      },
      "_currentId": {
        "details": "Current value shows the next available token ID"
      },
      "_deposits": {
        "details": "mapping (tokenId => Deposit)"
      },
      "burner": {
        "details": "Address of the burner: Can execute burn function"
      },
      "depositor": {
        "details": "Address of the depositor: Can execute deposit function"
      },
      "minter": {
        "details": "Address of the minter: Can execute mint function"
      },
      "yieldBalance": {
        "details": "mapping (tokenId => account => yieldBalance)"
      },
      "yieldCurrency": {
        "details": "Currency used to pay yield"
      },
      "yieldPerTokenClaimed": {
        "details": "mapping (tokenId => account => yieldPerTokenClaimed)"
      }
    },
    "title": "Real Estate NFT",
    "version": 1
  },
  "userdoc": {
    "kind": "user",
    "methods": {
      "approve(uint256,address,uint256)": {
        "notice": "Approve a spender to transfer tokens"
      },
      "claimYield(uint256,address)": {
        "notice": "Claim Yield for a given token ID"
      },
      "contractURI()": {
        "notice": "Contract level metadata to define collection name, description, and royalty fees.         see https://docs.opensea.io/docs/contract-level-metadata"
      },
      "feeDenominator()": {
        "notice": "The denominator of which will be used to calculate the fee (feeNumerator/feeDenominator)"
      },
      "implementation()": {
        "notice": "Get implementation address"
      },
      "isOwner(address)": {
        "notice": "Checks if the address supplied is an \"owner\" of the smart contract      Note: an \"owner\" doesn't have any authority on the smart contract and is \"nominal\""
      },
      "name()": {
        "notice": "Returns the name of the RealEstateERC1155 contract"
      },
      "nextRealEstateId()": {
        "notice": "Returns the ID of the next available reNFT"
      },
      "now128()": {
        "notice": "Current time limited to 128 bits"
      },
      "pendingYield(uint256,address)": {
        "notice": "Get the amount of yield pending for a given token ID and account"
      },
      "symbol()": {
        "notice": "Returns the symbol of the RealEstateERC1155 contract"
      },
      "uri(uint256)": {
        "notice": "Returns the {baseURI} concatenated with {tokenId}"
      },
      "yieldPerToken(uint256)": {
        "notice": "Get current yield per token"
      }
    },
    "notice": "Used to Tokenize and Fractionate Real EstateOnly minter can mint tokens and set token metadataNew tokens should be minted by incrementing the tokenId by 1",
    "version": 1
  },
  "storageLayout": {
    "storage": [
      {
        "astId": 598,
        "contract": "contracts/token/RealEstateERC1155.sol:RealEstateERC1155",
        "label": "_initialized",
        "offset": 0,
        "slot": "0",
        "type": "t_uint8"
      },
      {
        "astId": 601,
        "contract": "contracts/token/RealEstateERC1155.sol:RealEstateERC1155",
        "label": "_initializing",
        "offset": 1,
        "slot": "0",
        "type": "t_bool"
      },
      {
        "astId": 580,
        "contract": "contracts/token/RealEstateERC1155.sol:RealEstateERC1155",
        "label": "__gap",
        "offset": 0,
        "slot": "1",
        "type": "t_array(t_uint256)50_storage"
      },
      {
        "astId": 895,
        "contract": "contracts/token/RealEstateERC1155.sol:RealEstateERC1155",
        "label": "__gap",
        "offset": 0,
        "slot": "51",
        "type": "t_array(t_uint256)50_storage"
      },
      {
        "astId": 3548,
        "contract": "contracts/token/RealEstateERC1155.sol:RealEstateERC1155",
        "label": "__gap",
        "offset": 0,
        "slot": "101",
        "type": "t_array(t_uint256)50_storage"
      },
      {
        "astId": 3901,
        "contract": "contracts/token/RealEstateERC1155.sol:RealEstateERC1155",
        "label": "__gap",
        "offset": 0,
        "slot": "151",
        "type": "t_array(t_uint256)50_storage"
      },
      {
        "astId": 3037,
        "contract": "contracts/token/RealEstateERC1155.sol:RealEstateERC1155",
        "label": "_defaultRoyaltyInfo",
        "offset": 0,
        "slot": "201",
        "type": "t_struct(RoyaltyInfo)3034_storage"
      },
      {
        "astId": 3042,
        "contract": "contracts/token/RealEstateERC1155.sol:RealEstateERC1155",
        "label": "_tokenRoyaltyInfo",
        "offset": 0,
        "slot": "202",
        "type": "t_mapping(t_uint256,t_struct(RoyaltyInfo)3034_storage)"
      },
      {
        "astId": 3222,
        "contract": "contracts/token/RealEstateERC1155.sol:RealEstateERC1155",
        "label": "__gap",
        "offset": 0,
        "slot": "203",
        "type": "t_array(t_uint256)48_storage"
      },
      {
        "astId": 925,
        "contract": "contracts/token/RealEstateERC1155.sol:RealEstateERC1155",
        "label": "_balances",
        "offset": 0,
        "slot": "251",
        "type": "t_mapping(t_uint256,t_mapping(t_address,t_uint256))"
      },
      {
        "astId": 931,
        "contract": "contracts/token/RealEstateERC1155.sol:RealEstateERC1155",
        "label": "_operatorApprovals",
        "offset": 0,
        "slot": "252",
        "type": "t_mapping(t_address,t_mapping(t_address,t_bool))"
      },
      {
        "astId": 933,
        "contract": "contracts/token/RealEstateERC1155.sol:RealEstateERC1155",
        "label": "_uri",
        "offset": 0,
        "slot": "253",
        "type": "t_string_storage"
      },
      {
        "astId": 2140,
        "contract": "contracts/token/RealEstateERC1155.sol:RealEstateERC1155",
        "label": "__gap",
        "offset": 0,
        "slot": "254",
        "type": "t_array(t_uint256)47_storage"
      },
      {
        "astId": 2329,
        "contract": "contracts/token/RealEstateERC1155.sol:RealEstateERC1155",
        "label": "_totalSupply",
        "offset": 0,
        "slot": "301",
        "type": "t_mapping(t_uint256,t_uint256)"
      },
      {
        "astId": 2480,
        "contract": "contracts/token/RealEstateERC1155.sol:RealEstateERC1155",
        "label": "__gap",
        "offset": 0,
        "slot": "302",
        "type": "t_array(t_uint256)49_storage"
      },
      {
        "astId": 15134,
        "contract": "contracts/token/RealEstateERC1155.sol:RealEstateERC1155",
        "label": "baseURI",
        "offset": 0,
        "slot": "351",
        "type": "t_string_storage"
      },
      {
        "astId": 15137,
        "contract": "contracts/token/RealEstateERC1155.sol:RealEstateERC1155",
        "label": "admin",
        "offset": 0,
        "slot": "352",
        "type": "t_address"
      },
      {
        "astId": 15146,
        "contract": "contracts/token/RealEstateERC1155.sol:RealEstateERC1155",
        "label": "_allowances",
        "offset": 0,
        "slot": "353",
        "type": "t_mapping(t_uint256,t_mapping(t_address,t_mapping(t_address,t_uint256)))"
      },
      {
        "astId": 15547,
        "contract": "contracts/token/RealEstateERC1155.sol:RealEstateERC1155",
        "label": "__gap",
        "offset": 0,
        "slot": "354",
        "type": "t_array(t_uint256)47_storage"
      },
      {
        "astId": 14573,
        "contract": "contracts/token/RealEstateERC1155.sol:RealEstateERC1155",
        "label": "owner",
        "offset": 0,
        "slot": "401",
        "type": "t_address"
      },
      {
        "astId": 14576,
        "contract": "contracts/token/RealEstateERC1155.sol:RealEstateERC1155",
        "label": "contractURI",
        "offset": 0,
        "slot": "402",
        "type": "t_string_storage"
      },
      {
        "astId": 14764,
        "contract": "contracts/token/RealEstateERC1155.sol:RealEstateERC1155",
        "label": "__gap",
        "offset": 0,
        "slot": "403",
        "type": "t_array(t_uint256)48_storage"
      },
      {
        "astId": 13338,
        "contract": "contracts/token/RealEstateERC1155.sol:RealEstateERC1155",
        "label": "minter",
        "offset": 0,
        "slot": "451",
        "type": "t_address"
      },
      {
        "astId": 13341,
        "contract": "contracts/token/RealEstateERC1155.sol:RealEstateERC1155",
        "label": "burner",
        "offset": 0,
        "slot": "452",
        "type": "t_address"
      },
      {
        "astId": 13344,
        "contract": "contracts/token/RealEstateERC1155.sol:RealEstateERC1155",
        "label": "depositor",
        "offset": 0,
        "slot": "453",
        "type": "t_address"
      },
      {
        "astId": 13348,
        "contract": "contracts/token/RealEstateERC1155.sol:RealEstateERC1155",
        "label": "_currentId",
        "offset": 0,
        "slot": "454",
        "type": "t_struct(Counter)3555_storage"
      },
      {
        "astId": 13351,
        "contract": "contracts/token/RealEstateERC1155.sol:RealEstateERC1155",
        "label": "yieldCurrency",
        "offset": 0,
        "slot": "455",
        "type": "t_address"
      },
      {
        "astId": 13357,
        "contract": "contracts/token/RealEstateERC1155.sol:RealEstateERC1155",
        "label": "_deposits",
        "offset": 0,
        "slot": "456",
        "type": "t_mapping(t_uint256,t_struct(Deposit)13335_storage)"
      },
      {
        "astId": 13364,
        "contract": "contracts/token/RealEstateERC1155.sol:RealEstateERC1155",
        "label": "yieldPerTokenClaimed",
        "offset": 0,
        "slot": "457",
        "type": "t_mapping(t_uint256,t_mapping(t_address,t_uint256))"
      },
      {
        "astId": 13371,
        "contract": "contracts/token/RealEstateERC1155.sol:RealEstateERC1155",
        "label": "yieldBalance",
        "offset": 0,
        "slot": "458",
        "type": "t_mapping(t_uint256,t_mapping(t_address,t_uint256))"
      },
      {
        "astId": 14213,
        "contract": "contracts/token/RealEstateERC1155.sol:RealEstateERC1155",
        "label": "__gap",
        "offset": 0,
        "slot": "459",
        "type": "t_array(t_uint256)42_storage"
      }
    ],
    "types": {
      "t_address": {
        "encoding": "inplace",
        "label": "address",
        "numberOfBytes": "20"
      },
      "t_array(t_uint256)42_storage": {
        "base": "t_uint256",
        "encoding": "inplace",
        "label": "uint256[42]",
        "numberOfBytes": "1344"
      },
      "t_array(t_uint256)47_storage": {
        "base": "t_uint256",
        "encoding": "inplace",
        "label": "uint256[47]",
        "numberOfBytes": "1504"
      },
      "t_array(t_uint256)48_storage": {
        "base": "t_uint256",
        "encoding": "inplace",
        "label": "uint256[48]",
        "numberOfBytes": "1536"
      },
      "t_array(t_uint256)49_storage": {
        "base": "t_uint256",
        "encoding": "inplace",
        "label": "uint256[49]",
        "numberOfBytes": "1568"
      },
      "t_array(t_uint256)50_storage": {
        "base": "t_uint256",
        "encoding": "inplace",
        "label": "uint256[50]",
        "numberOfBytes": "1600"
      },
      "t_bool": {
        "encoding": "inplace",
        "label": "bool",
        "numberOfBytes": "1"
      },
      "t_mapping(t_address,t_bool)": {
        "encoding": "mapping",
        "key": "t_address",
        "label": "mapping(address => bool)",
        "numberOfBytes": "32",
        "value": "t_bool"
      },
      "t_mapping(t_address,t_mapping(t_address,t_bool))": {
        "encoding": "mapping",
        "key": "t_address",
        "label": "mapping(address => mapping(address => bool))",
        "numberOfBytes": "32",
        "value": "t_mapping(t_address,t_bool)"
      },
      "t_mapping(t_address,t_mapping(t_address,t_uint256))": {
        "encoding": "mapping",
        "key": "t_address",
        "label": "mapping(address => mapping(address => uint256))",
        "numberOfBytes": "32",
        "value": "t_mapping(t_address,t_uint256)"
      },
      "t_mapping(t_address,t_uint256)": {
        "encoding": "mapping",
        "key": "t_address",
        "label": "mapping(address => uint256)",
        "numberOfBytes": "32",
        "value": "t_uint256"
      },
      "t_mapping(t_uint256,t_mapping(t_address,t_mapping(t_address,t_uint256)))": {
        "encoding": "mapping",
        "key": "t_uint256",
        "label": "mapping(uint256 => mapping(address => mapping(address => uint256)))",
        "numberOfBytes": "32",
        "value": "t_mapping(t_address,t_mapping(t_address,t_uint256))"
      },
      "t_mapping(t_uint256,t_mapping(t_address,t_uint256))": {
        "encoding": "mapping",
        "key": "t_uint256",
        "label": "mapping(uint256 => mapping(address => uint256))",
        "numberOfBytes": "32",
        "value": "t_mapping(t_address,t_uint256)"
      },
      "t_mapping(t_uint256,t_struct(Deposit)13335_storage)": {
        "encoding": "mapping",
        "key": "t_uint256",
        "label": "mapping(uint256 => struct RealEstateERC1155.Deposit)",
        "numberOfBytes": "32",
        "value": "t_struct(Deposit)13335_storage"
      },
      "t_mapping(t_uint256,t_struct(RoyaltyInfo)3034_storage)": {
        "encoding": "mapping",
        "key": "t_uint256",
        "label": "mapping(uint256 => struct ERC2981Upgradeable.RoyaltyInfo)",
        "numberOfBytes": "32",
        "value": "t_struct(RoyaltyInfo)3034_storage"
      },
      "t_mapping(t_uint256,t_uint256)": {
        "encoding": "mapping",
        "key": "t_uint256",
        "label": "mapping(uint256 => uint256)",
        "numberOfBytes": "32",
        "value": "t_uint256"
      },
      "t_string_storage": {
        "encoding": "bytes",
        "label": "string",
        "numberOfBytes": "32"
      },
      "t_struct(Counter)3555_storage": {
        "encoding": "inplace",
        "label": "struct CountersUpgradeable.Counter",
        "members": [
          {
            "astId": 3554,
            "contract": "contracts/token/RealEstateERC1155.sol:RealEstateERC1155",
            "label": "_value",
            "offset": 0,
            "slot": "0",
            "type": "t_uint256"
          }
        ],
        "numberOfBytes": "32"
      },
      "t_struct(Deposit)13335_storage": {
        "encoding": "inplace",
        "label": "struct RealEstateERC1155.Deposit",
        "members": [
          {
            "astId": 13328,
            "contract": "contracts/token/RealEstateERC1155.sol:RealEstateERC1155",
            "label": "unlockedAmountPerToken",
            "offset": 0,
            "slot": "0",
            "type": "t_uint256"
          },
          {
            "astId": 13330,
            "contract": "contracts/token/RealEstateERC1155.sol:RealEstateERC1155",
            "label": "lockedAmount",
            "offset": 0,
            "slot": "1",
            "type": "t_uint256"
          },
          {
            "astId": 13332,
            "contract": "contracts/token/RealEstateERC1155.sol:RealEstateERC1155",
            "label": "unlockStart",
            "offset": 0,
            "slot": "2",
            "type": "t_uint128"
          },
          {
            "astId": 13334,
            "contract": "contracts/token/RealEstateERC1155.sol:RealEstateERC1155",
            "label": "unlockEnd",
            "offset": 16,
            "slot": "2",
            "type": "t_uint128"
          }
        ],
        "numberOfBytes": "96"
      },
      "t_struct(RoyaltyInfo)3034_storage": {
        "encoding": "inplace",
        "label": "struct ERC2981Upgradeable.RoyaltyInfo",
        "members": [
          {
            "astId": 3031,
            "contract": "contracts/token/RealEstateERC1155.sol:RealEstateERC1155",
            "label": "receiver",
            "offset": 0,
            "slot": "0",
            "type": "t_address"
          },
          {
            "astId": 3033,
            "contract": "contracts/token/RealEstateERC1155.sol:RealEstateERC1155",
            "label": "royaltyFraction",
            "offset": 20,
            "slot": "0",
            "type": "t_uint96"
          }
        ],
        "numberOfBytes": "32"
      },
      "t_uint128": {
        "encoding": "inplace",
        "label": "uint128",
        "numberOfBytes": "16"
      },
      "t_uint256": {
        "encoding": "inplace",
        "label": "uint256",
        "numberOfBytes": "32"
      },
      "t_uint8": {
        "encoding": "inplace",
        "label": "uint8",
        "numberOfBytes": "1"
      },
      "t_uint96": {
        "encoding": "inplace",
        "label": "uint96",
        "numberOfBytes": "12"
      }
    }
  }
}