{
  "address": "0x38C6C7B9a65Bfe7150FE493a678669a9E5B7652E",
  "abi": [
    {
      "inputs": [
        {
          "internalType": "string",
          "name": "_baseUri",
          "type": "string"
        },
        {
          "internalType": "address",
          "name": "_admin",
          "type": "address"
        },
        {
          "internalType": "address",
          "name": "_owner",
          "type": "address"
        }
      ],
      "stateMutability": "nonpayable",
      "type": "constructor"
    },
    {
      "anonymous": false,
      "inputs": [
        {
          "indexed": true,
          "internalType": "uint256",
          "name": "_id",
          "type": "uint256"
        },
        {
          "indexed": true,
          "internalType": "address",
          "name": "_owner",
          "type": "address"
        },
        {
          "indexed": true,
          "internalType": "address",
          "name": "_spender",
          "type": "address"
        },
        {
          "indexed": false,
          "internalType": "uint256",
          "name": "_amount",
          "type": "uint256"
        }
      ],
      "name": "Approval",
      "type": "event"
    },
    {
      "anonymous": false,
      "inputs": [
        {
          "indexed": true,
          "internalType": "address",
          "name": "account",
          "type": "address"
        },
        {
          "indexed": true,
          "internalType": "address",
          "name": "operator",
          "type": "address"
        },
        {
          "indexed": false,
          "internalType": "bool",
          "name": "approved",
          "type": "bool"
        }
      ],
      "name": "ApprovalForAll",
      "type": "event"
    },
    {
      "anonymous": false,
      "inputs": [
        {
          "indexed": true,
          "internalType": "address",
          "name": "_by",
          "type": "address"
        },
        {
          "indexed": false,
          "internalType": "string",
          "name": "_value",
          "type": "string"
        }
      ],
      "name": "ContractURIUpdated",
      "type": "event"
    },
    {
      "anonymous": false,
      "inputs": [
        {
          "indexed": true,
          "internalType": "address",
          "name": "_admin",
          "type": "address"
        }
      ],
      "name": "NewAdmin",
      "type": "event"
    },
    {
      "anonymous": false,
      "inputs": [
        {
          "indexed": true,
          "internalType": "address",
          "name": "_previousOwner",
          "type": "address"
        },
        {
          "indexed": true,
          "internalType": "address",
          "name": "_newOwner",
          "type": "address"
        }
      ],
      "name": "OwnershipTransferred",
      "type": "event"
    },
    {
      "anonymous": false,
      "inputs": [
        {
          "indexed": true,
          "internalType": "uint256",
          "name": "_id",
          "type": "uint256"
        },
        {
          "indexed": true,
          "internalType": "address",
          "name": "_burner",
          "type": "address"
        },
        {
          "indexed": false,
          "internalType": "uint256",
          "name": "_amount",
          "type": "uint256"
        }
      ],
      "name": "RealEstateNFTBurned",
      "type": "event"
    },
    {
      "anonymous": false,
      "inputs": [
        {
          "indexed": true,
          "internalType": "uint256",
          "name": "_id",
          "type": "uint256"
        },
        {
          "indexed": true,
          "internalType": "address",
          "name": "_minter",
          "type": "address"
        },
        {
          "indexed": true,
          "internalType": "address",
          "name": "_to",
          "type": "address"
        },
        {
          "indexed": false,
          "internalType": "uint256",
          "name": "_amount",
          "type": "uint256"
        }
      ],
      "name": "RealEstateNFTMinted",
      "type": "event"
    },
    {
      "anonymous": false,
      "inputs": [
        {
          "indexed": true,
          "internalType": "address",
          "name": "_by",
          "type": "address"
        },
        {
          "indexed": true,
          "internalType": "address",
          "name": "_burner",
          "type": "address"
        }
      ],
      "name": "SetBurner",
      "type": "event"
    },
    {
      "anonymous": false,
      "inputs": [
        {
          "indexed": true,
          "internalType": "address",
          "name": "_by",
          "type": "address"
        },
        {
          "indexed": true,
          "internalType": "address",
          "name": "_receiver",
          "type": "address"
        },
        {
          "indexed": false,
          "internalType": "uint96",
          "name": "_feeNumerator",
          "type": "uint96"
        }
      ],
      "name": "SetDefaultRoyalties",
      "type": "event"
    },
    {
      "anonymous": false,
      "inputs": [
        {
          "indexed": true,
          "internalType": "address",
          "name": "_by",
          "type": "address"
        },
        {
          "indexed": true,
          "internalType": "address",
          "name": "_minter",
          "type": "address"
        }
      ],
      "name": "SetMinter",
      "type": "event"
    },
    {
      "anonymous": false,
      "inputs": [
        {
          "indexed": true,
          "internalType": "address",
          "name": "_by",
          "type": "address"
        },
        {
          "indexed": true,
          "internalType": "uint256",
          "name": "_tokenId",
          "type": "uint256"
        },
        {
          "indexed": true,
          "internalType": "address",
          "name": "_receiver",
          "type": "address"
        },
        {
          "indexed": false,
          "internalType": "uint96",
          "name": "_feeNumerator",
          "type": "uint96"
        }
      ],
      "name": "SetTokenRoyalty",
      "type": "event"
    },
    {
      "anonymous": false,
      "inputs": [
        {
          "indexed": true,
          "internalType": "address",
          "name": "operator",
          "type": "address"
        },
        {
          "indexed": true,
          "internalType": "address",
          "name": "from",
          "type": "address"
        },
        {
          "indexed": true,
          "internalType": "address",
          "name": "to",
          "type": "address"
        },
        {
          "indexed": false,
          "internalType": "uint256[]",
          "name": "ids",
          "type": "uint256[]"
        },
        {
          "indexed": false,
          "internalType": "uint256[]",
          "name": "values",
          "type": "uint256[]"
        }
      ],
      "name": "TransferBatch",
      "type": "event"
    },
    {
      "anonymous": false,
      "inputs": [
        {
          "indexed": true,
          "internalType": "address",
          "name": "operator",
          "type": "address"
        },
        {
          "indexed": true,
          "internalType": "address",
          "name": "from",
          "type": "address"
        },
        {
          "indexed": true,
          "internalType": "address",
          "name": "to",
          "type": "address"
        },
        {
          "indexed": false,
          "internalType": "uint256",
          "name": "id",
          "type": "uint256"
        },
        {
          "indexed": false,
          "internalType": "uint256",
          "name": "value",
          "type": "uint256"
        }
      ],
      "name": "TransferSingle",
      "type": "event"
    },
    {
      "anonymous": false,
      "inputs": [
        {
          "indexed": false,
          "internalType": "string",
          "name": "value",
          "type": "string"
        },
        {
          "indexed": true,
          "internalType": "uint256",
          "name": "id",
          "type": "uint256"
        }
      ],
      "name": "URI",
      "type": "event"
    },
    {
      "inputs": [],
      "name": "admin",
      "outputs": [
        {
          "internalType": "address",
          "name": "",
          "type": "address"
        }
      ],
      "stateMutability": "view",
      "type": "function"
    },
    {
      "inputs": [
        {
          "internalType": "uint256",
          "name": "_tokenId",
          "type": "uint256"
        },
        {
          "internalType": "address",
          "name": "_spender",
          "type": "address"
        },
        {
          "internalType": "uint256",
          "name": "_amount",
          "type": "uint256"
        }
      ],
      "name": "approve",
      "outputs": [
        {
          "internalType": "bool",
          "name": "",
          "type": "bool"
        }
      ],
      "stateMutability": "nonpayable",
      "type": "function"
    },
    {
      "inputs": [
        {
          "internalType": "address",
          "name": "account",
          "type": "address"
        },
        {
          "internalType": "uint256",
          "name": "id",
          "type": "uint256"
        }
      ],
      "name": "balanceOf",
      "outputs": [
        {
          "internalType": "uint256",
          "name": "",
          "type": "uint256"
        }
      ],
      "stateMutability": "view",
      "type": "function"
    },
    {
      "inputs": [
        {
          "internalType": "address[]",
          "name": "accounts",
          "type": "address[]"
        },
        {
          "internalType": "uint256[]",
          "name": "ids",
          "type": "uint256[]"
        }
      ],
      "name": "balanceOfBatch",
      "outputs": [
        {
          "internalType": "uint256[]",
          "name": "",
          "type": "uint256[]"
        }
      ],
      "stateMutability": "view",
      "type": "function"
    },
    {
      "inputs": [
        {
          "internalType": "uint256",
          "name": "_id",
          "type": "uint256"
        },
        {
          "internalType": "uint256",
          "name": "_amount",
          "type": "uint256"
        }
      ],
      "name": "burn",
      "outputs": [],
      "stateMutability": "nonpayable",
      "type": "function"
    },
    {
      "inputs": [],
      "name": "burner",
      "outputs": [
        {
          "internalType": "address",
          "name": "",
          "type": "address"
        }
      ],
      "stateMutability": "view",
      "type": "function"
    },
    {
      "inputs": [],
      "name": "contractURI",
      "outputs": [
        {
          "internalType": "string",
          "name": "",
          "type": "string"
        }
      ],
      "stateMutability": "view",
      "type": "function"
    },
    {
      "inputs": [
        {
          "internalType": "uint256",
          "name": "id",
          "type": "uint256"
        }
      ],
      "name": "exists",
      "outputs": [
        {
          "internalType": "bool",
          "name": "",
          "type": "bool"
        }
      ],
      "stateMutability": "view",
      "type": "function"
    },
    {
      "inputs": [],
      "name": "feeDenominator",
      "outputs": [
        {
          "internalType": "uint256",
          "name": "",
          "type": "uint256"
        }
      ],
      "stateMutability": "pure",
      "type": "function"
    },
    {
      "inputs": [
        {
          "internalType": "address",
          "name": "account",
          "type": "address"
        },
        {
          "internalType": "address",
          "name": "operator",
          "type": "address"
        }
      ],
      "name": "isApprovedForAll",
      "outputs": [
        {
          "internalType": "bool",
          "name": "",
          "type": "bool"
        }
      ],
      "stateMutability": "view",
      "type": "function"
    },
    {
      "inputs": [
        {
          "internalType": "address",
          "name": "_addr",
          "type": "address"
        }
      ],
      "name": "isOwner",
      "outputs": [
        {
          "internalType": "bool",
          "name": "",
          "type": "bool"
        }
      ],
      "stateMutability": "view",
      "type": "function"
    },
    {
      "inputs": [
        {
          "internalType": "uint256",
          "name": "_id",
          "type": "uint256"
        },
        {
          "internalType": "address",
          "name": "_to",
          "type": "address"
        },
        {
          "internalType": "uint256",
          "name": "_amount",
          "type": "uint256"
        }
      ],
      "name": "mint",
      "outputs": [],
      "stateMutability": "nonpayable",
      "type": "function"
    },
    {
      "inputs": [],
      "name": "minter",
      "outputs": [
        {
          "internalType": "address",
          "name": "",
          "type": "address"
        }
      ],
      "stateMutability": "view",
      "type": "function"
    },
    {
      "inputs": [],
      "name": "name",
      "outputs": [
        {
          "internalType": "string",
          "name": "",
          "type": "string"
        }
      ],
      "stateMutability": "pure",
      "type": "function"
    },
    {
      "inputs": [],
      "name": "nextRealEstateId",
      "outputs": [
        {
          "internalType": "uint256",
          "name": "",
          "type": "uint256"
        }
      ],
      "stateMutability": "view",
      "type": "function"
    },
    {
      "inputs": [],
      "name": "owner",
      "outputs": [
        {
          "internalType": "address",
          "name": "",
          "type": "address"
        }
      ],
      "stateMutability": "view",
      "type": "function"
    },
    {
      "inputs": [
        {
          "internalType": "uint256",
          "name": "_tokenId",
          "type": "uint256"
        },
        {
          "internalType": "uint256",
          "name": "_salePrice",
          "type": "uint256"
        }
      ],
      "name": "royaltyInfo",
      "outputs": [
        {
          "internalType": "address",
          "name": "",
          "type": "address"
        },
        {
          "internalType": "uint256",
          "name": "",
          "type": "uint256"
        }
      ],
      "stateMutability": "view",
      "type": "function"
    },
    {
      "inputs": [
        {
          "internalType": "address",
          "name": "_from",
          "type": "address"
        },
        {
          "internalType": "address",
          "name": "_to",
          "type": "address"
        },
        {
          "internalType": "uint256[]",
          "name": "_ids",
          "type": "uint256[]"
        },
        {
          "internalType": "uint256[]",
          "name": "_amounts",
          "type": "uint256[]"
        },
        {
          "internalType": "bytes",
          "name": "_data",
          "type": "bytes"
        }
      ],
      "name": "safeBatchTransferFrom",
      "outputs": [],
      "stateMutability": "nonpayable",
      "type": "function"
    },
    {
      "inputs": [
        {
          "internalType": "address",
          "name": "_from",
          "type": "address"
        },
        {
          "internalType": "address",
          "name": "_to",
          "type": "address"
        },
        {
          "internalType": "uint256",
          "name": "_id",
          "type": "uint256"
        },
        {
          "internalType": "uint256",
          "name": "_amount",
          "type": "uint256"
        },
        {
          "internalType": "bytes",
          "name": "_data",
          "type": "bytes"
        }
      ],
      "name": "safeTransferFrom",
      "outputs": [],
      "stateMutability": "nonpayable",
      "type": "function"
    },
    {
      "inputs": [
        {
          "internalType": "address",
          "name": "_admin",
          "type": "address"
        }
      ],
      "name": "setAdmin",
      "outputs": [],
      "stateMutability": "nonpayable",
      "type": "function"
    },
    {
      "inputs": [
        {
          "internalType": "address",
          "name": "operator",
          "type": "address"
        },
        {
          "internalType": "bool",
          "name": "approved",
          "type": "bool"
        }
      ],
      "name": "setApprovalForAll",
      "outputs": [],
      "stateMutability": "nonpayable",
      "type": "function"
    },
    {
      "inputs": [
        {
          "internalType": "string",
          "name": "_baseURI",
          "type": "string"
        }
      ],
      "name": "setBaseURI",
      "outputs": [],
      "stateMutability": "nonpayable",
      "type": "function"
    },
    {
      "inputs": [
        {
          "internalType": "address",
          "name": "_burner",
          "type": "address"
        }
      ],
      "name": "setBurner",
      "outputs": [],
      "stateMutability": "nonpayable",
      "type": "function"
    },
    {
      "inputs": [
        {
          "internalType": "string",
          "name": "_contractURI",
          "type": "string"
        }
      ],
      "name": "setContractURI",
      "outputs": [],
      "stateMutability": "nonpayable",
      "type": "function"
    },
    {
      "inputs": [
        {
          "internalType": "address",
          "name": "_receiver",
          "type": "address"
        },
        {
          "internalType": "uint96",
          "name": "_feeNumerator",
          "type": "uint96"
        }
      ],
      "name": "setDefaultRoyalty",
      "outputs": [],
      "stateMutability": "nonpayable",
      "type": "function"
    },
    {
      "inputs": [
        {
          "internalType": "address",
          "name": "_minter",
          "type": "address"
        }
      ],
      "name": "setMinter",
      "outputs": [],
      "stateMutability": "nonpayable",
      "type": "function"
    },
    {
      "inputs": [
        {
          "internalType": "uint256",
          "name": "_tokenId",
          "type": "uint256"
        },
        {
          "internalType": "address",
          "name": "_receiver",
          "type": "address"
        },
        {
          "internalType": "uint96",
          "name": "_feeNumerator",
          "type": "uint96"
        }
      ],
      "name": "setTokenRoyalty",
      "outputs": [],
      "stateMutability": "nonpayable",
      "type": "function"
    },
    {
      "inputs": [
        {
          "internalType": "uint256",
          "name": "_tokenId",
          "type": "uint256"
        },
        {
          "internalType": "string",
          "name": "_tokenURI",
          "type": "string"
        }
      ],
      "name": "setURI",
      "outputs": [],
      "stateMutability": "nonpayable",
      "type": "function"
    },
    {
      "inputs": [
        {
          "internalType": "bytes4",
          "name": "interfaceId",
          "type": "bytes4"
        }
      ],
      "name": "supportsInterface",
      "outputs": [
        {
          "internalType": "bool",
          "name": "",
          "type": "bool"
        }
      ],
      "stateMutability": "view",
      "type": "function"
    },
    {
      "inputs": [],
      "name": "symbol",
      "outputs": [
        {
          "internalType": "string",
          "name": "",
          "type": "string"
        }
      ],
      "stateMutability": "pure",
      "type": "function"
    },
    {
      "inputs": [
        {
          "internalType": "uint256",
          "name": "id",
          "type": "uint256"
        }
      ],
      "name": "totalSupply",
      "outputs": [
        {
          "internalType": "uint256",
          "name": "",
          "type": "uint256"
        }
      ],
      "stateMutability": "view",
      "type": "function"
    },
    {
      "inputs": [
        {
          "internalType": "address",
          "name": "_owner",
          "type": "address"
        }
      ],
      "name": "transferOwnership",
      "outputs": [],
      "stateMutability": "nonpayable",
      "type": "function"
    },
    {
      "inputs": [
        {
          "internalType": "uint256",
          "name": "_tokenId",
          "type": "uint256"
        }
      ],
      "name": "uri",
      "outputs": [
        {
          "internalType": "string",
          "name": "",
          "type": "string"
        }
      ],
      "stateMutability": "view",
      "type": "function"
    }
  ],
  "transactionHash": "0x9641afd21affe4991df9249e41d0d7d8e813758e83438c19b3f8c245cd4471c8",
  "args": [
    "",
    "0x63926E60619172FE58870BCeb057b3B437Fa62FC",
    "0x39a242169BA3B28623E6d235A4Bdd46287d4bae3"
  ],
  "numDeployments": 1,
  "solcInputHash": "d86ac72f8f03877c22e5a846df595be7",
  "bytecode": "0x60a0604052600060809081526005906200001a9082620001c2565b503480156200002857600080fd5b50604051620030e7380380620030e78339810160408190526200004b91620002ab565b828282826200005a81620000b9565b506200006681620000cb565b600a80546001600160a01b0319166001600160a01b0384169081179091556040517f71614071b88dee5e0b2ae578a9dd7b2ebbe9ae832ba419dc0242cd065a290b6c90600090a2505050505050620003a5565b6004620000c78282620001c2565b5050565b600980546001600160a01b038381166001600160a01b0319831681179093556040519116919082907f8be0079c531659141344cd1fd0a4f28419497f9722a3daafe3b4186f6b6457e090600090a35050565b634e487b7160e01b600052604160045260246000fd5b600181811c908216806200014857607f821691505b6020821081036200016957634e487b7160e01b600052602260045260246000fd5b50919050565b601f821115620001bd57600081815260208120601f850160051c81016020861015620001985750805b601f850160051c820191505b81811015620001b957828155600101620001a4565b5050505b505050565b81516001600160401b03811115620001de57620001de6200011d565b620001f681620001ef845462000133565b846200016f565b602080601f8311600181146200022e5760008415620002155750858301515b600019600386901b1c1916600185901b178555620001b9565b600085815260208120601f198616915b828110156200025f578886015182559484019460019091019084016200023e565b50858210156200027e5787850151600019600388901b60f8161c191681555b5050505050600190811b01905550565b80516001600160a01b0381168114620002a657600080fd5b919050565b600080600060608486031215620002c157600080fd5b83516001600160401b0380821115620002d957600080fd5b818601915086601f830112620002ee57600080fd5b8151818111156200030357620003036200011d565b604051601f8201601f19908116603f011681019083821181831017156200032e576200032e6200011d565b816040528281526020935089848487010111156200034b57600080fd5b600091505b828210156200036f578482018401518183018501529083019062000350565b60008484830101528097505050506200038a8187016200028e565b935050506200039c604085016200028e565b90509250925092565b612d3280620003b56000396000f3fe608060405234801561001057600080fd5b50600436106101fa5760003560e01c8063704b6c021161011a578063a996d6ce116100ad578063e985e9c51161007c578063e985e9c5146104b5578063f242432a146104f1578063f2fde38b14610504578063f851a44014610517578063fca3b5aa1461052a57600080fd5b8063a996d6ce14610467578063b390c0ab1461047a578063bd85b0391461048d578063e8a3d485146104ad57600080fd5b80638da5cb5b116100e95780638da5cb5b1461040d578063938e3d7b1461042057806395d89b4114610433578063a22cb4651461045457600080fd5b8063704b6c02146103c1578063836a1040146103d4578063862440e2146103e75780638cb0a511146103fa57600080fd5b806327810b6e116101925780634e1273f4116101615780634e1273f4146103595780634f558e791461037957806355f804b31461039b5780635944c753146103ae57600080fd5b806327810b6e146102df5780632a55205a146102f25780632eb2c2d6146103245780632f54bf6e1461033757600080fd5b806307546172116101ce57806307546172146102915780630e89341c146102bc5780631579c133146102cf578063180b0d7e146102d757600080fd5b8062fdd58e146101ff57806301ffc9a71461022557806304634d8d1461024857806306fdde031461025d575b600080fd5b61021261020d366004612192565b61053d565b6040519081526020015b60405180910390f35b6102386102333660046121d2565b6105d8565b604051901515815260200161021c565b61025b610256366004612206565b61060c565b005b60408051808201909152600f81526e1499585b08115cdd185d1948139195608a1b60208201525b60405161021c9190612289565b600c546102a4906001600160a01b031681565b6040516001600160a01b03909116815260200161021c565b6102846102ca36600461229c565b61068e565b610212610699565b612710610212565b600d546102a4906001600160a01b031681565b6103056103003660046122b5565b6106a9565b604080516001600160a01b03909316835260208301919091520161021c565b61025b610332366004612423565b610755565b6102386103453660046124cd565b6009546001600160a01b0391821691161490565b61036c6103673660046124e8565b610927565b60405161021c91906125ee565b61023861038736600461229c565b600090815260076020526040902054151590565b61025b6103a9366004612601565b610a51565b61025b6103bc36600461263e565b610a87565b61025b6103cf3660046124cd565b610b0d565b61025b6103e236600461267a565b610bd0565b61025b6103f53660046126af565b610d08565b61023861040836600461267a565b610d40565b6009546102a4906001600160a01b031681565b61025b61042e366004612601565b610d5a565b6040805180820190915260058152641c9953919560da1b6020820152610284565b61025b6104623660046126ec565b610dd5565b61025b6104753660046124cd565b610de0565b61025b6104883660046122b5565b610ea1565b61021261049b36600461229c565b60009081526007602052604090205490565b610284610f2d565b6102386104c3366004612728565b6001600160a01b03918216600090815260036020908152604080832093909416825291909152205460ff1690565b61025b6104ff366004612752565b610fbb565b61025b6105123660046124cd565b611098565b600a546102a4906001600160a01b031681565b61025b6105383660046124cd565b6110cb565b60006001600160a01b0383166105ad5760405162461bcd60e51b815260206004820152602a60248201527f455243313135353a2061646472657373207a65726f206973206e6f742061207660448201526930b634b21037bbb732b960b11b60648201526084015b60405180910390fd5b5060008181526002602090815260408083206001600160a01b03861684529091529020545b92915050565b60006001600160e01b0319821663152a902d60e11b14806105fd57506105fd8261118c565b806105d257506105d2826111c7565b600a546001600160a01b031633146106365760405162461bcd60e51b81526004016105a4906127b7565b61064082826111fc565b6040516001600160601b03821681526001600160a01b0383169033907f88a2d4bd6249f327d8b3cf28358e7d2bfe4a9701adcad78dfd54f27f2bb4d709906020015b60405180910390a35050565b60606105d2826112b6565b60006106a4600e5490565b905090565b60008281526001602090815260408083208151808301909252546001600160a01b038116808352600160a01b9091046001600160601b031692820192909252829161071e5750604080518082019091526000546001600160a01b0381168252600160a01b90046001600160601b031660208201525b60208101516000906127109061073d906001600160601b0316876127ed565b6107479190612804565b915196919550909350505050565b6001600160a01b0385163314801590610775575061077385336104c3565b155b156109135760005b83518110156109115782818151811061079857610798612826565b6020026020010151600860008684815181106107b6576107b6612826565b602002602001015181526020019081526020016000206000886001600160a01b03166001600160a01b0316815260200190815260200160002060006107f83390565b6001600160a01b03166001600160a01b031681526020019081526020016000205410156108585760405162461bcd60e51b815260206004820152600e60248201526d139bdd08185d5d1a1bdc9a5e995960921b60448201526064016105a4565b82818151811061086a5761086a612826565b60200260200101516008600086848151811061088857610888612826565b602002602001015181526020019081526020016000206000886001600160a01b03166001600160a01b0316815260200190815260200160002060006108ca3390565b6001600160a01b03166001600160a01b0316815260200190815260200160002060008282546108f9919061283c565b909155508190506109098161284f565b91505061077d565b505b6109208585858585611396565b5050505050565b6060815183511461098c5760405162461bcd60e51b815260206004820152602960248201527f455243313135353a206163636f756e747320616e6420696473206c656e677468604482015268040dad2e6dac2e8c6d60bb1b60648201526084016105a4565b6000835167ffffffffffffffff8111156109a8576109a86122d7565b6040519080825280602002602001820160405280156109d1578160200160208202803683370190505b50905060005b8451811015610a4957610a1c8582815181106109f5576109f5612826565b6020026020010151858381518110610a0f57610a0f612826565b602002602001015161053d565b828281518110610a2e57610a2e612826565b6020908102919091010152610a428161284f565b90506109d7565b509392505050565b600a546001600160a01b03163314610a7b5760405162461bcd60e51b81526004016105a4906127b7565b610a8481611584565b50565b600a546001600160a01b03163314610ab15760405162461bcd60e51b81526004016105a4906127b7565b610abc838383611590565b6040516001600160601b03821681526001600160a01b03831690849033907f367d8e97df7923e8e2a3c37798fce0d36df7027840432cbeb96cf571afa50280906020015b60405180910390a4505050565b600a546001600160a01b03163314610b375760405162461bcd60e51b81526004016105a4906127b7565b600a546001600160a01b03808316911603610b865760405162461bcd60e51b815260206004820152600f60248201526e30b236b4b7101e9e902fb0b236b4b760891b60448201526064016105a4565b600a80546001600160a01b0319166001600160a01b0383169081179091556040517f71614071b88dee5e0b2ae578a9dd7b2ebbe9ae832ba419dc0242cd065a290b6c90600090a250565b600c546001600160a01b0316336001600160a01b031614610c1d5760405162461bcd60e51b815260206004820152600760248201526610b6b4b73a32b960c91b60448201526064016105a4565b600083815260076020526040902054600003610ca757821580610c4d57506000610c4b61049b60018661283c565b115b610c995760405162461bcd60e51b815260206004820152601860248201527f4944732073686f756c642062652073657175656e7469616c000000000000000060448201526064016105a4565b610ca7600e80546001019055565b610cc28284836040518060200160405280600081525061165b565b6001600160a01b038216336001600160a01b0316847fd221ed6d0b64f2e9f972fbc48b2ce5210f880f75f0cd09111b73eca6937827eb84604051610b0091815260200190565b600a546001600160a01b03163314610d325760405162461bcd60e51b81526004016105a4906127b7565b610d3c8282611780565b5050565b600033610d4f858286866117dd565b506001949350505050565b600a546001600160a01b03163314610d845760405162461bcd60e51b81526004016105a4906127b7565b600b610d9082826128ed565b50336001600160a01b03167f1ca91f64ead03abb06ea28975dfbf18044ac06f9fa1cb62a54ccc905df1028ed82604051610dca9190612289565b60405180910390a250565b610d3c3383836118f8565b600a546001600160a01b03163314610e0a5760405162461bcd60e51b81526004016105a4906127b7565b600d546001600160a01b03808316911603610e555760405162461bcd60e51b815260206004820152600b60248201526a29b0b6b290313ab93732b960a91b60448201526064016105a4565b600d80546001600160a01b0319166001600160a01b03831690811790915560405133907f0258795f167353770fc90e124d23e59bea1e1a7005a96e27c9bcadedf7775f7190600090a350565b600d546001600160a01b0316336001600160a01b031614610eee5760405162461bcd60e51b815260206004820152600760248201526610b13ab93732b960c91b60448201526064016105a4565b610ef93383836119d8565b604051818152339083907ff0b3d7246d5788c3201f9da8a6cfcc9377e1864279750d9c959b87a6660f81cd90602001610682565b600b8054610f3a90612868565b80601f0160208091040260200160405190810160405280929190818152602001828054610f6690612868565b8015610fb35780601f10610f8857610100808354040283529160200191610fb3565b820191906000526020600020905b815481529060010190602001808311610f9657829003601f168201915b505050505081565b6001600160a01b0385163314801590610fdb5750610fd985336104c3565b155b1561108b5760008381526008602090815260408083206001600160a01b0389168452825280832033845290915290205482111561104b5760405162461bcd60e51b815260206004820152600e60248201526d139bdd08185d5d1a1bdc9a5e995960921b60448201526064016105a4565b60008381526008602090815260408083206001600160a01b038916845282528083203384529091528120805484929061108590849061283c565b90915550505b6109208585858585611b6c565b600a546001600160a01b031633146110c25760405162461bcd60e51b81526004016105a4906127b7565b610a8481611ca8565b600a546001600160a01b031633146110f55760405162461bcd60e51b81526004016105a4906127b7565b600c546001600160a01b038083169116036111405760405162461bcd60e51b815260206004820152600b60248201526a29b0b6b29036b4b73a32b960a91b60448201526064016105a4565b600c80546001600160a01b0319166001600160a01b03831690811790915560405133907fe490d3138e32f1f66ef3971a3c73c7f7704ba0c1d1000f1e2c3df6fc0376610b90600090a350565b60006001600160e01b03198216636cdb3d1360e11b14806105fd57506001600160e01b031982166303a24d0760e21b14806105d257506105d2825b60006001600160e01b0319821663152a902d60e11b14806105d257506301ffc9a760e01b6001600160e01b03198316146105d2565b6127106001600160601b03821611156112275760405162461bcd60e51b81526004016105a4906129ad565b6001600160a01b03821661127d5760405162461bcd60e51b815260206004820152601960248201527f455243323938313a20696e76616c69642072656365697665720000000000000060448201526064016105a4565b604080518082019091526001600160a01b039092168083526001600160601b039091166020909201829052600160a01b90910217600055565b6000818152600660205260408120805460609291906112d490612868565b80601f016020809104026020016040519081016040528092919081815260200182805461130090612868565b801561134d5780601f106113225761010080835404028352916020019161134d565b820191906000526020600020905b81548152906001019060200180831161133057829003601f168201915b50505050509050600081511161136b5761136683611cfa565b61138f565b60058160405160200161137f9291906129f7565b6040516020818303038152906040525b9392505050565b81518351146113f85760405162461bcd60e51b815260206004820152602860248201527f455243313135353a2069647320616e6420616d6f756e7473206c656e677468206044820152670dad2e6dac2e8c6d60c31b60648201526084016105a4565b6001600160a01b03841661141e5760405162461bcd60e51b81526004016105a490612a7e565b3361142d818787878787611d8e565b60005b845181101561151657600085828151811061144d5761144d612826565b60200260200101519050600085838151811061146b5761146b612826565b60209081029190910181015160008481526002835260408082206001600160a01b038e1683529093529190912054909150818110156114bc5760405162461bcd60e51b81526004016105a490612ac3565b60008381526002602090815260408083206001600160a01b038e8116855292528083208585039055908b168252812080548492906114fb908490612b0d565b925050819055505050508061150f9061284f565b9050611430565b50846001600160a01b0316866001600160a01b0316826001600160a01b03167f4a39dc06d4c0dbc64b70af90fd698a233a518aa5d07e595d983b8c0526c8f7fb8787604051611566929190612b20565b60405180910390a461157c818787878787611d9c565b505050505050565b6005610d3c82826128ed565b6127106001600160601b03821611156115bb5760405162461bcd60e51b81526004016105a4906129ad565b6001600160a01b0382166116115760405162461bcd60e51b815260206004820152601b60248201527f455243323938313a20496e76616c696420706172616d6574657273000000000060448201526064016105a4565b6040805180820182526001600160a01b0393841681526001600160601b0392831660208083019182526000968752600190529190942093519051909116600160a01b029116179055565b6001600160a01b0384166116bb5760405162461bcd60e51b815260206004820152602160248201527f455243313135353a206d696e7420746f20746865207a65726f206164647265736044820152607360f81b60648201526084016105a4565b3360006116c785611ef7565b905060006116d485611ef7565b90506116e583600089858589611d8e565b60008681526002602090815260408083206001600160a01b038b16845290915281208054879290611717908490612b0d565b909155505060408051878152602081018790526001600160a01b03808a1692600092918716917fc3d58168c5ae7397731d063d5bbf3d657854427343f4c083240f7aacaa2d0f62910160405180910390a461177783600089898989611f42565b50505050505050565b600082815260066020526040902061179882826128ed565b50817f6bb7ff708619ba0610cba295a58592e0451dee2622938c8755667688daf3529b6117c48461068e565b6040516117d19190612289565b60405180910390a25050565b6001600160a01b0383166118335760405162461bcd60e51b815260206004820152601d60248201527f417070726f76652066726f6d20746865207a65726f206164647265737300000060448201526064016105a4565b6001600160a01b0382166118895760405162461bcd60e51b815260206004820152601b60248201527f417070726f766520746f20746865207a65726f2061646472657373000000000060448201526064016105a4565b60008481526008602090815260408083206001600160a01b03878116808652918452828520908716808652908452938290208590559051848152909187917f69e4aaf23f9318cf40839ac20453d8fbedaac2955eb08a27ae5189cc71925716910160405180910390a450505050565b816001600160a01b0316836001600160a01b03160361196b5760405162461bcd60e51b815260206004820152602960248201527f455243313135353a2073657474696e6720617070726f76616c20737461747573604482015268103337b91039b2b63360b91b60648201526084016105a4565b6001600160a01b03838116600081815260036020908152604080832094871680845294825291829020805460ff191686151590811790915591519182527f17307eab39ab6107e8899845ad3d59bd9653f200f220920489ca2b5937696c31910160405180910390a3505050565b6001600160a01b038316611a3a5760405162461bcd60e51b815260206004820152602360248201527f455243313135353a206275726e2066726f6d20746865207a65726f206164647260448201526265737360e81b60648201526084016105a4565b336000611a4684611ef7565b90506000611a5384611ef7565b9050611a7383876000858560405180602001604052806000815250611d8e565b60008581526002602090815260408083206001600160a01b038a16845290915290205484811015611af25760405162461bcd60e51b8152602060048201526024808201527f455243313135353a206275726e20616d6f756e7420657863656564732062616c604482015263616e636560e01b60648201526084016105a4565b60008681526002602090815260408083206001600160a01b038b81168086529184528285208a8703905582518b81529384018a90529092908816917fc3d58168c5ae7397731d063d5bbf3d657854427343f4c083240f7aacaa2d0f62910160405180910390a4604080516020810190915260009052611777565b6001600160a01b038416611b925760405162461bcd60e51b81526004016105a490612a7e565b336000611b9e85611ef7565b90506000611bab85611ef7565b9050611bbb838989858589611d8e565b60008681526002602090815260408083206001600160a01b038c16845290915290205485811015611bfe5760405162461bcd60e51b81526004016105a490612ac3565b60008781526002602090815260408083206001600160a01b038d8116855292528083208985039055908a16825281208054889290611c3d908490612b0d565b909155505060408051888152602081018890526001600160a01b03808b16928c821692918816917fc3d58168c5ae7397731d063d5bbf3d657854427343f4c083240f7aacaa2d0f62910160405180910390a4611c9d848a8a8a8a8a611f42565b505050505050505050565b600980546001600160a01b038381166001600160a01b0319831681179093556040519116919082907f8be0079c531659141344cd1fd0a4f28419497f9722a3daafe3b4186f6b6457e090600090a35050565b606060048054611d0990612868565b80601f0160208091040260200160405190810160405280929190818152602001828054611d3590612868565b8015611d825780601f10611d5757610100808354040283529160200191611d82565b820191906000526020600020905b815481529060010190602001808311611d6557829003601f168201915b50505050509050919050565b61157c868686868686611ffd565b6001600160a01b0384163b1561157c5760405163bc197c8160e01b81526001600160a01b0385169063bc197c8190611de09089908990889088908890600401612b4e565b6020604051808303816000875af1925050508015611e1b575060408051601f3d908101601f19168201909252611e1891810190612bac565b60015b611ec757611e27612bc9565b806308c379a003611e605750611e3b612be5565b80611e465750611e62565b8060405162461bcd60e51b81526004016105a49190612289565b505b60405162461bcd60e51b815260206004820152603460248201527f455243313135353a207472616e7366657220746f206e6f6e2d455243313135356044820152732932b1b2b4bb32b91034b6b83632b6b2b73a32b960611b60648201526084016105a4565b6001600160e01b0319811663bc197c8160e01b146117775760405162461bcd60e51b81526004016105a490612c6f565b60408051600180825281830190925260609160009190602080830190803683370190505090508281600081518110611f3157611f31612826565b602090810291909101015292915050565b6001600160a01b0384163b1561157c5760405163f23a6e6160e01b81526001600160a01b0385169063f23a6e6190611f869089908990889088908890600401612cb7565b6020604051808303816000875af1925050508015611fc1575060408051601f3d908101601f19168201909252611fbe91810190612bac565b60015b611fcd57611e27612bc9565b6001600160e01b0319811663f23a6e6160e01b146117775760405162461bcd60e51b81526004016105a490612c6f565b6001600160a01b0385166120845760005b83518110156120825782818151811061202957612029612826565b60200260200101516007600086848151811061204757612047612826565b60200260200101518152602001908152602001600020600082825461206c9190612b0d565b9091555061207b90508161284f565b905061200e565b505b6001600160a01b03841661157c5760005b83518110156117775760008482815181106120b2576120b2612826565b6020026020010151905060008483815181106120d0576120d0612826565b60200260200101519050600060076000848152602001908152602001600020549050818110156121535760405162461bcd60e51b815260206004820152602860248201527f455243313135353a206275726e20616d6f756e74206578636565647320746f74604482015267616c537570706c7960c01b60648201526084016105a4565b6000928352600760205260409092209103905561216f8161284f565b9050612095565b80356001600160a01b038116811461218d57600080fd5b919050565b600080604083850312156121a557600080fd5b6121ae83612176565b946020939093013593505050565b6001600160e01b031981168114610a8457600080fd5b6000602082840312156121e457600080fd5b813561138f816121bc565b80356001600160601b038116811461218d57600080fd5b6000806040838503121561221957600080fd5b61222283612176565b9150612230602084016121ef565b90509250929050565b60005b8381101561225457818101518382015260200161223c565b50506000910152565b60008151808452612275816020860160208601612239565b601f01601f19169290920160200192915050565b60208152600061138f602083018461225d565b6000602082840312156122ae57600080fd5b5035919050565b600080604083850312156122c857600080fd5b50508035926020909101359150565b634e487b7160e01b600052604160045260246000fd5b601f8201601f1916810167ffffffffffffffff81118282101715612313576123136122d7565b6040525050565b600067ffffffffffffffff821115612334576123346122d7565b5060051b60200190565b600082601f83011261234f57600080fd5b8135602061235c8261231a565b60405161236982826122ed565b83815260059390931b850182019282810191508684111561238957600080fd5b8286015b848110156123a4578035835291830191830161238d565b509695505050505050565b600082601f8301126123c057600080fd5b813567ffffffffffffffff8111156123da576123da6122d7565b6040516123f1601f8301601f1916602001826122ed565b81815284602083860101111561240657600080fd5b816020850160208301376000918101602001919091529392505050565b600080600080600060a0868803121561243b57600080fd5b61244486612176565b945061245260208701612176565b9350604086013567ffffffffffffffff8082111561246f57600080fd5b61247b89838a0161233e565b9450606088013591508082111561249157600080fd5b61249d89838a0161233e565b935060808801359150808211156124b357600080fd5b506124c0888289016123af565b9150509295509295909350565b6000602082840312156124df57600080fd5b61138f82612176565b600080604083850312156124fb57600080fd5b823567ffffffffffffffff8082111561251357600080fd5b818501915085601f83011261252757600080fd5b813560206125348261231a565b60405161254182826122ed565b83815260059390931b850182019282810191508984111561256157600080fd5b948201945b838610156125865761257786612176565b82529482019490820190612566565b9650508601359250508082111561259c57600080fd5b506125a98582860161233e565b9150509250929050565b600081518084526020808501945080840160005b838110156125e3578151875295820195908201906001016125c7565b509495945050505050565b60208152600061138f60208301846125b3565b60006020828403121561261357600080fd5b813567ffffffffffffffff81111561262a57600080fd5b612636848285016123af565b949350505050565b60008060006060848603121561265357600080fd5b8335925061266360208501612176565b9150612671604085016121ef565b90509250925092565b60008060006060848603121561268f57600080fd5b8335925061269f60208501612176565b9150604084013590509250925092565b600080604083850312156126c257600080fd5b82359150602083013567ffffffffffffffff8111156126e057600080fd5b6125a9858286016123af565b600080604083850312156126ff57600080fd5b61270883612176565b91506020830135801515811461271d57600080fd5b809150509250929050565b6000806040838503121561273b57600080fd5b61274483612176565b915061223060208401612176565b600080600080600060a0868803121561276a57600080fd5b61277386612176565b945061278160208701612176565b93506040860135925060608601359150608086013567ffffffffffffffff8111156127ab57600080fd5b6124c0888289016123af565b60208082526006908201526510b0b236b4b760d11b604082015260600190565b634e487b7160e01b600052601160045260246000fd5b80820281158282048414176105d2576105d26127d7565b60008261282157634e487b7160e01b600052601260045260246000fd5b500490565b634e487b7160e01b600052603260045260246000fd5b818103818111156105d2576105d26127d7565b600060018201612861576128616127d7565b5060010190565b600181811c9082168061287c57607f821691505b60208210810361289c57634e487b7160e01b600052602260045260246000fd5b50919050565b601f8211156128e857600081815260208120601f850160051c810160208610156128c95750805b601f850160051c820191505b8181101561157c578281556001016128d5565b505050565b815167ffffffffffffffff811115612907576129076122d7565b61291b816129158454612868565b846128a2565b602080601f83116001811461295057600084156129385750858301515b600019600386901b1c1916600185901b17855561157c565b600085815260208120601f198616915b8281101561297f57888601518255948401946001909101908401612960565b508582101561299d5787850151600019600388901b60f8161c191681555b5050505050600190811b01905550565b6020808252602a908201527f455243323938313a20726f79616c7479206665652077696c6c206578636565646040820152692073616c65507269636560b01b606082015260800190565b6000808454612a0581612868565b60018281168015612a1d5760018114612a3257612a61565b60ff1984168752821515830287019450612a61565b8860005260208060002060005b85811015612a585781548a820152908401908201612a3f565b50505082870194505b505050508351612a75818360208801612239565b01949350505050565b60208082526025908201527f455243313135353a207472616e7366657220746f20746865207a65726f206164604082015264647265737360d81b606082015260800190565b6020808252602a908201527f455243313135353a20696e73756666696369656e742062616c616e636520666f60408201526939103a3930b739b332b960b11b606082015260800190565b808201808211156105d2576105d26127d7565b604081526000612b3360408301856125b3565b8281036020840152612b4581856125b3565b95945050505050565b6001600160a01b0386811682528516602082015260a060408201819052600090612b7a908301866125b3565b8281036060840152612b8c81866125b3565b90508281036080840152612ba0818561225d565b98975050505050505050565b600060208284031215612bbe57600080fd5b815161138f816121bc565b600060033d1115612be25760046000803e5060005160e01c5b90565b600060443d1015612bf35790565b6040516003193d81016004833e81513d67ffffffffffffffff8160248401118184111715612c2357505050505090565b8285019150815181811115612c3b5750505050505090565b843d8701016020828501011115612c555750505050505090565b612c64602082860101876122ed565b509095945050505050565b60208082526028908201527f455243313135353a204552433131353552656365697665722072656a656374656040820152676420746f6b656e7360c01b606082015260800190565b6001600160a01b03868116825285166020820152604081018490526060810183905260a060808201819052600090612cf19083018461225d565b97965050505050505056fea2646970667358221220c4dd483265ff015366a511904b36345acc2703e45cc949550a4b18de73d3d4d964736f6c63430008110033",
  "devdoc": {
    "author": "Yuri Fernandes (HorizonDAO)",
    "events": {
      "RealEstateNFTBurned(uint256,address,uint256)": {
        "details": "Emitted when reNFTs are burned"
      },
      "RealEstateNFTMinted(uint256,address,address,uint256)": {
        "details": "Emitted when new reNFTs are minted"
      },
      "SetBurner(address,address)": {
        "details": "Emitted when a new burner is set"
      },
      "SetMinter(address,address)": {
        "details": "Emitted when a new minter is set"
      }
    },
    "kind": "dev",
    "methods": {
      "approve(uint256,address,uint256)": {
        "params": {
          "_amount": "Amount allowed",
          "_spender": "Spender address",
          "_tokenId": "Collection ID"
        }
      },
      "balanceOf(address,uint256)": {
        "details": "See {IERC1155-balanceOf}. Requirements: - `account` cannot be the zero address."
      },
      "balanceOfBatch(address[],uint256[])": {
        "details": "See {IERC1155-balanceOfBatch}. Requirements: - `accounts` and `ids` must have the same length."
      },
      "burn(uint256,uint256)": {
        "details": "Burns own tokensRequires Burner role",
        "params": {
          "_amount": "Amount of tokens to burn",
          "_id": "Token ID"
        }
      },
      "constructor": {
        "details": "Initialize RealEstateNFT",
        "params": {
          "_admin": "Address with contract administration privileges",
          "_baseUri": "Base URI for the offchain NFT metadata",
          "_owner": "EOA to be used as OpenSea token admin"
        }
      },
      "exists(uint256)": {
        "details": "Indicates whether any token exist with a given id, or not."
      },
      "isApprovedForAll(address,address)": {
        "details": "See {IERC1155-isApprovedForAll}."
      },
      "isOwner(address)": {
        "returns": {
          "_0": "true if the caller is the current owner."
        }
      },
      "mint(uint256,address,uint256)": {
        "details": "Mint new reNFT tokensRequires Minter role",
        "params": {
          "_amount": "Amount to mint",
          "_id": "Token ID",
          "_to": "Address to transfer minted tokens"
        }
      },
      "royaltyInfo(uint256,uint256)": {
        "details": "Returns how much royalty is owed and to whom, based on a sale price that may be denominated in any unit of exchange. The royalty amount is denominated and should be paid in that same unit of exchange."
      },
      "safeBatchTransferFrom(address,address,uint256[],uint256[],bytes)": {
        "details": "xref:ROOT:erc1155.adoc#batch-operations[Batched] version of {safeTransferFrom}. Emits a {TransferBatch} event. Requirements: - `ids` and `amounts` must have the same length. - If `to` refers to a smart contract, it must implement {IERC1155Receiver-onERC1155BatchReceived} and return the acceptance magic value."
      },
      "safeTransferFrom(address,address,uint256,uint256,bytes)": {
        "details": "Transfers `amount` tokens of token type `id` from `from` to `to`. Emits a {TransferSingle} event. Requirements: - `to` cannot be the zero address. - If the caller is not `from`, it must have been approved to spend ``from``'s tokens via {setApprovalForAll}. - `from` must have a balance of tokens of type `id` of at least `amount`. - If `to` refers to a smart contract, it must implement {IERC1155Receiver-onERC1155Received} and return the acceptance magic value."
      },
      "setAdmin(address)": {
        "details": "Set new admin role",
        "params": {
          "_admin": "New admin address"
        }
      },
      "setApprovalForAll(address,bool)": {
        "details": "See {IERC1155-setApprovalForAll}."
      },
      "setBaseURI(string)": {
        "details": "Sets `baseURI` as the `_baseURI` for all tokens",
        "params": {
          "_baseURI": "Base URI to be prepended to the token URI"
        }
      },
      "setBurner(address)": {
        "details": "Set new burner role",
        "params": {
          "_burner": "New burner address"
        }
      },
      "setContractURI(string)": {
        "details": "Restricted access function which updates the contract URI",
        "params": {
          "_contractURI": "new contract URI to set"
        }
      },
      "setDefaultRoyalty(address,uint96)": {
        "details": "Set the default royalties info (for all token IDs)",
        "params": {
          "_feeNumerator": "Fee in basis points",
          "_receiver": "Address of the royalties receiver"
        }
      },
      "setMinter(address)": {
        "details": "Set new minter role",
        "params": {
          "_minter": "New minter address"
        }
      },
      "setTokenRoyalty(uint256,address,uint96)": {
        "details": "Set royalties info for a specific token ID",
        "params": {
          "_feeNumerator": "Fee in basis points",
          "_receiver": "Address of the royalties receiver",
          "_tokenId": "Token"
        }
      },
      "setURI(uint256,string)": {
        "details": "Sets `tokenURI` as the tokenURI of `tokenId`.",
        "params": {
          "_tokenId": "ID of the token",
          "_tokenURI": "URI of the token (will be prepended by _baseURI when uri function is called)"
        }
      },
      "supportsInterface(bytes4)": {
        "details": "See {IERC165-supportsInterface}."
      },
      "totalSupply(uint256)": {
        "details": "Total amount of tokens in with a given id."
      },
      "transferOwnership(address)": {
        "details": "Restricted access function to set smart contract \"owner\"      Note: an \"owner\" set doesn't have any authority, and cannot even update \"owner\"",
        "params": {
          "_owner": "new \"owner\" of the smart contract"
        }
      },
      "uri(uint256)": {
        "details": "See {IERC1155MetadataURI-uri}. This implementation returns the concatenation of the `_baseURI` and the token-specific uri if the latter is set This enables the following behaviors: - if `_tokenURIs[tokenId]` is set, then the result is the concatenation   of `_baseURI` and `_tokenURIs[tokenId]` (keep in mind that `_baseURI`   is empty per default); - if `_tokenURIs[tokenId]` is NOT set then we fallback to `super.uri()`   which in most cases will contain `ERC1155._uri`; - if `_tokenURIs[tokenId]` is NOT set, and if the parents do not have a   uri value set, then the result is empty."
      }
    },
    "stateVariables": {
      "_currentId": {
        "details": "Current value shows the next available token ID"
      },
      "burner": {
        "details": "Address of the burner: Can execute burning functions"
      },
      "minter": {
        "details": "Address of the minter: Can execute mint function"
      }
    },
    "title": "Real Estate NFT",
    "version": 1
  },
  "userdoc": {
    "kind": "user",
    "methods": {
      "approve(uint256,address,uint256)": {
        "notice": "Approve a spender to transfer tokens"
      },
      "contractURI()": {
        "notice": "Contract level metadata to define collection name, description, and royalty fees.         see https://docs.opensea.io/docs/contract-level-metadata"
      },
      "feeDenominator()": {
        "notice": "The denominator of which will be used to calculate the fee (feeNumerator/feeDenominator)"
      },
      "isOwner(address)": {
        "notice": "Checks if the address supplied is an \"owner\" of the smart contract      Note: an \"owner\" doesn't have any authority on the smart contract and is \"nominal\""
      },
      "name()": {
        "notice": "Returns the name of the RealEstateERC1155 contract"
      },
      "nextRealEstateId()": {
        "notice": "Returns the ID of the next available reNFT"
      },
      "symbol()": {
        "notice": "Returns the symbol of the RealEstateERC1155 contract"
      }
    },
    "notice": "Used to Tokenize and Fractionate Real EstateOnly minter can mint tokens and set token metadataNew tokens should be minted by incrementing the tokenId by 1",
    "version": 1
  },
  "storageLayout": {
    "storage": [
      {
        "astId": 1684,
        "contract": "contracts/token/RealEstateERC1155.sol:RealEstateERC1155",
        "label": "_defaultRoyaltyInfo",
        "offset": 0,
        "slot": "0",
        "type": "t_struct(RoyaltyInfo)1681_storage"
      },
      {
        "astId": 1689,
        "contract": "contracts/token/RealEstateERC1155.sol:RealEstateERC1155",
        "label": "_tokenRoyaltyInfo",
        "offset": 0,
        "slot": "1",
        "type": "t_mapping(t_uint256,t_struct(RoyaltyInfo)1681_storage)"
      },
      {
        "astId": 47,
        "contract": "contracts/token/RealEstateERC1155.sol:RealEstateERC1155",
        "label": "_balances",
        "offset": 0,
        "slot": "2",
        "type": "t_mapping(t_uint256,t_mapping(t_address,t_uint256))"
      },
      {
        "astId": 53,
        "contract": "contracts/token/RealEstateERC1155.sol:RealEstateERC1155",
        "label": "_operatorApprovals",
        "offset": 0,
        "slot": "3",
        "type": "t_mapping(t_address,t_mapping(t_address,t_bool))"
      },
      {
        "astId": 55,
        "contract": "contracts/token/RealEstateERC1155.sol:RealEstateERC1155",
        "label": "_uri",
        "offset": 0,
        "slot": "4",
        "type": "t_string_storage"
      },
      {
        "astId": 1577,
        "contract": "contracts/token/RealEstateERC1155.sol:RealEstateERC1155",
        "label": "_baseURI",
        "offset": 0,
        "slot": "5",
        "type": "t_string_storage"
      },
      {
        "astId": 1581,
        "contract": "contracts/token/RealEstateERC1155.sol:RealEstateERC1155",
        "label": "_tokenURIs",
        "offset": 0,
        "slot": "6",
        "type": "t_mapping(t_uint256,t_string_storage)"
      },
      {
        "astId": 1417,
        "contract": "contracts/token/RealEstateERC1155.sol:RealEstateERC1155",
        "label": "_totalSupply",
        "offset": 0,
        "slot": "7",
        "type": "t_mapping(t_uint256,t_uint256)"
      },
      {
        "astId": 5811,
        "contract": "contracts/token/RealEstateERC1155.sol:RealEstateERC1155",
        "label": "_allowances",
        "offset": 0,
        "slot": "8",
        "type": "t_mapping(t_uint256,t_mapping(t_address,t_mapping(t_address,t_uint256)))"
      },
      {
        "astId": 5495,
        "contract": "contracts/token/RealEstateERC1155.sol:RealEstateERC1155",
        "label": "owner",
        "offset": 0,
        "slot": "9",
        "type": "t_address"
      },
      {
        "astId": 5498,
        "contract": "contracts/token/RealEstateERC1155.sol:RealEstateERC1155",
        "label": "admin",
        "offset": 0,
        "slot": "10",
        "type": "t_address"
      },
      {
        "astId": 5501,
        "contract": "contracts/token/RealEstateERC1155.sol:RealEstateERC1155",
        "label": "contractURI",
        "offset": 0,
        "slot": "11",
        "type": "t_string_storage"
      },
      {
        "astId": 5243,
        "contract": "contracts/token/RealEstateERC1155.sol:RealEstateERC1155",
        "label": "minter",
        "offset": 0,
        "slot": "12",
        "type": "t_address"
      },
      {
        "astId": 5246,
        "contract": "contracts/token/RealEstateERC1155.sol:RealEstateERC1155",
        "label": "burner",
        "offset": 0,
        "slot": "13",
        "type": "t_address"
      },
      {
        "astId": 5250,
        "contract": "contracts/token/RealEstateERC1155.sol:RealEstateERC1155",
        "label": "_currentId",
        "offset": 0,
        "slot": "14",
        "type": "t_struct(Counter)2270_storage"
      }
    ],
    "types": {
      "t_address": {
        "encoding": "inplace",
        "label": "address",
        "numberOfBytes": "20"
      },
      "t_bool": {
        "encoding": "inplace",
        "label": "bool",
        "numberOfBytes": "1"
      },
      "t_mapping(t_address,t_bool)": {
        "encoding": "mapping",
        "key": "t_address",
        "label": "mapping(address => bool)",
        "numberOfBytes": "32",
        "value": "t_bool"
      },
      "t_mapping(t_address,t_mapping(t_address,t_bool))": {
        "encoding": "mapping",
        "key": "t_address",
        "label": "mapping(address => mapping(address => bool))",
        "numberOfBytes": "32",
        "value": "t_mapping(t_address,t_bool)"
      },
      "t_mapping(t_address,t_mapping(t_address,t_uint256))": {
        "encoding": "mapping",
        "key": "t_address",
        "label": "mapping(address => mapping(address => uint256))",
        "numberOfBytes": "32",
        "value": "t_mapping(t_address,t_uint256)"
      },
      "t_mapping(t_address,t_uint256)": {
        "encoding": "mapping",
        "key": "t_address",
        "label": "mapping(address => uint256)",
        "numberOfBytes": "32",
        "value": "t_uint256"
      },
      "t_mapping(t_uint256,t_mapping(t_address,t_mapping(t_address,t_uint256)))": {
        "encoding": "mapping",
        "key": "t_uint256",
        "label": "mapping(uint256 => mapping(address => mapping(address => uint256)))",
        "numberOfBytes": "32",
        "value": "t_mapping(t_address,t_mapping(t_address,t_uint256))"
      },
      "t_mapping(t_uint256,t_mapping(t_address,t_uint256))": {
        "encoding": "mapping",
        "key": "t_uint256",
        "label": "mapping(uint256 => mapping(address => uint256))",
        "numberOfBytes": "32",
        "value": "t_mapping(t_address,t_uint256)"
      },
      "t_mapping(t_uint256,t_string_storage)": {
        "encoding": "mapping",
        "key": "t_uint256",
        "label": "mapping(uint256 => string)",
        "numberOfBytes": "32",
        "value": "t_string_storage"
      },
      "t_mapping(t_uint256,t_struct(RoyaltyInfo)1681_storage)": {
        "encoding": "mapping",
        "key": "t_uint256",
        "label": "mapping(uint256 => struct ERC2981.RoyaltyInfo)",
        "numberOfBytes": "32",
        "value": "t_struct(RoyaltyInfo)1681_storage"
      },
      "t_mapping(t_uint256,t_uint256)": {
        "encoding": "mapping",
        "key": "t_uint256",
        "label": "mapping(uint256 => uint256)",
        "numberOfBytes": "32",
        "value": "t_uint256"
      },
      "t_string_storage": {
        "encoding": "bytes",
        "label": "string",
        "numberOfBytes": "32"
      },
      "t_struct(Counter)2270_storage": {
        "encoding": "inplace",
        "label": "struct Counters.Counter",
        "members": [
          {
            "astId": 2269,
            "contract": "contracts/token/RealEstateERC1155.sol:RealEstateERC1155",
            "label": "_value",
            "offset": 0,
            "slot": "0",
            "type": "t_uint256"
          }
        ],
        "numberOfBytes": "32"
      },
      "t_struct(RoyaltyInfo)1681_storage": {
        "encoding": "inplace",
        "label": "struct ERC2981.RoyaltyInfo",
        "members": [
          {
            "astId": 1678,
            "contract": "contracts/token/RealEstateERC1155.sol:RealEstateERC1155",
            "label": "receiver",
            "offset": 0,
            "slot": "0",
            "type": "t_address"
          },
          {
            "astId": 1680,
            "contract": "contracts/token/RealEstateERC1155.sol:RealEstateERC1155",
            "label": "royaltyFraction",
            "offset": 20,
            "slot": "0",
            "type": "t_uint96"
          }
        ],
        "numberOfBytes": "32"
      },
      "t_uint256": {
        "encoding": "inplace",
        "label": "uint256",
        "numberOfBytes": "32"
      },
      "t_uint96": {
        "encoding": "inplace",
        "label": "uint96",
        "numberOfBytes": "12"
      }
    }
  }
}